:100000000C9409010C9407290C94E0280C943101FC
:100010000C9431010C9431010C9431010C94310198
:100020000C9431010C9431010C9431010C94310188
:100030000C9431010C9431010C9431010C94310178
:100040000C9496280C9431010C9464280C943E284E
:100050000C9431010C9431010C9431010C94310158
:100060000C942E290C9431014469676974616C57B2
:1000700072697465206D657373616765005375639C
:10008000636573732120436F6E6E656374656420CE
:10009000776974682069703A20004661696C7572EE
:1000A0006521205265636F6E6E656374696F6E675C
:1000B0002E2E2E00496E697469616C697A696E67CB
:1000C00020636F6E6E656374696F6E207769746804
:1000D00020646E73207365727665723A005365749E
:1000E00054696D6544696D6D6572206D65737361EA
:1000F000676500526561642074656D70206D65737D
:100100007361676521005265616420656E65726781
:1001100079206D6573736167652100546573742080
:100120006D6573736167652100467261676D656E09
:10013000746174696F6E206C6576656C3A20002D71
:100140002D2D2D2D2D2D2D00436C69656E7420688D
:10015000617320646973636F6E6E65637465642E8A
:1001600000436C69656E742068617320636F6E6E06
:100170006563746564210048656C6C6F00506F7333
:1001800074706F6E6564207461736B2064696D6D4B
:10019000657200005EBCE2613FDD83C29C7E20A3ED
:1001A000FD1F41009D23BE46DB65F88C11AF32CAAE
:1001B00057E97400000000240027002A0000000016
:1001C00000250028002B00000000080002010000AC
:1001D00003040700000000000000000000000023EE
:1001E000002600290004040404040404040202029A
:1001F0000202020303030303030102040810204068
:100200008001020408102001020408102000492A7D
:10021000993611241FBECFEFD8E0DEBFCDBF13E06B
:10022000A0E0B1E0E6E0F7E702C005900D92AA3148
:10023000B107D9F725E0AAE1B3E001C01D92A137CB
:10024000B207E1F711E0C8E0D1E004C02197FE0158
:100250000E94553BC730D107C9F70E94432D0C942B
:10026000763B0C9400008CBD9DBD089520E3FC01FD
:1002700020833296862F82958F706F706A3030F4AB
:10028000605D6293682F8111F5CF0895695CF9CFA5
:100290008230B8F4E82FF0E0EE0FFF1FEE5FFE4F64
:1002A00071836083813039F080916900836080932D
:1002B0006900E89A0895809169008C6080936900D4
:1002C000E99A0895FC01818D928D08950895AF9269
:1002D000BF92CF92DF92EF92FF920F931F93CF9333
:1002E000DF936C017B018B01040F151FEB015E0195
:1002F000AE18BF08C017D10759F06991D601ED912A
:10030000FC910190F081E02DC6010995892B79F7C8
:10031000C501DF91CF911F910F91FF90EF90DF907A
:10032000CF90BF90AF900895FC01538D448D252F41
:1003300030E0842F90E0821B930B541710F0CF967F
:10034000089501970895FC01918D828D981761F0B1
:10035000A28DAE0FBF2FB11D5D968C91928D9F5FC8
:100360009F73928F90E008958FEF9FEF0895FC01A7
:10037000918D828D981731F0828DE80FF11D858D5A
:1003800090E008958FEF9FEF0895FC01918D228DED
:10039000892F90E0805C9F4F821B91098F73992772
:1003A0000895FC01A48DA80FB92FB11DA35ABF4F0A
:1003B0002C91848D90E001968F739927848FA68964
:1003C000B7892C93A089B1898C91837080648C93B8
:1003D000938D848D981306C00288F389E02D808167
:1003E0008F7D80830895EF92FF920F931F93CF9399
:1003F000DF93EC0181E0888F9B8D8C8D98131AC060
:10040000E889F989808185FF15C09FB7F894EE8946
:10041000FF896083E889F9898081837080648083A3
:100420009FBF81E090E0DF91CF911F910F91FF90EE
:10043000EF900895F62E0B8D10E00F5F1F4F0F7396
:100440001127E02E8C8D8E110CC00FB607FCFACF51
:10045000E889F989808185FFF5CFCE010E94D1011D
:10046000F1CFEB8DEC0FFD2FF11DE35AFF4FF08222
:100470009FB7F8940B8FEA89FB8980818062CFCF88
:100480000F931F93CF93DF938C01D0E0C0E0F8016E
:10049000EC0FFD1F6491662341F08FE494E00E940D
:1004A000F301892B11F02196F2CFCE01DF91CF918C
:1004B0001F910F910895CF93DF93EC01888D8823CE
:1004C000B9F0AA89BB89E889F9898C9185FD03C0B7
:1004D000808186FD0DC00FB607FCF7CF8C9185FF9C
:1004E000F2CF808185FFEDCFCE010E94D101E9CF0F
:1004F000DF91CF91089590E0FC01E953FE4F2491E4
:10050000FC01E750FE4F3491FC01EB51FE4FE491AA
:10051000EE23C9F0222339F0233001F1A8F4213071
:1005200019F1223029F1F0E0EE0FFF1FE354FE4FE6
:10053000A591B4918FB7F894EC91611126C03095D4
:100540003E233C938FBF08952730A9F02830C9F08F
:10055000243049F7809180008F7D03C08091800016
:100560008F7780938000DFCF84B58F7784BDDBCF1A
:1005700084B58F7DFBCF8091B0008F778093B000E2
:10058000D2CF8091B0008F7DF9CF3E2BDACFCF93C1
:10059000DF9390E0FC01E750FE4F24918B519E4F7A
:1005A000FC0184918823C9F090E0880F991FFC0119
:1005B000ED54FE4FA591B491FC01E354FE4FC5915B
:1005C000D49161110DC09FB7F8948C91209582232E
:1005D0008C938881282328839FBFDF91CF91089532
:1005E000623051F49FB7F8943C91822F8095832319
:1005F0008C93E8812E2BEFCF8FB7F894EC912E2BB4
:100600002C938FBFEACF3FB7F89480912604909146
:100610002704A0912804B091290426B5A89B05C001
:100620002F3F19F00196A11DB11D3FBFBA2FA92F71
:10063000982F8827BC01CD01620F711D811D911D6E
:1006400042E0660F771F881F991F4A95D1F70895DA
:100650008F929F92AF92BF92CF92DF92EF92FF92D2
:100660006B017C010E9403034B015C01C114D104A6
:10067000E104F104B9F00E940303681979098A09B9
:100680009B09683E73408105910580F321E0C21A01
:10069000D108E108F10888EE880E83E0981EA11CBD
:1006A000B11CE4CFFF90EF90DF90CF90BF90AF9060
:1006B0009F908F9008952FB7F894609122047091C5
:1006C000230480912404909125042FBF0895089558
:1006D00085ED8093BC008091BC0084FDFCCF10921E
:1006E000FB0308952091D703260F3327331F2132B0
:1006F0003105ECF42091FB03FC0190E080E0243014
:1007000069F082E00895A091D7032191AC0149548A
:100710005C4FA40FB52FB11D2C930196861798F34B
:100720008091D703680F6093D70380E0089581E03C
:1007300008958FEF9FEF08958FEF9FEF08958091B9
:10074000B60390E09195819591090895CF93DF9339
:10075000CB01EA01642F0E947203CE01DF91CF9199
:100760000895CF93DF931F92CDB7DEB7698361E021
:10077000CE0101960E94720381E090E00F90DF911C
:10078000CF910895DC0180E0615090F09D91982711
:10079000E92FEF70F0E0ED56FE4F2491E92FE2953E
:1007A000EF70F0E0ED55FE4FE491822F8E27ECCFF5
:1007B0000895DC012C911196ED91FC91F8948181C2
:1007C000822B81839281322F30959323928387E00D
:1007D00090E00197F1F781818323818383E290E0A8
:1007E0000197F1F790817894EFECF0E03197F1F711
:1007F000922381E009F480E00895FC01908101805A
:10080000F281E02D292F209560FF14C0F894828199
:10081000822382838181892B8183A3E2B0E01197B7
:10082000F1F78281982B9283789487ED90E001977D
:10083000F1F70895F8948281822382838181892B44
:100840008183AFEFB0E01197F1F78281982B92830B
:1008500078948FE090E0EBCFDF92EF92FF920F93CE
:100860001F93CF93DF93EC01D62EE42E08E010E027
:10087000FF24F39461E08D2D8F2109F460E0CE0117
:100880000E94FD03FF0C01501109A1F7E11010C0F7
:10089000F894E981FA819181888180958923818307
:1008A000E981FA8192818881809589238283789475
:1008B000DF91CF911F910F91FF90EF90DF900895FE
:1008C000EF92FF920F931F93CF93DF938C017B01E5
:1008D00040E065E50E942C04E70188E0E80EF11C89
:1008E000699140E0C8010E942C04CE15DF05C1F7D4
:1008F000DF91CF911F910F91FF90EF900895FC0130
:1009000090810180F281E02DF8948181292F20953A
:100910008223818378943DE743E050E0315029F110
:10092000DA011197F1F780818923C1F3F89482816C
:10093000822382838181892B81837894ABE7B7E01E
:100940001197F1F7F894818182238183A3E1B1E0CB
:100950001197F1F78081982381E009F080E0789485
:10096000E3E6F6E03197F1F7089580E008956F929D
:100970007F928F929F92AF92BF92CF92DF92EF922F
:10098000FF920F931F93CF93DF938C01EB01809124
:100990002B0590912C050E947F04882309F43FC009
:1009A000B80180912B0590912C050E94600440E0D5
:1009B0006EEB80912B0590912C050E942C047E01FA
:1009C0006E0189E0C80ED11C8E01A0902B05B0905D
:1009D0002C0588E0882E912C712C66246394C50127
:1009E0000E94D90381117628660CE1E08E1A9108E5
:1009F000B1F7F80171928F01CE16DF0631F78091C1
:100A00002B0590912C050E947F04813041F4F70161
:100A100081917F01811105C0E017F107C1F790E0D6
:100A200008C068E0CE010E94C20391E02885281327
:100A3000F6CF892FDF91CF911F910F91FF90EF900B
:100A4000DF90CF90BF90AF909F908F907F906F90EE
:100A50000895CF93DF93CDB7DEB729970FB6F894FB
:100A6000DEBF0FBECDBFBE016F5F7F4F0E94B704D8
:100A7000882331F08D818F33A9F020F48F31A1F0DC
:100A800080E007C08F3521F08F37D1F78CE001C0AF
:100A90008BE029960FB6F894DEBF0FBECDBFDF9175
:100AA000CF9108958AE0F5CF89E0F3CFFC01208152
:100AB0002EBD9B012150310941F051810DB407FE3B
:100AC000FDCF4EB55EBD4193F5CF61507109860FE4
:100AD000971F0DB407FEFDCF2EB5FC0120830895AE
:100AE000E091B403F091B50380819091B303892B19
:100AF00080830895E091B403F091B50390818091D3
:100B0000B30380958923808308958EBD00000DB4C2
:100B100007FEFDCF8EB50895AF92BF92CF92DF92C0
:100B2000EF92FF920F931F93CF93DF93CDB7DEB772
:100B300028970FB6F894DEBF0FBECDBF8C017B01A6
:100B40006A0180914E048333E1F45801A40EB51E6E
:100B5000A016B10609F46FC00E947A0580EF0E94CA
:100B60008505812F0E948505802F0E9485050F5FD6
:100B70001F4FF70181917F010E9485050E9470053A
:100B8000E7CF5B01A40EB51E8433C1F40E947A0541
:100B900019830A838D2D80688B83CC8264E070E09A
:100BA000CE0101960E945605AE14BF0409F441C05F
:100BB000F70181917F010E948505F6CF0E947A0599
:100BC0000F3F110509F028F419820A8384E08B8312
:100BD0000CC017FD17C019820A8333E016950795DC
:100BE0003A95E1F7007E0C600B8386E0C816D104CD
:100BF000A0F5F701DE011496EA15FB0599F0819145
:100C00008D93FACFC80126E0969587952A95E1F74E
:100C1000807E19830A830115104C10F48461D7CFAC
:100C20008C61D5CFB6016D5F7F4FCE0101960E94DA
:100C300056050E947005C60128960FB6F894DEBFCF
:100C40000FBECDBFDF91CF911F910F91FF90EF901D
:100C5000DF90CF90BF90AF90089563E070E0CE0139
:100C600001960E945605F70181917F010E9485053A
:100C7000AE14BF04C1F7DDCFCF93DF931F92CDB782
:100C8000DEB7898341E050E0BE016F5F7F4F90E0A7
:100C900080E00E948C050F90DF91CF91089590E045
:100CA00020914E04233339F40C96982F990F990F05
:100CB000990F80E008954896F8CFDA01E091B203E9
:100CC000F0E0FE2FEE27E60FF71F90E0982F882721
:100CD000A901BD018E0F9F1F0C948C05CF93DF934C
:100CE00000D0CDB7DEB779836A8322E030E0AE0171
:100CF0004F5F5F4F60E170E00E945D060F900F90C4
:100D0000DF91CF910895CF93DF9300D0CDB7DEB7B9
:100D100079836A8322E030E0AE014F5F5F4F64E089
:100D200070E00E945D060F900F90DF91CF910895C3
:100D3000CF93DF931F92CDB7DEB72091B20330E09F
:100D4000322F2227260F371F90E0982F88274983BC
:100D500041E050E0BE016F5F7F4F820F931F0E9402
:100D60008C050F90DF91CF910895CF93DF931F9261
:100D7000CDB7DEB76983DC01ED91FC910280F38190
:100D8000E02D41E050E0BE016F5F7F4F09950F906D
:100D9000DF91CF910895CF93DF931F92CDB7DEB748
:100DA0006983DC01ED91FC910280F381E02D41E04B
:100DB00050E0BE016F5F7F4F09950F90DF91CF919B
:100DC0000895FC019485FB018485981303C081E09C
:100DD000943008F080E00895CF93DF931F92CDB751
:100DE000DEB76983DC01ED91FC910280F381E02D97
:100DF00041E050E0BE016F5F7F4F09950F90DF919A
:100E0000CF9108950895FF920F931F93CF93DF938F
:100E1000EB01FC01178A168A2A81211109C02B8156
:100E2000211106C02C81211103C02D81222301F143
:100E300041155105E9F08A01FC01F08C80E591E053
:100E40000E943301AE014E5F5F4F24E030E06CE062
:100E500070E08F2D0E945D06B8018F2D0E946E06F6
:100E600081E090E0DF91CF911F910F91FF90089565
:100E700080E0F7CFFC01848595850895FC01848985
:100E8000958908952AEB32E0FC0131832083FB0130
:100E90004089518962897389FC0142835383648349
:100EA00075830895DC01ED91FC91048CF58DE02DA6
:100EB00009940F931F93660F771FFC01E60FF71F2E
:100EC000220F331FDA01A20FB31F90E080E08017DA
:100ED000910734F4219131912D933D930196F7CFF1
:100EE0001F910F910895DF92EF92FF920F931F933E
:100EF000CF93DF93F90136E0369FE001379FD00DA5
:100F000011243E9F70013F9FF00C112430E020E03F
:100F100070E060E060177107BCF4D901AE0DBF1D31
:100F2000A40FB51FF901EC0FFD1FE80FF91F0F2EDD
:100F3000F6E0DF2EF02D01900D92DA94E1F76F5F6D
:100F40007F4F2A5F3F4FE6CFDF91CF911F910F91E7
:100F5000FF90EF90DF90089590E080E00895DC012D
:100F600014962D913C911597621773074CF4ED91EF
:100F7000FC91028CF38DE02D0995BC0181E0089570
:100F800060E070E080E0089508970C94AF07DC0102
:100F9000ED91FC910190F081E02D099408970C945B
:100FA000C707FC0186819781880F991F0895CF920A
:100FB000DF92EF92FF920F931F93CF93DF936C0119
:100FC000EB01DC01ED91FC910190F081E02D0995A0
:100FD0007C01F601048115810150110915830483F8
:100FE000828193810C1B1D0BBE016F5F7F4F9E01A1
:100FF000AC010E945907C701DF91CF911F910F915A
:10100000FF90EF90DF90CF900895DC0114962D9122
:101010003C911597621773074CF4ED91FC91008891
:10102000F189E02D0995BC0181E0089560E070E050
:1010300080E00895CF92DF92EF92FF920F931F937B
:10104000CF93DF937C018B01D0E0C0E0D801ED911C
:10105000FC910488F589E02DC8010995C817D907C6
:10106000A4F4D701ED91FC91C680D780D801ED9111
:10107000FC910190F081E02DBE01C8010995BC01F1
:10108000C701F60109952196E1CFDF91CF911F911C
:101090000F91FF90EF90DF90CF900895FC01248195
:1010A0003581121613067CF42150310935832483CF
:1010B000220F331F0280F381E02DE20FF31F6081C6
:1010C000718181E0089560E070E080E00895FC01A6
:1010D00024813581621773075CF4660F771F828164
:1010E0009381680F791FFB015183408380E008954D
:1010F00081E00895DC0114962D913C9115976217BB
:10110000730744F4ED91FC91028CF38DE02D099569
:1011100091E0089580E090E0089508970C947A0893
:10112000DC01ED91FC910190F081E02D099408978C
:101130000C949008FC01868197810895DC01149637
:101140002D913C9115976217730744F4ED91FC9132
:101150000088F189E02D099591E0089580E090E004
:101160000895CF92DF92EF92FF920F931F93CF9348
:10117000DF937C018B01D0E0C0E0D801ED91FC91C0
:101180000488F589E02DC8010995C817D907A4F48A
:10119000D701ED91FC91C680D780D801ED91FC91EB
:1011A0000190F081E02DBE01C8010995682FC701AB
:1011B000F60109952196E1CFDF91CF911F910F9113
:1011C000FF90EF90DF90CF900895FC01248135814E
:1011D0001216130664F42150310935832483828169
:1011E0009381280F391FF901808191E0089580E0F3
:1011F00090E00895DC0114962D913C9115976217AB
:10120000730744F41296ED91FC91E60FF71F4083AB
:1012100080E0089581E00895CF93DF93CDB7DEB7E6
:101220006A970FB6F894DEBF0FBECDBFDC011496EF
:101230002D913C911597621773070CF043C0ED9107
:10124000FC91028CF38DE02D09952F87388B498B0B
:101250005A8B6B8B7C8B86E0FE013F96DE015596A8
:1012600001900D928A95E1F786E0FE017596DE0108
:10127000119601900D928A95E1F781E08F8387E0C6
:10128000FE013196DE01189601900D928A95E1F7E4
:1012900087E0FE013896DE01119601900D928A9545
:1012A000E1F729813A814B815C816D817E818F815B
:1012B00090E06A960FB6F894DEBF0FBECDBFDF9107
:1012C000CF9108951A8219821C821B821E821D8270
:1012D0001F82E7CFCF93DF9300D000D000D01F92C2
:1012E000CDB7DEB7089727960FB6F894DEBF0FBECE
:1012F000CDBFDF91CF910C940C09CF93DF9300D039
:1013000000D000D0CDB7DEB7DC01ED91FC910190AB
:10131000F081E02D26960FB6F894DEBF0FBECDBF4C
:10132000DF91CF910994CF93DF9300D000D000D00C
:10133000CDB7DEB7089726960FB6F894DEBF0FBE7E
:10134000CDBFDF91CF910C947D09FC0186819781FF
:1013500026E0AC01249FC001259F900D1124089523
:10136000FC01848195810895CF92DF92EF92FF92E4
:101370000F931F93CF93DF93CDB7DEB72C970FB6A4
:10138000F894DEBF0FBECDBF7C016B01DC01ED9197
:10139000FC910190F081E02D09952F8338874987D2
:1013A0005A876B877C87F7010481158101501109E9
:1013B00015830483828193810C191D09B6016F5F27
:1013C0007F4F9601AC010E94730786E0FE013796BD
:1013D000DE01119601900D928A95E1F729813A81FB
:1013E0004B815C816D817E8180E090E02C960FB610
:1013F000F894DEBF0FBECDBFDF91CF911F910F914B
:10140000FF90EF90DF90CF900895CF93DF93CDB70B
:10141000DEB76A970FB6F894DEBF0FBECDBFDC0112
:1014200014962D913C911597621773070CF043C0E9
:10143000ED91FC910088F189E02D09952D8B3E8B73
:101440004F8B588F698F7A8F86E0FE017596DE018B
:101450001F9601900D928A95E1F786E0FE013F9676
:10146000DE01119601900D928A95E1F781E08F835C
:1014700087E0FE013196DE01189601900D928A9563
:10148000E1F787E0FE013896DE01119601900D929A
:101490008A95E1F729813A814B815C816D817E815A
:1014A0008F8190E06A960FB6F894DEBF0FBECDBF75
:1014B000DF91CF9108951A8219821C821B821E82AD
:1014C0001D821F82E7CFAF92BF92CF92DF92EF9241
:1014D000FF920F931F93CF93DF9300D000D000D0E3
:1014E000CDB7DEB76C017B0110E000E0D701ED91D4
:1014F000FC910488F589E02DC701099508171907A3
:10150000D4F4D601ED91FC91A680B780D701ED917E
:10151000FC910190F081E02DB801C7010995298364
:101520003A834B835C836D837E83C601F501099505
:101530000F5F1F4FDBCF26960FB6F894DEBF0FBEAE
:10154000CDBFDF91CF911F910F91FF90EF90DF9072
:10155000CF90BF90AF900895CF93DF93CDB7DEB714
:1015600064970FB6F894DEBF0FBECDBFDC011496B2
:101570002D913C91159712161306E4F5215031096F
:1015800015963C932E93149796E0929FA001939FFB
:10159000500D11241296ED91FC91E40FF51FDE0120
:1015A0001F96892F01900D928A95E1F7FE013F96D3
:1015B000DE01119601900D929A95E1F781E08F83FB
:1015C00087E0FE013196DE01189601900D928A9512
:1015D000E1F7288539854A855B856C857D858E8513
:1015E00090E064960FB6F894DEBF0FBECDBFDF91DA
:1015F000CF910895198618861B861A861D861C862B
:101600001E86E7CF0F931F93CF93DF9300D000D0B8
:1016100000D0CDB7DEB7FC0109831A832B833C834E
:101620004D835E838481958168177907E4F496E0A1
:10163000969F9001979F300D1124A281B381A20F34
:10164000B31FFE01319601900D929A95E1F780E06B
:1016500026960FB6F894DEBF0FBECDBFDF91CF91B7
:101660001F910F91089581E0F3CFCF93DF93EC01A9
:10167000DB01ED91FC910190F081E02D0995CE0107
:10168000DF91CF910895CF93DF93EC0168507109FA
:101690000E94350BCE01DF91CF910895FC01868128
:1016A000978124E0880F991F2A95E1F70895FB019F
:1016B00061E080810C947B0208950895FC01808193
:1016C0009181FB01918380830895DC01ED91FC9170
:1016D000DB018D919C9109940895FC018081918199
:1016E000FB01918380830895DC01ED91FC9130979B
:1016F00029F00280F381E02D0296099408950F935A
:101700001F93CF93DF93EC018B010E94740BF801C0
:1017100081919191DE018D939D9388E001900D92CE
:101720008A95E1F7CE01DF91CF911F910F91089536
:101730000F931F93CF93DF93FC012481358181E0C8
:1017400062177307E4F48A0184E0660F771F8A95B5
:10175000E1F7C281D381C60FD71FBA01CE010E9423
:101760007F0BF80182859385A485B5858A879B8741
:10177000AC87BD87868597859F878E8780E0DF91C0
:10178000CF911F910F910895CF92DF92EF92FF9228
:101790000F931F93CF93DF93E4E0220F331FEA955B
:1017A000E1F77A01E20EF31EF4E0660F771FFA9577
:1017B000E1F7EC01C60FD71FD12CC12CC016D10602
:1017C0001CF5C7010E94740BFE0181919191D70114
:1017D0008D939D9388E001900D928A95E1F78A851B
:1017E0009B85AC85BD85F70182879387A487B587E4
:1017F0008E859F8597878687FFEFCF1ADF0A80E166
:10180000E80EF11C6096DACFDF91CF911F910F9116
:10181000FF90EF90DF90CF900895CF92DF92EF92FC
:10182000FF920F931F93CF93DF937C016B01EA012B
:10183000DB01ED91FC910190F081E02D0995F6011D
:1018400004811581015011091583048382819381DC
:101850000C1B1D0BBE016F5F7F4F9E01AC010E94F0
:10186000C40BC701DF91CF911F910F91FF90EF90B3
:10187000DF90CF900895AF92BF92CF92DF92EF9218
:10188000FF920F931F93CF93DF93CDB7DEB760978F
:101890000FB6F894DEBF0FBECDBF6C017B0110E028
:1018A00000E0D701ED91FC910488F589E02DC70196
:1018B000099508171907ECF4D601ED91FC91A68063
:1018C000B780D701ED91FC910190F081E02DA80146
:1018D000B701CE0101960995BE016F5F7F4FC6012A
:1018E000F5010995CE0101960E94740B0F5F1F4F01
:1018F000D8CF60960FB6F894DEBF0FBECDBFDF9194
:10190000CF911F910F91FF90EF90DF90CF90BF90FC
:10191000AF900895CF93DF9300D000D000D0CDB723
:10192000DEB746E0469F9001479F300D1124DC0151
:101930001296ED91FC91E20FF31F86E0DE01119605
:1019400001900D928A95E1F729813A814B815C8162
:101950006D817E8180E090E026960FB6F894DEBF20
:101960000FBECDBFDF91CF910895660F771FDC01C9
:101970001296ED91FC91E60FF71F808191810895F9
:101980000F931F93CF93DF93EC018B01E881F981D3
:101990000190F081E02D09952C813D812150310984
:1019A0003D832C83201B310BEA81FB81E00FF11F6B
:1019B000AF01BF01641B750B621773071CF49181A3
:1019C0009193F7CFDF91CF911F910F910895DC0193
:1019D0001296ED91FC91E60FF71F80810895EF922A
:1019E000FF920F931F93CF93DF93EC017B018A81CA
:1019F0009B81892B39F0E881F9810484F585E02DFC
:101A0000CE010995D70112960D911C9113970115DE
:101A1000110599F01496ED90FC90E00EF11E0E1554
:101A20001F0559F0E881F9810680F781E02DD80182
:101A30006D918D01CE010995F2CFCE01DF91CF914D
:101A40001F910F91FF90EF900895CF93DF9300D0F7
:101A500000D000D0CDB7DEB726960FB6F894DEBF23
:101A60000FBECDBFDF91CF910C945B03CF93DF937B
:101A700000D000D000D0CDB7DEB726960FB6F894D0
:101A8000DEBF0FBECDBFDF91CF910C945B03CF9330
:101A9000DF9300D000D000D0CDB7DEB726960FB6CA
:101AA000F894DEBF0FBECDBFDF91CF910C945B03E6
:101AB000CF93DF9300D000D000D0CDB7DEB726960D
:101AC0000FB6F894DEBF0FBECDBFDF91CF910C945F
:101AD0005B03CF93DF9300D000D000D0CDB7DEB74B
:101AE00026960FB6F894DEBF0FBECDBFDF91CF9123
:101AF0000C945B03CF93DF9300D000D000D0CDB720
:101B0000DEB726960FB6F894DEBF0FBECDBFDF91CD
:101B1000CF910C945B03CF93DF9300D000D000D023
:101B2000CDB7DEB726960FB6F894DEBF0FBECDBF99
:101B3000DF91CF910C945B030F931F93FB012191D5
:101B40003191DC012D933D9328E001900D922A956F
:101B5000E1F7FB010285138524853585FC010287A9
:101B6000138724873587FB0126853785FC01378756
:101B700026871F910F9108950F931F93CF93DF93A3
:101B8000CDB7DEB760970FB6F894DEBF0FBECDBFFE
:101B90008C01DB0114968D919C911597481759077C
:101BA0000CF5ED91FC91028CF38DE02DCE010196A8
:101BB0000995BE016F5F7F4FC8010E949C0D81E0B7
:101BC000F801808BCE0101960E94740BC8016096CB
:101BD0000FB6F894DEBF0FBECDBFDF91CF911F913E
:101BE0000F910895D80111961C921E9250961C9246
:101BF000EDCFCF93DF93EC01685071090E94BC0DCB
:101C0000CE01DF91CF9108950F931F93CF93DF9370
:101C1000CDB7DEB7A0970FB6F894DEBF0FBECDBF2D
:101C20008C01DB0114968D919C91159748175907EB
:101C300064F5ED91FC910088F189E02DCE010196CB
:101C40000995BE016F5F7F4FCE0141960E949C0DAA
:101C5000BE016F5E7F4FC8010E949C0D81E0F801BC
:101C6000808BCE0141960E94740BCE0101960E949A
:101C7000740BC801A0960FB6F894DEBF0FBECDBF9F
:101C8000DF91CF911F910F910895D80111961C9269
:101C90001E9250961C92EDCF0F931F93CF93DF931C
:101CA000CDB7DEB760970FB6F894DEBF0FBECDBFDD
:101CB0008C01FB0184819581181619064CF501975A
:101CC0009583848324E0880F991F2A95E1F7628128
:101CD0007381680F791FCE0101960E949C0DBE0191
:101CE0006F5F7F4FC8010E949C0D81E0F801808BDF
:101CF000CE0101960E94740BC80160960FB6F8944D
:101D0000DEBF0FBECDBFDF91CF911F910F91089520
:101D1000F80111821082108AEFCFCF93DF93EC018C
:101D200084E0440F551F8A95E1F7FB0162817381BE
:101D3000640F751FCE010E949C0DCE01DF91CF91E3
:101D40000895FC01768765870895DC01ED91FC918B
:101D5000068CF78DE02D099591E089270895862F4F
:101D6000089581E08627089521E0FC018485843070
:101D700008F020E0822F0895089590E080E0089513
:101D8000BF92CF92DF92EF92FF920F931F93CF9368
:101D9000DF93EC01B62EC72E8D85811105C0CE01D3
:101DA0000E947F0481110EC01B861D861C8680E068
:101DB000DF91CF911F910F91FF90EF90DF90CF9027
:101DC000BF90089540E060EFCE010E942C0401E036
:101DD000E12CD12C11E0CE010E94D903F82ECE01C6
:101DE0000E94D90391E0F91218C0813099F511349D
:101DF000D8F2DB86D11002C081E08D878B818823E9
:101E000099F22396EB2DFC2DCF0108962991219371
:101E1000E817F907D9F781E0CBCFEE2DF0E0F81203
:101E20000FC08B851817A0F4DE01AE0FBF1F1396ED
:101E30008C91802379F4F12C193008F41C87D12E71
:101E4000EC0FFD1F8381902F9095892383830AC017
:101E50008113F1CFFE01EE0DF11D8381802B838371
:101E6000FF24F3946F2DCE010E94FD031F5F000F2E
:101E700011F4E39401E087E08E1508F0ACCFB7CF02
:101E8000FF920F931F93CF93DF938C01F62EE09177
:101E90002B05F0912C051386158614861286118663
:101EA000108617821682158214821382C0E0B80150
:101EB00080912B0590912C050E94C00ED82F88236D
:101EC00029F0FC1629F0CF5FFC1688F7D0E008C097
:101ED00067E0C8010E94C203F80197818913F3CF1C
:101EE0008D2FDF91CF911F910F91FF900895EF9269
:101EF000FF920F931F93CF93DF937B018A01E90138
:101F00008AE090E00E94BE36FC01F382E2821583F3
:101F10000483D783C68386E591E09183808388E735
:101F200091E091878087CF01DF91CF911F910F9131
:101F3000FF90EF9008956F927F928F929F92AF9251
:101F4000BF92CF92DF92EF92FF920F931F93CF93A6
:101F5000DF936C013B014A01E901C41BD50B7E01F3
:101F600085E0E80EF11CC701880F991FE114A0E479
:101F7000FA0610F08FEF9FEF0E94BE365C018E01D3
:101F800030E020E0AC01B401F301828193810E9432
:101F90005907D301ED91FC91008CF18DE02D970153
:101FA000AE01B501C3010995F60191838083C60195
:101FB000DF91CF911F910F91FF90EF90DF90CF9025
:101FC000BF90AF909F908F907F906F900895EF9209
:101FD000FF920F931F93CF93DF937B018A01E90157
:101FE0008AE090E00E94BE36FC01F382E282158313
:101FF0000483D783C68380EF91E09183808382E15D
:1020000092E091878087CF01DF91CF911F910F914F
:10201000FF90EF900895AF92BF92CF92DF92EF9230
:10202000FF920F931F93CF93DF937C018B015A0193
:10203000E901C41BD50B6E0185E0C80ED11CC60199
:102040000E94BE36D8011296ED91FC91EA0DFB1D5F
:10205000DC019D01281B390B2C173D071CF4219135
:102060002D93F7CFD801ED91FC91008CF18DE02DEF
:102070009601AE01BC01C8010995F70191838083E7
:10208000C701DF91CF911F910F91FF90EF90DF90EB
:10209000CF90BF90AF900895EF92FF920F931F9350
:1020A000CF93DF937B018A01E9018AE090E00E94EF
:1020B000BE36FC01F382E28215830483D783C68394
:1020C00080E892E09183808382EA92E09187808722
:1020D000CF01DF91CF911F910F91FF90EF90089565
:1020E0006F927F928F929F92AF92BF92CF92DF9228
:1020F000EF92FF920F931F93CF93DF935C017B01CD
:102100004A01E901C41BD50B6E0185E0C80ED11C44
:102110008FEF9FEFA6E5CA16A5E1DA0630F426E0B8
:102120002C9DC0012D9D900D11240E94BE363C01B6
:10213000CE010496F30197FD09C01182108213822B
:1021400012821582148236960197F5CF8E0130E007
:1021500020E0A301B401F701828193810E947307FB
:10216000D701ED91FC91008CF18DE02D9601AE012F
:10217000B301C7010995F50191838083C501DF9102
:10218000CF911F910F91FF90EF90DF90CF90BF9074
:10219000AF909F908F907F906F900895EF92FF92F5
:1021A0000F931F93CF93DF937B018A01E9018AE0AC
:1021B00090E00E94BE36FC01F382E2821583048324
:1021C000D783C68388E392E0918380838AE592E097
:1021D00091878087CF01DF91CF911F910F91FF9061
:1021E000EF9008956F927F928F929F92AF92BF92DD
:1021F000CF92DF92EF92FF920F931F93CF93DF93D3
:102200005C013B014A01E901C41BD50B6E0185E06D
:10221000C80ED11C8FEF9FEFC114A8E0DA0638F486
:10222000C60124E0880F991F2A95E1F702960E94C3
:10223000BE36FC01C192D1927F01CE01049697FD7A
:1022400005C01182108270960197F9CF8E0130E09F
:1022500020E0A701B401D30112968D919C910E94B8
:10226000C40BD301ED91FC91008CF18DE02D960112
:10227000AE01B701C3010995F50191838083C501C2
:10228000DF91CF911F910F91FF90EF90DF90CF9052
:10229000BF90AF909F908F907F906F900895CF9355
:1022A000DF93EC018AE090E00E94BE369C01265F3D
:1022B0003F4FFC011192E217F307E1F79B838A83FA
:1022C0001D821C828AE090E09F838E83DF91CF91F4
:1022D0000895CF93DF93EC018AE191E0998388839D
:1022E0001B821A821D821C821F821E82CE010E94C6
:1022F0004F1180EF91E09983888382E192E0998782
:102300008887DF91CF9108950F931F93CF93DF9329
:10231000EC01062F142F198218821B821A828AE17F
:1023200091E09D838C831F821E82198618861B86EE
:102330001A86CE0104960E944F1180EF91E09D8392
:102340008C8382E192E09D878C871E86602F70E0EF
:1023500079836883412F50E05B834A83DF91CF917B
:102360001F910F910895CF93DF93EC011D821C8282
:1023700084E190E00E94BE369C012C5E3F4FFC0140
:1023800011921192E217F307D9F79B838A838AE0AF
:1023900090E09F838E8386E591E09983888388E728
:1023A00091E099878887DF91CF910895FB01019093
:1023B0000020E9F73197AF01461B570BDC01ED9187
:1023C000FC910280F381E02D0994CF93DF930E946A
:1023D0004002EC016CEB72E08FE494E00E94D611B5
:1023E0008C0F9D1FDF91CF910895EF92FF920F9375
:1023F0001F93CF93DF937C018B0188E690E00E94CE
:10240000E511D0E0C0E0D80118968D919C91199704
:10241000C817D9075CF41696ED91FC91EC0FFD1FDF
:10242000618180810E947B022296EDCF48ECF80109
:102430006081C7010E948411C701DF91CF911F9174
:102440000F91FF90EF9008958F929F92AF92BF925D
:10245000EF92FF920F931F93CF93DF93CDB7DEB729
:10246000A1970FB6F894DEBF0FBECDBF7C01FA0175
:10247000CB0119A2223008F42AE08E010F5D1F4F14
:10248000822E912CB12CA12CBF01A50194010E9498
:10249000DD39F901CA016A300CF5605DD8016E932F
:1024A0008D01232B242B252B79F790E080E01097CA
:1024B00021F0BD01C7010E94D611A1960FB6F89474
:1024C000DEBF0FBECDBFDF91CF911F910F91FF9067
:1024D000EF90BF90AF909F908F900895695CDECF92
:1024E0008F929F92AF92BF92CF92DF92EF92FF9224
:1024F0000F931F93CF93DF937C01EB016C0182E07C
:10250000C80ED11C4701E5E08E0E911C10E000E0E2
:10251000F60141916F0150E070E060E02AE0CE01E9
:102520000E9424125C01E881F9810190F081E02D84
:102530006EE2CE0109958A0D9B1D080F191FC81464
:10254000D90431F7F701458150E070E060E02AE0FE
:10255000CE010E942412800F911FDF91CF911F9115
:102560000F91FF90EF90DF90CF90BF90AF909F9032
:102570008F900895CF93DF93EC01FB0160E08081A1
:102580000E947B028DE791E00E94E511E881F981CC
:10259000408150E070E060E02AE08FE494E0DF9159
:1025A000CF910C942412CF93DF93BC018FE494E07D
:1025B0000E94D611EC016CEB72E08FE494E00E9473
:1025C000D6118C0F9D1FDF91CF910895DC018AEB0E
:1025D00092E08D939D9384E0FB0101900D928A958A
:1025E000E1F70895AF92BF92CF92DF92EF92FF9200
:1025F0000F931F93CF93DF9300D000D0CDB7DEB7FA
:102600008C016B017A0180914E048333E9F45B0104
:102610006801C40ED51EC016D106A9F10E947A0524
:102620008FE00E948505812F0E948505802F0E94E2
:1026300085050F5F1F4F80E00E948505F50181939E
:102640005F010E947005E7CF843369F50E947A0527
:1026500019830A838F2D8F778B83EC8264E070E07F
:10266000CE0101960E945605A70170E060E0C60108
:102670000E94683BE114F10421F0B701C6010E94F9
:1026800056050E947005C7010F900F900F900F9094
:10269000DF91CF911F910F91FF90EF90DF90CF903E
:1026A000BF90AF9008950E947A050F3F110509F081
:1026B00030F419820A831B8263E070E0D1CF17FDEA
:1026C0000BC019820A8333E0169507953A95E1F716
:1026D000007E08600B83F0CFC80126E096958795B1
:1026E0002A95E1F7807E19830A830115104C18F4AE
:1026F00080618B83E1CF8861FCCFCF93DF931F9202
:10270000CDB7DEB72091B20330E0322F2227260F5B
:10271000371F90E0982F882741E050E0BE016F5F9F
:102720007F4F820F931F0E94F21289810F90DF91D9
:10273000CF910895CF93C82F462F61E070E00E949B
:10274000980661E070E08C2F0E947D138111F9CF13
:10275000CF910895CF93C82F80E591E00E94330177
:1027600068E070E08C2FCF910C949A13CF93C82F10
:1027700080E591E00E94330160E170E08C2FCF9101
:102780000C949A13CF93DF93EC01888D843020F45E
:102790000E94B61384E0888FDF91CF91089563E0A3
:1027A00070E00C947D13CF93C82F80E591E00E94D8
:1027B00033018C2FCF910C94CF13EF92FF920F9394
:1027C0001F93CF937C0106E414E0C0E0F80121914F
:1027D00031918F01F701848195812817390729F0FC
:1027E000CF5FC43099F780E006C08C2F0E94D313CE
:1027F0008431B1F781E0CF911F910F91FF90EF905D
:102800000895CF93DF93EC018C858430D0F40E943F
:10281000D313843189F0882379F0883169F021E07D
:102820008C3159F4E881F9810084F185E02DCE01E5
:10283000099521E0892B09F420E0822FDF91CF91C7
:10284000089580E0FBCFCF92DF92EF92FF92CF937B
:10285000DF93EC018C85843068F40E94AA130E94F7
:102860005B036B017C018C850E94D313811109C02D
:1028700084E08C87DF91CF91FF90EF90DF90CF9035
:10288000089561E070E080E090E00E9428030E94DB
:102890005B03AB01BC014C195D096E097F098D8595
:1028A0009E85B0E0A0E0481759076A077B07D8F279
:1028B0008C850E94B613DCCFCF93FC01C08D80E5E0
:1028C00091E00E94330160E270E08C2F0E949A1325
:1028D00062E070E08C2F0E947D1384FD16C062E0E0
:1028E00070E08C2F0E947D1383FF0AC048E162E0F4
:1028F00070E08C2F0E94980680E090E0CF910895C0
:1029000080E591E00E943301E3CF40E162E070E0B6
:102910008C2F0E94980681E0F0CFCF93DF931F9217
:10292000CDB7DEB741E050E0BE016F5F7F4F90E072
:1029300080E00E94F21289810F90DF91CF9108957B
:10294000CF93DF93C4E1D0E00E948D14882361F01F
:1029500061E070E080E090E00E9428032197A1F7F9
:1029600080E0DF91CF91089581E0FBCF1F93CF935B
:10297000DF931F92CDB7DEB7182F80E591E00E945C
:102980003301812F0E944F0627E0129FF00111248E
:10299000E65DFB4F22813381377041E050E0BE019C
:1029A0006F5F7F4F820F931F0E94F21289810F90F9
:1029B000DF91CF911F910895FC01808D843040F408
:1029C000218D328D232B21F00E94B61490E00895C2
:1029D0008FEF9FEF0895CF93DF93FC012485243080
:1029E00028F08FEF9FEFDF91CF910895EC010190D8
:1029F000F081E02D0084F185E02D0995892B89F384
:102A00008C850E94B61490E0EECFDA01E091B2031B
:102A1000F0E0FE2FEE27E60FF71F90E0982F8827B3
:102A2000A901BD018E0F9F1F0C94F2128F929F92ED
:102A3000AF92BF92CF92DF92EF92FF921F93CF930C
:102A4000DF93CDB7DEB72C970FB6F894DEBF0FBE7D
:102A5000CDBF20914E0414E0222329F16B017C01AB
:102A600080E591E00E9433015E0127E0A20EB11CD7
:102A7000450110E0812F0E94CF13F40181934F0193
:102A8000882349F11F5F1430A9F710E0F501819107
:102A90005F018D31D9F08831C9F08A518230B0F0B0
:102AA0001F5F143099F7812F2C960FB6F894DEBF74
:102AB0000FBECDBFDF91CF911F91FF90EF90DF90C0
:102AC000CF90BF90AF909F908F90089560E170E09D
:102AD000812F0E949A13A12EB12CF501EE0FFF1F3A
:102AE000EA5BFB4F1182108283EE93E00197F1F7CE
:102AF00042E870E060E0812F0E9498064FEF62E0AC
:102B000070E0812F0E949806B601C114D10491F49F
:102B1000809100019091010101968115F0EC9F07D1
:102B200008F45CC090930101809300016091000162
:102B300070910101812F0E94830686E0E0E1F1E0BF
:102B4000DE01119601900D928A95E1F7F7018381DC
:102B50008F778C8384818D8385818E83A7014E5FDF
:102B60005F4F24E030E06CE070E0812F0E945D0652
:102B7000B601812F0E946E0626E030E0AE014F5F65
:102B80005F4F66E070E0812F0E945D0661E070E0BB
:102B9000812F0E949A1327E02A9DC0012B9D900D42
:102BA00011249C01265D3B4F7901F90111821082AD
:102BB00022E030E0AE01455F5F4F68E270E0812FB8
:102BC0000E9405158B859C85982789279827F701F2
:102BD0009383828316821582148265CF80E090EC05
:102BE000A1CFCF92DF92EF92FF920F931F93CF93DB
:102BF000DF9300D000D000D0CDB7DEB78C016B01E1
:102C00007A01FC01808D843010F40E94B6138AEBA7
:102C100092E09A838983F60182819381A481B581B0
:102C20008B839C83AD83BE83B701CE0101960E9446
:102C30001615F801808F8430A0F4F586E486128E94
:102C4000118E81E026960FB6F894DEBF0FBECDBF81
:102C5000DF91CF911F910F91FF90EF90DF90CF9078
:102C6000089580E0EFCFAF92BF92CF92DF92EF92C4
:102C7000FF920F931F93CF93DF9300D000D000D02B
:102C8000CDB7DEB7082F6B0180E591E00E943301DC
:102C90009E012F5F3F4F7901590110E0812F0E9463
:102CA000CF13F50181935F01882341F11F5F143039
:102CB000A9F710E0F70181917F018D31D1F08831C2
:102CC000C1F08A518230A8F01F5F143099F7812F2C
:102CD00026960FB6F894DEBF0FBECDBFDF91CF9121
:102CE0001F910F91FF90EF90DF90CF90BF90AF902A
:102CF000089560E170E0812F0E949A13E12EF12C7B
:102D0000F701EE0FFF1FEA5BFB4F1182108283EE8B
:102D100093E00197F1F7402F70E060E0812F0E946F
:102D200098064FEF62E070E0812F0E949806B6018E
:102D3000CD2889F4809100019091010101968115BF
:102D4000F0EC9F0798F1909301018093000160914E
:102D5000000170910101812F0E94830661E070E003
:102D6000812F0E949A1327E02E9DC0012F9D900D68
:102D700011249C01265D3B4F7901F90111821082DB
:102D800022E030E0AE014B5F5F4F68E270E0812FE0
:102D90000E9405158D819E81982789279827F70124
:102DA0009383828316821582148291CF80E090EC07
:102DB000CACFCF92DF92EF92FF921F93CF93DF9310
:102DC000EC017B016A018C85843048F40E94D313A6
:102DD000882319F08C850E94AA1384E08C87F70160
:102DE00082819381A481B5810097A105B10551F439
:102DF00090E080E0DF91CF911F91FF90EF90DF9006
:102E0000CF9008958F3F9F4FAF4FBF4F89F3809171
:102E10004E04811103C084E08C87EACF70E060E04B
:102E200081E20E943316182F8C87843008F780E5E2
:102E300091E00E943301A7014E5F5F4F24E030E034
:102E40006CE070E0812F0E945D06B601812F0E9428
:102E50006E0664E070E0812F0E949A130E945B036B
:102E60006B017C018C850E94D313873109F18C3171
:102E7000F9F0882309F4BCCF0E945B03AB01BC01CD
:102E80004C195D096E097F098D859E85B0E0A0E033
:102E900084179507A607B70738F061E070E080E077
:102EA00090E00E942803DECF8C850E94B613B3CF3A
:102EB00081E090E09FCF0F931F93CF93DF93EC01BE
:102EC0008B01888D843010F40E94B61380914E04DB
:102ED000811107C094E0988FDF91CF911F910F91DE
:102EE0000895B80182E00E943316888F843030F450
:102EF0001D870C871A8E198E81E0EECF80E0ECCF13
:102F00000F931F93CF9320914E04222349F18C01FC
:102F1000FC016481758181E20E943316C82F8430E0
:102F2000F8F480E591E00E9433018C2F0E94CF13CA
:102F3000833131F08C2FCF911F910F910C94AA13F4
:102F400062E070E08C2F0E949A13F80184819581D1
:102F5000EC2FF0E0EE0FFF1FEA5BFB4F91838083C5
:102F6000CF911F910F9108957F928F929F92AF9270
:102F7000BF92CF92DF92EF92FF920F931F93CF9366
:102F8000DF9300D0CDB7DEB7782E8B014A0159010F
:102F900022E030E0AE014F5F5F4F64E270E00E94DC
:102FA0000515E980FA80FE24EF24FE24E00EF11ED0
:102FB0009701377040914E04072D10E0433309F01C
:102FC00042C0085F1F4F102F0027110F110F110F64
:102FD000C901800F911F4733C9F1A9014A0D5B1D3B
:102FE0004130584098F160E078E06B01C21AD30A92
:102FF000A601B4010E948C05A5014C195D09B4011C
:103000006C0D7D1DC8010E948C05EA0CFB1CF98229
:10301000EA8222E030E0AE014F5F5F4F64E270E091
:10302000872D0E945D060F900F90DF91CF911F9129
:103030000F91FF90EF90DF90CF90BF90AF909F9057
:103040008F907F900895005F1F4FBDCFA501B40101
:10305000DACFEF92FF921F93CF93DF9300D0CDB7DB
:10306000DEB7182F22E030E0AE014F5F5F4F60E225
:1030700070E00E940515E980FA80FE24EF24FE240A
:1030800022E030E0AE014F5F5F4F60E270E0812FE1
:103090000E94051589819A81982789279827E81623
:1030A000F90689F487E0189FF0011124E65DFB4FD3
:1030B000F582E482C7010F900F90DF91CF911F91AD
:1030C000FF90EF9008957C01DBCF1F93CF93DF93A8
:1030D000182F80E591E00E943301812F0E9429186A
:1030E000EC01812F0E94CF13873121F08C3111F038
:1030F000D0E0C0E0CE01DF91CF911F910895CF9332
:10310000DF93EC018C85843060F40E94D313873107
:1031100011F08C3131F48C850E946518811598402E
:1031200088F3DF91CF910895FC018485843010F4F9
:103130000C94651890E080E00895CF92DF92EF92B2
:10314000FF921F93CF93DF93182F7B01EA01413049
:10315000584010F0C0E0D8E080E591E00E943301D3
:10316000812F0E9429186C01812F0E94CF13873173
:1031700011F08C3121F5CC16DD0670F380E591E07D
:103180000E9433019E01A70170E060E0812F0E9440
:10319000B41760E270E0812F0E949A1362E070E041
:1031A000812F0E947D1384FD0DC0812F0E94CF13BB
:1031B0008823B9F080E591E00E943301EFCFD0E0A1
:1031C000C0E0DCCF40E162E070E0812F0E94980611
:1031D000CE01DF91CF911F91FF90EF90DF90CF90C4
:1031E0000895D0E0C0E0F4CF0F931F93CF93DF9307
:1031F0008C01EA01FC018485843048F40E949D180A
:10320000892B39F481E090E0F80193838283D0E048
:10321000C0E0CE01DF91CF911F910F9108959F9251
:10322000AF92BF92CF92DF92EF92FF920F931F93D4
:10323000CF93DF938C015B01942EE52EFC01C688B1
:10324000D788F08C80E591E00E9433018F2D0E9499
:103250002918C92DDE2D8C179D0708F4EC019E015D
:10326000A501B6018F2D0E94B417F80186899789B0
:103270008C0F9D1F978B868BCE01DF91CF911F9175
:103280000F91FF90EF90DF90CF90BF90AF909F9005
:103290000895FF920F931F93CF93DF9300D0CDB784
:1032A000DEB7F82E22E030E0AE014F5F5F4F66E2FE
:1032B00070E00E94051509811A8110270127102747
:1032C00022E030E0AE014F5F5F4F66E270E08F2D8D
:1032D0000E94051589819A819827892798270817C0
:1032E000190749F4C8010F900F90DF91CF911F91FA
:1032F0000F91FF9008958C01E3CF1F93CF93DF933D
:10330000182F87E0189FE0011124C65DDB4F8881EC
:103310009981009761F480E591E00E943301812F4B
:103320000E9449192E81821B910999838883DF911C
:10333000CF911F910895AF92BF92CF92DF92EF92FB
:10334000FF920F931F93CF93DF93EC017B0180914A
:103350004E04811120C01B821A8288EE93E0A0E007
:10336000B0E08C839D83AE83BF8380E891E0998336
:10337000888384E08C8788EE93E09E878D87CE01DA
:10338000DF91CF911F910F91FF90EF90DF90CF9041
:10339000BF90AF90089586E4C82E84E0D82E10E048
:1033A00094E0B92EA12CD6012D913D916D01F7012C
:1033B000848195812817390791F4812F0E94D313B6
:1033C000082F873111F08C3139F5812F0E947D193A
:1033D000892B59F50C3119F4812F0E94AA131F5F14
:1033E000143009F7A11008C0D701ED91FC910084B9
:1033F000F185E02DC70109951B821A8288EE93E0C2
:10340000A0E0B0E08C839D83AE83BF8380E891E031
:1034100099838883BC86AFCF843149F08111DFCF97
:10342000F601329711821082DACFB12ED8CFAA24BA
:10343000A394D5CF8F929F92AF92BF92CF92DF92FB
:10344000EF92FF921F93CF93DF93CDB7DEB72F9705
:103450000FB6F894DEBF0FBECDBF5C014B017A0101
:1034600080914E048823A1F1B501CE0101960E94FE
:103470009B1986E4C82E84E0D82E10E0F601219135
:1034800031916F01F501848195812817390751F435
:10349000812F0E94D313873129F4A701B401812F12
:1034A0000E949D181F5F143049F7C7012F960FB671
:1034B000F894DEBF0FBECDBFDF91CF911F91FF907B
:1034C000EF90DF90CF90BF90AF909F908F90089536
:1034D000F12CE12CEACFFC018485843010F40C94AB
:1034E0007D1990E080E008954F925F927F928F92D5
:1034F0009F92AF92BF92CF92DF92EF92FF920F9383
:103500001F93CF93DF9300D0CDB7DEB7782E6B013A
:103510004A01A82EB12C27E0829FC0011124FC0192
:10352000E65DFB4F7F010081118180E591E00E9403
:1035300033010815190554F4872D0E944919F70124
:1035400026818C01021B11091183008301151105CD
:1035500019F5872D0E94CF13843159F0882349F043
:1035600001E010E08C3111F410E000E011950195BC
:103570001109C8010F900F90DF91CF911F910F910A
:10358000FF90EF90DF90CF90BF90AF909F908F9083
:103590007F905F904F900895801691060CF48401FF
:1035A00087E08A9DF0018B9DF00D1124E65DFB4FB5
:1035B000E280F380C114D10451F12701F7E05F22CA
:1035C000872D0E944F06840D951D20914E042733B0
:1035D00009F453C09801240D351D2130384008F4FA
:1035E0004CC020E038E0490184189508A401B601D8
:1035F0000E94F2122601480C591C6801C818D9080B
:10360000872D0E944F06A601B2010E94F212E00E21
:10361000F11E87E08A9DF0018B9DF00D1124E65D7F
:10362000FB4FF382E28220813181201B310B3183F9
:1036300020838681800F912F911D8A3F910510F480
:10364000232BF1F487E08A9DF0018B9DF00D11246E
:10365000E65DFB4F1682F982EA8222E030E0AE019D
:103660004F5F5F4F68E270E0872D0E945D0660E467
:1036700070E0872D0E949A137CCFA801B601C5CFB8
:10368000868377CFCF93DF93FC01218D328D211577
:10369000310529F48FEF9FEFDF91CF910895EC0171
:1036A000808D4217530708F0A9010E94741A18165A
:1036B000190684F7298D3A8D281B390B3A8F298FEB
:1036C000EBCF0F931F93CF93DF931F92CDB7DEB74E
:1036D000FC01218D328D232B41F48FEF9FEF0F9052
:1036E000DF91CF911F910F9108958C0141E050E03F
:1036F000BE016F5F7F4FFC01808D0E94741A181607
:1037000019065CF7F801818D928D0197928F818F58
:10371000898190E0E4CF0F931F93CF93DF93CDB7D0
:10372000DEB728970FB6F894DEBF0FBECDBF8C0171
:10373000D80159964D915C915A974115510551F018
:10374000ED91FC91048CF58DE02D70E060E0C801F6
:103750000995EECFF801808D0E947D19892BB1F17A
:1037600048E050E0BE016F5F7F4FD80158968C91C2
:103770000E94741A18161906F4F4D801509684E0C1
:10378000FE01319601900D928A95E1F78D8190E0CE
:10379000982F88272E81820F911DF801958B848B9D
:1037A0008F81282F30E0322F22278885820F932F98
:1037B000911D928F818F28960FB6F894DEBF0FBEB1
:1037C000CDBFDF91CF911F910F91089590E080E0E0
:1037D000F2CF4F925F926F927F928F929F92AF92B1
:1037E000BF92CF92DF92EF92FF920F931F93CF93EE
:1037F000DF93CDB7DEB763970FB6F894DEBF0FBE89
:10380000CDBF7C016B013A01FB0120E090E080E03C
:103810006AE03191332309F461C040ED430F4A302F
:1038200008F04DC0689FA001699F500D1124CA0186
:10383000C097830F911D37FD9A958F3F910549F3EE
:1038400040F3F701428153816481758180911805AD
:1038500090911905A0911A05B0911B0548175907B9
:103860006A077B0709F40DC28701085F1F4F0E949A
:103870005B036F7077277C5FC8010E945B17813004
:1038800009F004C28AEB92E09A838983F70182816E
:103890009381A481B5818B839C83AD83BE8345E3F3
:1038A00050E0BE016F5F7F4FC8010E940307892B64
:1038B000A9F5D12CC12CC8010E94C21317C03E32F9
:1038C00009F0BFCF233009F4BCCFD301A20FB11D43
:1038D00012968C932F5F90E080E09BCF233009F00D
:1038E000B0CFF3018583CC24C394D12CC601639659
:1038F0000FB6F894DEBF0FBECDBFDF91CF911F9101
:103900000F91FF90EF90DF90CF90BF90AF909F907E
:103910008F907F906F905F904F9008950E945B030F
:10392000F7017783668342E050E0B7016A5F7F4F1B
:10393000C8010E940F1981E090E09A83898342E0D8
:1039400050E0BE016F5F7F4FC8010E940F1980E0F9
:1039500091E09A83898342E050E0BE016F5F7F4F20
:10396000C8010E940F191A82198242E050E0BE017C
:103970006F5F7F4FC8010E940F1942E050E0BE0107
:103980006F5F7F4FC8010E940F1942E050E0BE01F7
:103990006F5F7F4FC8010E940F195601F6018081A9
:1039A000882301F16501F60181912F01882311F02F
:1039B0008E32B1F446018A189B081814190474F465
:1039C0008D8641E050E0BE01635F7F4FC8010E94D9
:1039D0000F19A401B501C8010E940F195201DECFD1
:1039E0006201E1CF1D8641E050E0BE01635F7F4F81
:1039F000C8010E940F19C12CDD24D394DA82C98238
:103A000042E050E0BE016F5F7F4FC8010E940F1976
:103A1000DA82C98242E050E0BE016F5F7F4FC80189
:103A20000E940F19C8010E945C14892B09F441CF30
:103A3000F3E0AF2EB12C230122E0420E511CD4C082
:103A4000F7014281538164817581808D918DA28DB2
:103A5000B38D481759076A077B0709F008C1848DA1
:103A6000958DC59709F003C181A192A15DEFC52E87
:103A7000DD24DA940C970CF4ADC04CE050E0BE01AC
:103A80006F5F7F4FC8010E94421B8B819C819827EA
:103A9000892798279A8B898BF7014681578129813D
:103AA0003A814217530709F0E7C097FFE5C08F70CE
:103AB00092703BEFC32EDD24DA94892B09F08AC083
:103AC0006F8078847624672476242AEFC22EDD2442
:103AD000DA946114710409F47DC0D12CC12C8D815C
:103AE0009E81982789279827C816D906F8F441E0BF
:103AF00050E0BE01635F7F4FC8010E94421B4D85AD
:103B0000442331F050E070E060E0C8010E94421BA5
:103B10008D858111ECCF44E050E070E060E0C80199
:103B20000E94421BFFEFCF1ADF0AD9CF912C812CC4
:103B300041E050E0BE016D5E7F4FC8010E94421B14
:103B40004B89842F807C09F06CC0442331F050E015
:103B500070E060E0C8010E94421B8B898111E8CFB0
:103B600042E050E0BE01615F7F4FC8010E94421BEE
:103B700042E050E0BE01635F7F4FC8010E94421BDC
:103B800044E050E070E060E0C8010E94421B42E067
:103B900050E0BE016F5E7F4FC8010E94421B8F85BF
:103BA000988949895A898115914009F043C0CD848B
:103BB000DE84DC24CD24DC2481E0C816D104D1F5D8
:103BC0004115544009F04AC044E050E0B201C80138
:103BD0000E94421B21E0A21AB10809F46CCEFFEF4B
:103BE000CF16DF0609F067CE0E945B033B014C0154
:103BF000C8010E948B1B181619060CF421CF0E94D5
:103C00005B03661977098809990969387341810549
:103C1000910548F562E370E080E090E00E9428039F
:103C2000E7CF41E050E070E060E0C8010E94421B35
:103C30001B8A93CF54274527542770E060E0C801C2
:103C40000E94421BFFEF8F1A9F0A6814790409F043
:103C50006FCF96EFC92EDD24DA94BCCFE7EFCE2EDE
:103C6000DD24DA94B7CFCC24CA94DC2CB3CF6EEF2A
:103C7000C62EDD24DA94AECF4CEFC42EDD24DA94C8
:103C8000A9CF8EEFC82EDD24DA9430CED12CC12CF2
:103C90002DCECF92DF92EF92FF920F931F93CF938F
:103CA000DF93CDB7DEB7AF970FB6F894DEBF0FBE88
:103CB000CDBF7C016A010AEB12E01A8309831C86DE
:103CC0001B8688EE93E0A0E0B0E08D879E87AF87EB
:103CD000B88B8EEA91E09A878987188F0F8B198E9F
:103CE0001A8E1B8E1C8E84E089A31BA70AA71CA614
:103CF0001DA61EA61FA680910C0590910D05A091F2
:103D00000E05B0910F058EA39FA3A8A7B9A78B831B
:103D10009C83AD83BE8318861F82AE01465D5F4FD4
:103D2000CE0101960E94E91B81309105B1F4D701C3
:103D3000ED91FC910488F589E02D1DA30CA38CA5C1
:103D40009DA5AEA5BFA58EA39FA3A8A7B9A7A601B1
:103D5000BE016C5D7F4FC7010995AF960FB6F89411
:103D6000DEBF0FBECDBFDF91CF911F910F91FF90AE
:103D7000EF90DF90CF900895CF92DF92EF92FF9275
:103D80000F931F93CF93DF93CDB7DEB7AF970FB6E7
:103D9000F894DEBF0FBECDBF8C016B017A018AEBB8
:103DA00092E09A8389831B821C821D821E821C865C
:103DB0001B8648EE53E060E070E04D875E876F87BA
:103DC000788B2EEA31E03A872987988F8F8B198E6E
:103DD0001A8E1B8E1C8E24E029A39BA78AA71CA6E3
:103DE0001DA61EA61FA6D8011C968C91843060F4D7
:103DF0000E94D313882321F0F80184850E94AA131E
:103E000084E0D8011C968C9380910C0590910D054F
:103E1000A0910E05B0910F058EA39FA3A8A7B9A7E7
:103E20008B839C83AD83BE8318861F82AE01465D63
:103E30005F4FB601CE0101960E94E91B0097C1F0C9
:103E4000D801ED91FC910684F785E02D8AEB92E094
:103E50009DA38CA38CA59DA5AEA5BFA58EA39FA356
:103E6000A8A7B9A7A701BE016C5D7F4FC80109953E
:103E7000AF960FB6F894DEBF0FBECDBFDF91CF91E6
:103E80001F910F91FF90EF90DF90CF900895CF9307
:103E9000DF931F92CDB7DEB741E050E0BE016F5F08
:103EA0007F4FFC0184850E94741A1816190634F499
:103EB000898190E00F90DF91CF9108958FEF9FEF70
:103EC000F9CFFC018485843010F40C94741A90E0CE
:103ED00080E008950F931F93CF93DF9300D0CDB769
:103EE000DEB7FC0124852430E0F48C0180E591E00C
:103EF0000E94330122E030E0AE014F5F5F4F60E18E
:103F000070E0F80184850E94051589819A819827BF
:103F1000892798270F900F90DF91CF911F910F91D4
:103F2000089590E080E0F6CFEF92FF920F931F93F9
:103F3000CF93DF9300D000D0CDB7DEB78C017B01EB
:103F4000FB0184858430A8F08AEB92E0F80191832C
:103F500080831282138214821582C8010F900F9001
:103F60000F900F90DF91CF911F910F91FF90EF90E5
:103F7000089580E591E00E94330124E030E0AE0135
:103F80004F5F5F4F6CE070E0F70184850E9405157C
:103F9000BE016F5F7F4FC8010E94E612DECF0F9314
:103FA0001F93CF93DF9300D0CDB7DEB7FC012485FC
:103FB0002430E0F48C0180E591E00E94330122E09E
:103FC00030E0AE014F5F5F4F64E070E0F801848540
:103FD0000E94051589819A819827892798270F9033
:103FE0000F90DF91CF911F910F91089590E080E0A5
:103FF000F6CF3F924F925F926F927F928F929F92F5
:10400000AF92BF92CF92DF92EF92FF920F931F93E6
:10401000CF93DF93CDB7DEB7EA970FB6F894DEBF44
:104020000FBECDBF7C012A013B0169010E945B03E9
:104030004B015C0187010D5B1F4FC8010E948B1B68
:10404000181619069CF00E945B03681979098A0901
:104050009B09461657066806790608F466C162E3AE
:1040600070E080E090E00E942803E7CF42E250E059
:10407000BE016F5F7F4FC8010E94421B8981823061
:10408000D1F0312C832DEA960FB6F894DEBF0FBE27
:10409000CDBFDF91CF911F910F91FF90EF90DF90F7
:1040A000CF90BF90AF909F908F907F906F905F90D8
:1040B0004F903F900895F801848995898334910544
:1040C00001F76D817E818F8198850E943A3B4B017B
:1040D0005C01F60180829182A282B38246E050E0C8
:1040E000B701685F7F4FCE014D960E945B3B892BE5
:1040F00041F6F70180819181A281B38188169906EA
:10410000AA06BB0608F4BDCF84819581A681B7813C
:1041100088159905AA05BB0508F4B3CF89899A8942
:10412000AB89BC8986879787A08BB18B4EEC50E01A
:1041300070E060E0C8010E94421B312CC7018296EA
:1041400098AB8FA7F701B696FAABE9AB08969CAB94
:104150008BAB67019AE1C90ED11CBD96FEABEDABEE
:10416000C701429698AF8FABFD97FAAFE9AF470111
:10417000FEE18F0E911CF801818D928D18161906A3
:104180000CF080CFC8010E94611B8333910509F4B4
:10419000B2C014F58130910509F464C044F4892B50
:1041A00051F3C8010E94611BAC01552775C08330D3
:1041B000910509F462C00697A1F7C8010E94611B2E
:1041C000B82E44E050E0B401C8010E94421BEB2D20
:1041D000E450FF0BAF0160C08A33910509F45FC062
:1041E00084F585339105B1F1C697D9F6C8010E94CF
:1041F000611B5C01B601CE0189960E94E6128BA577
:104200009CA5ADA5BEA5892B8A2B8B2BB1F0EDA962
:10421000FEA94080518062807380B601CE018396F2
:104220000E94E6128DA19EA1AFA1B8A5A5014816D6
:1042300059066A067B0609F0B8CF44E050E0B601A3
:1042400018C08B33910509F440C08F3F910509F4E4
:1042500092CFA7CFC8010E94611BC8010E94611BB9
:10426000382E89CFC8010E94611B44E050E06FA93D
:1042700078ADC8010E94421B7ECFC8010E94611B1D
:10428000B82E44E050E069AD7AADC8010E94421BEF
:104290008B2D8450990BAC0170E060E0EACFC8012F
:1042A0000E94611B44E050E069A97AA9C8010E94FC
:1042B000421BF70166A177A180A591A50E943A3B18
:1042C00066A377A380A791A756CFC8010E94611B60
:1042D00044E050E06BA97CA9C8010E94421BF70191
:1042E00062A573A584A595A50E943A3B62A773A712
:1042F00084A795A740CFC8010E94611B44E050E00D
:104300006FA578A9C8010E94421BF70162A173A1A1
:1043100084A195A10E943A3B62A373A384A395A3B1
:1043200066A777A780AB91AB26CF33243A94AACE69
:104330007F928F929F92AF92BF92CF92DF92EF9235
:10434000FF920F931F93CF93DF93CDB7DEB7A6975E
:104350000FB6F894DEBF0FBECDBF8C01762E942E23
:10436000852E20E2A22ECE0101967C01DC01EA2DF1
:104370001D92EA95E9F76801F3E4CF0ED11C8AEBB0
:1043800092E09AA389A38FEF8BA38CA38DA38EA316
:1043900043E450E0BE016F5D7F4FC6010E940307FA
:1043A000019609F4BFC081E089838A8386E0B82E34
:1043B000BB821C82D80114966D917D918D919C9148
:1043C00017970E943A3B6D837E838F8398878986F7
:1043D0009A8680E890E09C878B874CE150E0B7019B
:1043E000C6010E940F19FE0137968AE1DF011D9276
:1043F0008A95E9F74801B8E08B0E911CF401D701CA
:1044000001900D92BA94E1F740E150E0B701C60186
:104410000E940F19F7011192AA94E9F796E0A92ECC
:10442000B12C40E250E0B701C6010E940F19F1E043
:10443000AF1AB108B1F783E6898392E89A8393E5CE
:104440009B838C8385E38D8381E08E837F829DE3D4
:10445000988797E099878A8786E0F401DE011B96AA
:1044600001900D928A95E1F78CE0898B8A8B6FEB36
:1044700072E0CE0143960E946F3BD8011B966C916F
:10448000CE0149960E943601F8016485CE014B9613
:104490000E943601D8011D966C91CE014D960E9466
:1044A00036014EE150E0B701C6010E940F19B3E09A
:1044B0007B121EC082E3898384E08A83F80196859B
:1044C0009B8397859C8390899D8391899E8396E3A6
:1044D0009F838887828D8987838D8A87848D8B8748
:1044E000858D8C874CE050E0B701C6010E940F1902
:1044F00087E3898386E08A8391E09B8393E09C83B2
:104500008D838FE08E838AE38F838BE388878FEFA1
:10451000898749E050E0B701C6010E940F19C60122
:104520000E945C14A6960FB6F894DEBF0FBECDBFF6
:10453000DF91CF911F910F91FF90EF90DF90CF907F
:10454000BF90AF909F908F907F900895EF92FF92D1
:104550000F931F93CF93DF93EC010C811D818E810C
:104560009F8108171907F1F4C80105969F838E8370
:10457000811520E49207E8F4880F991F0E94BE3647
:104580007C0130E020E0AC0170E060E08A819B813A
:104590000E9459078A819B81009711F00E945A3727
:1045A000FB82EA82DF91CF911F910F91FF90EF90F4
:1045B00008958FEF9FEFE2CFEF92FF920F931F933B
:1045C000CF93DF93EC017B018C819D8101969D83CC
:1045D0008C83CE010E94A6228A819B810C811D8141
:1045E0000E191F090250110997012F5F3F4FAC01AF
:1045F000B7010E945907DF91CF911F910F91FF9052
:10460000EF9008950F931F93CF93DF93EC018B01ED
:104610008C819D8101969D838C83CE010E94A62270
:104620008C819D8181509048880F991F2A813B8100
:10463000820F931FFC0111830083DF91CF911F91A3
:104640000F910895CF93DF93EC0182E692E0998376
:1046500088838A819B81009711F00E945A378CE3EE
:1046600090E00E94BE36FC019C01245C3F4F118209
:10467000108213821282158214823696E217F30793
:10468000B1F79B838A831D821C828AE090E09F831E
:104690008E83DF91CF910895CF93DF93EC0188E370
:1046A00091E0998388838A819B81009711F00E9411
:1046B0005A3784E190E00E94BE369C012C5E3F4F49
:1046C000FC0111921192E217F307D9F79B838A83B9
:1046D0001D821C828AE090E09F838E83DF91CF91C0
:1046E0000895AF92BF92CF92DF92EF92FF920F9315
:1046F0001F93CF93DF93EC010C811D81CE80DF806F
:104700000C151D0509F050C0580185E0A80EB11C1C
:10471000BF82AE828FEF9FEFA114E8E0BE0638F4AF
:10472000C50134E0880F991F3A95E1F702960E947F
:10473000BE36FC01A192B1927F01F4E0CF0ED11CF4
:10474000F701D7FC07C011821082709681E0C81A69
:10475000D108F7CF30E020E0A70170E060E08A8167
:104760009B810E94C40B0A811B8101151105D1F0A8
:10477000F80132978081918124E0880F991F2A9552
:10478000E1F7080F191F98018A819B8100511109D7
:104790008217930721F0C8010E94740BF4CF02978F
:1047A0000E945A37FB82EA82DF91CF911F910F91CD
:1047B000FF90EF90DF90CF90BF90AF900895EF9271
:1047C000FF920F931F93CF93DF93EC017B018C81BA
:1047D0009D8101969D838C83CE010E9471238A81E5
:1047E0009B810C811D810E191F090250110997012F
:1047F0002F5F3F4FAC01B7010E94C40BDF91CF91F7
:104800001F910F91FF90EF900895EF92FF920F93F9
:104810001F93CF93DF937C018B01FC0184819581F1
:10482000019695838483C7010E947123F701C48197
:10483000D581C150D04FCE0124E0880F991F2A9511
:10484000E1F7C281D381C80FD91FB801CE010E9400
:104850007F0BF80182859385A485B5858A879B8720
:10486000AC87BD87868597859F878E87DF91CF919F
:104870001F910F91FF90EF9008950F931F93CF9387
:10488000DF93CDB7DEB76A970FB6F894DEBF0FBEE1
:10489000CDBF8A01FC01819191919A8B898B88E02F
:1048A000DE01539601900D928A95E1F71A821982E2
:1048B000788B6F87BE016F5E7F4FCE0101960E949D
:1048C0007F0B012E000C220B330B0B871C872D87CF
:1048D0003E87BE016F5F7F4F8DE495E00E94052407
:1048E000CE0101960E94740BCE0141960E94740B7A
:1048F0006A960FB6F894DEBF0FBECDBFDF91CF91A1
:104900001F910F910895CF92DF92EF92FF920F9334
:104910001F93CF93DF93EC010C811D81EE80FF800C
:104920000E151F05B9F598012B5F3F4F3F832E836E
:10493000263585E13807D0F446E0429FC001439F09
:10494000900D11240E94BE366C0184E0E80EF11C2B
:10495000F601F7FC0EC011821082138212821582BA
:104960001482369681E0E81AF108F3CF8FEF9FEFBB
:10497000E9CF30E020E0A60170E060E08A819B8111
:104980000E9473078A819B81009711F00E945A3719
:10499000CA82DB82DF91CF911F910F91FF90EF9040
:1049A000DF90CF900895EF92FF920F931F93CF93D4
:1049B000DF9300D000D000D0CDB7DEB78C017B01F3
:1049C000FC0184819581019695838483C8010E94AE
:1049D0008324F80182819381048115810E191F09B6
:1049E0000250110997012F5F3F4FAC01B7010E94A0
:1049F000730726960FB6F894DEBF0FBECDBFDF91CA
:104A0000CF911F910F91FF90EF9008950F931F93F7
:104A1000CF93DF9300D000D000D0CDB7DEB78C01AC
:104A200029833A834B835C836D837E83FC0184817D
:104A30009581019695838483C8010E948324F8019F
:104A40002481358146E0429FC001439F900D11248F
:104A5000A281B381A80FB91F169786E0FE01319697
:104A600001900D928A95E1F726960FB6F894DEBF75
:104A70000FBECDBFDF91CF911F910F910895EF929F
:104A8000FF920F931F93CF93DF93EC010C811D8155
:104A90008E819F8108171907D1F4C80105969F835D
:104AA0008E830E94BE367C018A819B81F701DC01E6
:104AB0009D01281B390B201731071CF42D912193E0
:104AC000F7CF009711F00E945A37EA82FB82DF91FC
:104AD000CF911F910F91FF90EF9008950F931F9327
:104AE000CF93DF93EC018B018C819D8101969D8397
:104AF0008C83CE010E943F258C819D81801B910B70
:104B00000297EA81FB81E00FF11FAF019F01241B97
:104B1000350B281739071CF421912083F7CFDF913B
:104B2000CF911F910F9108951F93CF93DF93EC01C5
:104B3000162F8C819D8101969D838C83CE010E94CE
:104B40003F25EA81FB818C819D81E80FF91F319718
:104B50001083DF91CF911F910895CF93DF93EC01E4
:104B60008AE191E0998388838A819B81009711F083
:104B70000E945A378AE090E00E94BE369C01265F70
:104B80003F4FFC011192E217F307E1F79B838A8301
:104B90001D821C828AE090E09F838E83DF91CF91FB
:104BA00008950F931F93CF93DF932AE132E0FC0126
:104BB00031832083C281D3812097F9F08C01FE01DB
:104BC00032972081318184E0220F331F8A95E1F7EB
:104BD000C20FD31F9E01F8018281938160978217D3
:104BE000930721F0CE010E94740BF4CF0297DF915E
:104BF000CF911F910F910C945A37DF91CF911F9154
:104C00000F910895CF93DF93EC010E94D12582EAA2
:104C100090E00E94BE36FC012AE030E021933193FF
:104C2000DF018E559F4F11961C921E925096A81729
:104C3000B907C9F7FB83EA831D821C828AE090E0F2
:104C40009F838E83DF91CF910895FC0182E192E0F2
:104C5000918780878AE191E091838083828193812B
:104C6000009711F00C945A3708952F923F924F926B
:104C70005F926F927F928F929F92AF92BF92CF92EC
:104C8000DF92EF92FF920F931F93CF93DF93CDB7F5
:104C9000DEB763970FB6F894DEBF0FBECDBF7C01C1
:104CA00060902905712C0E9469116114710409F446
:104CB000E7C080912B0590912C050E947F0440E075
:104CC0006CEC80912B0590912C050E942C04409156
:104CD000220564E480912B0590912C050E942C0400
:104CE00080912605882311F1E09125058091270503
:104CF000882309F48AC080912205811186C00E9410
:104D00005B034B015C0180912B0590912C050E9467
:104D1000D903813059F00E945B03681979098A0927
:104D20009B096E3E72408105910568F3D12CC12C20
:104D300050EF252E51E0352E62E1462E62E0562ED0
:104D400088E090E00E94BE36FC011082118212823F
:104D5000138214821582168217829C838B8388E0CB
:104D600090E09E838D8398878F833A8229825A862A
:104D700049866C2DCF010E94400FAB80BC80BE01E4
:104D8000655F7F4FC5010E94B70400E814EE8823D9
:104D900061F10C8510E0102F0027110F110F110F7A
:104DA0008B8538E0839FC0011124082B192BF50156
:104DB00080818031D1F46A896623B9F070E08989F5
:104DC0009B01281B3109C9019695982F8827979533
:104DD00087950E94263B6052710933E0000F111F36
:104DE0003A95E1F70078060F171FAB80BC808D80E5
:104DF0009E808A0C9B1C8A149B0479F1F5016191B9
:104E00005F01C7010E949425F6CFE9508EEE92E033
:104E1000E33038F4F0E0EE0FFF1FEC52FE4F8081DC
:104E200091814C01990FAA08BB0880912305882322
:104E300029F060E0809124050E947B02C501B40145
:104E40000E94280380912305882309F46FCF61E035
:104E5000809124050E947B0269CF612FC7010E94C7
:104E60009425602FC7010E949425CE0101960E94CF
:104E70002526FFEFCF1ADF0AC614D7040CF460CF43
:104E8000C70163960FB6F894DEBF0FBECDBFDF91AA
:104E9000CF911F910F91FF90EF90DF90CF90BF9037
:104EA000AF909F908F907F906F905F904F903F90CA
:104EB0002F9008950F931F93CF93DF93CDB7DEB755
:104EC0002A970FB6F894DEBF0FBECDBF86EC92E0F6
:104ED0000E94D312CE0101960E94352610E000E018
:104EE0008D819E8108171907B4F4EB81FC81E00FD6
:104EF000F11F408150E070E060E02AE08FE494E030
:104F00000E9424126AED72E08FE494E00E94D611B0
:104F10000F5F1F4FE5CFCE0101960E9425262A96EE
:104F20000FB6F894DEBF0FBECDBFDF91CF911F91BA
:104F30000F910895FC0188E791E09187808788E3CD
:104F400091E09183808382819381009711F00C948A
:104F50005A3708958F929F92AF92BF92CF92DF926D
:104F6000EF92FF920F931F93CF93DF93CDB7DEB7EE
:104F70006C970FB6F894DEBF0FBECDBF8091510580
:104F800090915205892B09F466C0CE0141960E948A
:104F9000B3110E945B034B015C0100914F0510911E
:104FA0005005E0905105F090520594E0EE0CFF1C86
:104FB0009A95E1F7E00EF11ED12CC12CE016F10616
:104FC00061F1B801CE0101960E949C0D8B859C85F4
:104FD000AD85BE8588159905AA05BB05A0F48F850A
:104FE00098899C8F8B8FE981FA810480F581E02D6F
:104FF000BE01655E7F4FCE0103960995B601CE01D5
:1050000041960E9402238FEFC81AD80ACE0101965A
:105010000E94740B005F1F4FD1CFEB88FC880D8975
:105020001E89000F111F0E0D1F1D0E151F0579F093
:10503000F701419151917F016DE475E0CE01019638
:105040000E940D0CCE0101960E94740BEECFCE0192
:1050500041960E949A276C960FB6F894DEBF0FBE59
:10506000CDBFDF91CF911F910F91FF90EF90DF9017
:10507000CF90BF90AF909F908F9008951F920F9206
:105080000FB60F9211242F933F934F935F936F931B
:105090007F938F939F93AF93BF93EF93FF938FE48F
:1050A00094E00E94D101FF91EF91BF91AF919F9148
:1050B0008F917F916F915F914F913F912F910F90C1
:1050C0000FBE0F901F9018951F920F920FB60F9260
:1050D00011242F938F939F93EF93FF93E0915F049D
:1050E000F09160048081E0916504F091660482FD96
:1050F0001BC09081809168048F5F8F732091690439
:10510000821741F0E0916804F0E0E15BFB4F958F7E
:1051100080936804FF91EF919F918F912F910F9051
:105120000FBE0F901F9018958081F4CF1F920F92A1
:105130000FB60F9211242F933F938F939F93AF93AA
:10514000BF938091220490912304A0912404B091F4
:1051500025043091210423E0230F2D3758F50196C3
:10516000A11DB11D20932104809322049093230458
:10517000A0932404B09325048091260490912704E1
:10518000A0912804B09129040196A11DB11D80931E
:10519000260490932704A0932804B0932904BF9178
:1051A000AF919F918F913F912F910F900FBE0F90D4
:1051B0001F90189526E8230F0296A11DB11DD2CF8E
:1051C0001F920F920FB60F9211242F933F934F937C
:1051D0005F936F937F938F939F93AF93BF93EF935F
:1051E000FF93E0910401F09105010995FF91EF9182
:1051F000BF91AF919F918F917F916F915F914F91EF
:105200003F912F910F900FBE0F901F9018951F92F6
:105210000F920FB60F9211242F933F934F935F93EA
:105220006F937F938F939F93AF93BF93EF93FF936E
:10523000E0910201F09103010995FF91EF91BF9177
:10524000AF919F918F917F916F915F914F913F911E
:105250002F910F900FBE0F901F9018951F920F92D5
:105260000FB60F9211242F933F934F935F936F9339
:105270007F938F939F93AF93BF93EF93FF9380910F
:10528000B900887F803609F44AC0F0F5883209F405
:10529000A5C018F5803109F499C0B8F4882309F441
:1052A000F5C0883009F492C0FF91EF91BF91AF91A2
:1052B0009F918F917F916F915F914F913F912F912E
:1052C0000F900FBE0F901F901895883109F486C07B
:1052D000803251F78093FA0314C0803409F49BC0E4
:1052E00040F48033B9F38833F9F68093FA0385EC00
:1052F000AEC0803509F483C0883509F494C0883481
:1053000099F60E946803D0CF883909F48AC038F52D
:10531000883729F050F4883611F0803729F683E079
:105320008093FB031092F90355C0883809F479C0C3
:10533000803919F0803809F0B7CF8091F9038032B5
:1053400008F06FC0E091F90381E08E0F8093F903BC
:105350008091BB00F0E0E752FC4F80833BC0803B74
:1053600039F0D0F4803A09F477C0883A09F09CCF3C
:1053700084E08093FB031092D8031092D703F0E0EF
:10538000E0E009958091D70381110FC081E08093FF
:10539000D7031092B70309C0803C09F4A8CF883C1A
:1053A00009F4A5CF883B09F07FCFE091D80381E0D5
:1053B0008E0F8093D803F0E0E954FC4F80818093F6
:1053C000BB009091D8038091D70329C0809120041D
:1053D0008093BB0085EC8093BC0066CF90911F0446
:1053E00080911E04981758F5E0911F0481E08E0FFC
:1053F00080931F04F0E0E250FC4F8081E9CFE09100
:105400001F0481E08E0F80931F048091BB00F0E0A9
:10541000E250FC4F808390911F0480911E049817E6
:10542000C8F285E8D8CFE0911F0481E08E0F809309
:105430001F048091BB00F0E0E250FC4F808380911C
:10544000FD0381115ECF81E08093FC0384EA8093A9
:10545000BC001092FB0328CF85EC8093BC00109217
:10546000FB038091F903803230F4E091F903F0E01E
:10547000E752FC4F10826091F90370E089ED93E0F0
:10548000F0E0E0E009951092F9030ECF1092FA03D4
:1054900038CFAF92BF92CF92DF92EF92FF920F93ED
:1054A0001F93CF93DF93CDB7DEB763970FB6F89412
:1054B000DEBF0FBECDBF109252041092510488EE91
:1054C00093E0A0E0B0E08093530490935404A09341
:1054D0005504B09356048EED91E090935004809360
:1054E0004F0485EC90E090935C0480935B0484EC23
:1054F00090E090935E0480935D0480EC90E0909344
:10550000600480935F0481EC90E090936204809348
:10551000610482EC90E0909364048093630486ECD1
:1055200090E0909366048093650410926804109252
:10553000690410926A0410926B048AEB92E09093D3
:10554000ED048093EC041092EE041092EF0410929C
:10555000F0041092F1049093F3048093F2041092FB
:10556000F4041092F5041092F6041092F70490934C
:10557000F9048093F8041092FA041092FB0410923C
:10558000FC041092FD049093FF048093FE0410929B
:1055900000051092010510920205109203059093E8
:1055A00005058093040510920605109207051092D8
:1055B000080510920905909311058093100510922B
:1055C0001205109213051092140510921505909370
:1055D0000B0580930A0510920C0510920D05109290
:1055E0000E0510920F0590931705809316051092E3
:1055F00018051092190510921A0510921B05909328
:105600001D0580931C0510921E0510921F05109217
:1056100020051092210590936205809361051092F8
:10562000630510926405109265051092660510924C
:105630005C0510925B058CE390E00E94BE36FC0195
:105640009C01245C3F4F11821082138212821582CA
:10565000148236962E173F07B1F790935A05809320
:1056600059050AE010E010935E0500935D0580E89F
:1056700092E0909358058093570582EA92E09093C8
:10568000600580935F05109252051092510582EAE1
:1056900090E00E94BE36FC0101931193DF018E550C
:1056A0009F4F11961C921E925096A817B907C9F7E2
:1056B000F0935005E0934F058AE090E090935405F5
:1056C0008093530588E392E090934E0580934D05B7
:1056D0008AE592E0909356058093550510924A050D
:1056E000109249058AEA92E0909348058093470515
:1056F00080EA9FE090934C0580934B0560E083E047
:105700000E94C702ECEFF1E0E491E0933905E8EE86
:10571000F1E0E491F0E0EE0FFF1FE552FE4F8591BE
:10572000949190933B0580933A0510924405109212
:10573000460510924505109222051092230589E036
:105740008093250581E0809326058093270580932B
:10575000280589E395E090932C0580932B05109202
:1057600038051092370510924305109242051092A9
:1057700041051092400510923F0510923E0510928F
:105780003D0510923C051092290510922A0511E062
:10579000BE016F5F7F4F80912B0590912C050E9479
:1057A000C00E882309F45FC067E0CE0101960E9415
:1057B000C20398858913ECCF809129058F5F809370
:1057C00029058981883231F008F044C0803111F018
:1057D0008232F1F680912A058F5F80932A058091AD
:1057E0002205811128C080912B0590912C050E94E3
:1057F0007F04BE016F5F7F4F80912B0590912C0538
:105800000E94600440E064EB80912B0590912C0590
:105810000E942C0480912B0590912C050E94D903A5
:10582000082F80912B0590912C050E947F04011177
:1058300002C0109322058981803199F0CE01019632
:105840000E94290590912505981708F0A1CF809313
:1058500025059ECF8B3309F4BDCF823409F098CF54
:10586000B9CF8CE0EFCFC0902905D12C88E090E033
:105870000E94BE36FC0110821182128213821482B1
:105880001582168217829C838B8388E090E09E832A
:105890008D8398878F8380EF91E09A83898382E15B
:1058A00092E09A878987F12CE12C8FE1B82E99E05C
:1058B000A92EEC14FD040CF0C3C06E2D8B819C81CD
:1058C0000E94400F0B811C81F8018081803109F416
:1058D00070C0BE01655F7F4FC8010E94B704882376
:1058E00009F467C08F858F3109F463C0BF8680914A
:1058F0002B0590912C050E947F04B80180912B0507
:1059000090912C050E94600440E06EE480912B058C
:1059100090912C050E942C0440E06D8580912B0510
:1059200090912C050E942C0440E06E8580912B05FF
:1059300090912C050E942C04F8018081803141F067
:1059400040E06F8580912B0590912C050E942C04DE
:1059500080912B0590912C0520912805222339F167
:105960000E947F04882329F180912B0590912C05BA
:105970000115110509F040C040E06CEC0E942C04B8
:105980004091220568E480912B0590912C050E949E
:105990002C0480912205811133C064E170E080E025
:1059A00090E00E94280380912B0590912C050E9485
:1059B0007F04A0922505809129058230E8F110E04E
:1059C000809129051817C0F5809125058C30A1F12B
:1059D000612FCE010B960E94400F8B85803151F1D3
:1059E000CE010B960E94290590912505981710F479
:1059F000809325051F5FE4CFB8010E946004C0CFEB
:105A000080912305882329F060E0809124050E947D
:105A10007B0264E170E080E090E00E9428038091C6
:105A20002305882309F4BFCF61E0809124050E94FB
:105A30007B02B9CF8CE0D8CFFFEFEF1AFF0A39CF46
:105A4000CE0101960E9425268AEB92E0909368058C
:105A5000809367051092690510926A0510926B0594
:105A600010926C0563960FB6F894DEBF0FBECDBFE3
:105A7000DF91CF911F910F91FF90EF90DF90CF902A
:105A8000BF90AF900895CF93DF93CDB7DEB7ED977A
:105A90000FB6F894DEBF0FBECDBF789484B5826098
:105AA00084BD84B5816084BD85B5826085BD85B5C2
:105AB000816085BD80916E00816080936E00109240
:105AC00081008091810082608093810080918100BB
:105AD000816080938100809180008160809380004C
