:100000000C943C010C940E290C94E7280C94640188
:100010000C9464010C9464010C9464010C946401CC
:100020000C9464010C9464010C9464010C946401BC
:100030000C9464010C9464010C9464010C946401AC
:100040000C949D280C9464010C946B280C94452806
:100050000C9464010C9464010C9464010C9464018C
:100060000C9435290C9464012053434F52453A2097
:1000700000496D70756C733A20004469676974615A
:100080006C5772697465206D6573736167650053A1
:100090007563636573732120436F6E6E656374656A
:1000A0006420776974682069703A20004661696C41
:1000B00075726521205265636F6E6E656374696F3A
:1000C0006E672E2E2E00496E697469616C697A69BB
:1000D0006E6720636F6E6E656374696F6E207769FB
:1000E000746820646E73207365727665723A00538B
:1000F0007461727420726563656976696E67206DDC
:100100006573736167652E2E2E0053657454696D97
:100110006544696D6D6572206D6573736167650017
:10012000526561642074656D70206D6573736167DD
:100130006521005265616420656E65726779206D86
:10014000657373616765210054657374206D657311
:100150007361676521002C20415247533A205B00B0
:100160002C205354415455533A20005072696E74F8
:10017000696E67206D7367203A3A200053656E649C
:10018000696E6720726573706F6E73652E2E2E0018
:10019000467261676D656E746174696F6E206C651F
:1001A00076656C3A20002D2D2D2D2D2D2D2D004303
:1001B0006C69656E742068617320646973636F6E27
:1001C0006E65637465642E00436C69656E742068A7
:1001D000617320636F6E6E656374656421004865AA
:1001E0006C6C6F00506F7374706F6E656420746117
:1001F000736B2064696D6D657200005EBCE2613FE7
:10020000DD83C29C7E20A3FD1F41009D23BE46DBF3
:1002100065F88C11AF32CA57E97400000000240061
:1002200027002A0000000000250028002B00000005
:1002300000080002010000030407000000000000A5
:10024000000000000000230026002900040404042C
:100250000404040402020202020203030303030370
:10026000010204081020408001020408102001024D
:10027000040810207D2AEB3811241FBECFEFD8E0F0
:10028000DEBFCDBF13E0A0E0B1E0E4E9FBE702C0D0
:1002900005900D92A631B107D9F725E0A6E1B3E0AC
:1002A00001C01D92AF35B207E1F711E0CBE3D1E019
:1002B00004C02197FE010E949C3DCA33D107C9F7B3
:1002C0000E94B42D0C94BD3D0C9400008CBD9DBDCE
:1002D000089520E3FC0120833296862F82958F704B
:1002E0006F706A3030F4605D6293682F8111F5CFD2
:1002F0000895695CF9CF8230B8F4E82FF0E0EE0F92
:10030000FF1FEE5FFE4F71836083813039F0809173
:100310006900836080936900E89A0895809169007C
:100320008C6080936900E99A0895FC01818D928D1B
:1003300008950895AF92BF92CF92DF92EF92FF920D
:100340000F931F93CF93DF936C017B018B01040FFD
:10035000151FEB015E01AE18BF08C017D10759F099
:100360006991D601ED91FC910190F081E02DC601DB
:100370000995892B79F7C501DF91CF911F910F91D5
:10038000FF90EF90DF90CF90BF90AF900895FC0169
:10039000538D448D252F30E0842F90E0821B930BEA
:1003A000541710F0CF96089501970895FC01918D90
:1003B000828D981761F0A28DAE0FBF2FB11D5D9693
:1003C0008C91928D9F5F9F73928F90E008958FEF35
:1003D0009FEF0895FC01918D828D981731F0828DE9
:1003E000E80FF11D858D90E008958FEF9FEF089540
:1003F000FC01918D228D892F90E0805C9F4F821BA4
:1004000091098F7399270895FC01A48DA80FB92F26
:10041000B11DA35ABF4F2C91848D90E001968F732C
:100420009927848FA689B7892C93A089B1898C914B
:10043000837080648C93938D848D981306C002889A
:10044000F389E02D80818F7D80830895EF92FF9264
:100450000F931F93CF93DF93EC0181E0888F9B8DE7
:100460008C8D98131AC0E889F989808185FF15C0A1
:100470009FB7F894EE89FF896083E889F9898081C4
:100480008370806480839FBF81E090E0DF91CF9193
:100490001F910F91FF90EF900895F62E0B8D10E0B5
:1004A0000F5F1F4F0F731127E02E8C8D8E110CC024
:1004B0000FB607FCFACFE889F989808185FFF5CF6F
:1004C000CE010E940402F1CFEB8DEC0FFD2FF11D48
:1004D000E35AFF4FF0829FB7F8940B8FEA89FB89AC
:1004E00080818062CFCF0F931F93CF93DF938C01D6
:1004F000D0E0C0E0F801EC0FFD1F6491662341F0ED
:1005000083E794E00E942602892B11F02196F2CF16
:10051000CE01DF91CF911F910F910895CF93DF937B
:10052000EC01888D8823B9F0AA89BB89E889F9890B
:100530008C9185FD03C0808186FD0DC00FB607FC40
:10054000F7CF8C9185FFF2CF808185FFEDCFCE0173
:100550000E940402E9CFDF91CF91089590E0FC0161
:10056000E25DFD4F2491FC01E05AFD4F3491FC0106
:10057000E45BFD4FE491EE23C9F0222339F02330F0
:1005800001F1A8F4213019F1223029F1F0E0EE0F49
:10059000FF1FEC5DFD4FA591B4918FB7F894EC91DE
:1005A000611126C030953E233C938FBF08952730BC
:1005B000A9F02830C9F0243049F7809180008F7D60
:1005C00003C0809180008F7780938000DFCF84B557
:1005D0008F7784BDDBCF84B58F7DFBCF8091B0005A
:1005E0008F778093B000D2CF8091B0008F7DF9CF0C
:1005F0003E2BDACFCF93DF9390E0FC01E05AFD4F22
:100600002491845B9D4FFC0184918823C9F090E084
:10061000880F991FFC01E65EFD4FA591B491FC0186
:10062000EC5DFD4FC591D49161110DC09FB7F89459
:100630008C91209582238C938881282328839FBFC7
:10064000DF91CF910895623051F49FB7F8943C91B7
:10065000822F809583238C93E8812E2BEFCF8FB749
:10066000F894EC912E2B2C938FBFEACF3FB7F894E0
:100670008091140490911504A0911604B091170470
:1006800026B5A89B05C02F3F19F00196A11DB11DED
:100690003FBFBA2FA92F982F8827BC01CD01620F29
:1006A000711D811D911D42E0660F771F881F991FE4
:1006B0004A95D1F708958F929F92AF92BF92CF92B1
:1006C000DF92EF92FF926B017C010E9436034B0197
:1006D0005C01C114D104E104F104B9F00E943603B5
:1006E000681979098A099B09683E7340810591055B
:1006F00080F321E0C21AD108E108F10888EE880EE3
:1007000083E0981EA11CB11CE4CFFF90EF90DF9016
:10071000CF90BF90AF909F908F9008952FB7F8948F
:10072000609110047091110480911204909113044F
:100730002FBF0895089585ED8093BC008091BC0083
:1007400084FDFCCF1092E90308952091C503260F84
:100750003327331F21323105ECF42091E903FC01EA
:1007600090E080E0243069F082E00895A091C50314
:100770002191AC014B555C4FA40FB52FB11D2C93AB
:100780000196861798F38091C503680F6093C5039F
:1007900080E0089581E008958FEF9FEF08958FEF37
:1007A0009FEF08958091A40390E091958195910920
:1007B0000895CF93DF93CB01EA01642F0E94A50334
:1007C000CE01DF91CF910895CF93DF931F92CDB7E4
:1007D000DEB7698361E0CE0101960E94A50381E046
:1007E00090E00F90DF91CF910895DC0180E061509F
:1007F00090F09D919827E92FEF70F0E0E650FE4FC2
:100800002491E92FE295EF70F0E0E65FFD4FE4916F
:10081000822F8E27ECCF0895DC012C911196ED915B
:10082000FC91F8948181822B81839281322F3095C3
:100830009323928387E090E00197F1F781818323EE
:10084000818383E290E00197F1F790817894EFEC57
:10085000F0E03197F1F7922381E009F480E0089508
:10086000FC0190810180F281E02D292F209560FF0D
:1008700014C0F8948281822382838181892B8183B1
:10088000A3E2B0E01197F1F78281982B92837894DC
:1008900087ED90E00197F1F70895F8948281822323
:1008A00082838181892B8183AFEFB0E01197F1F7CB
:1008B0008281982B928378948FE090E0EBCFDF9247
:1008C000EF92FF920F931F93CF93DF93EC01D62EFD
:1008D000E42E08E010E0FF24F39461E08D2D8F21D9
:1008E00009F460E0CE010E943004FF0C01501109B0
:1008F000A1F7E11010C0F894E981FA819181888113
:10090000809589238183E981FA819281888180950C
:10091000892382837894DF91CF911F910F91FF906B
:10092000EF90DF900895EF92FF920F931F93CF9374
:10093000DF938C017B0140E065E50E945F04E701E5
:1009400088E0E80EF11C699140E0C8010E945F0454
:10095000CE15DF05C1F7DF91CF911F910F91FF9069
:10096000EF900895FC0190810180F281E02DF894D0
:100970008181292F20958223818378943DE743E06C
:1009800050E0315029F1DA011197F1F78081892384
:10099000C1F3F8948281822382838181892B8183B0
:1009A0007894ABE7B7E01197F1F7F894818182234F
:1009B0008183A3E1B1E01197F1F78081982381E071
:1009C00009F080E07894E3E6F6E03197F1F70895D6
:1009D00080E008956F927F928F929F92AF92BF9224
:1009E000CF92DF92EF92FF920F931F93CF93DF93FB
:1009F0008C01EB018091190590911A050E94B204B7
:100A0000882309F43FC0B8018091190590911A0517
:100A10000E94930440E06EEB8091190590911A05B5
:100A20000E945F047E016E0189E0C80ED11C8E0118
:100A3000A0901905B0901A0588E0882E912C712C91
:100A400066246394C5010E940C0481117628660C0B
:100A5000E1E08E1A9108B1F7F80171928F01CE167C
:100A6000DF0631F78091190590911A050E94B204B2
:100A7000813041F4F70181917F01811105C0E017B8
:100A8000F107C1F790E008C068E0CE010E94F503CD
:100A900091E028852813F6CF892FDF91CF911F9100
:100AA0000F91FF90EF90DF90CF90BF90AF909F900D
:100AB0008F907F906F900895FC0120812EBD9B0147
:100AC0002150310941F051810DB407FEFDCF4EB5E3
:100AD0005EBD4193F5CF61507109860F971F0DB42C
:100AE00007FEFDCF2EB5FC0120830895E091A203FF
:100AF000F091A30380819091A103892B80830895B5
:100B0000E091A203F091A30390818091A1038095CD
:100B10008923808308958EBD00000DB407FEFDCFAC
:100B20008EB50895AF92BF92CF92DF92EF92FF926F
:100B30000F931F93CF93DF93CDB7DEB728970FB6F0
:100B4000F894DEBF0FBECDBF8C017B016A0180919E
:100B50003C048333E1F45801A40EB51EA016B1067F
:100B600009F46FC00E94800580EF0E948B05812FE1
:100B70000E948B05802F0E948B050F5F1F4FF7018E
:100B800081917F010E948B050E947605E7CF5B0172
:100B9000A40EB51E8433C1F40E94800519830A8314
:100BA0008D2D80688B83CC8264E070E0CE0101964D
:100BB0000E945C05AE14BF0409F441C0F7018191A5
:100BC0007F010E948B05F6CF0E9480050F3F110523
:100BD00009F028F419820A8384E08B830CC017FD86
:100BE00017C019820A8333E0169507953A95E1F705
:100BF000007E0C600B8386E0C816D104A0F5F701D7
:100C0000DE011496EA15FB0599F081918D93FACFD8
:100C1000C80126E0969587952A95E1F7807E19838D
:100C20000A830115104C10F48461D7CF8C61D5CFA5
:100C3000B6016D5F7F4FCE0101960E945C050E9458
:100C40007605C60128960FB6F894DEBF0FBECDBF5D
:100C5000DF91CF911F910F91FF90EF90DF90CF9098
:100C6000BF90AF90089563E070E0CE0101960E94BE
:100C70005C05F70181917F010E948B05AE14BF04D2
:100C8000C1F7DDCFCF93DF931F92CDB7DEB7898356
:100C900041E050E0BE016F5F7F4F90E080E00E9436
:100CA00092050F90DF91CF91089590E020913C0440
:100CB000233339F40C96982F990F990F990F80E0F0
:100CC00008954896F8CFDA01E091A003F0E0FE2FF6
:100CD000EE27E60FF71F90E0982F8827A901BD01A6
:100CE0008E0F9F1F0C949205CF93DF9300D0CDB74A
:100CF000DEB779836A8322E030E0AE014F5F5F4F59
:100D000060E170E00E9463060F900F90DF91CF9139
:100D10000895CF93DF9300D0CDB7DEB779836A8390
:100D200022E030E0AE014F5F5F4F64E070E00E9470
:100D300063060F900F90DF91CF910895CF93DF93CB
:100D40001F92CDB7DEB72091A00330E0322F2227CB
:100D5000260F371F90E0982F8827498341E050E005
:100D6000BE016F5F7F4F820F931F0E9492050F900D
:100D7000DF91CF910895CF93DF931F92CDB7DEB768
:100D80006983DC01ED91FC910280F381E02D41E06B
:100D900050E0BE016F5F7F4F09950F90DF91CF91BB
:100DA0000895CF93DF931F92CDB7DEB76983DC013F
:100DB000ED91FC910280F381E02D41E050E0BE0115
:100DC0006F5F7F4F09950F90DF91CF910895FC01E0
:100DD0009485FB018485981303C081E0943008F06A
:100DE00080E00895CF93DF931F92CDB7DEB769837C
:100DF000DC01ED91FC910280F381E02D41E050E0B7
:100E0000BE016F5F7F4F09950F90DF91CF910895DD
:100E10000895FF920F931F93CF93DF93EB01FC0193
:100E2000178A168A2A81211109C02B81211106C037
:100E30002C81211103C02D81222301F1411551057F
:100E4000E9F08A01FC01F08C80E591E00E946601E6
:100E5000AE014E5F5F4F24E030E06CE070E08F2D1C
:100E60000E946306B8018F2D0E94740681E090E015
:100E7000DF91CF911F910F91FF90089580E0F7CF00
:100E8000FC01848595850895FC01848995890895E0
:100E90002AEB32E0FC0131832083FB014089518938
:100EA00062897389FC014283538364837583089547
:100EB000DC01ED91FC91048CF58DE02D0994DF921D
:100EC000EF92FF920F931F93CF93DF93F90136E0D8
:100ED000369FE001379FD00D11243E9F70013F9F48
:100EE000F00C112430E020E070E060E06017710742
:100EF000BCF4D901AE0DBF1DA40FB51FF901EC0F55
:100F0000FD1FE80FF91F0F2EF6E0DF2EF02D0190E8
:100F10000D92DA94E1F76F5F7F4F2A5F3F4FE6CF84
:100F2000DF91CF911F910F91FF90EF90DF90089587
:100F30000F931F93660F771FFC01E60FF71F220F19
:100F4000331FDA01A20FB31F90E080E080179107F2
:100F500034F4219131912D933D930196F7CF1F9158
:100F60000F91089590E080E00895DC0114962D9192
:100F70003C911597621773074CF4ED91FC91028C2C
:100F8000F38DE02D0995BC0181E0089560E070E0EB
:100F900080E0089508970C94B507DC01ED91FC9171
:100FA0000190F081E02D099408970C94CD07FC0185
:100FB00086819781880F991F0895CF92DF92EF92D3
:100FC000FF920F931F93CF93DF936C01EB01DC0132
:100FD000ED91FC910190F081E02D09957C01F601E5
:100FE0000481158101501109158304838281938145
:100FF0000C1B1D0BBE016F5F7F4F9E01AC010E9459
:101000009807C701DF91CF911F910F91FF90EF904B
:10101000DF90CF900895DC0114962D913C911597A7
:10102000621773074CF4ED91FC910088F189E02D73
:101030000995BC0181E0089560E070E080E00895CA
:10104000CF92DF92EF92FF920F931F93CF93DF9394
:101050007C018B01D0E0C0E0D801ED91FC910488C7
:10106000F589E02DC8010995C817D907A4F4D7015F
:10107000ED91FC91C680D780D801ED91FC91019053
:10108000F081E02DBE01C8010995BC01C701F60140
:1010900009952196E1CFDF91CF911F910F91FF909C
:1010A000EF90DF90CF900895FC01248135811216D6
:1010B00013067CF42150310935832483220F331F1A
:1010C0000280F381E02DE20FF31F6081718181E0E6
:1010D000089560E070E080E00895FC01248135818E
:1010E000621773075CF4660F771F82819381680F24
:1010F000791FFB015183408380E0089581E00895CA
:10110000DC0114962D913C9115976217730744F4F6
:10111000ED91FC91028CF38DE02D099591E00895FD
:1011200080E090E0089508970C948008DC01ED9130
:10113000FC910190F081E02D099408970C94960899
:10114000FC01868197810895DC0114962D913C91D4
:1011500015976217730744F4ED91FC910088F189AB
:10116000E02D099591E0089580E090E00895CF92F8
:10117000DF92EF92FF920F931F93CF93DF937C0147
:101180008B01D0E0C0E0D801ED91FC910488F58995
:10119000E02DC8010995C817D907A4F4D701ED912E
:1011A000FC91C680D780D801ED91FC910190F0812F
:1011B000E02DBE01C8010995682FC701F601099508
:1011C0002196E1CFDF91CF911F910F91FF90EF908A
:1011D000DF90CF900895FC0124813581121613060B
:1011E00064F4215031093583248382819381280F4F
:1011F000391FF901808191E0089580E090E0089521
:10120000DC0114962D913C9115976217730744F4F5
:101210001296ED91FC91E60FF71F408380E0089550
:1012200081E00895CF93DF93CDB7DEB76A970FB60D
:10123000F894DEBF0FBECDBFDC0114962D913C911A
:101240001597621773070CF043C0ED91FC91028C67
:10125000F38DE02D09952F87388B498B5A8B6B8B3B
:101260007C8B86E0FE013F96DE01559601900D9243
:101270008A95E1F786E0FE017596DE0111960190F0
:101280000D928A95E1F781E08F8387E0FE01319628
:10129000DE01189601900D928A95E1F787E0FE0134
:1012A0003896DE01119601900D928A95E1F7298119
:1012B0003A814B815C816D817E818F8190E06A965D
:1012C0000FB6F894DEBF0FBECDBFDF91CF9108956A
:1012D0001A8219821C821B821E821D821F82E7CF06
:1012E000CF93DF9300D000D000D01F92CDB7DEB7F0
:1012F000089727960FB6F894DEBF0FBECDBFDF91DB
:10130000CF910C941209CF93DF9300D000D000D07E
:10131000CDB7DEB7DC01ED91FC910190F081E02DBD
:1013200026960FB6F894DEBF0FBECDBFDF91CF91EA
:101330000994CF93DF9300D000D000D0CDB7DEB7B3
:10134000089726960FB6F894DEBF0FBECDBFDF918B
:10135000CF910C948309FC018681978126E0AC0132
:10136000249FC001259F900D11240895FC018481C4
:1013700095810895CF92DF92EF92FF920F931F9382
:10138000CF93DF93CDB7DEB72C970FB6F894DEBFBF
:101390000FBECDBF7C016B01DC01ED91FC91019092
:1013A000F081E02D09952F83388749875A876B870D
:1013B0007C87F7010481158101501109158304838D
:1013C000828193810C191D09B6016F5F7F4F9601D1
:1013D000AC010E945F0786E0FE013796DE011196A0
:1013E00001900D928A95E1F729813A814B815C81C8
:1013F0006D817E8180E090E02C960FB6F894DEBF80
:101400000FBECDBFDF91CF911F910F91FF90EF9055
:10141000DF90CF900895CF93DF93CDB7DEB76A9773
:101420000FB6F894DEBF0FBECDBFDC0114962D9130
:101430003C911597621773070CF043C0ED91FC9136
:101440000088F189E02D09952D8B3E8B4F8B588FAD
:10145000698F7A8F86E0FE017596DE011F960190F6
:101460000D928A95E1F786E0FE013F96DE01119626
:1014700001900D928A95E1F781E08F8387E0FE016C
:101480003196DE01189601900D928A95E1F787E07A
:10149000FE013896DE01119601900D928A95E1F7D2
:1014A00029813A814B815C816D817E818F8190E0C1
:1014B0006A960FB6F894DEBF0FBECDBFDF91CF9115
:1014C00008951A8219821C821B821E821D821F822D
:1014D000E7CFAF92BF92CF92DF92EF92FF920F933E
:1014E0001F93CF93DF9300D000D000D0CDB7DEB7ED
:1014F0006C017B0110E000E0D701ED91FC910488C4
:10150000F589E02DC701099508171907D4F4D6010C
:10151000ED91FC91A680B780D701ED91FC910190EF
:10152000F081E02DB801C701099529833A834B83E7
:101530005C836D837E83C601F50109950F5F1F4FA4
:10154000DBCF26960FB6F894DEBF0FBECDBFDF917E
:10155000CF911F910F91FF90EF90DF90CF90BF90B0
:10156000AF900895CF93DF93CDB7DEB764970FB6F2
:10157000F894DEBF0FBECDBFDC0114962D913C91D7
:10158000159712161306E4F52150310915963C9370
:101590002E93149796E0929FA001939F500D1124D3
:1015A0001296ED91FC91E40FF51FDE011F96892F35
:1015B00001900D928A95E1F7FE013F96DE011196AA
:1015C00001900D929A95E1F781E08F8387E0FE010B
:1015D0003196DE01189601900D928A95E1F72885E3
:1015E00039854A855B856C857D858E8590E064961E
:1015F0000FB6F894DEBF0FBECDBFDF91CF91089537
:10160000198618861B861A861D861C861E86E7CFBD
:101610000F931F93CF93DF9300D000D000D0CDB7AE
:10162000DEB7FC0109831A832B833C834D835E83E1
:101630008481958168177907E4F496E0969F90017C
:10164000979F300D1124A281B381A20FB31FFE0119
:10165000319601900D929A95E1F780E026960FB6AB
:10166000F894DEBF0FBECDBFDF91CF911F910F91D8
:10167000089581E0F3CFCF93DF93EC01DB01ED918F
:10168000FC910190F081E02D0995CE01DF91CF9181
:101690000895CF93DF93EC01685071090E943B0BD2
:1016A000CE01DF91CF910895FC018681978124E0DE
:1016B000880F991F2A95E1F70895FB0161E0808169
:1016C0000C94AE0208950895FC0180819181FB0184
:1016D000918380830895DC01ED91FC91309729F08E
:1016E0000280F381E02D0296099408950F931F93D1
:1016F000CF93DF93EC018B010E946B0BF80181917A
:101700009191DE018D939D9388E001900D928A95D1
:10171000E1F7CE01DF91CF911F910F9108950F93C3
:101720001F93CF93DF93FC012481358181E0621701
:101730007307E4F48A0184E0660F771F8A95E1F766
:10174000C281D381C60FD71FBA01CE010E94760B8A
:10175000F80182859385A485B5858A879B87AC87A8
:10176000BD87868597859F878E8780E0DF91CF91A3
:101770001F910F910895CF92DF92EF92FF920F93F6
:101780001F93CF93DF93E4E0220F331FEA95E1F735
:101790007A01E20EF31EF4E0660F771FFA95E1F787
:1017A000EC01C60FD71FD12CC12CC016D1061CF5D9
:1017B000C7010E946B0BFE0181919191D7018D931E
:1017C0009D9388E001900D928A95E1F78A859B852B
:1017D000AC85BD85F70182879387A487B5878E8501
:1017E0009F8597878687FFEFCF1ADF0A80E1E80E93
:1017F000F11C6096DACFDF91CF911F910F91FF908E
:10180000EF90DF90CF900895CF92DF92EF92FF920A
:101810000F931F93CF93DF937C016B01EA01DB01F0
:10182000ED91FC910190F081E02D0995F601048184
:1018300015810150110915830483828193810C1B4A
:101840001D0BBE016F5F7F4F9E01AC010E94BB0B61
:10185000C701DF91CF911F910F91FF90EF90DF9023
:10186000CF900895AF92BF92CF92DF92EF92FF9206
:101870000F931F93CF93DF93CDB7DEB760970FB66B
:10188000F894DEBF0FBECDBF6C017B0110E000E01D
:10189000D701ED91FC910488F589E02DC7010995E8
:1018A00008171907ECF4D601ED91FC91A680B780DA
:1018B000D701ED91FC910190F081E02DA801B701D5
:1018C000CE0101960995BE016F5F7F4FC601F501FC
:1018D0000995CE0101960E946B0B0F5F1F4FD8CF69
:1018E00060960FB6F894DEBF0FBECDBFDF91CF91EB
:1018F0001F910F91FF90EF90DF90CF90BF90AF902E
:101900000895CF93DF9300D000D000D0CDB7DEB7DD
:1019100046E0469F9001479F300D1124DC0112964E
:10192000ED91FC91E20FF31F86E0DE01119601902C
:101930000D928A95E1F729813A814B815C816D8115
:101940007E8180E090E026960FB6F894DEBF0FBE51
:10195000CDBFDF91CF910895660F771FDC011296FE
:10196000ED91FC91E60FF71F8081918108950F930F
:101970001F93CF93DF93EC018B01E881F9810190F4
:10198000F081E02D09952C813D81215031093D8365
:101990002C83201B310BEA81FB81E00FF11FAF018B
:1019A000BF01641B750B621773071CF4918191933F
:1019B000F7CFDF91CF911F910F910895DC0112961F
:1019C000ED91FC91E60FF71F808108950F931F930F
:1019D000FB0121913191DC012D933D9328E0019091
:1019E0000D922A95E1F7FB01028513852485358543
:1019F000FC010287138724873587FB0126853785FD
:101A0000FC01378726871F910F9108950F931F932D
:101A1000CF93DF93CDB7DEB760970FB6F894DEBFF4
:101A20000FBECDBF8C01DB0114968D919C91159753
:101A3000481759070CF5ED91FC91028CF38DE02DC0
:101A4000CE0101960995BE016F5F7F4FC8010E94CC
:101A5000E60C81E0F801808BCE0101960E946B0BB1
:101A6000C80160960FB6F894DEBF0FBECDBFDF9100
:101A7000CF911F910F910895D80111961C921E923B
:101A800050961C92EDCFCF93DF93EC016850710913
:101A90000E94060DCE01DF91CF9108950F931F9301
:101AA000CF93DF93CDB7DEB7A0970FB6F894DEBF24
:101AB0000FBECDBF8C01DB0114968D919C911597C3
:101AC0004817590764F5ED91FC910088F189E02DE4
:101AD000CE0101960995BE016F5F7F4FCE01419601
:101AE0000E94E60CBE016F5E7F4FC8010E94E60CAB
:101AF00081E0F801808BCE0141960E946B0BCE01F4
:101B000001960E946B0BC801A0960FB6F894DEBF39
:101B10000FBECDBFDF91CF911F910F910895D801D6
:101B200011961C921E9250961C92EDCF0F931F930C
:101B3000CF93DF93CDB7DEB760970FB6F894DEBFD3
:101B40000FBECDBF8C01FB0184819581181619064B
:101B50004CF501979583848324E0880F991F2A957B
:101B6000E1F762817381680F791FCE0101960E94AF
:101B7000E60CBE016F5F7F4FC8010E94E60C81E05A
:101B8000F801808BCE0101960E946B0BC801609614
:101B90000FB6F894DEBF0FBECDBFDF91CF911F917E
:101BA0000F910895F80111821082108AEFCFCF9320
:101BB000DF93EC0184E0440F551F8A95E1F7FB01A8
:101BC00062817381640F751FCE010E94E60CCE0105
:101BD000DF91CF910895DC0114968D919C91DC01E9
:101BE000ED91FC910190F081E02D0994FC01768744
:101BF00065870895DC01ED91FC91068CF78DE02D51
:101C0000099591E089270895862F089581E0862718
:101C1000089521E0FC018485843008F020E0822FC3
:101C20000895089590E080E00895BF92CF92DF92EA
:101C3000EF92FF920F931F93CF93DF93EC01B62E99
:101C4000C72E8D85811105C0CE010E94B20481117D
:101C50000EC01B861D861C8680E0DF91CF911F91F0
:101C60000F91FF90EF90DF90CF90BF90089540E0EC
:101C700060EFCE010E945F0401E0E12CD12C11E065
:101C8000CE010E940C04F82ECE010E940C0491E0BB
:101C9000F91218C0813099F51134D8F2DB86D110D1
:101CA00002C081E08D878B81882399F22396EB2DEA
:101CB000FC2DCF01089629912193E817F907D9F750
:101CC00081E0CBCFEE2DF0E0F8120FC08B85181716
:101CD000A0F4DE01AE0FBF1F13968C91802379F420
:101CE000F12C193008F41C87D12EEC0FFD1F8381D5
:101CF000902F9095892383830AC08113F1CFFE0131
:101D0000EE0DF11D8381802B8383FF24F3946F2DCF
:101D1000CE010E9430041F5F000F11F4E39401E034
:101D200087E08E1508F0ACCFB7CFFF920F931F93CB
:101D3000CF93DF938C01F62EE0911905F0911A05EF
:101D400013861586148612861186108617821682CF
:101D5000158214821382C0E0B80180911905909118
:101D60001A050E94150ED82F882329F0FC1629F099
:101D7000CF5FFC1688F7D0E008C067E0C8010E947A
:101D8000F503F80197818913F3CF8D2FDF91CF9160
:101D90001F910F91FF9008956F927F928F929F9263
:101DA000AF92BF92CF92DF92EF92FF920F931F9369
:101DB000CF93DF936C013B014A01E901C41BD50BB2
:101DC0007E0185E0E80EF11CC701880F991FE11420
:101DD000A0E4FA0610F08FEF9FEF0E9405395C0136
:101DE0008E0130E020E0AC01B401F30182819381E7
:101DF0000E949807D301ED91FC91008CF18DE02DAC
:101E00009701AE01B501C3010995F6019183808365
:101E1000C601DF91CF911F910F91FF90EF90DF905E
:101E2000CF90BF90AF909F908F907F906F900895CC
:101E3000AF92BF92CF92DF92EF92FF920F931F93D8
:101E4000CF93DF937C018B015A01E901C41BD50BB1
:101E50006E0185E0C80ED11CC6010E940539D8016B
:101E60001296ED91FC91EA0DFB1DDC019D01281BF2
:101E7000390B2C173D071CF421912D93F7CFD80176
:101E8000ED91FC91008CF18DE02D9601AE01BC012D
:101E9000C8010995F70191838083C701DF91CF9134
:101EA0001F910F91FF90EF90DF90CF90BF90AF9078
:101EB00008956F927F928F929F92AF92BF92CF922E
:101EC000DF92EF92FF920F931F93CF93DF935C010A
:101ED0007B014A01E901C41BD50B6E0185E0C80EE8
:101EE000D11C8FEF9FEFA6E5CA16A5E1DA0630F404
:101EF00026E02C9DC0012D9D900D11240E940539D6
:101F00003C01CE010496F30197FD09C011821082B5
:101F1000138212821582148236960197F5CF8E01B4
:101F200030E020E0A301B401F701828193810E9497
:101F30005F07D701ED91FC91008CF18DE02D9601AA
:101F4000AE01B301C7010995F50191838083C501F5
:101F5000DF91CF911F910F91FF90EF90DF90CF9085
:101F6000BF90AF909F908F907F906F9008956F92E9
:101F70007F928F929F92AF92BF92CF92DF92EF9219
:101F8000FF920F931F93CF93DF935C013B014A01B4
:101F9000E901C41BD50B6E0185E0C80ED11C8FEF83
:101FA0009FEFC114A8E0DA0638F4C60124E0880FD8
:101FB000991F2A95E1F702960E940539FC01C1920A
:101FC000D1927F01CE01049697FD05C01182108247
:101FD00070960197F9CF8E0130E020E0A701B4019F
:101FE000D30112968D919C910E94BB0BD301ED9170
:101FF000FC91008CF18DE02D9601AE01B701C3017B
:102000000995F50191838083C501DF91CF911F91DF
:102010000F91FF90EF90DF90CF90BF90AF909F9087
:102020008F907F906F900895CF93DF93EC01798329
:10203000688382E090E00E9405399B838A8321E0D7
:1020400030E0FC0131832083DF91CF910895FB01C3
:1020500001900020E9F73197AF01461B570BDC01D7
:10206000ED91FC910280F381E02D0994CF93DF93F1
:102070000E947302EC016CEB72E083E794E00E9433
:1020800027108C0F9D1FDF91CF910895DF92EF9263
:10209000FF920F931F93CF93DF93EC017B018AE7AD
:1020A00090E00E94361010E000E0D70114968D9168
:1020B0009C91DC01ED91FC910488F589E02D099556
:1020C000081719078CF4B8016F5F7F4FC7010E9492
:1020D000EB0DD82EB801C7010E94EB0D6D2D0E94AB
:1020E000AE020E5F1F4FE1CFF7010081118119820F
:1020F00018821B821A8270E060E0CE0104960E9472
:102100001410188611271983088388EC90E09B83AC
:102110008A83CE01DF91CF911F910F91FF90EF90B5
:10212000DF9008958F929F92AF92BF92EF92FF92AD
:102130000F931F93CF93DF93CDB7DEB7A1970FB661
:10214000F894DEBF0FBECDBF7C01FA01CB0119A20E
:10215000223008F42AE08E010F5D1F4F822E912C51
:10216000B12CA12CBF01A50194010E94243CF901CE
:10217000CA016A300CF5605DD8016E938D01232B86
:10218000242B252B79F790E080E0109721F0BD01FA
:10219000C7010E942710A1960FB6F894DEBF0FBEAC
:1021A000CDBFDF91CF911F910F91FF90EF90BF9026
:1021B000AF909F908F900895695CDECFCF92DF92B1
:1021C000EF92FF92CF93DF936B017C016DE283E787
:1021D00094E00E942602EC0144275527BA014C19CD
:1021E0005D096E097F092AE083E794E00E9492105E
:1021F0008C0F9D1FDF91CF91FF90EF90DF90CF90DC
:102200000895AC01990F660B770B77FF04C0CB01E3
:10221000BA010C94DE102AE083E794E00C9492104B
:10222000CF93DF93AC0170E060E020E183E794E0BE
:102230000E949210EC016CEB72E083E794E00E9444
:1022400027108C0F9D1FDF91CF9108958F929F9241
:10225000AF92BF92CF92DF92EF92FF920F931F93B4
:10226000CF93DF937C01EB016C0182E0C80ED11C9F
:102270004701E5E08E0E911C10E000E0F60141916F
:102280006F0150E070E060E02AE0CE010E94921001
:102290005C01E881F9810190F081E02D6EE2CE01D0
:1022A00009958A0D9B1D080F191FC814D90431F711
:1022B000F701458150E070E060E02AE0CE010E9425
:1022C0009210800F911FDF91CF911F910F91FF907E
:1022D000EF90DF90CF90BF90AF909F908F90089538
:1022E000CF93DF93EC01FB0160E080810E94AE029E
:1022F00084EE91E00E943610E881F981408150E03F
:1023000070E060E02AE083E794E0DF91CF910C94E5
:102310009210CF93DF93BC0183E794E00E942710D3
:10232000EC016CEB72E083E794E00E9427108C0FC5
:102330009D1FDF91CF910895BC0183E794E00C9439
:102340002710CF92DF92EF92FF920F931F93CF93BC
:10235000DF936B017A0189018AE090E00E940539E0
:10236000EC018EE391E099838883DB82CA82FD824F
:10237000EC821F830E838FEB92E00E949C11CE01B2
:102380000E9410118CE591E0998388838EE791E09B
:1023900099878887CE01DF91CF911F910F91FF9090
:1023A000EF90DF90CF900895CF92DF92EF92FF925F
:1023B0000F931F93CF93DF936B017A0189018AE01A
:1023C00090E00E940539EC0182E692E099838883CF
:1023D000DB82CA82FD82EC821F830E838FEB92E048
:1023E0000E949C11CE010E94101180E892E0998316
:1023F000888382EA92E099878887CE01DF91CF9126
:102400001F910F91FF90EF90DF90CF900895CF92A2
:10241000DF92EF92FF920F931F93CF93DF936B01A5
:102420007A0189018AE090E00E940539EC018AE195
:1024300092E099838883DB82CA82FD82EC821F83CB
:102440000E838FEB92E00E949C11CE010E9410112E
:1024500088E392E0998388838AE592E09987888768
:10246000CE01DF91CF911F910F91FF90EF90DF9000
:10247000CF900895CF93DF93EC0180E291E09983B0
:1024800088831B821A821D821C821F821E828DEC11
:1024900092E00E949C11CE010E9410118AE090E00F
:1024A0000E9405399C01265F3F4FFC0111922E17B7
:1024B0003F07E1F79B838A831D821C828AE090E0BC
:1024C0009F838E83DF91CF910895CF93DF93EC01AB
:1024D00080E291E0998388837B836A835D834C8368
:1024E0003F832E838FEB92E00E949C11CE01DF91FF
:1024F000CF910C941011CF92DF92EF92FF920F9335
:102500001F93CF93DF938B017A0169018AE090E0FA
:102510000E940539EC019601A701B8010E946512DD
:1025200080EF91E09983888382E192E099878887A0
:10253000CE01DF91CF911F910F91FF90EF90DF902F
:10254000CF900895CF92DF92EF92FF92CF93DF93D7
:10255000EC010E948E036B017C018C819D81092E10
:10256000000CAA0BBB0BA7019601281B390B4A0BC9
:102570005B0BDA01C9010B97A105B10580F181E779
:1025800090E00E9473028A819B810E94011188E67B
:1025900090E00E947302488159814F5F5F4F5983D9
:1025A0004883DD82CC82052E000C660B770B77FF0B
:1025B00010C0CB01BA010E94DE106CEB72E083E721
:1025C00094E0DF91CF91FF90EF90DF90CF900C944B
:1025D00027102AE083E794E00E949210EECFDF916B
:1025E000CF91FF90EF90DF90CF900895CF93DF933E
:1025F00000D000D000D0CDB7DEB770E060E085E459
:1026000095E00E94810C29833A834B835C836D8320
:102610007E83CE0101960E94A21226960FB6F894F0
:10262000DEBF0FBECDBFDF91CF910895CF93DF9373
:1026300000D000D000D0CDB7DEB761E070E085E417
:1026400095E00E94810C29833A834B835C836D83E0
:102650007E83CE0101960E94A21226960FB6F894B0
:10266000DEBF0FBECDBFDF91CF910895CF93DF9333
:1026700000D000D000D0CDB7DEB762E070E085E4D6
:1026800095E00E94810C29833A834B835C836D83A0
:102690007E83CE0101960E94A21226960FB6F89470
:1026A000DEBF0FBECDBFDF91CF910895CF93DF93F3
:1026B00000D000D000D0CDB7DEB763E070E085E495
:1026C00095E00E94810C29833A834B835C836D8360
:1026D0007E83CE0101960E94A21226960FB6F89430
:1026E000DEBF0FBECDBFDF91CF910895CF93DF93B3
:1026F00000D000D000D0CDB7DEB764E070E085E454
:1027000095E00E94810C29833A834B835C836D831F
:102710007E83CE0101960E94A21226960FB6F894EF
:10272000DEBF0FBECDBFDF91CF910895CF93DF9372
:1027300000D000D000D0CDB7DEB765E070E085E412
:1027400095E00E94810C29833A834B835C836D83DF
:102750007E83CE0101960E94A21226960FB6F894AF
:10276000DEBF0FBECDBFDF91CF910895CF93DF9332
:1027700000D000D000D0CDB7DEB766E070E085E4D1
:1027800095E00E94810C29833A834B835C836D839F
:102790007E83CE0101960E94A21226960FB6F8946F
:1027A000DEBF0FBECDBFDF91CF910895DC018AEB74
:1027B00092E08D939D9384E0FB0101900D928A95A8
:1027C000E1F70895AF92BF92CF92DF92EF92FF921E
:1027D0000F931F93CF93DF9300D000D0CDB7DEB718
:1027E0008C016B017A0180913C048333E9F45B0135
:1027F0006801C40ED51EC016D106A9F10E9480053D
:102800008FE00E948B05812F0E948B05802F0E94F4
:102810008B050F5F1F4F80E00E948B05F5018193B0
:102820005F010E947605E7CF843369F50E94800539
:1028300019830A838F2D8F778B83EC8264E070E09D
:10284000CE0101960E945C05A70170E060E0C60120
:102850000E94AF3DE114F10421F0B701C6010E94CE
:102860005C050E947605C7010F900F900F900F90A6
:10287000DF91CF911F910F91FF90EF90DF90CF905C
:10288000BF90AF9008950E9480050F3F110509F099
:1028900030F419820A831B8263E070E0D1CF17FD08
:1028A0000BC019820A8333E0169507953A95E1F734
:1028B000007E08600B83F0CFC80126E096958795CF
:1028C0002A95E1F7807E19830A830115104C18F4CC
:1028D00080618B83E1CF8861FCCFCF93DF931F9220
:1028E000CDB7DEB72091A00330E0322F2227260F8C
:1028F000371F90E0982F882741E050E0BE016F5FBE
:102900007F4F820F931F0E94E21389810F90DF9106
:10291000CF910895CF93C82F462F61E070E00E94B9
:102920009E0661E070E08C2F0E946D148111F9CF3A
:10293000CF910895CF93C82F80E591E00E94660162
:1029400068E070E08C2FCF910C948A14CF93C82F3D
:1029500080E591E00E94660160E170E08C2FCF91EC
:102960000C948A14CF93DF93EC01888D843020F48B
:102970000E94A61484E0888FDF91CF91089563E0D0
:1029800070E00C946D14CF93C82F80E591E00E9405
:1029900066018C2FCF910C94BF14EF92FF920F938E
:1029A0001F93CF937C0104E314E0C0E0F801219170
:1029B00031918F01F701848195812817390729F01A
:1029C000CF5FC43099F780E006C08C2F0E94C314FB
:1029D0008431B1F781E0CF911F910F91FF90EF907B
:1029E0000895CF93DF93EC018C858430D0F40E945E
:1029F000C314843189F0882379F0883169F021E0AB
:102A00008C3159F4E881F9810084F185E02DCE0103
:102A1000099521E0892B09F420E0822FDF91CF91E5
:102A2000089580E0FBCFCF92DF92EF92FF92CF9399
:102A3000DF93EC018C85843068F40E949A140E9424
:102A40008E036B017C018C850E94C314811109C027
:102A500084E08C87DF91CF91FF90EF90DF90CF9053
:102A6000089561E070E080E090E00E945B030E94C6
:102A70008E03AB01BC014C195D096E097F098D8580
:102A80009E85B0E0A0E0481759076A077B07D8F297
:102A90008C850E94A614DCCFCF93FC01C08D80E50D
:102AA00091E00E94660160E270E08C2F0E948A141F
:102AB00062E070E08C2F0E946D1484FD16C062E00D
:102AC00070E08C2F0E946D1483FF0AC048E162E021
:102AD00070E08C2F0E949E0680E090E0CF910895D8
:102AE00080E591E00E946601E3CF40E162E070E0A2
:102AF0008C2F0E949E0681E0F0CFCF93DF931F9230
:102B0000CDB7DEB741E050E0BE016F5F7F4F90E090
:102B100080E00E94E21389810F90DF91CF910895A8
:102B2000CF93DF93C4E1D0E00E947D15882361F04C
:102B300061E070E080E090E00E945B032197A1F7E4
:102B400080E0DF91CF91089581E0FBCF1F93CF9379
:102B5000DF931F92CDB7DEB7182F80E591E00E947A
:102B60006601812F0E94550627E0129FF001112473
:102B7000E85EFB4F22813381377041E050E0BE01B7
:102B80006F5F7F4F820F931F0E94E21389810F9026
:102B9000DF91CF911F910895FC01808D843040F426
:102BA000218D328D232B21F00E94A61590E00895EF
:102BB0008FEF9FEF0895CF93DF93FC01248524309E
:102BC00028F08FEF9FEFDF91CF910895EC010190F6
:102BD000F081E02D0084F185E02D0995892B89F3A2
:102BE0008C850E94A61590E0EECFDA01E091A0035B
:102BF000F0E0FE2FEE27E60FF71F90E0982F8827D2
:102C0000A901BD018E0F9F1F0C94E2138F929F921A
:102C1000AF92BF92CF92DF92EF92FF921F93CF932A
:102C2000DF93CDB7DEB72C970FB6F894DEBF0FBE9B
:102C3000CDBF20913C0414E0222329F16B017C01DB
:102C400080E591E00E9466015E0127E0A20EB11CC2
:102C5000450110E0812F0E94BF14F40181934F01C0
:102C6000882349F11F5F1430A9F710E0F501819125
:102C70005F018D31D9F08831C9F08A518230B0F0CE
:102C80001F5F143099F7812F2C960FB6F894DEBF92
:102C90000FBECDBFDF91CF911F91FF90EF90DF90DE
:102CA000CF90BF90AF909F908F90089560E170E0BB
:102CB000812F0E948A14A12EB12CF501EE0FFF1F67
:102CC000EC5CFB4F1182108283EE93E00197F1F7E9
:102CD00042E870E060E0812F0E949E064FEF62E0C4
:102CE00070E0812F0E949E06B601C114D10491F4B8
:102CF000809100019091010101968115F0EC9F07F0
:102D000008F45CC090930101809300016091000180
:102D100070910101812F0E94890686E0E0E1F1E0D7
:102D2000DE01119601900D928A95E1F7F7018381FA
:102D30008F778C8384818D8385818E83A7014E5FFD
:102D40005F4F24E030E06CE070E0812F0E9463066A
:102D5000B601812F0E94740626E030E0AE014F5F7D
:102D60005F4F66E070E0812F0E94630661E070E0D3
:102D7000812F0E948A1427E02A9DC0012B9D900D6F
:102D800011249C01285E3B4F7901F90111821082C8
:102D900022E030E0AE01455F5F4F68E270E0812FD6
:102DA0000E94F5158B859C85982789279827F70120
:102DB0009383828316821582148265CF80E090EC23
:102DC000A1CFCF92DF92EF92FF920F931F93CF93F9
:102DD000DF9300D000D000D0CDB7DEB78C016B01FF
:102DE0007A01FC01808D843010F40E94A6148AEBD5
:102DF00092E09A838983F60182819381A481B581CF
:102E00008B839C83AD83BE83B701CE0101960E9464
:102E10000616F801808F8430A0F4F586E486128EC1
:102E2000118E81E026960FB6F894DEBF0FBECDBF9F
:102E3000DF91CF911F910F91FF90EF90DF90CF9096
:102E4000089580E0EFCFAF92BF92CF92DF92EF92E2
:102E5000FF920F931F93CF93DF9300D000D000D049
:102E6000CDB7DEB7082F6B0180E591E00E946601C7
:102E70009E012F5F3F4F7901590110E0812F0E9481
:102E8000BF14F50181935F01882341F11F5F143066
:102E9000A9F710E0F70181917F018D31D1F08831E0
:102EA000C1F08A518230A8F01F5F143099F7812F4A
:102EB00026960FB6F894DEBF0FBECDBFDF91CF913F
:102EC0001F910F91FF90EF90DF90CF90BF90AF9048
:102ED000089560E170E0812F0E948A14E12EF12CA8
:102EE000F701EE0FFF1FEC5CFB4F1182108283EEA7
:102EF00093E00197F1F7402F70E060E0812F0E948E
:102F00009E064FEF62E070E0812F0E949E06B601A0
:102F1000CD2889F4809100019091010101968115DD
:102F2000F0EC9F0798F1909301018093000160916C
:102F3000000170910101812F0E94890661E070E01B
:102F4000812F0E948A1427E02E9DC0012F9D900D95
:102F500011249C01285E3B4F7901F90111821082F6
:102F600022E030E0AE014B5F5F4F68E270E0812FFE
:102F70000E94F5158D819E81982789279827F70152
:102F80009383828316821582148291CF80E090EC25
:102F9000CACFCF92DF92EF92FF921F93CF93DF932E
:102FA000EC017B016A018C85843048F40E94C314D3
:102FB000882319F08C850E949A1484E08C87F7018D
:102FC00082819381A481B5810097A105B10551F457
:102FD00090E080E0DF91CF911F91FF90EF90DF9024
:102FE000CF9008958F3F9F4FAF4FBF4F89F3809190
:102FF0003C04811103C084E08C87EACF70E060E07C
:1030000081E20E942317182F8C87843008F780E50F
:1030100091E00E946601A7014E5F5F4F24E030E01F
:103020006CE070E0812F0E946306B601812F0E9440
:10303000740664E070E0812F0E948A140E948E035F
:103040006B017C018C850E94C314873109F18C319E
:10305000F9F0882309F4BCCF0E948E03AB01BC01B8
:103060004C195D096E097F098D859E85B0E0A0E051
:1030700084179507A607B70738F061E070E080E095
:1030800090E00E945B03DECF8C850E94A614B3CF34
:1030900081E090E09FCF0F931F93CF93DF93EC01DC
:1030A0008B01888D843010F40E94A61480913C041A
:1030B000811107C094E0988FDF91CF911F910F91FC
:1030C0000895B80182E00E942317888F843030F47D
:1030D0001D870C871A8E198E81E0EECF80E0ECCF31
:1030E0000F931F93CF9320913C04222349F18C012D
:1030F000FC016481758181E20E942317C82F84300E
:10310000F8F480E591E00E9466018C2F0E94BF14C4
:10311000833131F08C2FCF911F910F910C949A1421
:1031200062E070E08C2F0E948A14F80184819581FE
:10313000EC2FF0E0EE0FFF1FEC5CFB4F91838083E0
:10314000CF911F910F9108957F928F929F92AF928E
:10315000BF92CF92DF92EF92FF920F931F93CF9384
:10316000DF9300D0CDB7DEB7782E8B014A0159012D
:1031700022E030E0AE014F5F5F4F64E270E00E94FA
:10318000F515E980FA80FE24EF24FE24E00EF11EFE
:103190009701377040913C04072D10E0433309F04C
:1031A00042C0085F1F4F102F0027110F110F110F82
:1031B000C901800F911F4733C9F1A9014A0D5B1D59
:1031C0004130584098F160E078E06B01C21AD30AB0
:1031D000A601B4010E949205A5014C195D09B40134
:1031E0006C0D7D1DC8010E949205EA0CFB1CF98242
:1031F000EA8222E030E0AE014F5F5F4F64E270E0B0
:10320000872D0E9463060F900F90DF91CF911F9141
:103210000F91FF90EF90DF90CF90BF90AF909F9075
:103220008F907F900895005F1F4FBDCFA501B4011F
:10323000DACFEF92FF921F93CF93DF9300D0CDB7F9
:10324000DEB7182F22E030E0AE014F5F5F4F60E243
:1032500070E00E94F515E980FA80FE24EF24FE2438
:1032600022E030E0AE014F5F5F4F60E270E0812FFF
:103270000E94F51589819A81982789279827E81651
:10328000F90689F487E0189FF0011124E85EFB4FEE
:10329000F582E482C7010F900F90DF91CF911F91CB
:1032A000FF90EF9008957C01DBCF1F93CF93DF93C6
:1032B000182F80E591E00E946601812F0E94191964
:1032C000EC01812F0E94BF14873121F08C3111F065
:1032D000D0E0C0E0CE01DF91CF911F910895CF9350
:1032E000DF93EC018C85843060F40E94C314873135
:1032F00011F08C3131F48C850E945519811598405C
:1033000088F3DF91CF910895FC018485843010F417
:103310000C94551990E080E00895CF92DF92EF92DF
:10332000FF921F93CF93DF93182F7B01EA01413067
:10333000584010F0C0E0D8E080E591E00E946601BE
:10334000812F0E9419196C01812F0E94BF148731AF
:1033500011F08C3121F5CC16DD0670F380E591E09B
:103360000E9466019E01A70170E060E0812F0E942B
:10337000A41860E270E0812F0E948A1462E070E07D
:10338000812F0E946D1484FD0DC0812F0E94BF14F7
:103390008823B9F080E591E00E946601EFCFD0E08C
:1033A000C0E0DCCF40E162E070E0812F0E949E0629
:1033B000CE01DF91CF911F91FF90EF90DF90CF90E2
:1033C0000895D0E0C0E0F4CF0F931F93CF93DF9325
:1033D0008C01EA01FC018485843048F40E948D1937
:1033E000892B39F481E090E0F80193838283D0E067
:1033F000C0E0CE01DF91CF911F910F9108959F9270
:10340000AF92BF92CF92DF92EF92FF920F931F93F2
:10341000CF93DF938C015B01942EE52EFC01C688CF
:10342000D788F08C80E591E00E9466018F2D0E9484
:103430001919C92DDE2D8C179D0708F4EC019E018A
:10344000A501B6018F2D0E94A418F80186899789DD
:103450008C0F9D1F978B868BCE01DF91CF911F9193
:103460000F91FF90EF90DF90CF90BF90AF909F9023
:103470000895FF920F931F93CF93DF9300D0CDB7A2
:10348000DEB7F82E22E030E0AE014F5F5F4F66E21C
:1034900070E00E94F51509811A8110270127102775
:1034A00022E030E0AE014F5F5F4F66E270E08F2DAB
:1034B0000E94F51589819A819827892798270817EE
:1034C000190749F4C8010F900F90DF91CF911F9118
:1034D0000F91FF9008958C01E3CF1F93CF93DF935B
:1034E000182F87E0189FE0011124C85EDB4F888108
:1034F0009981009761F480E591E00E946601812F37
:103500000E94391A2E81821B910999838883DF9149
:10351000CF911F910895AF92BF92CF92DF92EF9219
:10352000FF920F931F93CF93DF93EC017B01809168
:103530003C04811120C01B821A8288EE93E0A0E037
:10354000B0E08C839D83AE83BF8386E891E099834E
:10355000888384E08C8788EE93E09E878D87CE01F8
:10356000DF91CF911F910F91FF90EF90DF90CF905F
:10357000BF90AF90089584E3C82E84E0D82E10E069
:1035800094E0B92EA12CD6012D913D916D01F7014A
:10359000848195812817390791F4812F0E94C314E3
:1035A000082F873111F08C3139F5812F0E946D1A67
:1035B000892B59F50C3119F4812F0E949A141F5F41
:1035C000143009F7A11008C0D701ED91FC910084D7
:1035D000F185E02DC70109951B821A8288EE93E0E0
:1035E000A0E0B0E08C839D83AE83BF8386E891E04A
:1035F00099838883BC86AFCF843149F08111DFCFB6
:10360000F601329711821082DACFB12ED8CFAA24D8
:10361000A394D5CF8F929F92AF92BF92CF92DF9219
:10362000EF92FF921F93CF93DF93CDB7DEB72F9723
:103630000FB6F894DEBF0FBECDBF5C014B017A011F
:1036400080913C048823A1F1B501CE0101960E942E
:103650008B1A84E3C82E84E0D82E10E0F601219165
:1036600031916F01F501848195812817390751F453
:10367000812F0E94C314873129F4A701B401812F3F
:103680000E948D191F5F143049F7C7012F960FB69E
:10369000F894DEBF0FBECDBFDF91CF911F91FF9099
:1036A000EF90DF90CF90BF90AF909F908F90089554
:1036B000F12CE12CEACFFC018485843010F40C94C9
:1036C0006D1A90E080E008954F925F927F928F9202
:1036D0009F92AF92BF92CF92DF92EF92FF920F93A1
:1036E0001F93CF93DF9300D0CDB7DEB7782E6B0159
:1036F0004A01A82EB12C27E0829FC0011124FC01B1
:10370000E85EFB4F7F010081118180E591E00E941E
:1037100066010815190554F4872D0E94391AF7011E
:1037200026818C01021B11091183008301151105EB
:1037300019F5872D0E94BF14843159F0882349F070
:1037400001E010E08C3111F410E000E011950195DA
:103750001109C8010F900F90DF91CF911F910F9128
:10376000FF90EF90DF90CF90BF90AF909F908F90A1
:103770007F905F904F900895801691060CF484011D
:1037800087E08A9DF0018B9DF00D1124E85EFB4FD0
:10379000E280F380C114D10451F12701F7E05F22E8
:1037A000872D0E945506840D951D20913C042733DA
:1037B00009F453C09801240D351D2130384008F418
:1037C0004CC020E038E0490184189508A401B601F6
:1037D0000E94E2132601480C591C6801C818D90838
:1037E000872D0E945506A601B2010E94E213E00E49
:1037F000F11E87E08A9DF0018B9DF00D1124E85E9B
:10380000FB4FF382E28220813181201B310B318317
:1038100020838681800F912F911D8A3F910510F49E
:10382000232BF1F487E08A9DF0018B9DF00D11248C
:10383000E85EFB4F1682F982EA8222E030E0AE01B8
:103840004F5F5F4F68E270E0872D0E94630660E47F
:1038500070E0872D0E948A147CCFA801B601C5CFE5
:10386000868377CFCF93DF93FC01218D328D211595
:10387000310529F48FEF9FEFDF91CF910895EC018F
:10388000808D4217530708F0A9010E94641B181687
:10389000190684F7298D3A8D281B390B3A8F298F09
:1038A000EBCF0F931F93CF93DF931F92CDB7DEB76C
:1038B000FC01218D328D232B41F48FEF9FEF0F9070
:1038C000DF91CF911F910F9108958C0141E050E05D
:1038D000BE016F5F7F4FFC01808D0E94641B181634
:1038E00019065CF7F801818D928D0197928F818F77
:1038F000898190E0E4CF0F931F93CF93DF93CDB7EF
:10390000DEB728970FB6F894DEBF0FBECDBF8C018F
:10391000D80159964D915C915A974115510551F036
:10392000ED91FC91048CF58DE02D70E060E0C80114
:103930000995EECFF801808D0E946D1A892BB1F1A7
:1039400048E050E0BE016F5F7F4FD80158968C91E0
:103950000E94641B18161906F4F4D801509684E0EE
:10396000FE01319601900D928A95E1F78D8190E0EC
:10397000982F88272E81820F911DF801958B848BBB
:103980008F81282F30E0322F22278885820F932FB6
:10399000911D928F818F28960FB6F894DEBF0FBECF
:1039A000CDBFDF91CF911F910F91089590E080E0FE
:1039B000F2CF4F925F926F927F928F929F92AF92CF
:1039C000BF92CF92DF92EF92FF920F931F93CF930C
:1039D000DF93CDB7DEB763970FB6F894DEBF0FBEA7
:1039E000CDBF7C016B013A01FB0120E090E080E05B
:1039F0006AE03191332309F461C040ED430F4A304E
:103A000008F04DC0689FA001699F500D1124CA01A4
:103A1000C097830F911D37FD9A958F3F910549F30C
:103A200040F3F7014281538164817581809169047B
:103A300090916A04A0916B04B0916C0448175907E7
:103A40006A077B0709F40DC28701085F1F4F0E94B8
:103A50008E036F7077277C5FC8010E944B188130FE
:103A600009F004C28AEB92E09A838983F70182818C
:103A70009381A481B5818B839C83AD83BE8345E311
:103A800050E0BE016F5F7F4FC8010E940907892B7C
:103A9000A9F5D12CC12CC8010E94B21417C03E3226
:103AA00009F0BFCF233009F4BCCFD301A20FB11D61
:103AB00012968C932F5F90E080E09BCF233009F02B
:103AC000B0CFF3018583CC24C394D12CC601639677
:103AD0000FB6F894DEBF0FBECDBFDF91CF911F911F
:103AE0000F91FF90EF90DF90CF90BF90AF909F909D
:103AF0008F907F906F905F904F9008950E948E03FB
:103B0000F7017783668342E050E0B7016A5F7F4F39
:103B1000C8010E94FF1981E090E09A83898342E006
:103B200050E0BE016F5F7F4FC8010E94FF1980E027
:103B300091E09A83898342E050E0BE016F5F7F4F3E
:103B4000C8010E94FF191A82198242E050E0BE01AA
:103B50006F5F7F4FC8010E94FF1942E050E0BE0135
:103B60006F5F7F4FC8010E94FF1942E050E0BE0125
:103B70006F5F7F4FC8010E94FF195601F6018081D7
:103B8000882301F16501F60181912F01882311F04D
:103B90008E32B1F446018A189B081814190474F483
:103BA0008D8641E050E0BE01635F7F4FC8010E94F7
:103BB000FF19A401B501C8010E94FF195201DECF0F
:103BC0006201E1CF1D8641E050E0BE01635F7F4F9F
:103BD000C8010E94FF19C12CDD24D394DA82C98266
:103BE00042E050E0BE016F5F7F4FC8010E94FF19A5
:103BF000DA82C98242E050E0BE016F5F7F4FC801A8
:103C00000E94FF19C8010E944C15892B09F441CF6D
:103C1000F3E0AF2EB12C230122E0420E511CD4C0A0
:103C2000F7014281538164817581808D918DA28DD0
:103C3000B38D481759076A077B0709F008C1848DBF
:103C4000958DC59709F003C181A192A15DEFC52EA5
:103C5000DD24DA940C970CF4ADC04CE050E0BE01CA
:103C60006F5F7F4FC8010E94321C8B819C81982717
:103C7000892798279A8B898BF7014681578129815B
:103C80003A814217530709F0E7C097FFE5C08F70EC
:103C900092703BEFC32EDD24DA94892B09F08AC0A1
:103CA0006F8078847624672476242AEFC22EDD2460
:103CB000DA946114710409F47DC0D12CC12C8D817A
:103CC0009E81982789279827C816D906F8F441E0DD
:103CD00050E0BE01635F7F4FC8010E94321C4D85DA
:103CE000442331F050E070E060E0C8010E94321CD3
:103CF0008D858111ECCF44E050E070E060E0C801B8
:103D00000E94321CFFEFCF1ADF0AD9CF912C812CF1
:103D100041E050E0BE016D5E7F4FC8010E94321C41
:103D20004B89842F807C09F06CC0442331F050E033
:103D300070E060E0C8010E94321C8B898111E8CFDD
:103D400042E050E0BE01615F7F4FC8010E94321C1B
:103D500042E050E0BE01635F7F4FC8010E94321C09
:103D600044E050E070E060E0C8010E94321C42E094
:103D700050E0BE016F5E7F4FC8010E94321C8F85EC
:103D8000988949895A898115914009F043C0CD84A9
:103D9000DE84DC24CD24DC2481E0C816D104D1F5F6
:103DA0004115544009F04AC044E050E0B201C80156
:103DB0000E94321C21E0A21AB10809F46CCEFFEF78
:103DC000CF16DF0609F067CE0E948E033B014C013F
:103DD000C8010E947B1C181619060CF421CF0E9402
:103DE0008E03661977098809990969387341810535
:103DF000910548F562E370E080E090E00E945B038B
:103E0000E7CF41E050E070E060E0C8010E94321C62
:103E10001B8A93CF54274527542770E060E0C801E0
:103E20000E94321CFFEF8F1A9F0A6814790409F070
:103E30006FCF96EFC92EDD24DA94BCCFE7EFCE2EFC
:103E4000DD24DA94B7CFCC24CA94DC2CB3CF6EEF48
:103E5000C62EDD24DA94AECF4CEFC42EDD24DA94E6
:103E6000A9CF8EEFC82EDD24DA9430CED12CC12C10
:103E70002DCECF92DF92EF92FF920F931F93CF93AD
:103E8000DF93CDB7DEB7AF970FB6F894DEBF0FBEA6
:103E9000CDBF7C016A010AEB12E01A8309831C86FC
:103EA0001B8688EE93E0A0E0B0E08D879E87AF8709
:103EB000B88B84EB91E09A878987188F0F8B198EC6
:103EC0001A8E1B8E1C8E84E089A31BA70AA71CA632
:103ED0001DA61EA61FA680915D0490915E04A09170
:103EE0005F04B09160048EA39FA3A8A7B9A78B839A
:103EF0009C83AD83BE8318861F82AE01465D5F4FF3
:103F0000CE0101960E94D91C81309105B1F4D701F0
:103F1000ED91FC910488F589E02D1DA30CA38CA5DF
:103F20009DA5AEA5BFA58EA39FA3A8A7B9A7A601CF
:103F3000BE016C5D7F4FC7010995AF960FB6F8942F
:103F4000DEBF0FBECDBFDF91CF911F910F91FF90CC
:103F5000EF90DF90CF900895CF92DF92EF92FF9293
:103F60000F931F93CF93DF93CDB7DEB7AF970FB605
:103F7000F894DEBF0FBECDBF8C016B017A018AEBD6
:103F800092E09A8389831B821C821D821E821C867A
:103F90001B8648EE53E060E070E04D875E876F87D8
:103FA000788B24EB31E03A872987988F8F8B198E95
:103FB0001A8E1B8E1C8E24E029A39BA78AA71CA601
:103FC0001DA61EA61FA6D8011C968C91843060F4F5
:103FD0000E94C314882321F0F80184850E949A145A
:103FE00084E0D8011C968C9380915D0490915E04CE
:103FF000A0915F04B09160048EA39FA3A8A7B9A766
:104000008B839C83AD83BE8318861F82AE01465D81
:104010005F4FB601CE0101960E94D91C0097C1F0F6
:10402000D801ED91FC910684F785E02D8AEB92E0B2
:104030009DA38CA38CA59DA5AEA5BFA58EA39FA374
:10404000A8A7B9A7A701BE016C5D7F4FC80109955C
:10405000AF960FB6F894DEBF0FBECDBFDF91CF9104
:104060001F910F91FF90EF90DF90CF900895CF9325
:10407000DF931F92CDB7DEB741E050E0BE016F5F26
:104080007F4FFC0184850E94641B1816190634F4C6
:10409000898190E00F90DF91CF9108958FEF9FEF8E
:1040A000F9CFFC018485843010F40C94641B90E0FB
:1040B00080E008950F931F93CF93DF9300D0CDB787
:1040C000DEB7FC0124852430E0F48C0180E591E02A
:1040D0000E94660122E030E0AE014F5F5F4F60E179
:1040E00070E0F80184850E94F51589819A819827EE
:1040F000892798270F900F90DF91CF911F910F91F3
:10410000089590E080E0F6CFEF92FF920F931F9317
:10411000CF93DF9300D000D0CDB7DEB78C017B0109
:10412000FB0184858430A8F08AEB92E0F80191834A
:1041300080831282138214821582C8010F900F901F
:104140000F900F90DF91CF911F910F91FF90EF9003
:10415000089580E591E00E94660124E030E0AE0120
:104160004F5F5F4F6CE070E0F70184850E94F515AA
:10417000BE016F5F7F4FC8010E94D613DECF0F9341
:104180001F93CF93DF9300D0CDB7DEB7FC0124851A
:104190002430E0F48C0180E591E00E94660122E089
:1041A00030E0AE014F5F5F4F64E070E0F80184855E
:1041B0000E94F51589819A819827892798270F9061
:1041C0000F90DF91CF911F910F91089590E080E0C3
:1041D000F6CF3F924F925F926F927F928F929F9213
:1041E000AF92BF92CF92DF92EF92FF920F931F9305
:1041F000CF93DF93CDB7DEB7EA970FB6F894DEBF63
:104200000FBECDBF7C012A013B0169010E948E03D4
:104210004B015C0187010D5B1F4FC8010E947B1C95
:10422000181619069CF00E948E03681979098A09EC
:104230009B09461657066806790608F466C162E3CC
:1042400070E080E090E00E945B03E7CF42E250E044
:10425000BE016F5F7F4FC8010E94321C898182308E
:10426000D1F0312C832DEA960FB6F894DEBF0FBE45
:10427000CDBFDF91CF911F910F91FF90EF90DF9015
:10428000CF90BF90AF909F908F907F906F905F90F6
:104290004F903F900895F801848995898334910562
:1042A00001F76D817E818F8198850E94813D4B0150
:1042B0005C01F60180829182A282B38246E050E0E6
:1042C000B701685F7F4FCE014D960E94A23D892BBA
:1042D00041F6F70180819181A281B3818816990608
:1042E000AA06BB0608F4BDCF84819581A681B7815B
:1042F00088159905AA05BB0508F4B3CF89899A8961
:10430000AB89BC8986879787A08BB18B4EEC50E038
:1043100070E060E0C8010E94321C312CC701829617
:1043200098AB8FA7F701B696FAABE9AB08969CABB2
:104330008BAB67019AE1C90ED11CBD96FEABEDAB0C
:10434000C701429698AF8FABFD97FAAFE9AF47012F
:10435000FEE18F0E911CF801818D928D18161906C1
:104360000CF080CFC8010E94511C8333910509F4E1
:10437000B2C014F58130910509F464C044F4892B6E
:1043800051F3C8010E94511CAC01552775C0833000
:10439000910509F462C00697A1F7C8010E94511C5B
:1043A000B82E44E050E0B401C8010E94321CEB2D4D
:1043B000E450FF0BAF0160C08A33910509F45FC080
:1043C00084F585339105B1F1C697D9F6C8010E94ED
:1043D000511C5C01B601CE0189960E94D6138BA5B3
:1043E0009CA5ADA5BEA5892B8A2B8B2BB1F0EDA981
:1043F000FEA94080518062807380B601CE01839611
:104400000E94D6138DA19EA1AFA1B8A5A501481603
:1044100059066A067B0609F0B8CF44E050E0B601C1
:1044200018C08B33910509F440C08F3F910509F402
:1044300092CFA7CFC8010E94511CC8010E94511CF5
:10444000382E89CFC8010E94511C44E050E06FA96A
:1044500078ADC8010E94321C7ECFC8010E94511C59
:10446000B82E44E050E069AD7AADC8010E94321C1C
:104470008B2D8450990BAC0170E060E0EACFC8014D
:104480000E94511C44E050E069A97AA9C8010E9429
:10449000321CF70166A177A180A591A50E94813DFC
:1044A00066A377A380A791A756CFC8010E94511C8D
:1044B00044E050E06BA97CA9C8010E94321CF701BE
:1044C00062A573A584A595A50E94813D62A773A7E7
:1044D00084A795A740CFC8010E94511C44E050E03A
:1044E0006FA578A9C8010E94321CF70162A173A1CF
:1044F00084A195A10E94813D62A373A384A395A387
:1045000066A777A780AB91AB26CF33243A94AACE87
:104510007F928F929F92AF92BF92CF92DF92EF9253
:10452000FF920F931F93CF93DF93CDB7DEB7A6977C
:104530000FB6F894DEBF0FBECDBF8C01762E942E41
:10454000852E20E2A22ECE0101967C01DC01EA2D0F
:104550001D92EA95E9F76801F3E4CF0ED11C8AEBCE
:1045600092E09AA389A38FEF8BA38CA38DA38EA334
:1045700043E450E0BE016F5D7F4FC6010E94090712
:10458000019609F4BFC081E089838A8386E0B82E52
:10459000BB821C82D80114966D917D918D919C9166
:1045A00017970E94813D6D837E838F8398878986CC
:1045B0009A8680E890E09C878B874CE150E0B701B9
:1045C000C6010E94FF19FE0137968AE1DF011D92A4
:1045D0008A95E9F74801B8E08B0E911CF401D701E8
:1045E00001900D92BA94E1F740E150E0B701C601A5
:1045F0000E94FF19F7011192AA94E9F796E0A92EFB
:10460000B12C40E250E0B701C6010E94FF19F1E071
:10461000AF1AB108B1F783E6898392E89A8393E5EC
:104620009B838C8385E38D8381E08E837F829DE3F2
:10463000988797E099878A8786E0F401DE011B96C8
:1046400001900D928A95E1F78CE0898B8A8B61EE5F
:1046500072E0CE0143960E94B63DD8011B966C9144
:10466000CE0149960E946901F8016485CE014B96FE
:104670000E946901D8011D966C91CE014D960E9451
:1046800069014EE150E0B701C6010E94FF19B3E095
:104690007B121EC082E3898384E08A83F8019685B9
:1046A0009B8397859C8390899D8391899E8396E3C4
:1046B0009F838887828D8987838D8A87848D8B8766
:1046C000858D8C874CE050E0B701C6010E94FF1930
:1046D00087E3898386E08A8391E09B8393E09C83D0
:1046E0008D838FE08E838AE38F838BE388878FEFC0
:1046F000898749E050E0B701C6010E94FF19C60151
:104700000E944C15A6960FB6F894DEBF0FBECDBF23
:10471000DF91CF911F910F91FF90EF90DF90CF909D
:10472000BF90AF909F908F907F900895EF92FF92EF
:104730000F931F93CF93DF93EC010C811D818E812A
:104740009F8108171907F1F4C80105969F838E838E
:10475000811520E49207E8F4880F991F0E9405391B
:104760007C0130E020E0AC0170E060E08A819B8158
:104770000E9498078A819B81009711F00E94A139BD
:10478000FB82EA82DF91CF911F910F91FF90EF9012
:1047900008958FEF9FEFE2CFEF92FF920F931F9359
:1047A000CF93DF93EC017B018C819D8101969D83EA
:1047B0008C83CE010E9496238A819B810C811D816E
:1047C0000E191F090250110997012F5F3F4FAC01CD
:1047D000B7010E949807DF91CF911F910F91FF9031
:1047E000EF9008950F931F93CF93DF93EC018B010C
:1047F0008C819D8101969D838C83CE010E9496239E
:104800008C819D8181509048880F991F2A813B811E
:10481000820F931FFC0111830083DF91CF911F91C1
:104820000F910895AF92BF92CF92DF92EF92FF92D5
:104830000F931F93CF93DF93EC010C811D81CE80EA
:10484000DF800C151D0509F050C0580185E0A80E49
:10485000B11CBF82AE828FEF9FEFA114E8E0BE06CD
:1048600038F4C50134E0880F991F3A95E1F70296B4
:104870000E940539FC01A192B1927F01F4E0CF0EB4
:10488000D11CF701D7FC07C011821082709681E01D
:10489000C81AD108F7CF30E020E0A70170E060E04F
:1048A0008A819B810E94BB0B0A811B810115110526
:1048B000D1F0F80132978081918124E0880F991F0F
:1048C0002A95E1F7080F191F98018A819B810051F1
:1048D00011098217930721F0C8010E946B0BF4CFD6
:1048E00002970E94A139FB82EA82DF91CF911F914A
:1048F0000F91FF90EF90DF90CF90BF90AF90089511
:10490000EF92FF920F931F93CF93DF93EC017B0104
:104910008C819D8101969D838C83CE010E941224FF
:104920008A819B810C811D810E191F09025011097A
:1049300097012F5F3F4FAC01B7010E94BB0BDF9186
:10494000CF911F910F91FF90EF900895EF92FF92FA
:104950000F931F93CF93DF937C018B01FC01848124
:104960009581019695838483C7010E941224F701E3
:10497000C481D581C150D04FCE0124E0880F991F4A
:104980002A95E1F7C281D381C80FD91FB801CE01A2
:104990000E94760BF80182859385A485B5858A8768
:1049A0009B87AC87BD87868597859F878E87DF919C
:1049B000CF911F910F91FF90EF900895CF92DF92CA
:1049C000EF92FF92CF93DF93CDB7DEB76A970FB622
:1049D000F894DEBF0FBECDBF69017A01FC01819161
:1049E00091919A8B898B88E0DE01539601900D920C
:1049F0008A95E1F71A821982788B6F87BE016F5E04
:104A00007F4FCE0101960E94760BCB86DC86ED8629
:104A1000FE86BE016F5F7F4F8BE395E00E94A62468
:104A2000CE0101960E946B0BCE0141960E946B0B4A
:104A30006A960FB6F894DEBF0FBECDBFDF91CF915F
:104A4000FF90EF90DF90CF900895CF92DF92EF929A
:104A5000FF920F931F93CF93DF93EC010C811D8185
:104A6000EE80FF800E151F05B9F598012B5F3F4FB3
:104A70003F832E83263585E13807D0F446E0429FF8
:104A8000C001439F900D11240E9405396C0184E000
:104A9000E80EF11CF601F7FC0EC0118210821382A1
:104AA000128215821482369681E0E81AF108F3CF5B
:104AB0008FEF9FEFE9CF30E020E0A60170E060E0EB
:104AC0008A819B810E945F078A819B81009711F0F8
:104AD0000E94A139CA82DB82DF91CF911F910F9191
:104AE000FF90EF90DF90CF900895EF92FF920F9399
:104AF0001F93CF93DF9300D000D000D0CDB7DEB7A7
:104B00008C017B01FC0184819581019695838483CE
:104B1000C8010E942525F8018281938104811581B5
:104B20000E191F090250110997012F5F3F4FAC0169
:104B3000B7010E945F0726960FB6F894DEBF0FBE3E
:104B4000CDBFDF91CF911F910F91FF90EF9008950E
:104B50000F931F93CF93DF9300D000D000D0CDB739
:104B6000DEB78C0129833A834B835C836D837E831C
:104B7000FC0184819581019695838483C8010E94FC
:104B80002525F8012481358146E0429FC001439FDD
:104B9000900D1124A281B381A80FB91F169786E04A
:104BA000FE01319601900D928A95E1F726960FB697
:104BB000F894DEBF0FBECDBFDF91CF911F910F9153
:104BC0000895EF92FF920F931F93CF93DF93EC0121
:104BD0000C811D818E819F8108171907D1F4C801AE
:104BE00005969F838E830E9405397C018A819B8173
:104BF000F701DC019D01281B390B201731071CF43C
:104C00002D912193F7CF009711F00E94A139EA82EC
:104C1000FB82DF91CF911F910F91FF90EF9008954C
:104C20000F931F93CF93DF93EC018B018C819D81B8
:104C300001969D838C83CE010E94E1258C819D810C
:104C4000801B910B0297EA81FB81E00FF11FAF01FE
:104C50009F01241B350B281739071CF42191208351
:104C6000F7CFDF91CF911F910F9108951F93CF93AD
:104C7000DF93EC01162F8C819D8101969D838C839F
:104C8000CE010E94E125EA81FB818C819D81E80FA4
:104C9000F91F31971083DF91CF911F9108950F93E2
:104CA0001F93CF93DF938C018AE192E0F801918307
:104CB000808388EE92E00E949C11C8010E9410112E
:104CC000F801C281D3812097F1F0FE0132978081F3
:104CD000918124E0880F991F2A95E1F7C80FD91F09
:104CE0009E01F8018281938160978217930721F0DA
:104CF000CE010E946B0BF4CF0297DF91CF911F91F1
:104D00000F910C94A139DF91CF911F910F910895CC
:104D1000CF93DF93EC010E944F2682EA90E00E943D
:104D20000539FC012AE030E021933193DF018E55F3
:104D30009F4F11961C921E925096A817B907C9F75B
:104D4000FB83EA831D821C828AE090E09F838E832E
:104D5000DF91CF910895CF93DF93EC0182E692E04B
:104D60009983888388EE92E00E949C11CE010E9474
:104D700010118A819B81009721F0DF91CF910C94D3
:104D8000A139DF91CF910895CF93DF93EC010E9479
:104D9000AB268CE390E00E940539FC019C01245C69
:104DA0003F4F11821082138212821582148236962E
:104DB000E217F307B1F79B838A831D821C828AE086
:104DC00090E09F838E83DF91CF910895CF93DF93FF
:104DD000EC0180E291E09983888388EE92E00E9462
:104DE0009C11CE010E9410118A819B81009721F0B5
:104DF000DF91CF910C94A139DF91CF910895CF939A
:104E0000DF93EC010E94E6268AE090E00E940539DB
:104E10009C01265F3F4FFC011192E217F307E1F777
:104E20009B838A831D821C828AE090E09F838E830D
:104E3000DF91CF9108950F931F93CF93DF93DC0100
:104E40001296ED91FC91309729F12081318121500A
:104E5000310931832083232BE9F4EC010881198186
:104E60000115110579F080EF91E0F80191838083BD
:104E700082E192E091878087C8010E94E626C801FE
:104E80000E94A1398A819B81DF91CF911F910F915F
:104E90000C94A139DF91CF911F910F910895CF9379
:104EA000DF93EC018EE391E09983888388EE92E0B2
:104EB0000E949C11CE010E9410118A819B81009753
:104EC00021F0DF91CF910C94A139DF91CF9108951A
:104ED000CF93DF93EC010E944F2784E190E00E9482
:104EE00005399C012C5E3F4FFC0111921192E21793
:104EF000F307D9F79B838A831D821C828AE090E0A6
:104F00009F838E83DF91CF9108958F929F92AF926E
:104F1000BF92CF92DF92EF92FF920F931F93CF93A6
:104F2000DF93CDB7DEB76C970FB6F894DEBF0FBE38
:104F3000CDBF8EE391E09A8B898B1C8A1B8A1E8AD7
:104F40001D8A188E1F8A8DEC92E00E949C11CE0162
:104F500041960E94101184E190E00E9405399C0165
:104F60002C5E3F4FFC01119211922E173F07D9F78B
:104F70009C8B8B8B1E8A1D8A8AE090E0988F8F8B8A
:104F80008CE591E09A8B898B8EE791E09A8F898FDF
:104F90000E948E034B015C0100913D0510913E057E
:104FA000E0903F05F090400594E0EE0CFF1C9A95D0
:104FB000E1F7E00EF11ED12CC12CE016F10661F1F3
:104FC000B801CE0101960E94E60C8B859C85AD85CB
:104FD000BE8588159905AA05BB05A0F48F8598891B
:104FE0009C8F8B8FE981FA810480F581E02DBE01D1
:104FF000655E7F4FCE0103960995B601CE014196BD
:105000000E94F2238FEFC81AD80ACE0101960E949F
:105010006B0B005F1F4FD1CFEB88FC880D891E8979
:10502000000F111F0E0D1F1D0E151F0579F0F70142
:10503000419151917F016BE375E0CE0101960E9491
:10504000040CCE0101960E946B0BEECF8CE591E033
:105050009A8B898B8EE791E09A8F898FCE0141964A
:105060000E944F276C960FB6F894DEBF0FBECDBFDF
:10507000DF91CF911F910F91FF90EF90DF90CF9034
:10508000BF90AF909F908F9008951F920F920FB690
:105090000F9211242F933F934F935F936F937F93BE
:1050A0008F939F93AF93BF93EF93FF9383E794E026
:1050B0000E940402FF91EF91BF91AF919F918F9158
:1050C0007F916F915F914F913F912F910F900FBE04
:1050D0000F901F9018951F920F920FB60F921124E8
:1050E0002F938F939F93EF93FF93E0918304F0911D
:1050F00084048081E0918904F0918A0482FD1BC0C0
:10510000908180918C048F5F8F7320918D04821722
:1051100041F0E0918C04F0E0ED58FB4F958F8093C7
:105120008C04FF91EF919F918F912F910F900FBE63
:105130000F901F9018958081F4CF1F920F920FB699
:105140000F9211242F933F938F939F93AF93BF930D
:105150008091100490911104A0911204B091130455
:1051600030910F0423E0230F2D3758F50196A11D30
:10517000B11D20930F048093100490931104A09309
:105180001204B09313048091140490911504A0911B
:105190001604B09117040196A11DB11D809314044B
:1051A00090931504A0931604B0931704BF91AF9188
:1051B0009F918F913F912F910F900FBE0F901F9055
:1051C000189526E8230F0296A11DB11DD2CF1F927C
:1051D0000F920FB60F9211242F933F934F935F932B
:1051E0006F937F938F939F93AF93BF93EF93FF93AF
:1051F000E0910401F09105010995FF91EF91BF91B4
:10520000AF919F918F917F916F915F914F913F915E
:105210002F910F900FBE0F901F9018951F920F9215
:105220000FB60F9211242F933F934F935F936F9379
:105230007F938F939F93AF93BF93EF93FF93E091EF
:105240000201F09103010995FF91EF91BF91AF9198
:105250009F918F917F916F915F914F913F912F918E
:105260000F900FBE0F901F9018951F920F920FB6C0
:105270000F9211242F933F934F935F936F937F93DC
:105280008F939F93AF93BF93EF93FF938091B90058
:10529000887F803609F44AC0F0F5883209F4A5C049
:1052A00018F5803109F499C0B8F4882309F4F5C0E1
:1052B000883009F492C0FF91EF91BF91AF919F9117
:1052C0008F917F916F915F914F913F912F910F90AF
:1052D0000FBE0F901F901895883109F486C0803258
:1052E00051F78093E80314C0803409F49BC040F464
:1052F0008033B9F38833F9F68093E80385ECAEC0C8
:10530000803509F483C0883509F494C0883499F64F
:105310000E949B03D0CF883909F48AC038F58837BA
:1053200029F050F4883611F0803729F683E0809315
:10533000E9031092E70355C0883809F479C0803931
:1053400019F0803809F0B7CF8091E703803208F078
:105350006FC0E091E70381E08E0F8093E7038091B7
:10536000BB00F0E0E953FC4F80833BC0803B39F049
:10537000D0F4803A09F477C0883A09F09CCF84E0F1
:105380008093E9031092C6031092C503F0E0E0E0B9
:1053900009958091C50381110FC081E08093C503F9
:1053A0001092A50309C0803C09F4A8CF883C09F4F9
:1053B000A5CF883B09F07FCFE091C60381E08E0F37
:1053C0008093C603F0E0EB55FC4F80818093BB00D7
:1053D0009091C6038091C50329C080910E048093EB
:1053E000BB0085EC8093BC0066CF90910D0480914A
:1053F0000C04981758F5E0910D0481E08E0F80930E
:105400000D04F0E0E451FC4F8081E9CFE0910D0400
:1054100081E08E0F80930D048091BB00F0E0E45199
:10542000FC4F808390910D0480910C049817C8F272
:1054300085E8D8CFE0910D0481E08E0F80930D04B4
:105440008091BB00F0E0E451FC4F80838091EB033E
:1054500081115ECF81E08093EA0384EA8093BC00EF
:105460001092E90328CF85EC8093BC001092E903E9
:105470008091E703803230F4E091E703F0E0E953F4
:10548000FC4F10826091E70370E087EC93E0F0E05E
:10549000E0E009951092E7030ECF1092E80338CFB1
:1054A000CF93DF93CDB7DEB729970FB6F894DEBF61
:1054B0000FBECDBFBE016F5F7F4F0E94EA048823FD
:1054C00031F08D818F33A9F020F48F31A1F080E08D
:1054D00007C08F3521F08F37D1F78CE001C08BE00A
:1054E00029960FB6F894DEBF0FBECDBFDF91CF91E6
:1054F00008958AE0F5CF89E0F3CFAF92BF92CF92C3
:10550000DF92EF92FF920F931F93CF93DF93CDB76C
:10551000DEB763970FB6F894DEBF0FBECDBF109213
:1055200076041092750488EE93E0A0E0B0E08093DA
:10553000770490937804A0937904B0937A048EED65
:1055400091E0909374048093730485EC90E09093C1
:10555000800480937F0484EC90E090938204809395
:10556000810480EC90E0909384048093830481EC28
:1055700090E0909386048093850482EC90E0909371
:1055800088048093870486EC90E090938A0480934B
:10559000890410928C0410928D0410928E04109243
:1055A0008F048AEB92E090933E0480933D04109226
:1055B0003F041092400410924104109242049093D0
:1055C00044048093430410924504109246041092C0
:1055D00047041092480490934A048093490410921F
:1055E0004B0410924C0410924D0410924E04909370
:1055F000500480934F041092510410925204109260
:1056000053041092540490935604809355041092BE
:105610005704109258041092590410925A0490930F
:1056200062048093610410926304109264041092E7
:1056300065041092660490935C0480935B0410925E
:105640005D0410925E0410925F04109260049093C7
:105650006804809367041092690410926A0410929F
:105660006B0410926C0490936E0480936D041092FE
:105670006F0410927004109271041092720490934F
:10568000500580934F0510925105109252051092CB
:1056900053051092540582E692E09093460580935C
:1056A0004505109248051092470510924A05109240
:1056B000490510924C0510924B058DEC92E00E942A
:1056C0009C1185E495E00E9410118CE390E00E940B
:1056D0000539FC019C01245C3F4F1182108213822A
:1056E00012821582148236962E173F07B1F79093D7
:1056F00048058093470510924A05109249050AE033
:1057000010E010934C0500934B0580E892E09093D5
:1057100046058093450582EA92E090934E0580937A
:105720004D058AE192E090933C0580933B051092F1
:105730003E0510923D051092400510923F051092D3
:105740004205109241058DEC92E00E949C118BE382
:1057500095E00E94101182EA90E00E940539FC0158
:1057600001931193DF018E559F4F11961C921E924B
:105770005096A817B907C9F7F0933E05E0933D0589
:105780001092400510923F058AE090E09093420508
:105790008093410588E392E090933C0580933B051C
:1057A0008AE592E090934405809343051092380572
:1057B000109237058AEA92E090933605809335057A
:1057C00088EE93E090933A058093390560E085E098
:1057D0000E94FA02E5E6F2E0E491E0932705E1E5B4
:1057E000F2E0E491F0E0EE0FFF1FEE5BFD4F8591DC
:1057F0009491909329058093280510923205109278
:10580000340510923305109210051092110589E0AD
:105810008093130581E08093140580931505809390
:10582000160587E295E090931A058093190510926A
:105830002605109225051092310510923005109220
:105840002F0510922E0510922D0510922C05109206
:105850002B0510922A05109217051092180511E0D9
:10586000BE016F5F7F4F8091190590911A050E94CC
:10587000150E882309F45FC067E0CE0101960E94EF
:10588000F50398858913ECCF809117058F5F80937E
:1058900017058981883231F008F044C0803111F059
:1058A0008232F1F6809118058F5F80931805809100
:1058B0001005811128C08091190590911A050E9448
:1058C000B204BE016F5F7F4F8091190590911A0558
:1058D0000E94930440E064EB8091190590911A05B1
:1058E0000E945F048091190590911A050E940C0492
:1058F000082F8091190590911A050E94B204011198
:1059000002C0109310058981803199F0CE01019673
:105910000E94502A90911305981708F0A1CF809308
:1059200013059ECF8B3309F4BDCF823409F098CF95
:10593000B9CF8CE0EFCFC0901705D12C88E090E074
:105940000E940539FC011082118212821382148296
:1059500015821682178228E030E048E050E0BC0152
:10596000CE0101960E94651280EF91E09A838983AF
:1059700082E192E09A878987F12CE12C8FE1B82EA1
:1059800099E0A92EEC14FD040CF0C3C06E2D8B81A0
:105990009C810E94950E0B811C81F80180818031D1
:1059A00009F470C0BE01655F7F4FC8010E94EA0420
:1059B000882309F467C08F858F3109F463C0BF86DF
:1059C0008091190590911A050E94B204B801809146
:1059D000190590911A050E94930440E06EE48091AD
:1059E000190590911A050E945F0440E06D85809131
:1059F000190590911A050E945F0440E06E85809120
:105A0000190590911A050E945F04F8018081803188
:105A100041F040E06F858091190590911A050E9430
:105A20005F048091190590911A0520911605222393
:105A300039F10E94B204882329F1809119059091CF
:105A40001A050115110509F040C040E06CEC0E94F8
:105A50005F044091100568E48091190590911A0542
:105A60000E945F0480911005811133C064E170E0F1
:105A700080E090E00E945B038091190590911A05E7
:105A80000E94B204A0921305809117058230E8F1BC
:105A900010E0809117051817C0F5809113058C3020
:105AA000A1F1612FCE010B960E94950E8B8580315E
:105AB00051F1CE010B960E94502A90911305981730
:105AC00010F4809313051F5FE4CFB8010E94930484
:105AD000C0CF80911105882329F060E080911205E4
