:10000000A9C100000C9467290C943C290C94112977
:100010000C94E6280C94BB280C9490280C9465282A
:100020000C943A28C8C10000C6C10000C4C1000039
:10003000C2C10000C0C10000BEC10000BCC10000C0
:10004000BAC10000B8C10000B6C10000B4C10000D0
:10005000B2C10000B0C10000AEC100000C94F02796
:10006000AAC100000C94BA270C949027A4C10000E8
:10007000A2C10000A0C100009EC100009CC1000000
:100080009AC1000098C1000096C1000094C1000010
:1000900092C1000090C100008EC100000C94922912
:1000A0008AC1000088C1000086C1000084C1000030
:1000B00082C1000080C100007EC100007CC1000040
:1000C0007AC1000078C1000076C1000074C1000050
:1000D00072C1000070C100006EC100006CC1000060
:1000E0006AC100004469676974616C57726974651C
:1000F000206D657373616765005375636365737322
:100100002120436F6E6E656374656420776974683F
:100110002069703A20004661696C75726521205231
:1001200065636F6E6E656374696F6E672E2E2E0049
:10013000496E697469616C697A696E6720636F6E74
:100140006E656374696F6E207769746820646E737E
:10015000207365727665723A0053657454696D65F3
:1001600044696D6D6572206D6573736167650052DA
:100170006561642074656D70206D6573736167657A
:1001800021005265616420656E65726779206D6536
:100190007373616765210054657374206D657373B3
:1001A0006167652100467261676D656E746174698F
:1001B0006F6E206C6576656C3A20002D2D2D2D2DEF
:1001C0002D2D2D00436C69656E7420686173206469
:1001D0006973636F6E6E65637465642E00436C694A
:1001E000656E742068617320636F6E6E65637465FD
:1001F00064210048656C6C6F00506F7374706F6E93
:100200006564207461736B2064696D6D65720000B4
:100210005EBCE2613FDD83C29C7E20A3FD1F4100E6
:100220009D23BE46DB65F88C11AF32CA57E97400D6
:10023000002100240027002A002D00300033000197
:10024000010000040107010A010000220025002826
:10025000002B002E003100340002010000050108CF
:10026000010B0100000A0B02090C0D0E0807030424
:10027000010000000000000000000000000000007D
:10028000000000000000000000000000000000125C
:10029000111000000000000000000000000000003D
:1002A00000000000000000000000002000230026E5
:1002B0000029002C002F003200000100000301067D
:1002C00001090105050505070508080808020202DD
:1002D000020A0A08080404040401010101010101E1
:1002E000010303030303030303040707070C0C0CB8
:1002F0000C0C0C0C0C020202020606060606060690
:10030000060B0B0B0B0B0B0B0B010210202008082C
:100310001020401020408002010201080402010167
:100320000204081020408080402010080402018050
:1003300004020180402010080402010804020101A7
:1003400002040810204080010204081020408000B0
:10035000B22AFF3711241FBECFEFD1E2DEBFCDBFDF
:1003600000E00CBF14E0A0E0B2E0EEE7F9E700E047
:100370000BBF02C007900D92A831B107D9F726E054
:10038000A8E1B4E001C01D92A538B207E1F711E081
:10039000C9EAD1E000E006C021970109802FFE01E3
:1003A0000E94703CC83AD10780E00807A9F70E9474
:1003B000AB2D0C94AE3C24CE8CBD9DBD089520E3A6
:1003C000FC0120833296862F82958F706F706A3081
:1003D00030F4605D6293682F8111F5CF0895695CF8
:1003E000F9CF883008F051C0E82FF0E0EE0FFF1F82
:1003F000EE5FFD4F718360838150873058F5E82FA1
:10040000F0E08827E95FFD4F8F4F0C94703C31027C
:100410000E0215021C02230238023F02809169007D
:10042000836080936900E89A0895809169008C60E8
:1004300080936900E99A08958091690080638093B0
:100440006900EA9A089580916900806C8093690040
:10045000EB9A089580916A00836080936A00EC9A19
:10046000089580916A008C6080936A00ED9A0895E7
:1004700080916A00806380936A00EE9A089580916B
:100480006A00806C80936A00EF9A0895FC01818D68
:10049000928D08950895AF92BF92CF92DF92EF921E
:1004A000FF920F931F93CF93DF936C017B018B011E
:1004B000040F151FEB015E01AE18BF08C017D1076E
:1004C00059F06991D601ED91FC910190F081E02DF8
:1004D000C6011995892B79F7C501DF91CF911F913D
:1004E0000F91FF90EF90DF90CF90BF90AF90089565
:1004F000FC01538D448D252F30E0842F90E0821B2A
:10050000930B541710F0CF96089501970895FC01AE
:10051000918D828D981761F0A28DAE0FBF2FB11D06
:100520005D968C91928D9F5F9F73928F90E008955E
:100530008FEF9FEF0895FC01918D828D981731F018
:10054000828DE80FF11D858D90E008958FEF9FEF6C
:100550000895FC01918D228D892F90E0805C9F4F42
:10056000821B91098F7399270895FC01A48DA80F10
:10057000B92FB11DA35ABF4F2C91848D90E00196E5
:100580008F739927848FA689B7892C93A089B18905
:100590008C91837080648C93938D848D981306C0A6
:1005A0000288F389E02D80818F7D80830895EF920A
:1005B000FF920F931F93CF93DF93EC0181E0888F1D
:1005C0009B8D8C8D98131AC0E889F989808185FFED
:1005D00015C09FB7F894EE89FF896083E889F9898F
:1005E00080818370806480839FBF81E090E0DF9191
:1005F000CF911F910F91FF90EF900895F62E0B8DE4
:1006000010E00F5F1F4F0F731127E02E8C8D8E119E
:100610000BC00FB607FCFACFE889F989808185FF06
:10062000F5CFCE01A2DFF2CFEB8DEC0FFD2FF11D48
:10063000E35AFF4FF0829FB7F8940B8FEA89FB894A
:1006400080818062D0CF0F931F93CF93DF938C0173
:10065000D0E0C0E0F801EC0FFD1F6491662339F093
:1006600083E695E0A4DF892B11F02196F3CFCE012C
:10067000DF91CF911F910F910895CF93DF93EC01FC
:10068000888D8823B1F0AA89BB89E889F9898C9182
:1006900085FD03C0808186FD0CC00FB607FCF7CF37
:1006A0008C9185FFF2CF808185FFEDCFCE015DDF9C
:1006B000EACFDF91CF910895282F30E0F901ED596D
:1006C000FD4F9491F901E75FFC4F44912D533D4F4D
:1006D000F9012491222309F435C0992311F1915095
:1006E0009231F8F4E92FF0E08827E658FC4F8F4F5D
:1006F0000C94703CAB03AF038C03A303A7039103DB
:10070000B203B803BC03C203C603CA03D003D403B5
:100710009103D803DE03E203809180008F778093FA
:100720008000E22FF0E0EE0FFF1FE75BFD4FA59189
:10073000B4918FB7F894EC91611148C040954E2365
:100740004C938FBF0895809180008F7DE8CF80917A
:100750008000877FE4CF84B58F7784BDE2CF84B5F6
:100760008F7DFBCF8091B0008F778093B000D9CF81
:100770008091B0008F7DF9CF809190008F7780932A
:100780009000CFCF809190008F7DF9CF8091900025
:10079000877FF5CF8091A0008F778093A000C1CF95
:1007A0008091A0008F7DF9CF8091A000877FF5CF49
:1007B000809120018F7780932001B3CF8091200119
:1007C0008F7DF9CF80912001877FF5CF4E2BB8CF59
:1007D000CF93DF9390E0FC01E75FFC4F24918D53B2
:1007E0009D4FFC0184918823C9F090E0880F991FE8
:1007F000FC01E15DFD4FA591B491FC01E75BFD4F6C
:10080000C591D49161110DC09FB7F8948C9120953A
:1008100082238C938881282328839FBFDF91CF91E7
:100820000895623051F49FB7F8943C91822F8095DF
:1008300083238C93E8812E2BEFCF8FB7F894EC9124
:100840002E2B2C938FBFEACF3FB7F89480911605DB
:1008500090911705A0911805B091190526B5A89B90
:1008600005C02F3F19F00196A11DB11D3FBFBA2F42
:10087000A92F982F8827BC01CD01620F711D811D02
:10088000911D42E0660F771F881F991F4A95D1F787
:1008900008958F929F92AF92BF92CF92DF92EF9284
:1008A000FF926B017C01D0DF4B015C01C114D104CC
:1008B000E104F104B1F0C8DF681979098A099B09DC
:1008C000683E73408105910588F321E0C21AD10882
:1008D000E108F10888EE880E83E0981EA11CB11C87
:1008E000E5CFFF90EF90DF90CF90BF90AF909F90BB
:1008F0008F9008952FB7F8946091120570911305A9
:1009000080911405909115052FBF0895089585EDE8
:100910008093BC008091BC0084FDFCCF1092EB045E
:1009200008952091C704260F3327331F2132310544
:10093000ECF42091EB04FC0190E080E0243069F0BD
:1009400082E00895A091C7042191AC0149555B4F05
:10095000A40FB52FB11D2C930196861798F38091A3
:10096000C704680F6093C70480E0089581E008958C
:100970008FEF9FEF08958FEF9FEF08958091A6046A
:1009800090E09195819591090895CF93DF93CB01E4
:10099000EA01642FC6DFCE01DF91CF910895CF9396
:1009A000DF931F92CDB7DEB7698361E0CE01019678
:1009B000B8DF81E090E00F90DF91CF910895DC01E6
:1009C00080E0615090F09D919827E92FEF70F0E062
:1009D000E15FFD4F2491E92FE295EF70F0E0E15ED9
:1009E000FD4FE491822F8E27ECCF0895DC012C91EE
:1009F0001196ED91FC91F8948181822B81839281F3
:100A0000322F30959323928387E090E00197F1F79E
:100A100081818323818383E290E00197F1F79081C4
:100A20007894EFECF0E03197F1F7922381E009F44C
:100A300080E00895FC0190810180F281E02D292F52
:100A4000209560FF14C0F894828182238283818183
:100A5000892B8183A3E2B0E01197F1F78281982B73
:100A60009283789487ED90E00197F1F70895F894D8
:100A70008281822382838181892B8183AFEFB0E0E1
:100A80001197F1F78281982B928378948FE090E010
:100A9000EBCFDF92EF92FF920F931F93CF93DF93F1
:100AA000EC01D62EE42E08E010E0FF24F39461E080
:100AB0008D2D8F2109F460E0CE01BCDFFF0C0150C9
:100AC0001109A9F7E11010C0F894E981FA81918128
:100AD0008881809589238183E981FA819281888147
:100AE0008095892382837894DF91CF911F910F9114
:100AF000FF90EF90DF900895EF92FF920F931F9376
:100B0000CF93DF938C017B0140E065E5C2DFE70115
:100B100088E0E80EF11C699140E0C801BADFCE150B
:100B2000DF05C9F7DF91CF911F910F91FF90EF90F3
:100B30000895FC0190810180F281E02DF89481817B
:100B4000292F20958223818378943DE743E050E06C
:100B5000315029F1DA011197F1F780818923C1F32E
:100B6000F8948281822382838181892B8183789486
:100B7000ABE7B7E01197F1F7F89481818223818385
:100B8000A3E1B1E01197F1F78081982381E009F0AA
:100B900080E07894E3E6F6E03197F1F7089580E09D
:100BA00008956F927F928F929F92AF92BF92CF9251
:100BB000DF92EF92FF920F931F93CF93DF938C01FD
:100BC000EB0180913F0690914006B3DF882309F442
:100BD0003BC0B80180913F06909140068DDF40E018
:100BE0006EEB80913F069091400653DF7E016E01CF
:100BF00089E0C80ED11C8E01A0903F06B09040063F
:100C000088E0882E912C712C66246394C501EEDE59
:100C100081117628660CE1E08E1A9108B9F7F80187
:100C200071928F01CE16DF0639F780913F069091C1
:100C300040067FDF813041F4F70181917F0181110E
:100C400005C0E017F107C1F790E007C068E0CE01EA
:100C5000B6DE91E028852813F7CF892FDF91CF9159
:100C60001F910F91FF90EF90DF90CF90BF90AF90CA
:100C70009F908F907F906F900895CF93DF9300D0D7
:100C800000D000D0CDB7DEB7BE016F5F7F4F89DFE8
:100C9000882331F08D818F33A9F020F48F31A1F0BA
:100CA00080E007C08F3521F08F37D1F78CE001C08D
:100CB0008BE029960FB6F894DEBF0FBECDBFDF9153
:100CC000CF9108958AE0F5CF89E0F3CFFC01208130
:100CD0002EBD9B012150310941F051810DB407FE19
:100CE000FDCF4EB55EBD4193F5CF61507109860FC2
:100CF000971F0DB407FEFDCF2EB5FC01208308958C
:100D0000E091A404F091A50480819091A304892B23
:100D100080830895E091A404F091A50490818091CE
:100D2000A30480958923808308958EBD00000DB4AF
:100D300007FEFDCF8EB50895AF92BF92CF92DF929E
:100D4000EF92FF920F931F93CF93DF9300D000D0C9
:100D50001F921F92CDB7DEB78C017B016A01809193
:100D600062058333B1F45801A40EB51EA016B10676
:100D700009F463C0CFDF80EFD8DF812FD6DF802F6B
:100D8000D4DF0F5F1F4FF70181917F01CEDFB8DF06
:100D9000EDCF5B01A40EB51E8433A9F4BBDF19832C
:100DA0000A838D2D80688B83CC8264E070E0CE0155
:100DB00001968CDFAE14BF0409F43EC0F7018191A7
:100DC0007F01B3DFF7CFA6DF0F3F110509F028F44D
:100DD00019820A8384E08B830CC017FD17C0198227
:100DE0000A8333E0169507953A95E1F7007E0C608B
:100DF0000B8386E0C816D10490F5F701DE01149646
:100E0000EA15FB0599F081918D93FACFC80126E090
:100E1000969587952A95E1F7807E19830A830115B7
:100E2000104C10F48461D7CF8C61D5CFB6016D5FC3
:100E30007F4FCE0101964ADF63DFC60128960FB6C9
:100E4000F894DEBF0FBECDBFDF91CF911F910F9100
:100E5000FF90EF90DF90CF90BF90AF90089563E048
:100E600070E0CE01019632DFF70181917F015DDFF5
:100E7000AE14BF04C9F7E0CFCF93DF931F92CDB775
:100E8000DEB7898341E050E0BE016F5F7F4F90E0A5
:100E900080E052DF0F90DF91CF91089590E0209194
:100EA0006205233339F40C96982F990F990F990FF7
:100EB00080E008954896F8CFDA01E091A204F0E0CE
:100EC000FE2FEE27E60FF71F90E0982F8827A90145
:100ED000BD018E0F9F1F30CFCF93DF931F921F92C4
:100EE000CDB7DEB779836A8322E030E0AE014F5F91
:100EF0005F4F60E170E0E0DF0F900F90DF91CF91E6
:100F00000895CF93DF931F921F92CDB7DEB77983F9
:100F10006A8322E030E0AE014F5F5F4F64E070E033
:100F2000CBDF0F900F90DF91CF910895CF93DF9398
:100F30001F92CDB7DEB72091A20430E0322F2227D6
:100F4000260F371F90E0982F8827498341E050E013
:100F5000BE016F5F7F4F820F931FEEDE0F90DF9118
:100F6000CF910895CF93DF931F92CDB7DEB76983FA
:100F7000DC01ED91FC910280F381E02D41E050E035
:100F8000BE016F5F7F4F19950F90DF91CF9108954C
:100F9000CF93DF931F92CDB7DEB76983DC01ED916C
:100FA000FC910280F381E02D41E050E0BE016F5FD3
:100FB0007F4F19950F90DF91CF910895FC01948593
:100FC000FB018485981303C081E0983008F080E02D
:100FD0000895CF93DF931F92CDB7DEB76983DC010D
:100FE000ED91FC910280F381E02D41E050E0BE01E3
:100FF0006F5F7F4F19950F90DF91CF9108950895FE
:10100000FF920F931F93CF93DF93EB01FC01178A9D
:10101000168A2A81211109C02B81211106C02C8139
:10102000211103C02D812223E9F041155105D1F092
:101030008A01FC01F08C80E591E0BED9AE014E5FE3
:101040005F4F24E030E06CE070E08F2D35DFB801B9
:101050008F2D42DF81E090E0DF91CF911F910F91C2
:10106000FF90089580E0F7CFFC0184859585089571
:10107000FC0184899589089526EC33E0FC013183D5
:101080002083FB014089518962897389FC01428375
:101090005383648375830895DC01ED91FC91048C86
:1010A000F58DE02D19940F931F93660F771FFC01A8
:1010B000E60FF71F220F331FDA01A20FB31F90E0D4
:1010C00080E08017910734F4219131912D933D9365
:1010D0000196F7CF1F910F910895DF92EF92FF9243
:1010E0000F931F93CF93DF93F90136E0369FE00112
:1010F000379FD00D11243E9F70013F9FF00C1124AB
:1011000030E020E070E060E060177107BCF4D901C6
:10111000AE0DBF1DA40FB51FF901EC0FFD1FE80FA9
:10112000F91F0F2EF6E0DF2EF02D01900D92DA94CC
:10113000E1F76F5F7F4F2A5F3F4FE6CFDF91CF919F
:101140001F910F91FF90EF90DF90089590E080E065
:101150000895DC0114962D913C9115976217730741
:101160004CF4ED91FC91028CF38DE02D1995BC01AE
:1011700081E0089560E070E080E008950897E9CF8D
:10118000DC01ED91FC910190F081E02D199408971C
:10119000F7CFFC0186819781880F991F0895CF9220
:1011A000DF92EF92FF920F931F93CF93DF936C0127
:1011B000EB01DC01ED91FC910190F081E02D19959E
:1011C0007C01F60104811581015011091583048306
:1011D000828193810C1B1D0BBE016F5F7F4F9E01AF
:1011E000AC0161DFC701DF91CF911F910F91FF909B
:1011F000EF90DF90CF900895DC0114962D913C91F3
:101200001597621773074CF4ED91FC910088F189F2
:10121000E02D1995BC0181E0089560E070E080E068
:101220000895CF92DF92EF92FF920F931F93CF9387
:10123000DF937C018B01D0E0C0E0D801ED91FC91FF
:101240000488F589E02DC8011995C817D907A4F4B9
:10125000D701ED91FC91C680D780D801ED91FC912A
:101260000190F081E02DBE01C8011995BC01C701B4
:10127000F60119952196E1CFDF91CF911F910F9142
:10128000FF90EF90DF90CF900895FC01248135818D
:10129000121613067CF42150310935832483220F62
:1012A000331F0280F381E02DE20FF31F6081718113
:1012B00081E0089560E070E080E00895FC01248101
:1012C0003581621773075CF4660F771F8281938103
:1012D000680F791FFB015183408380E0089581E00E
:1012E0000895DC0114962D913C91159762177307B0
:1012F00044F4ED91FC91028CF38DE02D199591E071
:10130000089580E090E008950897EBCFDC01ED911F
:10131000FC910190F081E02D19940897F7CFFC0122
:10132000868197810895DC0114962D913C91159743
:101330006217730744F4ED91FC910088F189E02D68
:10134000199591E0089580E090E00895CF92DF92A2
:10135000EF92FF920F931F93CF93DF937C018B014A
:10136000D0E0C0E0D801ED91FC910488F589E02D32
:10137000C8011995C817D907A4F4D701ED91FC91BC
:10138000C680D780D801ED91FC910190F081E02DCD
:10139000BE01C8011995682FC701F601199521965C
:1013A000E1CFDF91CF911F910F91FF90EF90DF90F0
:1013B000CF900895FC01248135811216130664F440
:1013C000215031093583248382819381280F391F6D
:1013D000F901808191E0089580E090E00895DC01BA
:1013E00014962D913C9115976217730744F4129649
:1013F000ED91FC91E60FF71F408380E0089581E0B6
:101400000895CF93DF93CDB7DEB76A970FB6F89400
:10141000DEBF0FBECDBFDC0114962D913C91159718
:10142000621773070CF043C0ED91FC91028CF38DB1
:10143000E02D19952F87388B498B5A8B6B8B7C8BC2
:1014400086E0FE013F96DE01559601900D928A9549
:10145000E1F786E0FE017596DE01119601900D928E
:101460008A95E1F781E08F8387E0FE013196DE0106
:10147000189601900D928A95E1F787E0FE01389663
:10148000DE01119601900D928A95E1F729813A814A
:101490004B815C816D817E818F8190E06A960FB671
:1014A000F894DEBF0FBECDBFDF91CF9108951A82B1
:1014B00019821C821B821E821D821F82E7CFCF935E
:1014C000DF9300D000D01F92CDB7DEB708972796E4
:1014D0000FB6F894DEBF0FBECDBFDF91CF9191CF95
:1014E000CF93DF9300D000D0CDB7DEB7DC01ED9114
:1014F000FC910190F081E02D26960FB6F894DEBFA6
:101500000FBECDBFDF91CF911994CF93DF9300D061
:1015100000D0CDB7DEB7089726960FB6F894DEBF99
:101520000FBECDBFDF91CF91DBCFFC0186819781CC
:1015300026E0AC01249FC001259F900D1124089541
:10154000FC01848195810895CF92DF92EF92FF9202
:101550000F931F93CF93DF93CDB7DEB72C970FB6C2
:10156000F894DEBF0FBECDBF7C016B01DC01ED91B5
:10157000FC910190F081E02D19952F8338874987E0
:101580005A876B877C87F701048115810150110907
:1015900015830483828193810C191D09B6016F5F45
:1015A0007F4F9601AC0199DD86E0FE013796DE01A2
:1015B000119601900D928A95E1F729813A814B812C
:1015C0005C816D817E8180E090E02C960FB6F8946E
:1015D000DEBF0FBECDBFDF91CF911F910F91FF9066
:1015E000EF90DF90CF900895CF93DF93CDB7DEB724
:1015F0006A970FB6F894DEBF0FBECDBFDC0114961C
:101600002D913C911597621773070CF043C0ED9133
:10161000FC910088F189E02D19952D8B3E8B4F8B25
:10162000588F698F7A8F86E0FE017596DE011F96CE
:1016300001900D928A95E1F786E0FE013F96DE016A
:10164000119601900D928A95E1F781E08F8387E0F2
:10165000FE013196DE01189601900D928A95E1F710
:1016600087E0FE013896DE01119601900D928A9571
:10167000E1F729813A814B815C816D817E818F8187
:1016800090E06A960FB6F894DEBF0FBECDBFDF9133
:10169000CF9108951A8219821C821B821E821D829C
:1016A0001F82E7CFAF92BF92CF92DF92EF92FF926D
:1016B0000F931F93CF93DF9300D000D0CDB7DEB749
:1016C0006C017B0110E000E0D701ED91FC910488F2
:1016D000F589E02DC701199508171907D4F4D6012B
:1016E000ED91FC91A680B780D701ED91FC9101901E
:1016F000F081E02DB801C701199529833A834B8306
:101700005C836D837E83C601F50119950F5F1F4FC2
:10171000DBCF26960FB6F894DEBF0FBECDBFDF91AC
:10172000CF911F910F91FF90EF90DF90CF90BF90DE
:10173000AF900895CF93DF93CDB7DEB764970FB620
:10174000F894DEBF0FBECDBFDC0114962D913C9105
:10175000159712161306E4F52150310915963C939E
:101760002E93149796E0929FA001939F500D112401
:101770001296ED91FC91E40FF51FDE011F96892F63
:1017800001900D928A95E1F7FE013F96DE011196D8
:1017900001900D929A95E1F781E08F8387E0FE0139
:1017A0003196DE01189601900D928A95E1F7288511
:1017B00039854A855B856C857D858E8590E064964C
:1017C0000FB6F894DEBF0FBECDBFDF91CF91089565
:1017D000198618861B861A861D861C861E86E7CFEC
:1017E0000F931F93CF93DF9300D000D0CDB7DEB718
:1017F000FC0109831A832B833C834D835E838481A0
:10180000958168177907E4F496E0969F9001979F79
:10181000300D1124A281B381A20FB31FFE013196B6
:1018200001900D929A95E1F780E026960FB6F89414
:10183000DEBF0FBECDBFDF91CF911F910F910895F5
:1018400081E0F3CFCF93DF93EC01DB01ED91FC91CD
:101850000190F081E02D1995CE01DF91CF9108958F
:10186000CF93DF93EC0168507109ECDFCE01DF917B
:10187000CF910895FC018681978124E0880F991FFC
:101880002A95E1F70895FB0161E080810C945C03E7
:1018900008950895FC0180819181FB0191838083EB
:1018A0000895DC01ED91FC91309729F00280F381DD
:1018B000E02D0296199408950F931F93CF93DF9311
:1018C000EC018B01EEDFF80181919191DE018D93A6
:1018D0009D9388E001900D928A95E1F7CE01DF910A
:1018E000CF911F910F9108950F931F93CF93DF9383
:1018F000FC012481358181E062177307DCF48A01E1
:1019000084E0660F771F8A95E1F7C281D381C60F05
:10191000D71FBA01CE01D0DFF80182859385A48557
:10192000B5858A879B87AC87BD87868597859F8786
:101930008E8780E0DF91CF911F910F910895CF9214
:10194000DF92EF92FF920F931F93CF93DF93E4E028
:10195000220F331FEA95E1F77A01E20EF31EF4E05D
:10196000660F771FFA95E1F7EC01C60FD71FD12C50
:10197000C12CC016D10614F5C70193DFFE01819179
:101980009191D7018D939D9388E001900D928A9556
:10199000E1F78A859B85AC85BD85F70182879387B2
:1019A000A487B5878E859F8597878687FFEFCF1A97
:1019B000DF0A80E1E80EF11C6096DBCFDF91CF916A
:1019C0001F910F91FF90EF90DF90CF900895CF92ED
:1019D000DF92EF92FF920F931F93CF93DF937C01DF
:1019E0006B01EA01DB01ED91FC910190F081E02DAA
:1019F0001995F6010481158101501109158304839D
:101A0000828193810C1B1D0BBE016F5F7F4F9E0176
:101A1000AC0195DFC701DF91CF911F910F91FF902E
:101A2000EF90DF90CF900895AF92BF92CF92DF9268
:101A3000EF92FF920F931F93CF93DF93CDB7DEB753
:101A400060970FB6F894DEBF0FBECDBF6C017B016F
:101A500010E000E0D701ED91FC910488F589E02DBC
:101A6000C701199508171907E4F4D601ED91FC9107
:101A7000A680B780D701ED91FC910190F081E02D17
:101A8000A801B701CE0101961995BE016F5F7F4F86
:101A9000C601F5011995CE01019603DF0F5F1F4FB7
:101AA000D9CF60960FB6F894DEBF0FBECDBFDF91E1
:101AB000CF911F910F91FF90EF90DF90CF90BF904B
:101AC000AF900895CF93DF9300D000D0CDB7DEB7AD
:101AD00046E0469F9001479F300D1124DC0112968D
:101AE000ED91FC91E20FF31F86E0DE01119601906B
:101AF0000D928A95E1F729813A814B815C816D8154
:101B00007E8180E090E026960FB6F894DEBF0FBE8F
:101B1000CDBFDF91CF910895660F771FDC0112963C
:101B2000ED91FC91E60FF71F8081918108950F934D
:101B30001F93CF93DF93EC018B01E881F981019032
:101B4000F081E02D19952C813D81215031093D8393
:101B50002C83201B310BEA81FB81E00FF11FAF01C9
:101B6000BF01641B750B621773071CF4918191937D
:101B7000F7CFDF91CF911F910F910895DC0112965D
:101B8000ED91FC91E60FF71F808108950F931F934D
:101B9000FB0121913191DC012D933D9328E00190CF
:101BA0000D922A95E1F7FB01028513852485358581
:101BB000FC010287138724873587FB01268537853B
:101BC000FC01378726871F910F9108950F931F936C
:101BD000CF93DF93CDB7DEB760970FB6F894DEBF33
:101BE0000FBECDBF8C01DB0114968D919C91159792
:101BF00048175907FCF4ED91FC91028CF38DE02D10
:101C0000CE0101961995BE016F5F7F4FC801BEDFFF
:101C100081E0F801808BCE01019643DEC801609619
:101C20000FB6F894DEBF0FBECDBFDF91CF911F91ED
:101C30000F910895D80111961C921E9250961C92F5
:101C4000EDCFCF93DF93EC0168507109BFDFCE0178
:101C5000DF91CF9108950F931F93CF93DF93CDB76B
:101C6000DEB7A0970FB6F894DEBF0FBECDBF8C01D4
:101C7000DB0114968D919C9115974817590744F5EF
:101C8000ED91FC910088F189E02DCE010196199526
:101C9000BE016F5F7F4FCE01419678DFBE016F5E60
:101CA0007F4FC80173DF81E0F801808BCE01419640
:101CB000F8DDCE010196F5DDC801A0960FB6F894C7
:101CC000DEBF0FBECDBFDF91CF911F910F91089561
:101CD000D80111961C921E9250961C92EDCF0F9334
:101CE0001F93CF93DF93CDB7DEB760970FB6F8940D
:101CF000DEBF0FBECDBF8C01FB018481958118161C
:101D0000190634F501979583848324E0880F991F81
:101D10002A95E1F762817381680F791FCE010196E0
:101D200035DFBE016F5F7F4FC80130DF81E0F80112
:101D3000808BCE010196B5DDC80160960FB6F89490
:101D4000DEBF0FBECDBFDF91CF911F910F910895E0
:101D5000F80111821082108AEFCFCF93DF93EC014C
:101D600084E0440F551F8A95E1F7FB01628173817E
:101D7000640F751FCE010ADFCE01DF91CF91089568
:101D8000FC01768765870895DC01ED91FC91068C56
:101D9000F78DE02D199591E089270895862F0895F4
:101DA00081E08627089521E0FC018485883008F0D1
:101DB00020E0822F0895089590E080E00895BF927A
:101DC000CF92DF92EF92FF920F931F93CF93DF9307
:101DD000EC01B62EC72E8D85811105C0CE010E9463
:101DE000990581110EC01B861D861C8680E0DF913F
:101DF000CF911F910F91FF90EF90DF90CF90BF9008
:101E0000089540E060EFCE010E94490501E0E12C19
:101E1000D12C11E0CE010E94F604F82ECE010E94D2
:101E2000F60491E0F91218C0813099F51134D8F216
:101E3000DB86D11002C081E08D878B81882399F2E7
:101E40002396EB2DFC2DCF01089629912193E817BD
:101E5000F907D9F781E0CBCFEE2DF0E0F8120FC0F3
:101E60008B851817A0F4DE01AE0FBF1F13968C915F
:101E7000802379F4F12C193008F41C87D12EEC0F53
:101E8000FD1F8381902F9095892383830AC081133E
:101E9000F1CFFE01EE0DF11D8381802B8383FF24A2
:101EA000F3946F2DCE010E941A051F5F000F11F4ED
:101EB000E39401E087E08E1508F0ACCFB7CFFF9236
:101EC0000F931F93CF93DF938C01F62EE0913F0683
:101ED000F0914006138615861486128611861086A8
:101EE00017821682158214821382C0E0B801809195
:101EF0003F069091400663DFD82F882329F0FC1617
:101F000029F0CF5FFC1690F7D0E008C067E0C80169
:101F10000E94DF04F80197818913F3CF8D2FDF91A1
:101F2000CF911F910F91FF900895EF92FF920F9321
:101F30001F93CF93DF937B018A01E9018AE090E050
:101F40000E942338FC01F382E28215830483D78345
:101F5000C68388E692E0918380838AE892E0918745
:101F60008087CF01DF91CF911F910F91FF90EF906C
:101F700008956F927F928F929F92AF92BF92CF926D
:101F8000DF92EF92FF920F931F93CF93DF936C0139
:101F90003B014A01E901C41BD50B7E0185E0E80E37
:101FA000F11CC701880F991FE114A0E4FA0610F094
:101FB0008FEF9FEF0E9423385C018E0130E020E01C
:101FC000AC01B401F301828193816DD8D301ED910D
:101FD000FC91008CF18DE02D9701AE01B501C3019C
:101FE0001995F60191838083C601DF91CF911F91EE
:101FF0000F91FF90EF90DF90CF90BF90AF909F90A8
:102000008F907F906F900895EF92FF920F931F93A0
:10201000CF93DF937B018A01E9018AE090E00E947F
:102020002338FC01F382E28215830483D783C683BD
:102030008CEF92E0918380838EE193E0918780879B
:10204000CF01DF91CF911F910F91FF90EF900895F5
:10205000AF92BF92CF92DF92EF92FF920F931F93B6
:10206000CF93DF937C018B015A01E901C41BD50B8F
:102070006E0185E0C80ED11CC6010E942338D8012C
:102080001296ED91FC91EA0DFB1DDC019D01281BD0
:10209000390B2C173D071CF421912D93F7CFD80154
:1020A000ED91FC91008CF18DE02D9601AE01BC010B
:1020B000C8011995F70191838083C701DF91CF9102
:1020C0001F910F91FF90EF90DF90CF90BF90AF9056
:1020D0000895EF92FF920F931F93CF93DF937B01AD
:1020E0008A01E9018AE090E00E942338FC01F38232
:1020F000E28215830483D783C6838CE893E09183BF
:1021000080838EEA93E091878087CF01DF91CF9122
:102110001F910F91FF90EF9008956F927F928F9291
:102120009F92AF92BF92CF92DF92EF92FF920F9366
:102130001F93CF93DF935C017B014A01E901C41B2C
:10214000D50B6E0185E0C80ED11C8FEF9FEFA6E581
:10215000CA16A5E1DA0630F426E02C9DC0012D9DBB
:10216000900D11240E9423383C01CE010496F30106
:1021700097FD09C011821082138212821582148287
:1021800036960197F5CF8E0130E020E0A301B4012F
:10219000F701828193810E946D08D701ED91FC9136
:1021A000008CF18DE02D9601AE01B301C7011995A8
:1021B000F50191838083C501DF91CF911F910F912C
:1021C000FF90EF90DF90CF90BF90AF909F908F9057
:1021D0007F906F900895EF92FF920F931F93CF938C
:1021E000DF937B018A01E9018AE090E00E942338B5
:1021F000FC01F382E28215830483D783C68384E4DF
:1022000093E09183808386E693E091878087CF0176
:10221000DF91CF911F910F91FF90EF9008956F92F2
:102220007F928F929F92AF92BF92CF92DF92EF9266
:10223000FF920F931F93CF93DF935C013B014A0101
:10224000E901C41BD50B6E0185E0C80ED11C8FEFD0
:102250009FEFC114A8E0DA0638F4C60124E0880F25
:10226000991F2A95E1F702960E942338FC01C1923A
:10227000D1927F01CE01049697FD05C01182108294
:1022800070960197F9CF8E0130E020E0A701B401EC
:10229000D30112968D919C9152DBD301ED91FC916B
:1022A000008CF18DE02D9601AE01B701C3011995A7
:1022B000F50191838083C501DF91CF911F910F912B
:1022C000FF90EF90DF90CF90BF90AF909F908F9056
:1022D0007F906F900895CF93DF93EC018AE090E0B8
:1022E0000E9423389C01265F3F4FFC011192E217A8
:1022F000F307E1F79B838A831D821C828AE090E0CA
:102300009F838E83DF91CF9108950F931F93CF9377
:10231000DF93EC01062F142F198218821B821A8278
:102320008CE292E09D838C831F821E821986188620
:102330001B861A86CE010496CEDF8CEF92E09D8339
:102340008C838EE193E09D878C871E86602F70E0E2
:1023500079836883412F50E05B834A83DF91CF917B
:102360001F910F910895CF93DF93EC018CE292E0DF
:10237000998388831B821A821D821C821F821E827F
:10238000CE01A9DF8CEF92E0998388838EE193E000
:1023900099878887DF91CF910895CF93DF93EC01E0
:1023A0001D821C8284E190E00E9423389C012C5EF7
:1023B0003F4FFC0111921192E217F307D9F79B836B
:1023C0008A838AE090E09F838E8388E692E09983F7
:1023D00088838AE892E099878887DF91CF91089572
:1023E000FB0101900020E9F73197AF01461B570B25
:1023F000DC01ED91FC910280F381E02D1994CF93E3
:10240000DF930E942303EC0168EC73E083E695E020
:10241000E7DF8C0F9D1FDF91CF910895EF92FF9220
:102420000F931F93CF93DF937C018B0184EE90E099
:10243000E6DFD0E0C0E0D80118968D919C91199705
:10244000C817D9075CF41696ED91FC91EC0FFD1FAF
:10245000618180810E945C032296EDCF48ECF801F7
:102460006081C70152DFC701DF91CF911F910F91AA
:10247000FF90EF9008958F929F92AF92BF92EF924C
:10248000FF920F931F93CF93DF93CDB7DEB7A19742
:102490000FB6F894DEBF0FBECDBF7C01FA01CB01B1
:1024A00019A2223008F42AE08E010F5D1F4F822E00
:1024B000912CB12CA12CBF01A50194010E942B3BB2
:1024C000F901CA016A3004F5605DD8016E938D018F
:1024D000232B242B252B79F790E080E0109719F01F
:1024E000BD01C7017DDFA1960FB6F894DEBF0FBE18
:1024F000CDBFDF91CF911F910F91FF90EF90BF90D3
:10250000AF909F908F900895695CDFCF8F929F92DC
:10251000AF92BF92CF92DF92EF92FF920F931F93F1
:10252000CF93DF937C01EB016C0182E0C80ED11CDC
:102530004701E5E08E0E911C10E000E0F6014191AC
:102540006F0150E070E060E02AE0CE0194DF5C01B2
:10255000E881F9810190F081E02D6EE2CE011995BC
:102560008A0D9B1D080F191FC814D90439F7F701EC
:10257000458150E070E060E02AE0CE017CDF800F12
:10258000911FDF91CF911F910F91FF90EF90DF90FE
:10259000CF90BF90AF909F908F900895CF93DF938F
:1025A000EC01FB0160E080810E945C0389EF91E017
:1025B00026DFE881F981408150E070E060E02AE0A8
:1025C00083E695E0DF91CF9156CFCF93DF93BC01A7
:1025D00083E695E005DFEC0168EC73E083E695E0C7
:1025E000FFDE8C0F9D1FDF91CF910895CF92DF9278
:1025F000EF92FF92CF93DF93EC010E947A04CC809C
:10260000DD800D2C000CEE08FF086C197D098E0989
:102610009F096B3071058105910558F16BEC73E0F2
:1026200083E695E0DDDECA80DB800D2C000CEE0831
:10263000FF082AE0B701A601F7FE0DC06DE283E6B0
:1026400095E00E94D70244275527BA014C195D092D
:102650006E097F092AE083E695E00DDF68EC73E000
:1026600083E695E0DF91CF91FF90EF90DF90CF90E0
:10267000B7CEDF91CF91FF90EF90DF90CF9008958C
:10268000CF93DF9300D000D0CDB7DEB770E060E02D
:102690008BE696E017DA29833A834B835C836D835C
:1026A0007E83CE010196A2DF26960FB6F894DEBF98
:1026B0000FBECDBFDF91CF910895CF93DF9300D0B0
:1026C00000D0CDB7DEB761E070E08BE696E0FAD9D6
:1026D00029833A834B835C836D837E83CE0101968D
:1026E00085DF26960FB6F894DEBF0FBECDBFDF9113
:1026F000CF910895CF93DF9300D000D0CDB7DEB750
:1027000062E070E08BE696E0DDD929833A834B8363
:102710005C836D837E83CE01019668DF26960FB6BB
:10272000F894DEBF0FBECDBFDF91CF910895CF9358
:10273000DF9300D000D0CDB7DEB763E070E08BE66A
:1027400096E0C0D929833A834B835C836D837E8373
:10275000CE0101964BDF26960FB6F894DEBF0FBE72
:10276000CDBFDF91CF910895CF93DF9300D000D0FC
:10277000CDB7DEB764E070E08BE696E0A3D929839D
:102780003A834B835C836D837E83CE0101962EDF7B
:1027900026960FB6F894DEBF0FBECDBFDF91CF9166
:1027A0000895CF93DF9300D000D0CDB7DEB765E0BA
:1027B00070E08BE696E086D929833A834B835C836D
:1027C0006D837E83CE01019611DF26960FB6F894B5
:1027D000DEBF0FBECDBFDF91CF910895CF93DF93C2
:1027E00000D000D0CDB7DEB766E070E08BE696E0B3
:1027F00069D929833A834B835C836D837E83CE01C1
:102800000196F4DE26960FB6F894DEBF0FBECDBF5C
:10281000DF91CF910895DC0186EC93E08D939D9339
:1028200084E0FB0101900D928A95E1F70895AF9243
:10283000BF92CF92DF92EF92FF920F931F93CF93AD
:10284000DF9300D01F92CDB7DEB78C016B017A0108
:10285000809162058333E9F45B016801C40ED51EE3
:10286000C016D106A9F10E948A068FE00E94950643
:10287000812F0E949506802F0E9495060F5F1F4FA3
:1028800080E00E949506F50181935F010E94800619
:10289000E7CF843369F50E948A0619830A838F2D56
:1028A0008F778B83EC8264E070E0CE0101960E940A
:1028B0006606A70170E060E0C6010E94A03CE1143A
:1028C000F10421F0B701C6010E9466060E9480064D
:1028D000C7010F900F900F900F90DF91CF911F9134
:1028E0000F91FF90EF90DF90CF90BF90AF90089541
:1028F0000E948A060F3F110509F030F419820A83FD
:102900001B8263E070E0D1CF17FD0BC019820A83F0
:1029100033E0169507953A95E1F7007E08600B8342
:10292000F0CFC80126E0969587952A95E1F7807E3D
:1029300019830A830115104C18F480618B83E1CF51
:102940008861FCCFCF93DF931F92CDB7DEB7209184
:10295000A20430E0322F2227260F371F90E0982F55
:10296000882741E050E0BE016F5F7F4F820F931FC9
:102970005EDF89810F90DF91CF910895CF93C82FAB
:10298000462F61E070E00E94960761E070E08C2FB6
:10299000D9DF8111FACFCF910895CF93C82F80E569
:1029A00091E00E94DC0168E070E08C2FCF91E6CFCF
:1029B000CF93C82F80E591E00E94DC0160E170E0D8
:1029C0008C2FCF91DBCFCF93DF93EC01888D8830B4
:1029D00018F4EEDF88E0888FDF91CF91089563E0EF
:1029E00070E0B0CFCF93C82F80E591E00E94DC016A
:1029F0008C2FCF91F4CFEF92FF920F931F93CF9331
:102A0000DF937C0180916205D4E0833309F0D8E044
:102A100002E515E0C0E0F801219131918F01F70145
:102A2000848195812817390729F0CF5FDC13F3CF14
:102A300080E005C08C2FD6DF8431B9F781E0DF91CB
:102A4000CF911F910F91FF90EF900895CF93DF9357
:102A5000EC018C858830C8F4C5DF843189F0882387
:102A600079F0883169F021E08C3159F4E881F981FD
:102A70000084F185E02DCE01199521E0892B09F420
:102A800020E0822FDF91CF91089580E0FBCFCF929D
:102A9000DF92EF92FF92CF93DF93EC018C85883029
:102AA00058F47BDF0E947A046B017C018C859ADFED
:102AB000811109C088E08C87DF91CF91FF90EF9062
:102AC000DF90CF90089561E070E080E090E00E9498
:102AD00049040E947A04AB01BC014C195D096E09DE
:102AE0007F098D859E85B0E0A0E0481759076A07E9
:102AF0007B07E0F28C855CDFDDCFCF93FC01C08DDE
:102B000080E591E00E94DC0160E270E08C2F36DF0E
:102B100062E070E08C2F16DF84FD15C062E070E08B
:102B20008C2F10DF83FF0AC048E162E070E08C2F39
:102B30000E94960780E090E0CF91089580E591E0B3
:102B40000E94DC01E5CF40E162E070E08C2F0E9442
:102B5000960781E0F0CFCF93DF931F92CDB7DEB71A
:102B600041E050E0BE016F5F7F4F90E080E05FDEAC
:102B700089810F90DF91CF910895CF93DF93C4E1C6
:102B8000D0E0E9DF882361F061E070E080E090E070
:102B90000E9449042197A9F780E0DF91CF91089521
:102BA00081E0FBCF1F93CF93DF931F92CDB7DEB7AA
:102BB000182F80E591E00E94DC01812F0E944E07D2
:102BC00027E0129FF0011124E65EFA4F2281338143
:102BD000377041E050E0BE016F5F7F4F820F931F5F
:102BE00026DE89810F90DF91CF911F910895FC011E
:102BF000808D883038F4218D328D232B19F0D2DF6F
:102C000090E008958FEF9FEF0895CF93DF93FC013D
:102C10002485283028F08FEF9FEFDF91CF91089522
:102C2000EC010190F081E02D0084F185E02D1995F3
:102C3000892B89F38C85B6DF90E0EFCFDA01E09144
:102C4000A204F0E0FE2FEE27E60FF71F90E0982F8A
:102C50008827A901BD018E0F9F1FE9CD8F929F92FA
:102C6000AF92BF92CF92DF92EF92FF920F931F939A
:102C7000CF93DF93CDB7DEB760970FB6F894DEBF82
:102C80000FBECDBF7C0190916205911115C018E077
:102C9000812F60960FB6F894DEBF0FBECDBFDF91D7
:102CA000CF911F910F91FF90EF90DF90CF90BF9049
:102CB000AF909F908F90089508E0933309F404E05B
:102CC0006B0180E591E00E94DC019E012F5F3F4F88
:102CD0005901490110E0812F82DEF40181934F01F7
:102CE0008823B9F01F5F0113F6CF00E0F501819151
:102CF0005F018D3149F0883139F08A51823020F0FE
:102D00000F5F1013F3CFC3CF60E170E0802F36DE8A
:102D1000102FA12EB12CF501EE0FFF1FEE5AFA4F26
:102D20001182108283EE93E00197F1F742E870E0A0
:102D300060E0812F0E9496074FEF62E070E0812FE4
:102D40000E949607B601C114D10491F4809100024B
:102D50009091010201968115F0EC9F0708F45AC08A
:102D60009093010280930002609100027091010231
:102D7000812F0E94810786E0ECE1F2E0DE011996E6
:102D800001900D928A95E1F7F70183818F778C8707
:102D900084818D8785818E87A7014E5F5F4F24E0F8
:102DA00030E06CE070E0812F0E945C07B601812F5B
:102DB0000E946C0726E030E0AE01475F5F4F66E09F
:102DC00070E0812F0E945C0761E070E0812FD6DD0A
:102DD00027E02A9DC0012B9D900D11249C01265EA9
:102DE0003A4F7901F9011182108222E030E0AE0100
:102DF000415F5F4F68E270E0812F20DF8F85988907
:102E0000982789279827F701938382831682158252
:102E100014823ECF80E090ECA3CFCF92DF92EF926E
:102E2000FF920F931F93CF93DF9300D000D0CDB7C5
:102E3000DEB78C016B017A01FC01808D883008F4CB
:102E4000B7DD86EC93E09A838983F60182819381D2
:102E5000A481B5818B839C83AD83BE83B701CE01F2
:102E60000196FCDEF801808F8830A0F4F586E486B8
:102E7000128E118E81E026960FB6F894DEBF0FBE3B
:102E8000CDBFDF91CF911F910F91FF90EF90DF9019
:102E9000CF90089580E0EFCF7F928F929F92AF9274
:102EA000BF92CF92DF92EF92FF920F931F93CF9337
:102EB000DF931F921F92CDB7DEB7782E8B014A01A8
:102EC000590122E030E0AE014F5F5F4F64E270E0F5
:102ED000B5DEE980FA80FE24EF24FE24E00EF11E28
:102EE0009701377040916205072D10E0433309F0D8
:102EF00042C0085F1F4F102F0027110F110F110F35
:102F0000C901800F911F4733C9F1A9014A0D5B1D0B
:102F10004130584098F160E078E06B01C21AD30A62
:102F2000A601B4010E949C06A5014C195D09B401DB
:102F30006C0D7D1DC8010E949C06EA0CFB1CF982E9
:102F4000EA8222E030E0AE014F5F5F4F64E270E062
:102F5000872D0E945C070F900F90DF91CF911F91FA
:102F60000F91FF90EF90DF90CF90BF90AF909F9028
:102F70008F907F900895005F1F4FBDCFA501B401D2
:102F8000DACFEF92FF921F93CF93DF931F921F929E
:102F9000CDB7DEB7182F22E030E0AE014F5F5F4FB4
:102FA00060E270E04BDEE980FA80FE24EF24FE242C
:102FB00022E030E0AE014F5F5F4F60E270E0812FB2
:102FC0003DDE89819A81982789279827E816F90696
:102FD00089F487E0189FF0011124E65EFA4FF5822C
:102FE000E482C7010F900F90DF91CF911F91FF9066
:102FF000EF9008957C01DCCF1F93CF93DF93182FC0
:1030000080E591E00E94DC01812FBBDFEC01812F84
:10301000E6DC873121F08C3111F0D0E0C0E0CE0148
:10302000DF91CF911F910895CF93DF93EC018C85B1
:10303000883050F4D7DC873111F08C3129F48C853D
:10304000DBDF8115984098F3DF91CF910895FC0163
:103050008485883008F4D0CF90E080E00895CF9246
:10306000DF92EF92FF921F93CF93DF93182F7B0194
:10307000EA014130584010F0C0E0D8E080E591E02E
:103080000E94DC01812F7DDF6C01812FA8DC87315C
:1030900011F08C3101F5CC16DD0680F380E591E06E
:1030A0000E94DC019E01A70170E060E0812FF4DE48
:1030B00060E270E0812F62DC62E070E0812F42DC30
:1030C00084FD0CC0812F8BDC8823B9F080E591E072
:1030D0000E94DC01F1CFD0E0C0E0E0CF40E162E04F
:1030E00070E0812F0E949607CE01DF91CF911F9152
:1030F000FF90EF90DF90CF900895D0E0C0E0F4CF44
:103100000F931F93CF93DF938C01EA01FC01848519
:10311000883040F4A4DF892B39F481E090E0F80195
:1031200093838283D0E0C0E0CE01DF91CF911F91E5
:103130000F9108959F92AF92BF92CF92DF92EF923C
:10314000FF920F931F93CF93DF938C015B01942E1B
:10315000E52EFC01C688D788F08C80E591E00E94BE
:10316000DC018F2D0EDFC92DDE2D8C179D0708F495
:10317000EC019E01A501B6018F2D8EDEF801868936
:1031800097898C0F9D1F978B868BCE01DF91CF91F6
:103190001F910F91FF90EF90DF90CF90BF90AF9075
:1031A0009F900895FF920F931F93CF93DF931F92E9
:1031B0001F92CDB7DEB7F82E22E030E0AE014F5FB0
:1031C0005F4F66E270E03ADD09811A81102701271E
:1031D000102722E030E0AE014F5F5F4F66E270E003
:1031E0008F2D2CDD89819A819827892798270817A8
:1031F000190749F4C8010F900F90DF91CF911F91EB
:103200000F91FF9008958C01E4CF1F93CF93DF932C
:10321000182F87E0189FE0011124C65EDA4F8881DD
:103220009981009759F480E591E00E94DC01812F9B
:10323000B9DF2E81821B910999838883DF91CF9119
:103240001F9108959F92AF92BF92CF92DF92EF921B
:10325000FF920F931F93CF93DF93EC017B0180913B
:103260006205811121C01B821A8288EE93E0A0E0E2
:10327000B0E08C839D83AE83BF8382E992E0998323
:10328000888388E08C8788EE93E09E878D87CE01C7
:10329000DF91CF911F910F91FF90EF90DF90CF9032
:1032A000BF90AF909F90089534E0932E833311F038
:1032B00028E0922E82E5C82E85E0D82E10E098E016
:1032C000B92EA12CD6012D913D916D01F70184817C
:1032D00095812817390779F4812F84DB082F8731EE
:1032E00011F08C3129F5812F90DF892B51F50C31AC
:1032F00011F4812F52DB1F5F9112E4CFA11008C09F
:10330000D701ED91FC910084F185E02DC70119955D
:103310001B821A8288EE93E0A0E0B0E08C839D834C
:10332000AE83BF8382E992E099838883BC86ABCF6A
:10333000843149F08111DFCFF6013297118210827A
:10334000DACFB12ED8CFAA24A394D5CF8F929F9253
:10335000AF92BF92CF92DF92EF92FF920F931F93A3
:10336000CF93DF93CDB7DEB72F970FB6F894DEBFBC
:103370000FBECDBF5C014B017A01809162058823AD
:10338000B1F104E0833309F008E0B501CE01019604
:1033900059DF82E5C82E85E0D82E10E0F601219194
:1033A00031916F01F501848195812817390741F426
:1033B000812F18DB873121F4A701B401812F4FDE63
:1033C0001F5F0113EBCFC7012F960FB6F894DEBF36
:1033D0000FBECDBFDF91CF911F910F91FF90EF9066
:1033E000DF90CF90BF90AF909F908F900895F12C79
:1033F000E12CE9CFFC018485883008F406CF90E009
:1034000080E008954F925F927F928F929F92AF9249
:10341000BF92CF92DF92EF92FF920F931F93CF93C1
:10342000DF931F921F92CDB7DEB7782E6B014A0152
:10343000A82EB12C27E0829FC0011124FC01E65E7A
:10344000FA4F7F010081118180E591E00E94DC014B
:10345000081519054CF4872DA5DEF70126818C018E
:10346000021B1109118300830115110511F5872D28
:10347000B6DA843159F0882349F001E010E08C314C
:1034800011F410E000E0119501951109C8010F90A9
:103490000F90DF91CF911F910F91FF90EF90DF90F0
:1034A000CF90BF90AF909F908F907F905F904F9004
:1034B0000895801691060CF4840187E08A9DF0013E
:1034C0008B9DF00D1124E65EFA4FE280F380C1146B
:1034D000D10441F12701F7E05F22872D0E944E07BA
:1034E000840D951D20916205273309F450C0980181
:1034F000240D351D2130384008F449C020E038E063
:10350000490184189508A401B60191D92601480CF7
:10351000591C6801C818D908872D0E944E07A601BA
:10352000B20185D9E00EF11E87E08A9DF0018B9DE6
:10353000F00D1124E65EFA4FF382E28220813181A0
:10354000201B310B318320838681800F912F911DA9
:103550008A3F910510F4232BE9F487E08A9DF0015E
:103560008B9DF00D1124E65EFA4F1682F982EA82F5
:1035700022E030E0AE014F5F5F4F68E270E0872DE0
:103580000E945C0760E470E0872DF8D97FCFA80126
:10359000B601C7CF86837ACFCF93DF93FC01218D0D
:1035A000328D2115310529F48FEF9FEFDF91CF91F7
:1035B0000895EC01808D4217530708F0A90122DF1E
:1035C000181619068CF7298D3A8D281B390B3A8F5E
:1035D000298FECCF0F931F93CF93DF931F92CDB71B
:1035E000DEB7FC01218D328D232B41F48FEF9FEF4D
:1035F0000F90DF91CF911F910F9108958C0141E0C1
:1036000050E0BE016F5F7F4FFC01808DFBDE18161E
:10361000190664F7F801818D928D0197928F818F41
:10362000898190E0E5CF0F931F93CF93DF9300D074
:1036300000D01F921F92CDB7DEB78C01D8015996EA
:103640004D915C915A974115510551F0ED91FC91C6
:10365000048CF58DE02D70E060E0C8011995EECF87
:10366000F801808DD2DD892BA9F148E050E0BE0140
:103670006F5F7F4FD80158968C91C4DE18161906DB
:10368000F4F4D801509684E0FE01319601900D9239
:103690008A95E1F78D8190E0982F88272E81820FFF
:1036A000911DF801958B848B8F81282F30E0322F6C
:1036B00022278885820F932F911D928F818F2896C4
:1036C0000FB6F894DEBF0FBECDBFDF91CF911F9133
:1036D0000F91089590E080E0F2CFCF93DF931F9297
:1036E000CDB7DEB741E050E0BE016F5F7F4FFC0118
:1036F000848588DE1816190634F4898190E00F90CD
:10370000DF91CF9108958FEF9FEFF9CFFC01848572
:10371000883008F477CE90E080E008958F929F92F1
:10372000AF92BF92CF92DF92EF92FF920F931F93CF
:10373000CF93DF9300D000D000D01F92CDB7DEB77B
:1037400090916205911115C018E0812F2A960FB64D
:10375000F894DEBF0FBECDBFDF91CF911F910F91C7
:10376000FF90EF90DF90CF90BF90AF909F908F90A1
:10377000089528E0F22E933311F494E0F92E6B01B2
:10378000082F80E591E00E94DC019E012F5F3F4FF2
:103790005901490110E0812F22D9F40181934F0191
:1037A0008823B9F01F5FF112F6CFF12CF50191914A
:1037B0005F019D3149F0983139F09A51923020F0F3
:1037C000F3941F11F3CFC0CF60E170E08F2DD6D8F6
:1037D0001F2DE12EF12CF701EE0FFF1FEE5AFA4FCD
:1037E0001182108283EE93E00197F1F7402F70E091
:1037F00060E0812F0E9496074FEF62E070E0812F1A
:103800000E949607B601CD2889F48091000290911C
:10381000010201968115F0EC9F0788F19093010257
:10382000809300026091000270910102812F0E943A
:10383000810761E070E0812FA1D827E02E9DC001B3
:103840002F9D900D11249C01265E3A4F7901F901BC
:103850001182108222E030E0AE01475F5F4F68E2E4
:1038600070E0812FEBD989859A8598278927982739
:10387000F7019383828316821582148266CF80E0DB
:1038800090ECCCCF0F931F93CF93DF93EC018B0180
:10389000888D883008F48CD8B80182E03FDF888FAB
:1038A000883050F41D870C871A8E198E81E0DF91C5
:1038B000CF911F910F91089580E0F9CF4F925F92C1
:1038C0006F927F928F929F92AF92BF92CF92DF9230
:1038D000EF92FF920F931F93CF93DF93CDB7DEB795
:1038E00063970FB6F894DEBF0FBECDBF7C016B01AE
:1038F0003A01FB0120E090E080E06AE0319133235F
:1039000009F45FC040ED430F4A3008F04BC0689F98
:10391000A001699F500D1124CA01C097830F911D0A
:1039200037FD9A958F3F910549F340F3F7014281A6
:1039300053816481758180912C0690912D06A09110
:103940002E06B0912F06481759076A077B0709F41E
:10395000F1C18701085F1F4F0E947A046F707727BB
:103960007C5FC8018FDF813009F0E9C186EC93E00C
:103970009A838983F70182819381A481B5818B83A6
:103980009C83AD83BE8345E350E0BE016F5F7F4FF4
:10399000C8010E940008892BA1F5D12CC12CC801B7
:1039A00012D817C03E3209F0C1CF233009F4BECF80
:1039B000D301A20FB11D12968C932F5F90E080E08F
:1039C0009DCF233009F0B2CFF3018583CC24C3947B
:1039D000D12CC60163960FB6F894DEBF0FBECDBFE3
:1039E000DF91CF911F910F91FF90EF90DF90CF90DB
:1039F000BF90AF909F908F907F906F905F904F900F
:103A000008950E947A04F7017783668342E050E0CC
:103A1000B7016A5F7F4FC8018DDB81E090E09A8338
:103A2000898342E050E0BE016F5F7F4FC80182DBB7
:103A300080E091E09A83898342E050E0BE016F5FAD
:103A40007F4FC80177DB1A82198242E050E0BE0145
:103A50006F5F7F4FC8016EDB42E050E0BE016F5FD9
:103A60007F4FC80167DB42E050E0BE016F5F7F4FD0
:103A7000C80160DB5601F60180818823F1F0650101
:103A8000F60181912F01882311F08E32A1F44601B5
:103A90008A189B081814190464F48D8641E050E0DC
:103AA000BE01635F7F4FC80145DBA401B501C801BA
:103AB00041DB5201E0CF6201E3CF1D8641E050E0DF
:103AC000BE01635F7F4FC80135DBC12CDD24D39479
:103AD000DA82C98242E050E0BE016F5F7F4FC801C9
:103AE00029DBDA82C98242E050E0BE016F5F7F4F7E
:103AF000C80120DBC80101D8892B09F44ECFF3E0BF
:103B0000AF2EB12C230122E0420E511CC9C0F70197
:103B10004281538164817581808D918DA28DB38D99
:103B2000481759076A077B0709F0FAC0848D958DFD
:103B3000C59709F0F5C081A192A15DEFC52EDD24E6
:103B4000DA940C970CF4A2C04CE050E0BE016F5F19
:103B50007F4FC80121DD8B819C8198278927982779
:103B60009A8B898BF7014681578129813A814217C7
:103B7000530709F0DAC097FFD8C08F7092703BEFFF
:103B8000C32EDD24DA94892B09F080C06F807884FD
:103B90007624672476242AEFC22EDD24DA94611479
:103BA000710409F473C0D12CC12C8D819E8198279A
:103BB00089279827C816D906E0F441E050E0BE01F5
:103BC000635F7F4FC801E8DC4D85442329F050E056
:103BD00070E060E0C801E0DC8D858111EECF44E04B
:103BE00050E070E060E0C801D7DCFFEFCF1ADF0AD9
:103BF000DCCF912C812C41E050E0BE016D5E7F4F07
:103C0000C801CADC4B89842F807C09F065C044233D
:103C100029F050E070E060E0C801BEDC8B898111C2
:103C2000EACF42E050E0BE01615F7F4FC801B4DCE3
:103C300042E050E0BE01635F7F4FC801ADDC44E06D
:103C400050E070E060E0C801A7DC42E050E0BE0157
:103C50006F5E7F4FC801A0DC8F85988949895A899A
:103C60008115914009F040C0CD84DE84DC24CD2450
:103C7000DC2481E0C816D104B9F54115544009F09F
:103C800046C044E050E0B201C80186DC21E0A21A3F
:103C9000B10809F484CEFFEFCF16DF0609F07FCE1E
:103CA0000E947A043B014C01C801BDDC18161906BC
:103CB0000CF42DCF0E947A046619770988099909B6
:103CC000693873418105910538F562E370E080E061
:103CD00090E00E944904E8CF41E050E070E060E0ED
:103CE000C8015ADC1B8A9ACF54274527542770E015
:103CF00060E0C80151DCFFEF8F1A9F0A6814790455
:103D000009F079CF96EFC92EDD24DA94BFCFE7EF23
:103D1000CE2EDD24DA94BACFCC24CA94DC2CB6CFD4
:103D20006EEFC62EDD24DA94B1CF4CEFC42EDD2425
:103D3000DA94ACCF8EEFC82EDD24DA944ACED12CA3
:103D4000C12C47CECF92DF92EF92FF920F931F9339
:103D5000CF93DF93CDB7DEB7AF970FB6F894DEBF42
:103D60000FBECDBF7C016A0106EC13E01A83098304
:103D70001C861B8688EE93E0A0E0B0E08D879E87CE
:103D8000AF87B88B80EC92E09A878987188F0F8B6A
:103D9000198E1A8E1B8E1C8E88E089A31BA70AA77A
:103DA0001CA61DA61EA61FA6809120069091210686
:103DB000A0912206B09123068EA39FA3A8A7B9A71E
:103DC0008B839C83AD83BE8318861F82AE01465DC4
:103DD0005F4FCE01019672DD81309105B1F4D701BC
:103DE000ED91FC910488F589E02D1DA30CA38CA511
:103DF0009DA5AEA5BFA58EA39FA3A8A7B9A7A60101
:103E0000BE016C5D7F4FC7011995AF960FB6F89450
:103E1000DEBF0FBECDBFDF91CF911F910F91FF90FD
:103E2000EF90DF90CF900895CF92DF92EF92FF92C4
:103E30000F931F93CF93DF93CDB7DEB7AF970FB636
:103E4000F894DEBF0FBECDBF8C016B017A0186EC0A
:103E500093E09A8389831B821C821D821E821C86AA
:103E60001B8648EE53E060E070E04D875E876F8709
:103E7000788B20EC32E03A872987988F8F8B198EC8
:103E80001A8E1B8E1C8E28E029A39BA78AA71CA62E
:103E90001DA61EA61FA6D8011C968C91883060F422
:103EA0000E94F214882321F0F80184850E94CD1429
:103EB00088E0D8011C968C93809120069091210671
:103EC000A0912206B09123068EA39FA3A8A7B9A70D
:103ED0008B839C83AD83BE8318861F82AE01465DB3
:103EE0005F4FB601CE010196E9DC0097C1F0D80121
:103EF000ED91FC910684F785E02D86EC93E09DA37F
:103F00008CA38CA59DA5AEA5BFA58EA39FA3A8A796
:103F1000B9A7A701BE016C5D7F4FC8011995AF9687
:103F20000FB6F894DEBF0FBECDBFDF91CF911F91CA
:103F30000F91FF90EF90DF90CF9008950F931F9314
:103F4000CF938C01FC016481758181E2E7DBC82F8E
:103F50008830F8F480E591E00E94DC018C2F0E940B
:103F6000EF14833131F08C2FCF911F910F910C946E
:103F7000CD1462E070E08C2F0E94BE14F8018481A1
:103F80009581EC2FF0E0EE0FFF1FEE5AFA4F918370
:103F90008083CF911F910F910895CF92DF92EF927E
:103FA000FF921F93CF93DF93EC017B016A018C8515
:103FB000883048F40E94F214882319F08C850E94FE
:103FC000CD1488E08C87F70182819381A481B5812B
:103FD0000097A105B10551F490E080E0DF91CF9109
:103FE0001F91FF90EF90DF90CF9008958F3F9F4FEC
:103FF000AF4FBF4F89F370E060E081E28FDB182F95
:104000008C87883048F780E591E00E94DC01A701A9
:104010004E5F5F4F24E030E06CE070E0812F0E9443
:104020005C07B601812F0E946C0764E070E0812F6D
:104030000E94BE140E947A046B017C018C850E9450
:10404000F214873111F18C3101F1882329F20E9499
:104050007A04AB01BC014C195D096E097F098D859D
:104060009E85B0E0A0E084179507A607B70738F053
:1040700061E070E080E090E00E944904DFCF8C8531
:104080000E94D81488E08C87A7CF81E090E0A6CF6B
:104090000F931F93CF93DF931F921F92CDB7DEB77D
:1040A000FC0124852830E0F48C0180E591E00E9439
:1040B000DC0122E030E0AE014F5F5F4F60E170E075
:1040C000F80184850E941E1689819A819827892784
:1040D00098270F900F90DF91CF911F910F91089526
:1040E00090E080E0F6CFEF92FF920F931F93CF9373
:1040F000DF9300D01F92CDB7DEB78C017B01FB01AF
:1041000084858830A8F086EC93E0F8019183808361
:104110001282138214821582C8010F900F900F90A3
:104120000F90DF91CF911F910F91FF90EF90089525
:1041300080E591E00E94DC0124E030E0AE014F5FB9
:104140005F4F6CE070E0F70184850E941E16BE018F
:104150006F5F7F4FC8010E940B14DECF0F931F9338
:10416000CF93DF931F921F92CDB7DEB7FC0124855A
:104170002830E0F48C0180E591E00E94DC0122E02F
:1041800030E0AE014F5F5F4F64E070E0F80184857E
:104190000E941E1689819A819827892798270F9057
:1041A0000F90DF91CF911F910F91089590E080E0E3
:1041B000F6CF3F924F925F926F927F928F929F9233
:1041C000AF92BF92CF92DF92EF92FF920F931F9325
:1041D000CF93DF93CDB7DEB7EA970FB6F894DEBF83
:1041E0000FBECDBF7C012A013B0169010E947A0408
:1041F0004B015C0187010D5B1F4FC80114DA1816D3
:1042000019069CF00E947A04681979098A099B09A9
:10421000461657066806790608F453C162E370E053
:1042200080E090E00E944904E8CF42E250E0BE0105
:104230006F5F7F4FC801B0D989818230D1F0312CB6
:10424000832DEA960FB6F894DEBF0FBECDBFDF9187
:10425000CF911F910F91FF90EF90DF90CF90BF9083
:10426000AF909F908F907F906F905F904F903F9016
:104270000895F801848995898334910501F76D814A
:104280007E818F8198850E94783C4B015C01F6010C
:1042900080829182A282B38246E050E0B701685FDB
:1042A0007F4FCE014D960E94933C892B41F6F7013A
:1042B00080819181A281B38188169906AA06BB06E6
:1042C00008F4BDCF84819581A681B78188159905B1
:1042D000AA05BB0508F4B3CF89899A89AB89BC8943
:1042E00086879787A08BB18B4EEC50E070E060E042
:1042F000C80152D9312CC701829698AB8FA7F7011C
:10430000B696FAABE9AB08969CAB8BAB67019AE12A
:10431000C90ED11CBD96FEABEDABC701429698AF5E
:104320008FABFD97FAAFE9AF4701FEE18F0E911C0D
:10433000F801818D928D181619060CF081CFC801F5
:1043400049D98333910509F4A4C0FCF48130910567
:1043500009F45EC03CF4892B59F3C8013BD9AC0188
:1043600055276CC08330910509F45BC00697A9F707
:10437000C80130D9B82E44E050E0B401C8010CD9CE
:10438000EB2DE450FF0BAF0159C08A33910509F4BE
:1043900058C07CF585339105A9F1C697F1F6C8019F
:1043A00019D95C01B601CE0189960E940B148BA528
:1043B0009CA5ADA5BEA5892B8A2B8B2BB1F0EDA9B1
:1043C000FEA94080518062807380B601CE01839641
:1043D0000E940B148DA19EA1AFA1B8A5A5014816FE
:1043E00059066A067B0609F0BBCF44E050E0B601EF
:1043F00015C08B33910509F438C08F3F910509F43E
:1044000097CFABCFC801E6D8C801E4D8382E90CFFB
:10441000C801E0D844E050E06FA978ADC801BCD82D
:1044200087CFC801D7D8B82E44E050E069AD7AAD47
:10443000C801B2D88B2D8450990BAC0170E060E0BC
:10444000EDCFC801C7D844E050E069A97AA9C801F6
:10445000A3D8F70166A177A180A591A50E94783C19
:1044600066A377A380A791A763CFC801B3D844E020
:1044700050E06BA97CA9C8018FD8F70162A573A58C
:1044800084A595A50E94783C62A773A784A795A7E9
:104490004FCFC8019FD844E050E06FA578A9C8016C
:1044A0007BD8F70162A173A184A195A10E94783CF9
:1044B00062A373A384A395A366A777A780AB91ABF0
:1044C00037CF33243A94BCCE7F928F929F92AF9293
:1044D000BF92CF92DF92EF92FF920F931F93CF93F1
:1044E000DF93CDB7DEB7A6970FB6F894DEBF0FBE49
:1044F000CDBF8C01762E942E852E20E2A22ECE01E9
:1045000001967C01DC01EA2D1D92EA95E9F768012C
:10451000F3E4CF0ED11C86EC93E09AA389A38FEF2E
:104520008BA38CA38DA38EA343E450E0BE016F5DEB
:104530007F4FC6010E940008019609F4BFC081E0C8
:1045400089838A8386E0B82EBB821C82D8011496A8
:104550006D917D918D919C9117970E94783C6D8310
:104560007E838F83988789869A8680E890E09C87EF
:104570008B874CE150E0B701C6010E949A18FE01FA
:1045800037968AE1DF011D928A95E9F74801B8E084
:104590008B0E911CF401D70101900D92BA94E1F7B2
:1045A00040E150E0B701C6010E949A18F70111924C
:1045B000AA94E9F796E0A92EB12C40E250E0B701A9
:1045C000C6010E949A18F1E0AF1AB108B1F783E66C
:1045D000898392E89A8393E59B838C8385E38D831B
:1045E00081E08E837F829DE3988797E099878A8711
:1045F00086E0F401DE011B9601900D928A95E1F7A9
:104600008CE0898B8A8B64ED73E0CE0143960E9427
:10461000A73CD8011B966C91CE0149960E94DF0100
:10462000F8016485CE014B960E94DF01D8011D96EA
:104630006C91CE014D960E94DF014EE150E0B70132
:10464000C6010E949A18B3E07B121EC082E38983E0
:1046500084E08A83F80196859B8397859C83908963
:104660009D8391899E8396E39F838887828D898726
:10467000838D8A87848D8B87858D8C874CE050E075
:10468000B701C6010E949A1887E3898386E08A836E
:1046900091E09B8393E09C838D838FE08E838AE3FC
:1046A0008F838BE388878FEF898749E050E0B701DC
:1046B000C6010E949A18C6010E947D15A6960FB6E3
:1046C000F894DEBF0FBECDBFDF91CF911F910F9148
:1046D000FF90EF90DF90CF90BF90AF909F908F9022
:1046E0007F900895EF92FF920F931F93CF93DF93E4
:1046F000EC010C811D818E819F8108171907F1F44F
:10470000C80105969F838E83811520E49207E8F403
:10471000880F991F0E9423387C0130E020E0AC0113
:1047200070E060E08A819B810E9453088A819B81AE
:10473000009711F00E94BF38FB82EA82DF91CF918F
:104740001F910F91FF90EF9008958FEF9FEFE2CFB1
:10475000EF92FF920F931F93CF93DF93EC017B01B6
:104760008C819D8101969D838C83CE01BBDF8A81E4
:104770009B810C811D810E191F090250110997019F
:104780002F5F3F4FAC01B7010E945308DF91CF91DB
:104790001F910F91FF90EF9008950F931F93CF9368
:1047A000DF93EC018B018C819D8101969D838C832D
:1047B000CE0198DF8C819D8181509048880F991F90
:1047C0002A813B81820F931FFC0111830083DF91BB
:1047D000CF911F910F910895CF93DF93EC018EE657
:1047E00093E0998388838A819B81009711F00E94CE
:1047F000BF388CE390E00E942338FC019C01245CCC
:104800003F4F1182108213821282158214823696D3
:10481000E217F307B1F79B838A831D821C828AE02B
:1048200090E09F838E83DF91CF910895CF93DF93A4
:10483000EC018AE492E0998388838A819B810097C6
:1048400011F00E94BF3884E190E00E9423389C015F
:104850002C5E3F4FFC0111921192E217F307D9F73A
:104860009B838A831D821C828AE090E09F838E83D3
:10487000DF91CF910895AF92BF92CF92DF92EF92E6
:10488000FF920F931F93CF93DF93EC010C811D8157
:10489000CE80DF800C151D0509F050C0580185E061
:1048A000A80EB11CBF82AE828FEF9FEFA114E8E08B
:1048B000BE0638F4C50134E0880F991F3A95E1F738
:1048C00002960E942338FC01A192B1927F01F4E08C
:1048D000CF0ED11CF701D7FC07C011821082709651
:1048E00081E0C81AD108F7CF30E020E0A70170E0DE
:1048F00060E08A819B810E949F0C0A811B810115C7
:104900001105D1F0F80132978081918124E0880F60
:10491000991F2A95E1F7080F191F98018A819B8139
:10492000005111098217930721F0C8010E94510C10
:10493000F4CF02970E94BF38FB82EA82DF91CF91C9
:104940001F910F91FF90EF90DF90CF90BF90AF90AD
:104950000895EF92FF920F931F93CF93DF93EC0193
:104960007B018C819D8101969D838C83CE0183DFA9
:104970008A819B810C811D810E191F09025011092A
:1049800097012F5F3F4FAC01B7010E949F0CDF9151
:10499000CF911F910F91FF90EF900895EF92FF92AA
:1049A0000F931F93CF93DF937C018B01FC018481D4
:1049B0009581019695838483C7015DDFF701C481EA
:1049C000D581C150D04FCE0124E0880F991F2A9580
:1049D000E1F7C281D381C80FD91FB801CE010E946F
:1049E0005C0CF80182859385A485B5858A879B87B1
:1049F000AC87BD87868597859F878E87DF91CF910E
:104A00001F910F91FF90EF9008950F931F93CF93F5
:104A1000DF93CDB7DEB76A970FB6F894DEBF0FBE4F
:104A2000CDBF8A01FC01819191919A8B898B88E09D
:104A3000DE01539601900D928A95E1F71A82198250
:104A4000788B6F87BE016F5E7F4FCE0101960E940B
:104A50005C0C012E000C220B330B0B871C872D875F
:104A60003E87BE016F5F7F4F81E696E097DFCE0104
:104A700001960E94510CCE0141960E94510C6A96FB
:104A80000FB6F894DEBF0FBECDBFDF91CF911F915F
:104A90000F910895CF92DF92EF92FF920F931F93A1
:104AA000CF93DF93EC010C811D81EE80FF800E150A
:104AB0001F05B9F598012B5F3F4F3F832E832635A5
:104AC00085E13807D0F446E0429FC001439F900D36
:104AD00011240E9423386C0184E0E80EF11CF601D9
:104AE000F7FC0EC01182108213821282158214828A
:104AF000369681E0E81AF108F3CF8FEF9FEFE9CF08
:104B000030E020E0A60170E060E08A819B810E9495
:104B10006D088A819B81009711F00E94BF38CA827C
:104B2000DB82DF91CF911F910F91FF90EF90DF908B
:104B3000CF900895EF92FF920F931F93CF93DF933F
:104B400000D000D0CDB7DEB78C017B01FC018481A1
:104B50009581019695838483C8019CDFF801828149
:104B60009381048115810E191F09025011099701C3
:104B70002F5F3F4FAC01B7010E946D0826960FB61C
:104B8000F894DEBF0FBECDBFDF91CF911F910F9183
:104B9000FF90EF9008950F931F93CF93DF9300D072
:104BA00000D0CDB7DEB78C0129833A834B835C8379
:104BB0006D837E83FC018481958101969583848336
:104BC000C80168DFF8012481358146E0429FC001B9
:104BD000439F900D1124A281B381A80FB91F16978E
:104BE00086E0FE01319601900D928A95E1F72696B6
:104BF0000FB6F894DEBF0FBECDBFDF91CF911F91EE
:104C00000F910895EF92FF920F931F93CF93DF932D
:104C1000EC010C811D818E819F8108171907D1F449
:104C2000C80105969F838E830E9423387C018A8168
:104C30009B81F701DC019D01281B390B20173107EF
:104C40001CF42D912193F7CF009711F00E94BF38EB
:104C5000EA82FB82DF91CF911F910F91FF90EF903D
:104C600008950F931F93CF93DF93EC018B018C81F9
:104C70009D8101969D838C83CE01C4DF8C819D81B3
:104C8000801B910B0297EA81FB81E00FF11FAF01BE
:104C90009F01241B350B281739071CF42191208311
:104CA000F7CFDF91CF911F910F9108951F93CF936D
:104CB000DF93EC01162F8C819D8101969D838C835F
:104CC000CE01A0DFEA81FB818C819D81E80FF91F75
:104CD00031971083DF91CF911F910895CF93DF9388
:104CE000EC018CE292E0998388838A819B81009712
:104CF00011F00E94BF388AE090E00E9423389C01A6
:104D0000265F3F4FFC011192E217F307E1F79B8307
:104D10008A831D821C828AE090E09F838E83DF91CC
:104D2000CF9108950F931F93CF93DF9326E233E043
:104D3000FC0131832083C281D3812097F9F08C015B
:104D4000FE0132972081318184E0220F331F8A9542
:104D5000E1F7C20FD31F9E01F80182819381609712
:104D60008217930721F0CE010E94510CF4CF0297D5
:104D7000DF91CF911F910F910C94BF38DF91CF91AC
:104D80001F910F910895CF93DF93EC01CBDF82EA5F
:104D900090E00E942338FC012AE030E02193319317
:104DA000DF018E559F4F11961C921E925096A817A8
:104DB000B907C9F7FB83EA831D821C828AE090E071
:104DC0009F838E83DF91CF910895FC018EE193E064
:104DD000918780878CE292E09183808382819381A6
:104DE000009711F00C94BF380895FC018AE892E016
:104DF000918780878AE492E0918380838281938186
:104E0000009711F00C94BF3808958F929F92AF9243
:104E1000BF92CF92DF92EF92FF920F931F93CF93A7
:104E2000DF93CDB7DEB76C970FB6F894DEBF0FBE39
:104E3000CDBFCE0141960E94CD110E947A044B0154
:104E40005C010091630610916406E0906506F090A5
:104E5000660694E0EE0CFF1C9A95E1F7E00EF11E59
:104E6000D12CC12CE016F10659F1B801CE01019602
:104E70000E94C60D8B859C85AD85BE8588159905DC
:104E8000AA05BB0598F48F8598899C8F8B8FE98143
:104E9000FA810480F581E02DBE01655E7F4FCE0171
:104EA00003961995B601CE01419677DC8FEFC81AAB
:104EB000D80ACE0101960E94510C005F1F4FD2CF3D
:104EC000EB88FC880D891E89000F111F0E0D1F1D18
:104ED0000E151F0579F0F701419151917F0161E6AF
:104EE00076E0CE0101960E94E70CCE0101960E9469
:104EF000510CEECFCE01419678DF6C960FB6F89448
:104F0000DEBF0FBECDBFDF91CF911F910F91FF90FC
:104F1000EF90DF90CF90BF90AF909F908F900895CB
:104F20001F920F920FB60F9211240BB60F922F9370
:104F30003F934F935F936F937F938F939F93AF9321
:104F4000BF93EF93FF9383E695E00E94B502FF9134
:104F5000EF91BF91AF919F918F917F916F915F91F1
:104F60004F913F912F910F900BBE0F900FBE0F905E
:104F70001F9018951F920F920FB60F9211240BB627
:104F80000F922F938F939F93EF93FF93E09173056D
:104F9000F09174058081E0917905F0917A0582FDA8
:104FA0001DC0908180917C058F5F8F7320917D055E
:104FB000821741F0E0917C05F0E0ED59FA4F958FB2
:104FC00080937C05FF91EF919F918F912F910F908E
:104FD0000BBE0F900FBE0F901F9018958081F2CFDF
:104FE0001F920F920FB60F9211242F933F938F931E
:104FF0009F93AF93BF938091120590911305A09159
:105000001405B09115053091110523E0230F2D37BC
:1050100058F50196A11DB11D20931105809312052D
:1050200090931305A0931405B09315058091160570
:1050300090911705A0911805B09119050196A11D31
:10504000B11D8093160590931705A0931805B09392
:105050001905BF91AF919F918F913F912F910F9023
:105060000FBE0F901F90189526E8230F0296A11DE2
:10507000B11DD2CF1F920F920FB60F9211240BB613
:105080000F922F933F934F935F936F937F938F93E1
:105090009F93AF93BF93EF93FF93E0911002F09132
:1050A00011021995FF91EF91BF91AF919F918F914F
:1050B0007F916F915F914F913F912F910F900BBE18
:1050C0000F900FBE0F901F9018951F920F920FB662
:1050D0000F9211240BB60F922F933F934F935F9330
:1050E0006F937F938F939F93AF93BF93EF93FF93B0
:1050F000E0910E02F0910F021995FF91EF91BF918F
:10510000AF919F918F917F916F915F914F913F915F
:105110002F910F900BBE0F900FBE0F901F90189500
:105120001F920F920FB60F9211240BB60F922F936E
:105130003F934F935F936F937F938F939F93AF931F
:10514000BF93EF93FF93E0910402F091050219954C
:10515000FF91EF91BF91AF919F918F917F916F914F
:105160005F914F913F912F910F900BBE0F900FBE0B
:105170000F901F9018951F920F920FB60F92112447
:105180000BB60F922F933F934F935F936F937F9341
:105190008F939F93AF93BF93EF93FF93E09102029E
:1051A000F09103021995FF91EF91BF91AF919F91FB
:1051B0008F917F916F915F914F913F912F910F90C0
:1051C0000BBE0F900FBE0F901F9018951F920F925D
:1051D0000FB60F9211240BB60F922F933F934F935C
:1051E0005F936F937F938F939F93AF93BF93EF934F
:1051F000FF93E0910C02F0910D021995FF91EF9150
:10520000BF91AF919F918F917F916F915F914F91DE
:105210003F912F910F900BBE0F900FBE0F901F90DC
:1052200018951F920F920FB60F9211240BB60F9282
:105230002F933F934F935F936F937F938F939F939E
:10524000AF93BF93EF93FF93E0910A02F0910B02AB
:105250001995FF91EF91BF91AF919F918F917F91A0
:105260006F915F914F913F912F910F900BBE0F90D7
:105270000FBE0F901F9018951F920F920FB60F92AE
:1052800011240BB60F922F933F934F935F936F931D
:105290007F938F939F93AF93BF93EF93FF93E0918F
:1052A0000802F09109021995FF91EF91BF91AF911A
:1052B0009F918F917F916F915F914F913F912F912E
:1052C0000F900BBE0F900FBE0F901F9018951F925E
:1052D0000F920FB60F9211240BB60F922F933F939C
:1052E0004F935F936F937F938F939F93AF93BF93EE
:1052F000EF93FF93E0910602F09107021995FF9159
:10530000EF91BF91AF919F918F917F916F915F913D
:105310004F913F912F910F900BBE0F900FBE0F90AA
:105320001F9018951F920F920FB60F9211240BB673
:105330000F922F933F934F935F936F937F938F932E
:105340009F93AF93BF93EF93FF938091B900887FB2
:10535000803609F44DC008F040C0883209F4A7C077
:1053600028F5803109F49BC0C8F4882309F4F7C0FC
:10537000883009F494C0FF91EF91BF91AF919F9154
:105380008F917F916F915F914F913F912F910F90EE
:105390000BBE0F900FBE0F901F901895883109F427
:1053A00086C0803241F78093EA0414C0803409F447
:1053B0009BC040F48033B9F38833E9F68093EA0464
:1053C00085ECAEC0803509F483C0883509F494C0FB
:1053D000883489F60E948704CECF883909F48AC0C0
:1053E00038F5883729F050F4883611F0803719F6EF
:1053F00083E08093EB041092E90455C0883809F4E7
:1054000079C0803919F0803809F0B5CF8091E9046E
:10541000803208F06FC0E091E90481E08E0F809344
:10542000E9048091BB00F0E0E753FB4F80833BC071
:10543000803B39F0D0F4803A09F477C0883A09F01B
:105440009ACF84E08093EB041092C8041092C704B2
:10545000F0E0E0E019958091C70481110FC081E070
:105460008093C7041092A70409C0803C09F4A8CF18
:10547000883C09F4A5CF883B09F07DCFE091C804B2
:1054800081E08E0F8093C804F0E0E955FB4F8081E6
:105490008093BB009091C8048091C70429C080917B
:1054A00010058093BB0085EC8093BC0064CF909185
:1054B0000F0580910E05981758F5E0910F0581E0D2
:1054C0008E0F80930F05F0E0E251FB4F8081E9CF12
:1054D000E0910F0581E08E0F80930F058091BB0056
:1054E000F0E0E251FB4F808390910F0580910E0513
:1054F0009817C8F285E8D8CFE0910F0581E08E0FAC
:1055000080930F058091BB00F0E0E251FB4F808358
:105510008091ED0481115ECF81E08093EC0484EAF8
:105520008093BC001092EB0426CF85EC8093BC00E6
:105530001092EB048091E904803230F4E091E904A8
:10554000F0E0E753FB4F10826091E90470E089ECD2
:1055500094E0F0E0E0E019951092E9040CCF10928D
:10556000EA0438CFAF92BF92CF92DF92EF92FF92D0
:105570000F931F93CF93DF93CDB7DEB763970FB62B
:10558000F894DEBF0FBECDBF109266051092650580
:1055900088EE93E0A0E0B0E0809367059093680503
:1055A000A0936905B0936A058AEE92E09093640532
:1055B0008093630585EC90E09093700580936F0570
:1055C00084EC90E0909372058093710580EC90E0FC
:1055D000909374058093730581EC90E09093760529
:1055E0008093750582EC90E0909378058093770521
:1055F00086EC90E090937A058093790510927C0573
:1056000010927D0510927E0510927F0586EC93E046
:1056100090930106809300061092020610920306F2
:1056200010920406109205069093070680930606D2
:10563000109208061092090610920A0610920B06A4
:1056400090930D0680930C0610920E0610920F0692
:105650001092100610921106909313068093120672
:105660001092140610921506109216061092170644
:10567000909319068093180610921A0610921B0632
:1056800010921C0610921D06909325068093240606
:1056900010922606109227061092280610922906CC
:1056A00090931F0680931E061092200610922106EA
:1056B000109222061092230690932B0680932A06BE
:1056C00010922C0610922D0610922E0610922F0684
:1056D0009093310680933006109232061092330672
:1056E00010923406109235069093760680937506D4
:1056F00010927706109278061092790610927A0628
:105700001092700610926F068CE390E00E9423388E
:10571000FC019C01245C3F4F118210821382128293
:105720001582148236962E173F07B1F790936E06B6
:1057300080936D060AE010E01093720600937106E4
:105740008CE893E090936C0680936B068EEA93E06E
:105750009093740680937306109266061092650605
:1057600082EA90E00E942338FC0101931193DF014B
:105770008E559F4F11961C921E925096A817B907EE
:10578000C9F7F0936406E09363068AE090E0909393
:1057900068068093670684E493E0909362068093A2
:1057A000610686E693E090936A06809369061092FC
:1057B0005E0610925D0686EB93E090935C06809304
:1057C0005B0688EE93E09093600680935F0660E04E
:1057D00085E00E94E803EEE0F3E0E491E0934D06FB
:1057E000E8ECF2E0E491F0E0EE0FFF1FE755FD4F2B
:1057F0008591949190934F0680934E06109258068F
:1058000010925A06109259061092360610923706D8
:1058100089E08093390681E080933A0680933B06C5
:1058200080933C068DE496E09093400680933F067B
:1058300010924C0610924B06109257061092560684
:10584000109255061092540610925306109252066A
:10585000109251061092500610923D0610923E068C
:1058600011E0BE016F5F7F4F80913F06909140062F
:105870000E94DF0E882309F45FC067E0CE01019625
:105880000E94DF0498858913ECCF80913D068F5FDD
:1058900080933D068981883231F008F044C0803120
:1058A00011F08232F1F680913E068F5F80933E06C2
:1058B00080913606811128C080913F069091400664
:1058C0000E949905BE016F5F7F4F80913F069091C6
:1058D00040060E947C0540E064EB80913F06909179
:1058E00040060E94490580913F06909140060E9423
:1058F000F604082F80913F06909140060E9499057A
:10590000011102C0109336068981803199F0CE01D1
:1059100001960E943D0690913906981708F0A1CF94
:10592000809339069ECF8B3309F4BDCF823409F0C2
:1059300098CFB9CF8CE0EFCFC0903D06D12C88E056
:1059400090E00E942338FC0110821182128213829F
:1059500014821582168217829C838B8388E090E0E4
:105960009E838D8398878F838CEF92E09A838983BF
:105970008EE193E09A878987F12CE12C8FE1B82E94
:1059800099E0A92EEC14FD040CF0C3C06E2D8B81A0
:105990009C810E945F0F0B811C81F8018081803106
:1059A00009F470C0BE01655F7F4FC8010E94D10538
:1059B000882309F467C08F858F3109F463C0BF86DF
:1059C00080913F06909140060E949905B801809110
:1059D0003F06909140060E947C0540E06EE4809175
:1059E0003F06909140060E94490540E06D858091F8
:1059F0003F06909140060E94490540E06E858091E7
:105A00003F06909140060E944905F801808180314F
:105A100041F040E06F8580913F06909140060E94E2
:105A2000490580913F069091400620913C06222333
:105A300039F10E949905882329F180913F069091C0
:105A400040060115110509F040C040E06CEC0E94D1
:105A500049054091360668E480913F0690914006E2
:105A60000E94490580913606811133C064E170E0DF
:105A700080E090E00E94490480913F0690914006AA
:105A80000E949905A092390680913D068230E8F186
:105A900010E080913D061817C0F5809139068C30D2
:105AA000A1F1612FCE010B960E945F0F8B85803193
:105AB00051F1CE010B960E943D0690913906981740
:105AC00010F4809339061F5FE4CFB8010E947C0573
:105AD000C0CF80913706882329F060E08091380696
