:100000000C9469000C9491000C9491000C94910054
:100010000C9491000C9491000C9491000C9491001C
:100020000C9491000C9491000C9491000C9491000C
:100030000C9491000C9491000C9491000C949100FC
:100040000C94991E0C9491000C94671E0C94411E04
:100050000C9491000C9491000C9491000C949100DC
:100060000C9491000C949100467261676D656E74FA
:100070006174696F6E206C6576656C3A20000000D3
:100080000008000201000003040700000000000057
:10009000000000000000250028002B0000000000E8
:1000A000240027002A0004040404040404040202B7
:1000B00002020202030303030303010204081020E7
:1000C0004080010204081020010204081020E31EF1
:1000D0009A2711241FBECFEFD8E0DEBFCDBF13E0BB
:1000E000A0E0B1E0E8E8F8E502C005900D92AE337B
:1000F000B107D9F724E0AEE3B3E001C01D92AD3EF5
:10010000B207E1F710E0C8E6D0E004C02197FE0195
:100110000E94162CC736D107C9F70E94EB1F0C941A
:10012000372C0C94000090E0FC01E654FF4F249122
:100130008A559F4FFC018491882399F090E0880FA5
:10014000991FFC01E456FF4FA591B491FC01EE56B6
:10015000FF4F859194918FB7F894EC91E22BEC933B
:100160008FBF08958CBD9DBD089520E3FC012083C1
:100170003296862F82958F706F706A3030F4605D92
:100180006293682F8111F5CF0895695CF9CFFC0166
:10019000818D928D08950895AF92BF92CF92DF9294
:1001A000EF92FF920F931F93CF93DF936C017B012C
:1001B0008B01040F151FEB015E01AE18BF08C017BD
:1001C000D10759F06991D601ED91FC910190F08130
:1001D000E02DC6010995892B79F7C501DF91CF91F3
:1001E0001F910F91FF90EF90DF90CF90BF90AF9055
:1001F0000895FC01538D448D252F30E0842F90E02D
:10020000821B930B541710F0CF9608950197089511
:10021000FC01918D828D981761F0A28DAE0FBF2FDA
:10022000B11D5D968C91928D9F5F9F73928F90E030
:1002300008958FEF9FEF0895FC01918D828D98179F
:1002400031F0828DE80FF11D858D90E008958FEFDC
:100250009FEF0895FC01918D228D892F90E0805CA5
:100260009F4F821B91098F7399270895FC01A48DDC
:10027000A80FB92FB11DA35ABF4F2C91848D90E0C8
:1002800001968F739927848FA689B7892C93A089AB
:10029000B1898C91837080648C93938D848D981335
:1002A00006C00288F389E02D80818F7D80830895C8
:1002B000EF92FF920F931F93CF93DF93EC0181E0B6
:1002C000888F9B8D8C8D98131AC0E889F98980815D
:1002D00085FF15C09FB7F894EE89FF896083E88990
:1002E000F98980818370806480839FBF81E090E082
:1002F000DF91CF911F910F91FF90EF900895F62E0F
:100300000B8D10E00F5F1F4F0F731127E02E8C8DA8
:100310008E110CC00FB607FCFACFE889F9898081ED
:1003200085FFF5CFCE010E943601F1CFEB8DEC0FAA
:10033000FD2FF11DE35AFF4FF0829FB7F8940B8F0A
:10034000EA89FB8980818062CFCFCF93DF93EC0174
:10035000888D8823B9F0AA89BB89E889F9898C91AD
:1003600085FD03C0808186FD0DC00FB607FCF7CF69
:100370008C9185FFF2CF808185FFEDCFCE010E9469
:100380003601E9CFDF91CF91089590E0FC01E2586A
:10039000FF4F2491FC01E654FF4F3491FC01EA55D4
:1003A000FF4FE491EE23C9F0222339F0233001F10D
:1003B000A8F4213019F1223029F1F0E0EE0FFF1FEF
:1003C000EE56FF4FA591B4918FB7F894EC9161115F
:1003D00026C030953E233C938FBF08952730A9F067
:1003E0002830C9F0243049F7809180008F7D03C008
:1003F000809180008F7780938000DFCF84B58F77E6
:1004000084BDDBCF84B58F7DFBCF8091B0008F772B
:100410008093B000D2CF8091B0008F7DF9CF3E2B7A
:10042000DACF3FB7F8948091D1039091D203A09195
:10043000D303B091D40326B5A89B05C02F3F19F074
:100440000196A11DB11D3FBFBA2FA92F982F882754
:10045000BC01CD01620F711D811D911D42E0660F2F
:10046000771F881F991F4A95D1F708958F929F9201
:10047000AF92BF92CF92DF92EF92FF924B015C015D
:100480000E9411026B017C010E9411026C197D090E
:100490008E099F09683E734081059105A8F321E00C
:1004A000821A9108A108B10888EEC80E83E0D81E10
:1004B000E11CF11C81149104A104B10429F7FF90FF
:1004C000EF90DF90CF90BF90AF909F908F90089566
:1004D0002FB7F8946091CD037091CE038091CF0334
:1004E0009091D0032FBF0895FC0120812EBD9B0168
:1004F0002150310941F051810DB407FEFDCF4EB5B9
:100500005EBD4193F5CF61507109860F971F0DB401
:1005100007FEFDCF2EB5FC0120830895E091CA03AC
:10052000F091CB0380819091C903892B808308953A
:10053000E091CA03F091CB0390818091C90380952B
:100540008923808308958EBD00000DB407FEFDCF82
:100550008EB50895AF92BF92CF92DF92EF92FF9245
:100560000F931F93CF93DF93CDB7DEB728970FB6C6
:10057000F894DEBF0FBECDBF8C017B016A01809174
:10058000F9038333E1F45801A40EB51EA016B10699
:1005900009F46FC00E94980280EF0E94A302812F8D
:1005A0000E94A302802F0E94A3020F5F1F4FF7013A
:1005B00081917F010E94A3020E948E02E7CF5B011E
:1005C000A40EB51E8433C1F40E94980219830A83D5
:1005D0008D2D80688B83CC8264E070E0CE01019623
:1005E0000E947402AE14BF0409F441C0F701819166
:1005F0007F010E94A302F6CF0E9498020F3F1105CF
:1006000009F028F419820A8384E08B830CC017FD5B
:1006100017C019820A8333E0169507953A95E1F7DA
:10062000007E0C600B8386E0C816D104A0F5F701AC
:10063000DE011496EA15FB0599F081918D93FACFAE
:10064000C80126E0969587952A95E1F7807E198363
:100650000A830115104C10F48461D7CF8C61D5CF7B
:10066000B6016D5F7F4FCE0101960E9474020E9419
:100670008E02C60128960FB6F894DEBF0FBECDBF1E
:10068000DF91CF911F910F91FF90EF90DF90CF906E
:10069000BF90AF90089563E070E0CE0101960E9494
:1006A0007402F70181917F010E94A302AE14BF047E
:1006B000C1F7DDCFCF93DF931F92CDB7DEB789832C
:1006C00041E050E0BE016F5F7F4F90E080E00E940C
:1006D000AA020F90DF91CF91089590E02091F90345
:1006E000233339F40C96982F990F990F990F80E0C6
:1006F00008954896F8CFDA01E091C803F0E0FE2FA4
:10070000EE27E60FF71F90E0982F8827A901BD017B
:100710008E0F9F1F0C94AA02CF93DF9300D0CDB70A
:10072000DEB779836A8322E030E0AE014F5F5F4F2E
:1007300060E170E00E947B030F900F90DF91CF91FA
:100740000895CF93DF9300D0CDB7DEB779836A8366
:1007500022E030E0AE014F5F5F4F64E070E00E9446
:100760007B030F900F90DF91CF910895CF93DF938C
:100770001F92CDB7DEB72091C80330E0322F222779
:10078000260F371F90E0982F8827498341E050E0DB
:10079000BE016F5F7F4F820F931F0E94AA020F90CE
:1007A000DF91CF910895CF93DF931F92CDB7DEB73E
:1007B0006983DC01ED91FC910280F381E02D41E041
:1007C00050E0BE016F5F7F4F09950F90DF91CF9191
:1007D0000895CF93DF931F92CDB7DEB76983DC0115
:1007E000ED91FC910280F381E02D41E050E0BE01EB
:1007F0006F5F7F4F09950F90DF91CF910895FC01B6
:100800009485FB018485981303C081E0943008F03F
:1008100080E00895CF93DF931F92CDB7DEB7698351
:10082000DC01ED91FC910280F381E02D41E050E08C
:10083000BE016F5F7F4F09950F90DF91CF910895B3
:100840000895FF920F931F93CF93DF93EB01FC0169
:10085000178A168A2A81211109C02B81211106C00D
:100860002C81211103C02D81222301F14115510555
:10087000E9F08A01FC01F08C80E591E00E94B20071
:10088000AE014E5F5F4F24E030E06CE070E08F2DF2
:100890000E947B03B8018F2D0E948C0381E090E0C1
:1008A000DF91CF911F910F91FF90089580E0F7CFD6
:1008B000FC01848595850895FC01848995890895B6
:1008C00028E632E0FC0131832083FB014089518915
:1008D00062897389FC01428353836483758308951D
:1008E000DC01ED91FC91048CF58DE02D09940F93C2
:1008F0001F93660F771FFC01E60FF71F220F331FB0
:10090000DA01A20FB31F90E080E08017910734F462
:10091000219131912D933D930196F7CF1F910F9126
:10092000089590E080E00895DC0114962D913C91AB
:100930001597621773074CF4ED91FC91028CF38DBF
:10094000E02D0995BC0181E0089560E070E080E051
:10095000089508970C949404DC01ED91FC910190AA
:10096000F081E02D099408970C94AC04FC01868179
:100970009781880F991F0895FC01848195810895BE
:10098000CF92DF92EF92FF920F931F93CF93DF935B
:100990006C01EB01DC01ED91FC910190F081E02D07
:1009A00009957C01F6010481158101501109158317
:1009B0000483828193810C1B1D0BBE016F5F7F4FEF
:1009C0009E01AC010E947704C701DF91CF911F9176
:1009D0000F91FF90EF90DF90CF900895DC01149677
:1009E0002D913C911597621773074CF4ED91FC9192
:1009F0000088F189E02D0995BC0181E0089560E04F
:100A000070E080E00895CF92DF92EF92FF920F9313
:100A10001F93CF93DF937C018B01D0E0C0E0D8011E
:100A2000ED91FC910488F589E02DC8010995C8175E
:100A3000D907A4F4D701ED91FC91C680D780D801E5
:100A4000ED91FC910190F081E02DBE01C801099566
:100A5000BC01C701F60109952196E1CFDF91CF9145
:100A60001F910F91FF90EF90DF90CF900895FC01C0
:100A700024813581121613067CF421503109358307
:100A80002483220F331F0280F381E02DE20FF31F36
:100A90006081718181E0089560E070E080E00895F8
:100AA000FC0124813581621773075CF4660F771FA0
:100AB00082819381680F791FFB015183408380E01D
:100AC000089581E00895660F771FDC011296ED917D
:100AD000FC91E60FF71F808191810895DC01149647
:100AE0002D913C9115976217730744F4ED91FC9199
:100AF000028CF38DE02D099591E0089580E090E05F
:100B0000089508970C946E05DC01ED91FC9101901D
:100B1000F081E02D099408970C948405FC018681EE
:100B200097810895DC0114962D913C9115976217D9
:100B3000730744F4ED91FC910088F189E02D09954B
:100B400091E0089580E090E00895CF92DF92EF92D7
:100B5000FF920F931F93CF93DF937C018B01D0E023
:100B6000C0E0D801ED91FC910488F589E02DC80121
:100B70000995C817D907A4F4D701ED91FC91C68057
:100B8000D780D801ED91FC910190F081E02DBE015C
:100B9000C8010995682FC701F60109952196E1CF93
:100BA000DF91CF911F910F91FF90EF90DF90CF9049
:100BB0000895FC01248135811216130664F4215036
:100BC00031093583248382819381280F391FF901EC
:100BD000808191E0089580E090E00895DC01149612
:100BE0002D913C9115976217730744F41296ED917D
:100BF000FC91E60FF71F408380E0089581E008959F
:100C0000CF93DF93EC01DB01ED91FC910190F0813A
:100C1000E02D0995CE01DF91CF910895CF93DF9319
:100C2000EC01685071090E940006CE01DF91CF915E
:100C30000895FC018681978124E0880F991F2A95E9
:100C4000E1F70895FB0161E080810C94C5010895EE
:100C50000895FC018081FB0180830895DC01ED9102
:100C6000FC91309729F00280F381E02D02960994DF
:100C700008950F931F93CF93DF93EC018B010E9494
:100C80002E06F80181919191DE018D939D9388E06C
:100C900001900D928A95E1F7CE01DF91CF911F91DE
:100CA0000F9108950F931F93CF93DF93FC0124813D
:100CB000358181E062177307E4F48A0184E0660FEE
:100CC000771F8A95E1F7C281D381C60FD71FBA017A
:100CD000CE010E943906F80182859385A485B585E9
:100CE0008A879B87AC87BD87868597859F878E87F8
:100CF00080E0DF91CF911F910F910895CF92DF9205
:100D0000EF92FF920F931F93CF93DF93E4E0220FB4
:100D1000331FEA95E1F77A01E20EF31EF4E0660F65
:100D2000771FFA95E1F7EC01C60FD71FD12CC12C24
:100D3000C016D1061CF5C7010E942E06FE01819146
:100D40009191D7018D939D9388E001900D928A95A2
:100D5000E1F78A859B85AC85BD85F70182879387FE
:100D6000A487B5878E859F8597878687FFEFCF1AE3
:100D7000DF0A80E1E80EF11C6096DACFDF91CF91B7
:100D80001F910F91FF90EF90DF90CF900895CF9239
:100D9000DF92EF92FF920F931F93CF93DF937C012B
:100DA0006B01EA01DB01ED91FC910190F081E02DF6
:100DB0000995F601048115810150110915830483F9
:100DC000828193810C1B1D0BBE016F5F7F4F9E01C3
:100DD000AC010E947E06C701DF91CF911F910F9158
:100DE000FF90EF90DF90CF900895AF92BF92CF9297
:100DF000DF92EF92FF920F931F93CF93DF93CDB7C4
:100E0000DEB760970FB6F894DEBF0FBECDBF6C01A2
:100E10007B0110E000E0D701ED91FC910488F58999
:100E2000E02DC701099508171907ECF4D601ED91DB
:100E3000FC91A680B780D701ED91FC910190F081E3
:100E4000E02DA801B701CE0101960995BE016F5FA3
:100E50007F4FC601F5010995CE0101960E942E062D
:100E60000F5F1F4FD8CF60960FB6F894DEBF0FBE4E
:100E7000CDBFDF91CF911F910F91FF90EF90DF9049
:100E8000CF90BF90AF9008950F931F93CF93DF93B0
:100E9000EC018B01E881F9810190F081E02D099549
:100EA0002C813D81215031093D832C83201B310B46
:100EB000EA81FB81E00FF11FAF01BF01641B750BDD
:100EC000621773071CF491819193F7CFDF91CF9153
:100ED0001F910F910895DC011296ED91FC91E60FA0
:100EE000F71F808108950F931F93FB01219131918A
:100EF000DC012D933D9328E001900D922A95E1F7B6
:100F0000FB010285138524853585FC010287138743
:100F100024873587FB0126853785FC01378726879F
:100F20001F910F9108950F931F93CF93DF93CDB728
:100F3000DEB760970FB6F894DEBF0FBECDBF8C0151
:100F4000DB0114968D919C911597481759070CF564
:100F5000ED91FC91028CF38DE02DCE010196099567
:100F6000BE016F5F7F4FC8010E94730781E0F801E7
:100F7000808BCE0101960E942E06C80160960FB6A6
:100F8000F894DEBF0FBECDBFDF91CF911F910F91BF
:100F90000895D80111961C921E9250961C92EDCF86
:100FA000CF93DF93EC01685071090E949307CE0143
:100FB000DF91CF9108950F931F93CF93DF93CDB718
:100FC000DEB7A0970FB6F894DEBF0FBECDBF8C0181
:100FD000DB0114968D919C9115974817590764F57C
:100FE000ED91FC910088F189E02DCE0101960995E3
:100FF000BE016F5F7F4FCE0141960E947307BE0115
:101000006F5E7F4FC8010E94730781E0F801808BFB
:10101000CE0141960E942E06CE0101960E942E0618
:10102000C801A0960FB6F894DEBF0FBECDBFDF910A
:10103000CF911F910F910895D80111961C921E9285
:1010400050961C92EDCF0F931F93CF93DF93CDB7A4
:10105000DEB760970FB6F894DEBF0FBECDBF8C0130
:10106000FB0184819581181619064CF5019795832B
:10107000848324E0880F991F2A95E1F762817381A8
:10108000680F791FCE0101960E947307BE016F5F42
:101090007F4FC8010E94730781E0F801808BCE0169
:1010A00001960E942E06C80160960FB6F894DEBF26
:1010B0000FBECDBFDF91CF911F910F910895F80121
:1010C00011821082108AEFCFCF93DF93EC0184E07E
:1010D000440F551F8A95E1F7FB0162817381640F0C
:1010E000751FCE010E947307CE01DF91CF91089545
:1010F000FC01768765870895DC01ED91FC91068CF3
:10110000F78DE02D099591E089270895862F0895A0
:1011100081E08627089521E0FC018485843008F071
:1011200020E0822F0895089590E080E00895EF92E6
:10113000FF920F931F93CF93DF937B018A01E90105
:101140008AE090E00E94A727FC01F382E2821583E7
:101150000483D783C6838CE791E0918380838EE9F3
:1011600091E091878087CF01DF91CF911F910F91FF
:10117000FF90EF9008956F927F928F929F92AF921F
:10118000BF92CF92DF92EF92FF920F931F93CF9374
:10119000DF936C013B014A01E901C41BD50B7E01C1
:1011A00085E0E80EF11CC701880F991FE114A0E447
:1011B000FA0610F08FEF9FEF0E94A7275C018E01C7
:1011C00030E020E0AC01B401F301828193810E9400
:1011D0007704D301ED91FC91008CF18DE02D970106
:1011E000AE01B501C3010995F60191838083C60163
:1011F000DF91CF911F910F91FF90EF90DF90CF90F3
:10120000BF90AF909F908F907F906F900895EF92D6
:10121000FF920F931F93CF93DF937B018A01E90124
:101220008AE090E00E94A727FC01F382E282158306
:101230000483D783C68384E391E09183808386E52A
:1012400091E091878087CF01DF91CF911F910F911E
:10125000FF90EF900895AF92BF92CF92DF92EF92FE
:10126000FF920F931F93CF93DF937C018B015A0161
:10127000E901C41BD50B6E0185E0C80ED11CC60167
:101280000E94A727D8011296ED91FC91EA0DFB1D53
:10129000DC019D01281B390B2C173D071CF4219103
:1012A0002D93F7CFD801ED91FC91008CF18DE02DBD
:1012B0009601AE01BC01C8010995F70191838083B5
:1012C000C701DF91CF911F910F91FF90EF90DF90B9
:1012D000CF90BF90AF900895EF92FF920F931F931E
:1012E000CF93DF937B018A01E9018AE090E00E94BD
:1012F000A727FC01F382E28215830483D783C68388
:101300008EE292E09183808380E592E091878087EE
:10131000CF01DF91CF911F910F91FF90EF90089532
:101320006F927F928F929F92AF92BF92CF92DF92F5
:10133000EF92FF920F931F93CF93DF935C013B01DA
:101340004A01E901C41BD50B6E0185E0C80ED11C12
:101350008FEF9FEFC114A8E0DA0638F4C60124E04D
:10136000880F991F2A95E1F702960E94A727FC0192
:10137000C192D1927F01CE01049697FD05C01182E2
:10138000108270960197F9CF8E0130E020E0A7011E
:10139000B401D30112968D919C910E947E06D301D7
:1013A000ED91FC91008CF18DE02D9601AE01B7011D
:1013B000C3010995F50191838083C501DF91CF9128
:1013C0001F910F91FF90EF90DF90CF90BF90AF9063
:1013D0009F908F907F906F900895CF93DF93EC0153
:1013E0008AE090E00E94A7279C01265F3F4FFC0106
:1013F0001192E217F307E1F79B838A831D821C8217
:101400008AE090E09F838E83DF91CF9108950F93C0
:101410001F93CF93DF93EC01062F142F19821882AC
:101420001B821A8286E191E09D838C831F821E823B
:10143000198618861B861A86CE0104960E94ED092D
:1014400084E391E09D838C8386E591E09D878C8782
:101450001E86602F70E079836883412F50E05B83A4
:101460004A83DF91CF911F910F910895FB01019065
:101470000020E9F73197AF01461B570BDC01ED91D6
:10148000FC910280F381E02D09948F929F92AF929C
:10149000BF92EF92FF920F931F93CF93DF93CDB73D
:1014A000DEB7A1970FB6F894DEBF0FBECDBF7C01AB
:1014B000FA01CB0119A2223008F42AE08E010F5D57
:1014C0001F4F822E912CB12CA12CBF01A50194019C
:1014D0000E94C62AF901CA016A300CF5605DD80184
:1014E0006E938D01232B242B252B79F790E080E040
:1014F000109721F0BD01C7010E94360AA1960FB6D0
:10150000F894DEBF0FBECDBFDF91CF911F910F9139
:10151000FF90EF90BF90AF909F908F900895695C7F
:10152000DECF8F929F92AF92BF92CF92DF92EF92D7
:10153000FF920F931F93CF93DF937C01EB016C011C
:1015400082E0C80ED11C4701E5E08E0E911C10E030
:1015500000E0F60141916F0150E070E060E02AE0A8
:10156000CE010E94450A5C01E881F9810190F08179
:10157000E02D6EE2CE0109958A0D9B1D080F191F03
:10158000C814D90431F7F701458150E070E060E0FC
:101590002AE0CE010E94450A800F911FDF91CF9172
:1015A0001F910F91FF90EF90DF90CF90BF90AF9081
:1015B0009F908F900895CF93DF93BC018AEF93E0C3
:1015C0000E94360AEC016AE672E08AEF93E00E941C
:1015D000360A8C0F9D1FDF91CF910895CF93DF9333
:1015E000EC01FB0160E080810E94C5018DE692E084
:1015F0000E94DB0A488150E070E060E02AE08AEF58
:1016000093E0DF91CF910C94450AEF92FF920F93F4
:101610001F93CF93DF937C018B0183E892E00E94BC
:10162000DB0AD0E0C0E0D80118968D919C91199703
:10163000C817D9075CF41696ED91FC91EC0FFD1FCD
:10164000618180810E94C5012296EDCF48ECF801AE
:101650006081C7010E94070AC701DF91CF911F91E6
:101660000F91FF90EF900895DC0188E692E08D9352
:101670009D9384E0FB0101900D928A95E1F7089516
:10168000AF92BF92CF92DF92EF92FF920F931F9390
:10169000CF93DF9300D000D0CDB7DEB78C016B01C4
:1016A0007A018091F9038333E9F45B016801C40E88
:1016B000D51EC016D106A9F10E9498028FE00E94A3
:1016C000A302812F0E94A302802F0E94A3020F5F1A
:1016D0001F4F80E00E94A302F50181935F010E94E9
:1016E0008E02E7CF843369F50E94980219830A833A
:1016F0008F2D8F778B83EC8264E070E0CE010196B2
:101700000E947402A70170E060E0C6010E94292CCB
:10171000E114F10421F0B701C6010E9474020E9495
:101720008E02C7010F900F900F900F90DF91CF9115
:101730001F910F91FF90EF90DF90CF90BF90AF90EF
:1017400008950E9498020F3F110509F030F41982A4
:101750000A831B8263E070E0D1CF17FD0BC01982B2
:101760000A8333E0169507953A95E1F7007E086005
:101770000B83F0CFC80126E0969587952A95E1F76F
:10178000807E19830A830115104C18F480618B83C5
:10179000E1CF8861FCCFCF93DF931F92CDB7DEB747
:1017A0002091C80330E0322F2227260F371F90E008
:1017B000982F882741E050E0BE016F5F7F4F820F76
:1017C000931F0E94400B89810F90DF91CF91089564
:1017D000CF93C82F462F61E070E00E94B60361E00E
:1017E00070E08C2F0E94CB0B8111F9CFCF9108951F
:1017F000CF93C82F80E591E00E94B20068E070E0CE
:101800008C2FCF910C94E80BCF93C82F80E591E0FB
:101810000E94B20060E170E08C2FCF910C94E80B35
:10182000CF93DF93EC01888D843020F40E94040C68
:1018300084E0888FDF91CF91089563E070E00C948D
:10184000CB0BCF93C82F80E591E00E94B2008C2F84
:10185000CF910C941D0CEF92FF920F931F93CF9397
:101860007C0101EF13E0C0E0F801219131918F017B
:10187000F701848195812817390729F0CF5FC4309B
:1018800099F780E006C08C2F0E94210C8431B1F7BB
:1018900081E0CF911F910F91FF90EF900895CF932A
:1018A000DF93EC018C858430D0F40E94210C8431CC
:1018B00089F0882379F0883169F021E08C3159F47E
:1018C000E881F9810084F185E02DCE01099521E0C0
:1018D000892B09F420E0822FDF91CF91089580E0D9
:1018E000FBCFCF92DF92EF92FF92CF93DF93EC0189
:1018F0008C85843068F40E94F80B0E9468026B01AA
:101900007C018C850E94210C811109C084E08C87A8
:10191000DF91CF91FF90EF90DF90CF90089561E03D
:1019200070E080E090E00E9436020E946802AB0105
:10193000BC014C195D096E097F098D859E85B0E05B
:10194000A0E0481759076A077B07D8F28C850E94E8
:10195000040CDCCFCF93FC01C08D80E591E00E94A8
:10196000B20060E270E08C2F0E94E80B62E070E051
:101970008C2F0E94CB0B84FD16C062E070E08C2F90
:101980000E94CB0B83FF0AC048E162E070E08C2F1D
:101990000E94B60380E090E0CF91089580E591E049
:1019A0000E94B200E3CF40E162E070E08C2F0E9421
:1019B000B60381E0F0CFCF93DF931F92CDB7DEB7B0
:1019C00041E050E0BE016F5F7F4F90E080E00E94F9
:1019D000400B89810F90DF91CF910895CF93DF93D2
:1019E000C4E1D0E00E94DB0C882361F061E070E08C
:1019F00080E090E00E9436022197A1F780E0DF911D
:101A0000CF91089581E0FBCF1F93CF93DF931F9277
:101A1000CDB7DEB7182F80E591E00E94B200812F8C
:101A20000E946D0327E0129FF0011124EB52FC4F3E
:101A300022813381377041E050E0BE016F5F7F4FFC
:101A4000820F931F0E94400B89810F90DF91CF91ED
:101A50001F910895FC01808D843040F4218D328DDA
:101A6000232B21F00E94040D90E008958FEF9FEF4B
:101A70000895CF93DF93FC012485243028F08FEF65
:101A80009FEFDF91CF910895EC010190F081E02D5F
:101A90000084F185E02D0995892B89F38C850E94BE
:101AA000040D90E0EECFDA01E091C803F0E0FE2FE4
:101AB000EE27E60FF71F90E0982F8827A901BD01B8
:101AC0008E0F9F1F0C94400B8F929F92AF92BF92EC
:101AD000CF92DF92EF92FF921F93CF93DF93CDB718
:101AE000DEB72C970FB6F894DEBF0FBECDBF2091A6
:101AF000F90314E0222329F16B017C0180E591E0D8
:101B00000E94B2005E0127E0A20EB11C450110E068
:101B1000812F0E941D0CF40181934F01882349F10C
:101B20001F5F1430A9F710E0F50181915F018D313D
:101B3000D9F08831C9F08A518230B0F01F5F14307B
:101B400099F7812F2C960FB6F894DEBF0FBECDBF4C
:101B5000DF91CF911F91FF90EF90DF90CF90BF90DA
:101B6000AF909F908F90089560E170E0812F0E9468
:101B7000E80BA12EB12CF501EE0FFF1FEF50FC4F2B
:101B80001182108283EE93E00197F1F742E870E052
:101B900060E0812F0E94B6034FEF62E070E0812F7A
:101BA0000E94B603B601C114D10491F480910001E2
:101BB0009091010101968115F0EC9F0708F45CC03B
:101BC00090930101809300016091000170910101E7
:101BD000812F0E94A10386E0ECE0F1E0DE01119686
:101BE00001900D928A95E1F7F70183818F778C83BD
:101BF00084818D8385818E83A7014E5F5F4F24E0B2
:101C000030E06CE070E0812F0E947B03B601812FF1
:101C10000E948C0326E030E0AE014F5F5F4F66E02C
:101C200070E0812F0E947B0361E070E0812F0E94B1
:101C3000E80B27E02A9DC0012B9D900D11249C01EB
:101C40002B523C4F7901F9011182108222E030E0E1
:101C5000AE01455F5F4F68E270E0812F0E94530D37
:101C60008B859C85982789279827F7019383828302
:101C700016821582148265CF80E090ECA1CFCF92BE
:101C8000DF92EF92FF920F931F93CF93DF9300D0D9
:101C900000D000D0CDB7DEB78C016B017A01FC011A
:101CA000808D843010F40E94040C88E692E09A83C0
:101CB0008983F60182819381A481B5818B839C8382
:101CC000AD83BE83B701CE0101960E94640DF80179
:101CD000808F8430A0F4F586E486128E118E81E028
:101CE00026960FB6F894DEBF0FBECDBFDF91CF9121
:101CF0001F910F91FF90EF90DF90CF90089580E0BB
:101D0000EFCFAF92BF92CF92DF92EF92FF920F93FD
:101D10001F93CF93DF9300D000D000D0CDB7DEB7B4
:101D2000082F6B0180E591E00E94B2009E012F5FB9
:101D30003F4F7901590110E0812F0E941D0CF501E0
:101D400081935F01882341F11F5F1430A9F710E0F0
:101D5000F70181917F018D31D1F08831C1F08A5135
:101D60008230A8F01F5F143099F7812F26960FB6A6
:101D7000F894DEBF0FBECDBFDF91CF911F910F91C1
:101D8000FF90EF90DF90CF90BF90AF90089560E10B
:101D900070E0812F0E94E80BE12EF12CF701EE0F8D
:101DA000FF1FEF50FC4F1182108283EE93E00197EA
:101DB000F1F7402F70E060E0812F0E94B6034FEFF3
:101DC00062E070E0812F0E94B603B601CD2889F44D
:101DD000809100019091010101968115F0EC9F071F
:101DE00098F190930101809300016091000170913E
:101DF0000101812F0E94A10361E070E0812F0E9408
:101E0000E80B27E02E9DC0012F9D900D11249C0111
:101E10002B523C4F7901F9011182108222E030E00F
:101E2000AE014B5F5F4F68E270E0812F0E94530D5F
:101E30008D819E81982789279827F7019383828334
:101E400016821582148291CF80E090ECCACFCF9297
:101E5000DF92EF92FF921F93CF93DF93EC017B0110
:101E60006A018C85843048F40E94210C882319F083
:101E70008C850E94F80B84E08C87F7018281938126
:101E8000A481B5810097A105B10551F490E080E0EF
:101E9000DF91CF911F91FF90EF90DF90CF90089549
:101EA0008F3F9F4FAF4FBF4F89F38091F90381114F
:101EB00003C084E08C87EACF70E060E081E20E949A
:101EC000810E182F8C87843008F780E591E00E94FE
:101ED000B200A7014E5F5F4F24E030E06CE070E09D
:101EE000812F0E947B03B601812F0E948C0364E046
:101EF00070E0812F0E94E80B0E9468026B017C0158
:101F00008C850E94210C873109F18C31F9F08823EE
:101F100009F4BCCF0E946802AB01BC014C195D09F9
:101F20006E097F098D859E85B0E0A0E08417950736
:101F3000A607B70738F061E070E080E090E00E940B
:101F40003602DECF8C850E94040CB3CF81E090E096
:101F50009FCF0F931F93CF93DF93EC018B01888D5D
:101F6000843010F40E94040C8091F903811107C0A1
:101F700094E0988FDF91CF911F910F910895B80150
:101F800082E00E94810E888F843030F41D870C8798
:101F90001A8E198E81E0EECF80E0ECCF0F931F9365
:101FA000CF932091F903222349F18C01FC01648134
:101FB000758181E20E94810EC82F8430F8F480E59B
:101FC00091E00E94B2008C2F0E941D0C833131F0F1
:101FD0008C2FCF911F910F910C94F80B62E070E061
:101FE0008C2F0E94E80BF80184819581EC2FF0E0A2
:101FF000EE0FFF1FEF50FC4F91838083CF911F9115
:102000000F9108957F928F929F92AF92BF92CF923D
:10201000DF92EF92FF920F931F93CF93DF9300D045
:10202000CDB7DEB7782E8B014A01590122E030E0AE
:10203000AE014F5F5F4F64E270E00E94530DE98094
:10204000FA80FE24EF24FE24E00EF11E9701377083
:102050004091F903072D10E0433309F042C0085FB7
:102060001F4F102F0027110F110F110FC901800FE3
:10207000911F4733C9F1A9014A0D5B1D41305840FA
:1020800098F160E078E06B01C21AD30AA601B401AE
:102090000E94AA02A5014C195D09B4016C0D7D1DB9
:1020A000C8010E94AA02EA0CFB1CF982EA8222E023
:1020B00030E0AE014F5F5F4F64E270E0872D0E9419
:1020C0007B030F900F90DF91CF911F910F91FF90A5
:1020D000EF90DF90CF90BF90AF909F908F907F90C8
:1020E0000895005F1F4FBDCFA501B401DACFEF9275
:1020F000FF921F93CF93DF9300D0CDB7DEB7182F99
:1021000022E030E0AE014F5F5F4F60E270E00E947E
:10211000530DE980FA80FE24EF24FE2422E030E013
:10212000AE014F5F5F4F60E270E0812F0E94530D60
:1021300089819A81982789279827E816F90689F4D2
:1021400087E0189FF0011124EB52FC4FF582E482E6
:10215000C7010F900F90DF91CF911F91FF90EF90EB
:1021600008957C01DBCF1F93CF93DF93182F80E579
:1021700091E00E94B200812F0E947710EC01812F24
:102180000E941D0C873121F08C3111F0D0E0C0E0AD
:10219000CE01DF91CF911F910895CF93DF93EC0192
:1021A0008C85843060F40E94210C873111F08C31D1
:1021B00031F48C850E94B3108115984088F3DF912B
:1021C000CF910895FC018485843010F40C94B310F1
:1021D00090E080E00895CF92DF92EF92FF921F93FC
:1021E000CF93DF93182F7B01EA014130584010F064
:1021F000C0E0D8E080E591E00E94B200812F0E940B
:1022000077106C01812F0E941D0C873111F08C31E9
:1022100021F5CC16DD0670F380E591E00E94B20056
:102220009E01A70170E060E0812F0E94021060E231
:1022300070E0812F0E94E80B62E070E0812F0E9425
:10224000CB0B84FD0DC0812F0E941D0C8823B9F09B
:1022500080E591E00E94B200EFCFD0E0C0E0DCCF9B
:1022600040E162E070E0812F0E94B603CE01DF9171
:10227000CF911F91FF90EF90DF90CF900895D0E025
:10228000C0E0F4CF0F931F93CF93DF938C01EA014B
:10229000FC018485843048F40E94EB10892B39F4CA
:1022A00081E090E0F80193838283D0E0C0E0CE012A
:1022B000DF91CF911F910F9108959F92AF92BF929E
:1022C000CF92DF92EF92FF920F931F93CF93DF9302
:1022D0008C015B01942EE52EFC01C688D788F08C1A
:1022E00080E591E00E94B2008F2D0E947710C92DE9
:1022F000DE2D8C179D0708F4EC019E01A501B601A7
:102300008F2D0E940210F801868997898C0F9D1FDE
:10231000978B868BCE01DF91CF911F910F91FF900C
:10232000EF90DF90CF90BF90AF909F900895FF9275
:102330000F931F93CF93DF9300D0CDB7DEB7F82E66
:1023400022E030E0AE014F5F5F4F66E270E00E9436
:10235000530D09811A8110270127102722E030E050
:10236000AE014F5F5F4F66E270E08F2D0E94530D0C
:1023700089819A819827892798270817190749F48E
:10238000C8010F900F90DF91CF911F910F91FF9097
:1023900008958C01E3CF1F93CF93DF93182F87E02D
:1023A000189FE0011124CB52DC4F8881998100975E
:1023B00061F480E591E00E94B200812F0E949711A4
:1023C0002E81821B910999838883DF91CF911F9180
:1023D0000895AF92BF92CF92DF92EF92FF920F9348
:1023E0001F93CF93DF93EC017B018091F90381115F
:1023F00020C01B821A8288EE93E0A0E0B0E08C83BC
:102400009D83AE83BF8386EA91E09983888384E0CD
:102410008C8788EE93E09E878D87CE01DF91CF91E8
:102420001F910F91FF90EF90DF90CF90BF90AF90F2
:10243000089581EFC82E83E0D82E10E094E0B92EE5
:10244000A12CD6012D913D916D01F70184819581DB
:102450002817390791F4812F0E94210C082F87310A
:1024600011F08C3139F5812F0E94CB11892B59F550
:102470000C3119F4812F0E94F80B1F5F143009F7FB
:10248000A11008C0D701ED91FC910084F185E02DE9
:10249000C70109951B821A8288EE93E0A0E0B0E0A4
:1024A0008C839D83AE83BF8386EA91E09983888382
:1024B000BC86AFCF843149F08111DFCFF60132976E
:1024C00011821082DACFB12ED8CFAA24A394D5CF0F
:1024D0008F929F92AF92BF92CF92DF92EF92FF9234
:1024E0001F93CF93DF93CDB7DEB72F970FB6F89436
:1024F000DEBF0FBECDBF5C014B017A018091F903B5
:102500008823A1F1B501CE0101960E94E91181EF66
:10251000C82E83E0D82E10E0F601219131916F0191
:10252000F501848195812817390751F4812F0E9484
:10253000210C873129F4A701B401812F0E94EB10EF
:102540001F5F143049F7C7012F960FB6F894DEBF0E
:102550000FBECDBFDF91CF911F91FF90EF90DF9025
:10256000CF90BF90AF909F908F900895F12CE12C69
:10257000EACFFC018485843010F40C94CB1190E0F8
:1025800080E008954F925F927F928F929F92AF92D8
:10259000BF92CF92DF92EF92FF920F931F93CF9350
:1025A000DF9300D0CDB7DEB7782E6B014A01A82E9D
:1025B000B12C27E0829FC0011124FC01EB52FC4F9B
:1025C0007F010081118180E591E00E94B200081531
:1025D000190554F4872D0E949711F70126818C016B
:1025E000021B1109118300830115110519F5872DAF
:1025F0000E941D0C843159F0882349F001E010E05D
:102600008C3111F410E000E0119501951109C80119
:102610000F900F90DF91CF911F910F91FF90EF904E
:10262000DF90CF90BF90AF909F908F907F905F9002
:102630004F900895801691060CF4840187E08A9DDE
:10264000F0018B9DF00D1124EB52FC4FE280F380E2
:10265000C114D10451F12701F7E05F22872D0E94B8
:102660006D03840D951D2091F903273309F453C0A0
:102670009801240D351D2130384008F44CC020E06D
:1026800038E0490184189508A401B6010E94400B66
:102690002601480C591C6801C818D908872D0E94CA
:1026A0006D03A601B2010E94400BE00EF11E87E00F
:1026B0008A9DF0018B9DF00D1124EB52FC4FF382AB
:1026C000E28220813181201B310B3183208386817E
:1026D000800F912F911D8A3F910510F4232BF1F467
:1026E00087E08A9DF0018B9DF00D1124EB52FC4F89
:1026F0001682F982EA8222E030E0AE014F5F5F4F3E
:1027000068E270E0872D0E947B0360E470E0872D13
:102710000E94E80B7CCFA801B601C5CF868377CF96
:10272000CF93DF93FC01218D328D2115310529F4E2
:102730008FEF9FEFDF91CF910895EC01808D4217CD
:10274000530708F0A9010E94C2121816190684F74F
:10275000298D3A8D281B390B3A8F298FEBCF0F9398
:102760001F93CF93DF931F92CDB7DEB7FC01218D6E
:10277000328D232B41F48FEF9FEF0F90DF91CF919C
:102780001F910F9108958C0141E050E0BE016F5FF1
:102790007F4FFC01808D0E94C212181619065CF74B
:1027A000F801818D928D0197928F818F898190E0C0
:1027B000E4CF0F931F93CF93DF93CDB7DEB7289766
:1027C0000FB6F894DEBF0FBECDBF8C01D80159966D
:1027D0004D915C915A974115510551F0ED91FC9145
:1027E000048CF58DE02D70E060E0C8010995EECF16
:1027F000F801808D0E94CB11892BB1F148E050E0A7
:10280000BE016F5F7F4FD80158968C910E94C21213
:1028100018161906F4F4D801509684E0FE0131969A
:1028200001900D928A95E1F78D8190E0982F88278D
:102830002E81820F911DF801958B848B8F81282F1B
:1028400030E0322F22278885820F932F911D928F9F
:10285000818F28960FB6F894DEBF0FBECDBFDF91F3
:10286000CF911F910F91089590E080E0F2CF4F92A9
:102870005F926F927F928F929F92AF92BF92CF9210
:10288000DF92EF92FF920F931F93CF93DF93CDB719
:10289000DEB763970FB6F894DEBF0FBECDBF7C01E5
:1028A0006B013A01FB0120E090E080E06AE03191A9
:1028B000332309F461C040ED430F4A3008F04DC0A6
:1028C000689FA001699F500D1124CA01C097830F12
:1028D000911D37FD9A958F3F910549F340F3F7011C
:1028E00042815381648175818091C3049091C404B5
:1028F000A091C504B091C604481759076A077B0721
:1029000009F40DC28701085F1F4F0E9468026F70B3
:1029100077277C5FC8010E94A90F813009F004C2AB
:1029200088E692E09A838983F70182819381A4816A
:10293000B5818B839C83AD83BE8345E350E0BE01AC
:102940006F5F7F4FC8010E942104892BA9F5D12C0C
:10295000C12CC8010E94100C17C03E3209F0BFCF35
:10296000233009F4BCCFD301A20FB11D12968C9372
:102970002F5F90E080E09BCF233009F0B0CFF301D0
:102980008583CC24C394D12CC60163960FB6F894EA
:10299000DEBF0FBECDBFDF91CF911F910F91FF9092
:1029A000EF90DF90CF90BF90AF909F908F907F90EF
:1029B0006F905F904F9008950E946802F7017783AF
:1029C000668342E050E0B7016A5F7F4FC8010E9412
:1029D0005D1181E090E09A83898342E050E0BE017E
:1029E0006F5F7F4FC8010E945D1180E091E09A8384
:1029F000898342E050E0BE016F5F7F4FC8010E94B3
:102A00005D111A82198242E050E0BE016F5F7F4F74
:102A1000C8010E945D1142E050E0BE016F5F7F4F30
:102A2000C8010E945D1142E050E0BE016F5F7F4F20
:102A3000C8010E945D115601F6018081882301F1D1
:102A40006501F60181912F01882311F08E32B1F4D6
:102A500046018A189B081814190474F48D8641E005
:102A600050E0BE01635F7F4FC8010E945D11A40169
:102A7000B501C8010E945D115201DECF6201E1CFB4
:102A80001D8641E050E0BE01635F7F4FC8010E9498
:102A90005D11C12CDD24D394DA82C98242E050E07A
:102AA000BE016F5F7F4FC8010E945D11DA82C9824B
:102AB00042E050E0BE016F5F7F4FC8010E945D1190
:102AC000C8010E94AA0C892B09F441CFF3E0AF2E74
:102AD000B12C230122E0420E511CD4C0F7014281E7
:102AE000538164817581808D918DA28DB38D48173E
:102AF00059076A077B0709F008C1848D958DC59732
:102B000009F003C181A192A15DEFC52EDD24DA9405
:102B10000C970CF4ADC04CE050E0BE016F5F7F4FEE
:102B2000C8010E9490138B819C8198278927982740
:102B30009A8B898BF7014681578129813A81421707
:102B4000530709F0E7C097FFE5C08F7092703BEF25
:102B5000C32EDD24DA94892B09F08AC06F80788433
:102B60007624672476242AEFC22EDD24DA946114B9
:102B7000710409F47DC0D12CC12C8D819E819827D0
:102B800089279827C816D906F8F441E050E0BE011D
:102B9000635F7F4FC8010E9490134D85442331F03D
:102BA00050E070E060E0C8010E9490138D858111B3
:102BB000ECCF44E050E070E060E0C8010E94901368
:102BC000FFEFCF1ADF0AD9CF912C812C41E050E0E2
:102BD000BE016D5E7F4FC8010E9490134B89842F08
:102BE000807C09F06CC0442331F050E070E060E07C
:102BF000C8010E9490138B898111E8CF42E050E018
:102C0000BE01615F7F4FC8010E94901342E050E017
:102C1000BE01635F7F4FC8010E94901344E050E003
:102C200070E060E0C8010E94901342E050E0BE01F5
:102C30006F5E7F4FC8010E9490138F8598894989E4
:102C40005A898115914009F043C0CD84DE84DC248B
:102C5000CD24DC2481E0C816D104D1F541155440BF
:102C600009F04AC044E050E0B201C8010E9490134C
:102C700021E0A21AB10809F46CCEFFEFCF16DF06EF
:102C800009F067CE0E9468023B014C01C8010E9416
:102C9000D913181619060CF421CF0E946802661980
:102CA000770988099909693873418105910548F5C3
:102CB00062E370E080E090E00E943602E7CF41E0FE
:102CC00050E070E060E0C8010E9490131B8A93CF2F
:102CD00054274527542770E060E0C8010E949013F4
:102CE000FFEF8F1A9F0A6814790409F06FCF96EFEF
:102CF000C92EDD24DA94BCCFE7EFCE2EDD24DA94A2
:102D0000B7CFCC24CA94DC2CB3CF6EEFC62EDD2413
:102D1000DA94AECF4CEFC42EDD24DA94A9CF8EEF37
:102D2000C82EDD24DA9430CED12CC12C2DCECF92FA
:102D3000DF92EF92FF920F931F93CF93DF93CDB764
:102D4000DEB7AF970FB6F894DEBF0FBECDBF7C01E4
:102D50006A0108E612E01A8309831C861B8688EE46
:102D600093E0A0E0B0E08D879E87AF87B88B84EDBD
:102D700091E09A878987188F0F8B198E1A8E1B8E78
:102D80001C8E84E089A31BA70AA71CA61DA61EA64D
:102D90001FA68091B7049091B804A091B904B09196
:102DA000BA048EA39FA3A8A7B9A78B839C83AD83E6
:102DB000BE8318861F82AE01465D5F4FCE0101962D
:102DC0000E94371481309105B1F4D701ED91FC9147
:102DD0000488F589E02D1DA30CA38CA59DA5AEA5A7
:102DE000BFA58EA39FA3A8A7B9A7A601BE016C5D2E
:102DF0007F4FC7010995AF960FB6F894DEBF0FBE9F
:102E0000CDBFDF91CF911F910F91FF90EF90DF9099
:102E1000CF900895CF92DF92EF92FF920F931F937E
:102E2000CF93DF93CDB7DEB7AF970FB6F894DEBF81
:102E30000FBECDBF8C016B017A0188E692E09A83C8
:102E400089831B821C821D821E821C861B8648EE83
:102E500053E060E070E04D875E876F87788B24EDEC
:102E600031E03A872987988F8F8B198E1A8E1B8EA7
:102E70001C8E24E029A39BA78AA71CA61DA61EA61C
:102E80001FA6D8011C968C91843060F40E94210CFE
:102E9000882321F0F80184850E94F80B84E0D80192
:102EA0001C968C938091B7049091B804A091B904BA
:102EB000B091BA048EA39FA3A8A7B9A78B839C83C4
:102EC000AD83BE8318861F82AE01465D5F4FB6019B
:102ED000CE0101960E9437140097C1F0D801ED9100
:102EE000FC910684F785E02D88E692E09DA38CA3F3
:102EF0008CA59DA5AEA5BFA58EA39FA3A8A7B9A786
:102F0000A701BE016C5D7F4FC8010995AF960FB652
:102F1000F894DEBF0FBECDBFDF91CF911F910F910F
:102F2000FF90EF90DF90CF900895CF93DF931F92A3
:102F3000CDB7DEB741E050E0BE016F5F7F4FFC01CF
:102F400084850E94C2121816190634F4898190E013
:102F50000F90DF91CF9108958FEF9FEFF9CFFC0194
:102F60008485843010F40C94C21290E080E00895BF
:102F70000F931F93CF93DF9300D0CDB7DEB7FC0143
:102F800024852430E0F48C0180E591E00E94B200B9
:102F900022E030E0AE014F5F5F4F60E170E0F8018A
:102FA00084850E94530D89819A81982789279827C3
:102FB0000F900F90DF91CF911F910F91089590E0A6
:102FC00080E0F6CFEF92FF920F931F93CF93DF93A2
:102FD00000D000D0CDB7DEB78C017B01FB0184852A
:102FE0008430A8F088E692E0F80191838083128211
:102FF000138214821582C8010F900F900F900F90CA
:10300000DF91CF911F910F91FF90EF90089580E590
:1030100091E00E94B20024E030E0AE014F5F5F4FCC
:103020006CE070E0F70184850E94530DBE016F5F74
:103030007F4FC8010E94340BDECF0F931F93CF93B5
:10304000DF9300D0CDB7DEB7FC0124852430E0F457
:103050008C0180E591E00E94B20022E030E0AE01F8
:103060004F5F5F4F64E070E0F80184850E94530D6C
:1030700089819A819827892798270F900F90DF914F
:10308000CF911F910F91089590E080E0F6CF3F928D
:103090004F925F926F927F928F929F92AF92BF9268
:1030A000CF92DF92EF92FF920F931F93CF93DF9314
:1030B000CDB7DEB7EA970FB6F894DEBF0FBECDBF2F
:1030C0007C012A013B0169010E9468024B015C01FD
:1030D00087010D5B1F4FC8010E94D91318161906EE
:1030E0009CF00E946802681979098A099B094616B2
:1030F00057066806790608F466C162E370E080E06E
:1031000090E00E943602E7CF42E250E0BE016F5FDE
:103110007F4FC8010E94901389818230D1F0312CF9
:10312000832DEA960FB6F894DEBF0FBECDBFDF91B8
:10313000CF911F910F91FF90EF90DF90CF90BF90B4
:10314000AF909F908F907F906F905F904F903F9047
:103150000895F801848995898334910501F76D817B
:103160007E818F8198850E940F2C4B015C01F601B6
:1031700080829182A282B38246E050E0B701685F0C
:103180007F4FCE014D960E941C2C892B41F6F701F2
:1031900080819181A281B38188169906AA06BB0617
:1031A00008F4BDCF84819581A681B78188159905E2
:1031B000AA05BB0508F4B3CF89899A89AB89BC8974
:1031C00086879787A08BB18B4EEC50E070E060E073
:1031D000C8010E949013312CC701829698AB8FA72B
:1031E000F701B696FAABE9AB08969CAB8BAB6701DF
:1031F0009AE1C90ED11CBD96FEABEDABC70142965C
:1032000098AF8FABFD97FAAFE9AF4701FEE18F0EA4
:10321000911CF801818D928D181619060CF080CF43
:10322000C8010E94AF138333910509F4B2C014F5AD
:103230008130910509F464C044F4892B51F3C8012D
:103240000E94AF13AC01552775C08330910509F476
:1032500062C00697A1F7C8010E94AF13B82E44E0E0
:1032600050E0B401C8010E949013EB2DE450FF0B15
:10327000AF0160C08A33910509F45FC084F58533DE
:103280009105B1F1C697D9F6C8010E94AF135C0150
:10329000B601CE0189960E94340B8BA59CA5ADA5E5
:1032A000BEA5892B8A2B8B2BB1F0EDA9FEA94080FE
:1032B000518062807380B601CE0183960E94340BE8
:1032C0008DA19EA1AFA1B8A5A501481659066A0611
:1032D0007B0609F0B8CF44E050E0B60118C08B334C
:1032E000910509F440C08F3F910509F492CFA7CF13
:1032F000C8010E94AF13C8010E94AF13382E89CFB6
:10330000C8010E94AF1344E050E06FA978ADC80136
:103310000E9490137ECFC8010E94AF13B82E44E0E4
:1033200050E069AD7AADC8010E9490138B2D845096
:10333000990BAC0170E060E0EACFC8010E94AF13C6
:1033400044E050E069A97AA9C8010E949013F701EE
:1033500066A177A180A591A50E940F2C66A377A3F3
:1033600080A791A756CFC8010E94AF1344E050E058
:103370006BA97CA9C8010E949013F70162A573A5EF
:1033800084A595A50E940F2C62A773A784A795A773
:1033900040CFC8010E94AF1344E050E06FA578A968
:1033A000C8010E949013F70162A173A184A195A1A5
:1033B0000E940F2C62A373A384A395A366A777A78B
:1033C00080AB91AB26CF33243A94AACE7F928F92D2
:1033D0009F92AF92BF92CF92DF92EF92FF920F93A4
:1033E0001F93CF93DF93CDB7DEB7A6970FB6F894B0
:1033F000DEBF0FBECDBF8C01762E942E852E20E22F
:10340000A22ECE0101967C01DC01EA2D1D92EA95E7
:10341000E9F76801F3E4CF0ED11C88E692E09AA3A5
:1034200089A38FEF8BA38CA38DA38EA343E450E0DD
:10343000BE016F5D7F4FC6010E942104019609F411
:10344000BFC081E089838A8386E0B82EBB821C825C
:10345000D80114966D917D918D919C9117970E9442
:103460000F2C6D837E838F83988789869A8680E868
:1034700090E09C878B874CE150E0B701C6010E9429
:103480005D11FE0137968AE1DF011D928A95E9F709
:103490004801B8E08B0E911CF401D70101900D9208
:1034A000BA94E1F740E150E0B701C6010E945D1116
:1034B000F7011192AA94E9F796E0A92EB12C40E207
:1034C00050E0B701C6010E945D11F1E0AF1AB108EA
:1034D000B1F783E6898392E89A8393E59B838C8393
:1034E00085E38D8381E08E837F829DE3988797E0DB
:1034F00099878A8786E0F401DE011B9601900D9280
:103500008A95E1F78CE0898B8A8B68E972E0CE01BD
:1035100043960E94302CD8011B966C91CE0149969F
:103520000E94B500F8016485CE014B960E94B5005B
:10353000D8011D966C91CE014D960E94B5004EE1CA
:1035400050E0B701C6010E945D11B3E07B121EC0BE
:1035500082E3898384E08A83F80196859B8397853B
:103560009C8390899D8391899E8396E39F8388871E
:10357000828D8987838D8A87848D8B87858D8C87C3
:103580004CE050E0B701C6010E945D1187E38983DA
:1035900086E08A8391E09B8393E09C838D838FE018
:1035A0008E838AE38F838BE388878FEF898749E057
:1035B00050E0B701C6010E945D11C6010E94AA0C2D
:1035C000A6960FB6F894DEBF0FBECDBFDF91CF91A8
:1035D0001F910F91FF90EF90DF90CF90BF90AF9031
:1035E0009F908F907F900895EF92FF920F931F937B
:1035F000CF93DF93EC010C811D818E819F81081791
:103600001907F1F4C80105969F838E83811520E484
:103610009207E8F4880F991F0E94A7277C0130E0E9
:1036200020E0AC0170E060E08A819B810E94770419
:103630008A819B81009711F00E944328FB82EA82D5
:10364000DF91CF911F910F91FF90EF9008958FEF31
:103650009FEFE2CFEF92FF920F931F93CF93DF93F1
:10366000EC017B018C819D8101969D838C83CE0131
:103670000E94F41A8A819B810C811D810E191F09F9
:103680000250110997012F5F3F4FAC01B7010E9413
:103690007704DF91CF911F910F91FF90EF900895E4
:1036A0000F931F93CF93DF93EC018B018C819D814E
:1036B00001969D838C83CE010E94F41A8C819D819A
:1036C00081509048880F991F2A813B81820F931F58
:1036D000FC0111830083DF91CF911F910F91089519
:1036E000CF93DF93EC018EE591E0998388838A8103
:1036F0009B81009711F00E94432884E190E00E9492
:10370000A7279C012C5E3F4FFC0111921192E217FA
:10371000F307D9F79B838A831D821C828AE090E09D
:103720009F838E83DF91CF9108958F929F92AF9266
:10373000BF92CF92DF92EF92FF920F931F93CF939E
:10374000DF93CDB7DEB76C970FB6F894DEBF0FBE30
:10375000CDBF1E8A1D8A84E190E00E94A7279C01AC
:103760002C5E3F4FFC01119211922E173F07D9F7A3
:103770009C8B8B8B8AE090E0988F8F8B8CE791E00D
:103780009A8B898B8EE991E09A8F898F0E946802CB
:103790004B015C010091D5041091D604E090D70450
:1037A000F090D80494E0EE0CFF1C9A95E1F7E00E3F
:1037B000F11ED12CC12CE016F10661F1B801CE0149
:1037C00001960E9473078B859C85AD85BE85881503
:1037D0009905AA05BB05A0F48F8598899C8F8B8FCE
:1037E000E981FA810480F581E02DBE01655E7F4F9D
:1037F000CE0103960995B601CE0141960E94501B59
:103800008FEFC81AD80ACE0101960E942E06005FDB
:103810001F4FD1CFEB88FC880D891E89000F111F27
:103820000E0D1F1D0E151F0579F0F70141915191E5
:103830007F0163ED74E0CE0101960E94C706CE01C0
:1038400001960E942E06EECF8EE991E09A8F898F25
:103850008EE591E09A8B898B8B899C89009711F07A
:103860000E9443286C960FB6F894DEBF0FBECDBF02
:10387000DF91CF911F910F91FF90EF90DF90CF904C
:10388000BF90AF909F908F900895AF92BF92CF92CC
:10389000DF92EF92FF920F931F93CF93DF93EC0190
:1038A0000C811D81CE80DF800C151D0509F050C0F4
:1038B000580185E0A80EB11CBF82AE828FEF9FEF4A
:1038C000A114E8E0BE0638F4C50134E0880F991F62
:1038D0003A95E1F702960E94A727FC01A192B192C6
:1038E0007F01F4E0CF0ED11CF701D7FC07C0118295
:1038F0001082709681E0C81AD108F7CF30E020E03E
:10390000A70170E060E08A819B810E947E060A81A7
:103910001B8101151105D1F0F80132978081918149
:1039200024E0880F991F2A95E1F7080F191F9801C5
:103930008A819B81005111098217930721F0C801E8
:103940000E942E06F4CF02970E944328FB82EA824F
:10395000DF91CF911F910F91FF90EF90DF90CF906B
:10396000BF90AF900895EF92FF920F931F93CF9364
:10397000DF93EC017B018C819D8101969D838C837B
:10398000CE010E94451C8A819B810C811D810E19EC
:103990001F090250110997012F5F3F4FAC01B7017A
:1039A0000E947E06DF91CF911F910F91FF90EF90C3
:1039B0000895EF92FF920F931F93CF93DF937C01B3
:1039C0008B01FC0184819581019695838483C701D5
:1039D0000E94451CF701C481D581C150D04FCE0152
:1039E00024E0880F991F2A95E1F7C281D381C80F7F
:1039F000D91FB801CE010E943906F801828593854E
:103A0000A485B5858A879B87AC87BD878685978582
:103A10009F878E87DF91CF911F910F91FF90EF903D
:103A200008950F931F93CF93DF93CDB7DEB76A97B7
:103A30000FB6F894DEBF0FBECDBF8A01FC018191A5
:103A400091919A8B898B88E0DE01539601900D92BB
:103A50008A95E1F71A821982788B6F87BE016F5EB3
:103A60007F4FCE0101960E943906012E000C220BD9
:103A7000330B0B871C872D873E87BE016F5F7F4FFF
:103A800083ED94E00E94D91CCE0101960E942E067F
:103A9000CE0141960E942E066A960FB6F894DEBFBC
:103AA0000FBECDBFDF91CF911F910F910895EF927F
:103AB000FF920F931F93CF93DF93EC010C811D8135
:103AC0008E819F8108171907D1F4C80105969F833D
:103AD0008E830E94A7277C018A819B81F701DC01EC
:103AE0009D01281B390B201731071CF42D912193C0
:103AF000F7CF009711F00E944328EA82FB82DF9102
:103B0000CF911F910F91FF90EF9008950F931F9306
:103B1000CF93DF93EC018B018C819D8101969D8376
:103B20008C83CE010E94571D8C819D81801B910B3F
:103B30000297EA81FB81E00FF11FAF019F01241B77
:103B4000350B281739071CF421912083F7CFDF911B
:103B5000CF911F910F9108951F93CF93DF93EC01A5
:103B6000162F8C819D8101969D838C83CE010E94AE
:103B7000571DEA81FB818C819D81E80FF91F3197E8
:103B80001083DF91CF911F9108950F931F93CF93CF
:103B9000DF9320E132E0FC0131832083C281D381B5
:103BA0002097F9F08C01FE0132972081318184E069
:103BB000220F331F8A95E1F7C20FD31F9E01F80130
:103BC0008281938160978217930721F0CE010E9432
:103BD0002E06F4CF0297DF91CF911F910F910C9495
:103BE0004328DF91CF911F910F910895CF93DF93D9
:103BF000EC010E94C51D82EA90E00E94A727FC010B
:103C00002AE030E021933193DF018E559F4F1196CA
:103C10001C921E925096A817B907C9F7FB83EA8336
:103C20001D821C828AE090E09F838E83DF91CF917A
:103C3000089526E131E0FC01318320838281938164
:103C4000009711F00C9443280895CF93DF93EC0173
:103C50000E94191E8AE090E00E94A7279C01265F1F
:103C60003F4FFC011192E217F307E1F79B838A8330
:103C70001D821C828AE090E09F838E83DF91CF912A
:103C800008951F920F920FB60F9211242F933F9316
:103C90004F935F936F937F938F939F93AF93BF9354
:103CA000EF93FF938AEF93E00E943601FF91EF912B
:103CB000BF91AF919F918F917F916F915F914F9144
:103CC0003F912F910F900FBE0F901F9018951F924C
:103CD0000F920FB60F9211242F938F939F93EF9310
:103CE000FF93E0910A04F0910B048081E0911004AD
:103CF000F091110482FD1BC09081809113048F5FAD
:103D00008F7320911404821741F0E0911304F0E0C6
:103D1000E650FC4F958F80931304FF91EF919F9194
:103D20008F912F910F900FBE0F901F90189580814B
:103D3000F4CF1F920F920FB60F9211242F933F933F
:103D40008F939F93AF93BF938091CD039091CE03B8
:103D5000A091CF03B091D0033091CC0323E0230F87
:103D60002D3758F50196A11DB11D2093CC038093EA
:103D7000CD039093CE03A093CF03B093D003809153
:103D8000D1039091D203A091D303B091D4030196B3
:103D9000A11DB11D8093D1039093D203A093D303AF
:103DA000B093D403BF91AF919F918F913F912F9189
:103DB0000F900FBE0F901F90189526E8230F0296C4
:103DC000A11DB11DD2CF1092FD031092FC0388EE0D
:103DD00093E0A0E0B0E08093FE039093FF03A093F4
:103DE0000004B09301048EEF91E09093FB03809365
:103DF000FA0385EC90E0909307048093060484EC2A
:103E000090E0909309048093080480EC90E09093F4
:103E10000B0480930A0481EC90E090930D0480934E
:103E20000C0482EC90E090930F0480930E0486ECD7
:103E300090E0909311048093100410921304109258
:103E40001404109215041092160488E692E09093E0
:103E50009804809397041092990410929A041092F7
:103E60009B0410929C0490939E0480939D04109256
:103E70009F041092A0041092A1041092A2049093A7
:103E8000A4048093A3041092A5041092A604109297
:103E9000A7041092A8049093AA048093A9041092F6
:103EA000AB041092AC041092AD041092AE04909347
:103EB000B0048093AF041092B1041092B204109237
:103EC000B3041092B4049093BC048093BB0410928A
:103ED000BD041092BE041092BF041092C0049093CF
:103EE000B6048093B5041092B7041092B8041092EF
:103EF000B9041092BA049093C2048093C104109242
:103F0000C3041092C4041092C5041092C604909386
:103F1000C8048093C7041092C9041092CA04109276
:103F2000CB041092CC049093DE048093DD041092B5
:103F3000DF041092E0041092E1041092E204109267
:103F4000D8041092D70482EA90E00E94A727FC01CF
:103F50002AE030E021933193DF018E559F4F119677
:103F60001C921E925096A817B907C9F7F093D60471
:103F7000E093D5048AE090E09093DA048093D9042A
:103F80008EE292E09093D4048093D30480E592E093
:103F90009093DC048093DB041092D0041092CF0441
:103FA00088E592E09093CE048093CD0480EA9FE070
:103FB0009093D2048093D10488E692E09093E40435
:103FC0008093E3041092E5041092E6041092E70453
:103FD0001092E8040895CF93DF93CDB7DEB7EB9747
:103FE0000FB6F894DEBF0FBECDBF789484B5826063
:103FF00084BD84B5816084BD85B5826085BD85B58D
:10400000816085BD80916E00816080936E0010920A
:104010008100809181008260809381008091810085
:104020008160809381008091800081608093800016
:104030008091B10084608093B1008091B000816074
:104040008093B00080917A00846080937A008091A0
:104050007A00826080937A0080917A0081608093F8
:104060007A0080917A00806880937A001092C10073
:10407000E0910A04F0910B0482E08083E091060451
:10408000F09107041082E0910804F09109048FEC8C
:10409000808310921204E0910E04F0910F0486E0E8
:1040A0008083E0910C04F0910D0480818061808315
:1040B000E0910C04F0910D04808188608083E09190
:1040C0000C04F0910D04808180688083E0910C04E1
:1040D000F0910D0480818F7D808382E090E00E94CA
:1040E000A7278C0188E090E0D8018D939C930E94D3
:1040F000930061E088E00E94C5010115110519F0E7
:10410000C8010E9443288FE992E00E94DB0A86E002
:1041100090E00E94A7277C01FC01108281E081834E
:1041200092E09283138294E0948325E0258320918A
:10413000A003211128C0109288031092870348EE33
:1041400053E060E070E04093890350938A036093EA
:104150008B0370938C0324ED31E03093860320931E
:10416000850328E632E03093940320939303109262
:1041700095031092960310929703109298039093D0
:104180009D038093A00382E493E090934103809386
:10419000400380913F038111A9C060E372E080E099
:1041A00090E00E943602BFB6F89400EB10E0B4EC49
:1041B000CB2EB0E0DB2E80913E03811122C0F801AE
:1041C0008491F6019491E82FF0E0EE0FFF1FE45682
:1041D000FF4FA591B4918C91982321F461E08AE07E
:1041E0000E94C5018AE00E9493008CB580618CBD5D
:1041F0008CB580648CBD8DE00E9493008BE00E94A2
:10420000930080913E038F5F80933E03BFBEF80111
:104210000491E02FF0E0EE0FFF1FEE56FF4F859167
:1042200094919093CB038093CA03F601C490C092FB
:10423000C9038AE00E9493000E948E0280E591E00B
:104240000E94B20084E38093F90380E80E945A033D
:104250000E94EE0C882309F48AC188E00E945A0368
:104260000E94DB0C883009F082C180E10E945A0371
:104270000E94DB0C803109F07AC180E00E945A0371
:104280000E94DB0C182F811172C141E050E0BE0189
:104290006F5F7F4F8FE190E00E94400B89818330F8
:1042A00009F065C180E48093C80342E06EE170E0EC
:1042B000812F0E94B60342E06FE170E0812F0E94DF
:1042C000B6031F5F143089F740E06EE170E0812F84
:1042D0000E94B60340E06FE170E0812F0E94B603B8
:1042E0001F5F183089F781E080933F0380E591E0FC
:1042F0000E94B20046E050E0B70189E090E00E94E1
:10430000AA0288E692E09A8389831B821C821D821E
:104310001E8244E050E0BE016D5F7F4F8FE090E071
:104320000E94AA020091400310914103D801929685
:104330001D921D921D921C929597F80116A217A22C
:1043400010A611A69A961D921D921D921C929D97E1
:1043500080E69AEEA0E0B0E086AB97ABA0AFB1AF3D
:1043600080EA9FE0A0E0B0E082AF93AFA4AFB5AF2A
:10437000D801189686E0FD01282F11922A95E9F7B9
:104380009801225F3F4F94E1F90111929A95E9F764
:10439000F70101900D928A95E1F7C8018E5B9F4F5E
:1043A0009BAF8AAFDC011C920E9418292FEC37E0EA
:1043B00040E050E00E94942ADC01CB010196A11D4F
:1043C000B11DF80184839583A683B783808391838D
:1043D000A283B3835801F3E4AF0EB11CC5010E9460
:1043E000100C64E470E0C5010E94A90F882309F451
:1043F00027C10E9468022B013C0158EEC52E53E0F4
:10440000D52EE12CF12C62E0262E912C812CAAAD28
:10441000BBAD8C918330B9F1811126C2F801848142
:104420009581A681B7810196A11DB11D84839583D5
:10443000A683B7830E9468026419750986099709E3
:10444000A70196010E94C62AA90161E0C8010E9445
:10445000E61981E0AAADBBAD8C93F1E08F16910413
:10446000B1F20E9468026419750986099709D8019A
:10447000D6962D913D914D915C91D997261737078E
:104480004807590710F6C5010E94100CF8018481F5
:104490009581A681B7810196A11DB11D8483958365
:1044A000A683B7830E946802F801FE966083718339
:1044B000828393838A94892809F0C2C080E591E0C1
:1044C0000E94B2000091400310914103B801625F65
:1044D0007F4FCE0101960E94340B44E050E0BE01B4
:1044E0006D5F7F4F8FE090E00E94AA02B8016A5E84
:1044F0007F4FCE0101960E94340B44E050E0BE0194
:104500006D5F7F4F81E090E00E94AA02B8016E5E6D
:104510007F4FCE0101960E94340B44E050E0BE0173
:104520006D5F7F4F85E090E00E94AA02B801625E55
:104530007F4FCE0101960E94340B8B819C81AD810F
:10454000BE818093B7049093B804A093B904B0934C
:10455000BA040E9411027F738091000190910101C1
:1045600068277927709301016093000169C087E390
:104570008093F90380E80E945A030E94EE0C88237E
:1045800029F188E00E945A030E94DB0C8830F1F484
:1045900080E10E945A030E94DB0C182F8031B1F495
:1045A00080E00E945A030E94DB0C81110FC041E0A1
:1045B00050E0BE016F5F7F4F89E390E00E94400BA7
:1045C0008981843019F41093C8038DCE83E38093DE
:1045D000F90380E80E945A030E94EE0C882371F1CF
:1045E00080E10E945A030E94DB0C803139F582E1A0
:1045F0000E945A030E94DB0C823101F580E00E9488
:104600005A030E94DB0C811119C084E08093C80317
:1046100015E519AF41E050E0BE01675C7F4F8BE1CB
:1046200090E00E94AA0218AF41E050E0BE01685C31
:104630007F4F8AE190E00E94AA0255CE1092F903C2
:1046400088E692E09A8389831B821C821D821E82E7
:1046500080E591E00E94B20044E050E0BE016D5F51
:104660007F4F8FE090E00E94400B6AEF73E0CE0135
:1046700001960E94910A6AE672E08AEF93E00E9436
:10468000360A8DEC94E00E94CE0F8091D704909171
:10469000D804892B11F00E94951B6DEC74E0CE01BB
:1046A0004F960E94E9118BA5843078F785EA92E055
:1046B0000E94DB0A86EA91E0998B888B89A19AA1F6
:1046C0009B8B8A8B8BA19CA1ADA1BEA18C8B9D8B5A
:1046D000AE8BBF8B8FA198A5A9A5BAA5888F998FFE
:1046E000AA8FBB8F8BA58C8F8CA59DA59E8F8D8F40
:1046F0000E9468026093C4037093C5038093C6034D
:104700009093C7030E946802AB01BC018091C4036F
:104710009091C503A091C603B091C703805A9541FB
:10472000AF4FBF4F481759076A077B0708F0C6C14C
:10473000CE014F960E944F0C882309F4BFC180918F
:10474000D7049091D804892B11F00E94951BCE01BB
:1047500040960E94B912181619060CF0A2C18BEBF4
:1047600092E00E94DB0A86E191E09A8389831C82B1
:104770001B821E821D8218861F82CE0101960E9416
:10478000ED0984E391E09A83898386E591E09A8735
:10479000898710E0CE0140960E94B91218161906BA
:1047A0000CF073C1CE0140960E949517112309F4B5
:1047B00067C18A3F09F05EC18FE090E00E94A727A1
:1047C0008C01DC0111961C921E9213961C921E9273
:1047D00012976C01B4E0CB0ED11C86E191E0F80198
:1047E000958384831782168211861086138612861B
:1047F000C6010E94ED0984E391E0D80115969C93CF
:104800008E93149786E591E01D969C938E931C974A
:104810001E961C921E97EB81FC81808190E08D9307
:104820009C9370E060E0CE0101960E944407F8017D
:1048300086819781892B19F0C6010E94251EEB8085
:10484000FC80E114F10409F4DAC0AD80BE80AE0C46
:10485000BF1CAE14BF0409F4D2C0D7016D917D0115
:10486000C6010E94AC1DF5CF8430F9F4F8018481B3
:104870009581A681B7810196A11DB11D8483958381
:10488000A683B7830E94680264197509860997098F
:10489000A70196010E94C62AA90163E0C8010E94EF
:1048A000E619AAADBBAD2C92D8CD813059F5F801EF
:1048B00042AD53AD64AD75AD9E012F5F3F4FC80152
:1048C0000E944718382EF2E08F1392C089819A8196
:1048D000AB81BC81F80184839583A683B7830E9452
:1048E00068026419750986099709A70196010E9453
:1048F000C62AA90163E0C8010E94E619AAADBBADB2
:104900003C92ABCD823009F0A8CDF80142AD53AD59
:1049100064AD75AD9E012F5F3F4FC8010E944718DF
:10492000382EF5E08F135DC0E3E0AAADBBADEC938C
:10493000F80182A193A1A4A1B5A1892B8A2B8B2B6D
:1049400041F484E893E0A0E0B0E082A393A3A4A3A1
:10495000B5A3F80186A197A1A0A5B1A5892B8A2BA3
:104960008B2B61F482A193A1A4A1B5A1B695A795C3
:104970009795879586A397A3A0A7B1A7F80182A5CD
:1049800093A5A4A5B5A5892B8A2B8B2BA9F482A16D
:1049900093A1A4A1B5A1AC01BD0133E076956795C3
:1049A000579547953A95D1F7841B950BA60BB70BF6
:1049B00082A793A7A4A7B5A7F80186A197A1A0A550
:1049C000B1A586A797A7A0ABB1AB82A593A5A4A5D7
:1049D000B5A582AB93ABA4ABB5AB88248394912CE3
:1049E0003CCDF6E08F1304C0AAADBBAD1C9235CD13
:1049F000BFEF3B1232CDEAADFBAD10822ECD82E08F
:104A000090E00E94A7277C0181E090E0F70191836C
:104A1000808384E391E09A83898386E591E09A8795
:104A20008987CE0101960E94191E0115110509F012
:104A30004EC0D7018D919C91119701978D939C93B6
:104A4000892B09F05FCE0115110581F084E391E017
:104A5000F8019583848386E591E095878487C80172
:104A600004960E94191EC8010E944328C7010E9493
:104A7000432848CE682FCE0101960E94AC1D8ACEF5
:104A800011E08F3F09F085CE85CE84E391E09A83D3
:104A9000898386E591E09A878987CE0101960E94F5
:104AA000191E82E090E00E94A7277C0181E090E03F
:104AB000D7018D939C9310E000E0BBCF86ED92E090
:104AC0000E94DB0ACE014F960E94710CDECDF801E8
:104AD0006081718165367105E9F5B801CE010196F5
:104AE0000E94050B83E193E00E94DB0A82E090E0E4
:104AF0000E94A7272FEFFC0120832981218399ABF6
:104B000088AB82E090E09BAB8AAB9DAB8CAB84E33F
:104B100091E09FA78EA786E591E09FAB8EAB6B815E
:104B20007C81CE018E966C011616170614F40E9435
:104B3000AC1DAF80B88489849A848A0C9B1C8A142B
:104B40009B0409F4A3C0D5016D915D01C6010E94CB
:104B5000AC1DF5CF6436710509F4BFCF663671051B
:104B600009F089C08FEE92E00E94DB0AD12CC12CA3
:104B700094E6392E88248394D80118968D919C91BF
:104B80001997C816D9060CF06FC01696ED91FC91D6
:104B9000EC0DFD1D908021800E946802D8011696C0
:104BA000ED91FC91EC0DFD1D4280439C9001112480
:104BB0002901330F66087708460E571E681E791EB6
:104BC000A92CB12C222079F161E0892D0E94C50128
:104BD0008091AE03811114C0E9E2F6E0F093A903DD
:104BE000E093A8038BEC90E09093AB038093AA032F
:104BF000AEEEBAE0B093AD03A093AC038092AE03E7
:104C0000E8EAF3E0FA83E9839B82A201B501CE01D1
:104C100001960E94111DCE0101960E942E0693E07E
:104C2000C90ED11CA9CF60E0892D0E94C5018091D9
:104C3000BC03811114C088E296E09093B70380937F
:104C4000B603A7E2B6E0B093B903A093B803E2E2DB
:104C5000F6E0F093BB03E093BA038092BC0386EBCB
:104C600093E09A838983D1CF48EC6C91CE01019671
:104C70000E94070A37CF48E2683C7105B9F785E022
:104C800093E00E94DB0A48EC68ECF0CF6AEFC601C3
:104C90000E94AC1D8B819C8149855A851816190686
:104CA0000CF044C04C5F5F4F68A979A9CE014096D3
:104CB0000E94421184E391E09FA78EA786E591E0D0
:104CC0009FAB8EABC6010E94191E0E9468026093C2
:104CD000C4037093C5038093C6039093C70387E210
:104CE00093E00E94DB0A8090E9049090EA04B60108
:104CF000681979098114910439F480910401909123
:104D00000501B601681B790BA090EB04B090EC0490
:104D1000F501309771F080819181029668177907CB
:104D200008F4BC010280F381E02DF3CF4D5F5F4FAB
:104D3000BBCF90E080E00E94752920E030E048EC95
:104D400052E40E94D6292B013C018114910471F098
:104D5000C818D908A114B10481F0F50180819181AE
:104D60000296C80ED91EA280B380F4CF80910401B0
:104D700090910501C81AD90AEDCFB60190E080E004
:104D80000E9475299B01AC01C301B2010E94642BF2
:104D90009B01AC0160E070E088EC92E40E94F72A8D
:104DA0004B015C0188E6C82E80E0D82EF6016491A4
:104DB000662349F08AEF93E00E945801FFEFCF1A73
:104DC000DF0A892B99F7A5019401C501B4010E945E
:104DD0000A2C60E373E081111AC024013501E894C4
:104DE00077F82FEF3FEF4FE75FE7C301B2010E9473
:104DF0000A2C811121C02FEF3FEF4FE75FE7C3017E
:104E0000B2010E9470291816BCF464E373E08AEFC3
:104E100093E00E94360A8CE393E00E94DB0A84E36D
:104E200091E09E838D8386E591E09E878D87CE01FC
:104E300005960E94191EFDCD2FEF3FEF4FE75FE46F
:104E4000C501B4010E94052C18161CF468E373E038
:104E5000DECF2FEF3FEF4FE75FECC501B4010E94BB
:104E6000702987FDF3CF20E030E0A901C501B4012E
:104E70000E94702987FF09C06DE28AEF93E00E94CB
:104E80005801B7FAB094B7F8B0942AE037ED43EA86
:104E90005BE3C501B4010E94F82A2B013C010E948A
:104EA000D62B4B015C010E9475299B01AC01C3010B
:104EB000B2010E94F72A2B013C012AE0B501A401AE
:104EC0008AEF93E00E94450A6EE28AEF93E00E9427
:104ED000580120E030E040E251E4C301B2010E94F9
:104EE000D6292B013C010E94D62B4B01B12CA12CC1
:104EF0002AE0B501A4018AEF93E00E94450AC501AA
:104F0000B4010E9475299B01AC01C301B2010E944A
:104F1000F72A20E030E040E251E40E94D6290E94C6
:104F2000D62BAB0170E060E02AE08AEF93E00E94AC
:104F3000450A71CFE3EDF4E08EE292E09183808345
:104F400080E592E091878087CF010C94C51D0F9377
:104F50001F93CF93DF938230910510F482E090E0AD
:104F6000E091EB04F091EC0430E020E0B0E0A0E050
:104F7000309799F42115310509F44AC0281B390BE3
:104F800024303105D8F58A819B816115710589F13D
:104F9000FB0193838283FE0111C040815181028114
:104FA000138148175907E0F04817590799F41097EB
:104FB00061F012960C93129713961C933296CF01C0
:104FC000DF91CF911F910F9108950093EB041093FF
:104FD000EC04F4CF2115310551F04217530738F096
:104FE000A901DB019A01BD01DF01F801C1CFEF0189
:104FF000F9CF9093EC048093EB04CDCFFE01E20F48
:10500000F31F819391932250310939832883D7CF9D
:105010002091E9043091EA04232B41F4209104010A
:10502000309105013093EA042093E90420910201B4
:10503000309103012115310541F42DB73EB7409160
:10504000060150910701241B350BE091E904F09112
:10505000EA04E217F307A0F42E1B3F0B28173907C9
:1050600078F0AC014E5F5F4F2417350748F04E0FC4
:105070005F1F5093EA044093E904819391939FCF7B
:10508000F0E0E0E09CCFCF93DF930097E9F0FC01E4
:10509000329713821282A091EB04B091EC04ED01DF
:1050A00030E020E01097A1F420813181820F931F1E
:1050B0002091E9043091EA042817390709F061C00A
:1050C000F093EA04E093E904DF91CF910895EA01B7
:1050D000CE17DF07E8F54A815B819E014115510536
:1050E000B1F7E901FB83EA8349915991C40FD51FB8
:1050F000EC17FD0761F4808191810296840F951F62
:10510000E90199838883828193819B838A83F0E07C
:10511000E0E012968D919C9113970097B9F52D912F
:105120003C911197CD010296820F931F2091E904C3
:105130003091EA042817390739F6309751F5109263
:10514000EC041092EB04B093EA04A093E904BCCF02
:10515000D383C28340815181840F951FC817D9071B
:1051600061F44E5F5F4F88819981480F591F5183C9
:1051700040838A819B81938382832115310509F0C5
:10518000B0CFF093EC04E093EB049ECFFD01DC0183
:10519000C0CF13821282D7CF8F929F92AF92BF92CD
:1051A000CF92DF92EF92FF92CF93DF93EC01688171
:1051B00079818A819B81611571058105910521F4B1
:1051C00064E279ED8BE597E02DE133EF41E050E0CB
:1051D0000E94942A49015A019B01AC01A7EAB1E45B
:1051E0000E94B32A6B017C01ACEEB4EFA5019401DF
:1051F0000E94C12AC60ED71EE81EF91EF7FE06C081
:1052000081E0C81AD108E10880E8F80AC882D9828A
:10521000EA82FB82C701B6019F77DF91CF91FF90B1
:10522000EF90DF90CF90BF90AF909F908F900895B8
:105230008F929F92AF92BF92CF92DF92EF92FF92A6
:10524000609108017091090180910A0190910B0110
:10525000611571058105910521F464E279ED8BE515
:1052600097E02DE133EF41E050E00E94942A49019C
:105270005A019B01AC01A7EAB1E40E94B32A6B0179
:105280007C01ACEEB4EFA50194010E94C12AC60EC8
:10529000D71EE81EF91EF7FE06C081E0C81AD10825
:1052A000E10880E8F80AC0920801D0920901E09272
:1052B0000A01F0920B01C701B6019F77FF90EF90B2
:1052C000DF90CF90BF90AF909F908F9008956093A4
:1052D00008017093090180930A0190930B010895CE
:1052E0000E94B22908F481E00895E89409C097FB70
:1052F0003EF490958095709561957F4F8F4F9F4FAD
:105300009923A9F0F92F96E9BB279395F6958795F0
:1053100077956795B795F111F8CFFAF4BB0F11F4B3
:1053200060FF1BC06F5F7F4F8F4F9F4F16C088235A
:1053300011F096E911C0772321F09EE8872F762F90
:1053400005C0662371F096E8862F70E060E02AF0D1
:105350009A95660F771F881FDAF7880F96958795BD
:1053600097F90895990F0008550FAA0BE0E8FEEF92
:1053700016161706E807F907C0F012161306E40719
:10538000F50798F0621B730B840B950B39F40A2612
:1053900061F0232B242B252B21F408950A2609F4F0
:1053A000A140A6958FEF811D811D08950E94E929D6
:1053B0000C945A2A0E944C2A38F00E94532A20F05A
:1053C000952311F00C94432A0C94492A11240C942F
:1053D0008E2A0E946B2A70F3959FC1F3950F50E0BF
:1053E000551F629FF001729FBB27F00DB11D639F97
:1053F000AA27F00DB11DAA1F649F6627B00DA11D3D
:10540000661F829F2227B00DA11D621F739FB00DE2
:10541000A11D621F839FA00D611D221F749F332752
:10542000A00D611D231F849F600D211D822F762FEB
:105430006A2F11249F5750409AF0F1F088234AF0C8
:10544000EE0FFF1FBB1F661F771F881F9150504034
:10545000A9F79E3F510580F00C94432A0C948E2AA4
:105460005F3FE4F3983ED4F3869577956795B795BB
:10547000F795E7959F5FC1F7FE2B880F911D9695D5
:10548000879597F9089597F99F6780E870E060E045
:1054900008959FEF80EC089500240A9416161706CD
:1054A00018060906089500240A9412161306140615
:1054B00005060895092E0394000C11F4882352F078
:1054C000BB0F40F4BF2B11F460FF04C06F5F7F4F30
:1054D0008F4F9F4F089557FD9058440F551F59F017
:1054E0005F3F71F04795880F97FB991F61F09F3FD1
:1054F00079F087950895121613061406551FF2CFFA
:105500004695F1DF08C0161617061806991FF1CF49
:1055100086957105610508940895E894BB27662770
:105520007727CB0197F90895052E97FB1EF4009479
:105530000E94AB2A57FD07D00E94C62A07FC03D061
:105540004EF40C94AB2A50954095309521953F4FE1
:105550004F4F5F4F089590958095709561957F4F5F
:105560008F4F9F4F08950E94E82AA59F900DB49FEA
:10557000900DA49F800D911D11240895B7FF0C94E8
:10558000B32A0E94B32A821B930B0895A1E21A2E1C
:10559000AA1BBB1BFD010DC0AA1FBB1FEE1FFF1FD7
:1055A000A217B307E407F50720F0A21BB30BE40B27
:1055B000F50B661F771F881F991F1A9469F760956E
:1055C0007095809590959B01AC01BD01CF01089528
:1055D000A29FB001B39FC001A39F700D811D112434
:1055E000911DB29F700D811D1124911D0895505879
:1055F000BB27AA270E940F2B0C945A2A0E944C2AE0
:1056000038F00E94532A20F039F49F3F19F426F411
:105610000C94492A0EF4E095E7FB0C94432AE92FF9
:105620000E946B2A58F3BA1762077307840795071D
:1056300020F079F4A6F50C948D2A0EF4E0950B2E4B
:10564000BA2FA02D0B01B90190010C01CA01A001D4
:105650001124FF27591B99F0593F50F4503E68F12F
:105660001A16F040A22F232F342F4427585FF3CF70
:10567000469537952795A795F0405395C9F77EF441
:105680001F16BA0B620B730B840BBAF09150A1F08A
:10569000FF0FBB1F661F771F881FC2F70EC0BA0F10
:1056A000621F731F841F48F4879577956795B79598
:1056B000F7959E3F08F0B0CF9395880F08F0992793
:1056C000EE0F9795879508950E94782B0C945A2A8F
:1056D0000E94532A58F00E944C2A40F029F45F3F60
:1056E00029F00C94432A51110C948E2A0C94492AC7
:1056F0000E946B2A68F39923B1F3552391F3951B0C
:10570000550BBB27AA2762177307840738F09F5FE2
:105710005F4F220F331F441FAA1FA9F335D00E2E4F
:105720003AF0E0E832D091505040E695001CCAF7BC
:105730002BD0FE2F29D0660F771F881FBB1F26177F
:1057400037074807AB07B0E809F0BB0B802DBF0156
:10575000FF2793585F4F3AF09E3F510578F00C9425
:10576000432A0C948E2A5F3FE4F3983ED4F3869547
:1057700077956795B795F7959F5FC9F7880F911D46
:105780009695879597F90895E1E0660F771F881F32
:10579000BB1F621773078407BA0720F0621B730BE5
:1057A000840BBA0BEE1F88F7E09508950E94732AC8
:1057B00088F09F5798F0B92F9927B751B0F0E1F0D2
:1057C000660F771F881F991F1AF0BA95C9F714C082
:1057D000B13091F00E948D2AB1E008950C948D2A89
:1057E000672F782F8827B85F39F0B93FCCF38695BB
:1057F00077956795B395D9F73EF490958095709518
:1058000061957F4F8F4F9F4F08950E94B22908F4F2
:105810008FEF08950E94B229880B990B089569278C
:10582000962769277827872778270895EE0FFF1F87
:105830000590F491E02D0994FB01DC0104C08D91E9
:105840000190801921F441505040C8F7881B990BF2
:105850000895DC0101C06D9341505040E0F7089578
:10586000FB01DC0101900D920020E1F7089510E0AA
:10587000C8E6D0E004C0FE010E94162C2196C9366D
:08588000D107C9F7F894FFCF2E
:1058880000C00000ED0480000100000001005E007F
:105898000000000000006B07EE05D905AC1D861D51
:1058A800A505251E920544072B09BC048E05910405
:1058B800000000006B07EE05D905AC1D861DA50587
:1058C800251E920544072B09BC048E05070984058B
:1058D8006E05F8FF00008B058105000000006305D8
:1058E80050053705501B2A1B0305701BEE04C00426
:1058F800BB08BC04B6049104000000006305500511
:105908003705501B2A1B0305701BEE04C004BB0897
:10591800BC04B6049708AC049404F8FF0000B30470
:10592800A904000000000A044211E210CD10B912C7
:105938009517390D270F0A17AF17710C4F0C8B08E5
:1059480088088608FF037C081D18E217B81778082E
:1059580000000000D3035D119408CB00C700AF130B
:105968002A0DA90F3F0E100C21049716AA0CD91363
:105978009013700460045C0458040000000058018F
:10598800CC00F900A5012A0108011C010000000053
:10599800640852062308D91CB31CF506F61DDB075C
:1059A800C7069009BC0419069104000000006408A9
:1059B80052062308D91CB31CF506F61DDB07C706DB
:1059C8009009BC0419066C0900069307F8FF00004B
:1059D8000E06D00700000000E90368129408930837
:1059E800CE0F2B0C00000000910A0D0A00506F73B7
:1059F80074706F6E6564207461736B2064696D6D7B
:105A08006572004469676974616C577269746520CE
:105A18006D6573736167650057495A6E6574004810
:105A2800656C6C6F00436C69656E742068617320E7
:105A3800636F6E6E6563746564210053746172747C
:105A480020726563616976696E67206D657373613D
:105A580067652E2E2E00436C69656E74206861732D
:105A680020646973636F6E6E65637465642E00539A
:105A7800657454696D6544696D6D6572206D6573F3
:105A8800736167650054657374206D65737361672E
:105A980065210053656E64696E6720726573706F67
:105AA8006E73652E2E2E002D2D2D2D2D2D2D2D00B6
:0E5AB8006E616E00696E66006F7666002500F6
:107E0000112484B714BE81FFF0D085E080938100F7
:107E100082E08093C00088E18093C10086E0809377
