:100000000C945E000C9486000C9486000C94860080
:100010000C9486000C9486000C9486000C94860048
:100020000C9486000C9486000C9486000C94860038
:100030000C9486000C9486000C9486000C94860028
:100040000C9440020C9486000C940E020C94E8016F
:100050000C9486000C9486000C9486000C94860008
:100060000C9486000C9486000000000025002800F7
:100070002B0000000000240027002A0004040404D0
:100080000404040402020202020203030303030342
:10009000010204081020408001020408102001021F
:1000A00004081020467261676D656E746174696F33
:1000B0006E206C6576656C3A20008A0211241FBEA2
:1000C000CFEFD8E0DEBFCDBF11E0A0E0B1E0E4EBC0
:1000D000F0E102C005900D92A233B107D9F721E0FB
:1000E000A2E3B1E001C01D92AC3DB207E1F710E020
:1000F000CEE5D0E004C02197FE010E945208CD3524
:10010000D107C9F70E94B7020C9458080C9400005C
:10011000AF92BF92CF92DF92EF92FF920F931F9315
:10012000CF93DF936C017B018B01040F151FEB0153
:100130005E01AE18BF08C017D10759F06991D6010A
:10014000ED91FC910190F081E02DC6010995892B7C
:1001500079F7C501DF91CF911F910F91FF90EF903B
:10016000DF90CF90BF90AF900895FC01538D448DE8
:10017000252F30E0842F90E0821B930B541710F052
:10018000CF96089501970895FC01918D828D98175F
:1001900061F0A28DAE0FBF2FB11D5D968C91928D37
:1001A0009F5F9F73928F90E008958FEF9FEF089568
:1001B000FC01918D828D981731F0828DE80FF11D31
:1001C000858D90E008958FEF9FEF0895FC01918D4C
:1001D000228D892F90E0805C9F4F821B91098F7345
:1001E00099270895FC01A48DA80FB92FB11DA35A1A
:1001F000BF4F2C91848D90E001968F739927848F47
:10020000A689B7892C93A089B1898C918370806469
:100210008C93938D848D981306C00288F389E02D0A
:1002200080818F7D80830895EF92FF920F931F93BB
:10023000CF93DF93EC0181E0888F9B8D8C8D981399
:100240001AC0E889F989808185FF15C09FB7F894A5
:10025000EE89FF896083E889F989808183708064F1
:1002600080839FBF81E090E0DF91CF911F910F913C
:10027000FF90EF900895F62E0B8D10E00F5F1F4F4B
:100280000F731127E02E8C8D8E110CC00FB607FC5A
:10029000FACFE889F989808185FFF5CFCE010E94E8
:1002A000F200F1CFEB8DEC0FFD2FF11DE35AFF4F64
:1002B000F0829FB7F8940B8FEA89FB898081806276
:1002C000CFCFCF93DF93EC01888D8823B9F0AA8933
:1002D000BB89E889F9898C9185FD03C0808186FD01
:1002E0000DC00FB607FCF7CF8C9185FFF2CF808150
:1002F00085FFEDCFCE010E94F200E9CFDF91CF91D3
:100300000895FC0101900020E9F73197AF01481BE7
:10031000590BBC018BE391E00C9488008F929F9263
:10032000AF92BF920F931F93CF93DF93CDB7DEB7FA
:10033000A1970FB6F894DEBF0FBECDBF19A2423011
:1003400008F44AE08E010F5D1F4F842E912CB12CD2
:10035000A12CA50194010E943008E62FB901CA0121
:10036000EA30F4F4E05DD801EE938D01232B242BC9
:10037000252B79F790E080E0109719F0CD010E94CD
:100380008101A1960FB6F894DEBF0FBECDBFDF91FD
:10039000CF911F910F91BF90AF909F908F90089534
:1003A000E95CE1CF2AE031E0FC01318320838281E6
:1003B0009381009711F00C946B050895CF93DF9310
:1003C000EC010E94D201CE01DF91CF910C946B051C
:1003D0001F920F920FB60F9211242F933F934F93BA
:1003E0005F936F937F938F939F93AF93BF93EF939D
:1003F000FF938BE391E00E94F200FF91EF91BF9198
:10040000AF919F918F917F916F915F914F913F91AC
:100410002F910F900FBE0F901F9018951F920F9263
:100420000FB60F9211242F938F939F93EF93FF9307
:10043000E0914B01F0914C018081E0915101F091EC
:10044000520182FD1BC09081809154018F5F8F7398
:1004500020915501821741F0E0915401F0E0E55CF4
:10046000FE4F958F80935401FF91EF919F918F9153
:100470002F910F900FBE0F901F9018958081F4CF91
:100480001F920F920FB60F9211242F933F938F93C9
:100490009F93AF93BF938091370190913801A091C2
:1004A0003901B0913A013091360123E0230F2D3705
:1004B00058F50196A11DB11D209336018093370197
:1004C00090933801A0933901B0933A0180913201A1
:1004D00090913301A0913401B09135010196A11D95
:1004E000B11D8093320190933301A0933401B093F6
:1004F0003501BF91AF919F918F913F912F910F90B7
:100500000FBE0F901F90189526E8230F0296A11D8D
:10051000B11DD2CFEBE3F1E01382128288EE93E0BB
:10052000A0E0B0E084839583A683B78382E191E065
:100530009183808385EC90E09587848784EC90E0BC
:100540009787868780EC90E0918B808B81EC90E0A0
:10055000938B828B82EC90E0958B848B86EC90E081
:10056000978B868B118E128E138E148E0895CF93D7
:10057000DF931F92CDB7DEB7789484B5826084BDD7
:1005800084B5816084BD85B5826085BD85B5816097
:1005900085BD80916E00816080936E001092810015
:1005A00080918100826080938100809181008160D0
:1005B0008093810080918000816080938000809191
:1005C000B10084608093B1008091B000816080931D
:1005D000B00080917A00846080937A0080917A00E4
:1005E000826080937A0080917A00816080937A00A3
:1005F00080917A00806880937A001092C100E09127
:100600004B01F0914C0182E08083E0914701F09131
:1006100048011082E0914901F0914A018FEC8083FA
:1006200010925301E0914F01F091500186E08083D8
:10063000E0914D01F0914E01808180618083E091D5
:100640004D01F0914E01808188608083E0914D01E1
:10065000F0914E01808180688083E0914D01F0919E
:100660004E0180818F7D8083EDE9F0E02491E9E8FF
:10067000F0E08491882399F090E0880F991FFC01A5
:10068000EE58FF4FA591B491FC01E859FF4F8591B9
:1006900094918FB7F894EC91E22BEC938FBF88E0A4
:1006A00090E00E94CF048C018AE091E0F8019183F0
:1006B000808388E290E00E94CF04F80193838283D4
:1006C0001582148284E190E097838683CE0101969F
:1006D0006C014AE0642E712CA090D801B090D90131
:1006E000B6016A197B09A114B10439F480910201A1
:1006F00090910301B601681B790BE090DA01F0904C
:10070000DB01F701309759F08081918102966817DB
:10071000790708F4BC010280F381E02DF3CF90E06B
:1007200080E00E94070720E030E048EC52E40E949D
:10073000BE071B012C01B6016A197B09AB2839F4ED
:100740008091020190910301B601681B790BE114BD
:10075000F10449F0F701808191810296680F791FB9
:10076000E280F380F4CF90E080E00E9407079B01D5
:10077000AC01C201B1010E9466069B01AC0160E0C0
:1007800070E088EC92E40E94F4054B015C0134EACD
:10079000E32E30E0F32EF7016491662349F08BE3FA
:1007A00091E00E941401FFEFEF1AFF0A892B99F7DD
:1007B000A5019401C501B4010E942B08882309F406
:1007C00040C080E291E00E9481018CE291E00E94B1
:1007D00081018EE291E00E948101F801A480B58040
:1007E0007501FFEFEF1AFF0AF801F582E4828681B6
:1007F0009781E816F90609F0C0C0C50145969783B0
:1008000086838115F0E49F0708F0ADC0880F991F1B
:100810000E94CF044C01F8018281938181149104DC
:1008200009F4BAC0DC01F40130E020E02E153F05E8
:100830000CF09CC04D915D91419351932F5F3F4FC0
:10084000F5CF14012501E89457F82FEF3FEF4FE75C
:100850005FE7C201B1010E942B0881110DC02FEF8B
:100860003FEF4FE75FE7C201B1010E946106181632
:100870001CF484E291E0A7CF2FEF3FEF4FE75FE456
:10088000C501B4010E94B90718161CF488E291E072
:100890009ACF2FEF3FEF4FE75FECC501B4010E9405
:1008A000610687FDF3CF20E030E0A901C501B40166
:1008B0000E94610687FF09C06DE28BE391E00E9410
:1008C0001401B7FAB094B7F8B0942AE037ED43EAD0
:1008D0005BE3C501B4010E94F5051B012C010E94D8
:1008E000D8064B015C010E9407079B01AC01C201C5
:1008F000B1010E94F4051B012C014AE0C501B401BD
:100900000E948E016EE28BE391E00E94140120E0D0
:1009100030E040E251E4C201B1010E94BE071B0178
:100920002C010E94D8064B01B12CA12C4AE0C50134
:10093000B4010E948E01C501B4010E9407079B010A
:10094000AC01C201B1010E94F40520E030E040E2B8
:1009500051E40E94BE070E94D80690E080E04AE081
:100960000E948E0132CF8FEF9FEF52CF009711F090
:100970000E946B05F80193828282F1E0EF1AF0E8A1
:10098000FF0AEE0CFF1CF80182819381E80EF91E2C
:10099000F70171826082A0CEB582A4829DCE0F93B2
:1009A0001F93CF93DF938230910510F482E090E0A3
:1009B000E091DA01F091DB0130E020E0B0E0A0E06E
:1009C000309799F42115310509F44AC0281B390BD9
:1009D00024303105D8F58A819B816115710589F133
:1009E000FB0193838283FE0111C04081518102810A
:1009F000138148175907E0F04817590799F41097E1
:100A000061F012960C93129713961C933296CF01B5
:100A1000DF91CF911F910F9108950093DA01109308
:100A2000DB01F4CF2115310551F04217530738F09F
:100A3000A901DB019A01BD01DF01F801C1CFEF017E
:100A4000F9CF9093DB018093DA01CDCFFE01E20F65
:100A5000F31F819391932250310939832883D7CF93
:100A60002091D8013091D901232B41F4209102012A
:100A7000309103013093D9012093D80120910001D6
:100A8000309101012115310541F42DB73EB7409158
:100A9000040150910501241B350BE091D801F09120
:100AA000D901E217F307A0F42E1B3F0B28173907D3
:100AB00078F0AC014E5F5F4F2417350748F04E0FBA
:100AC0005F1F5093D9014093D801819391939FCF99
:100AD000F0E0E0E09CCFCF93DF930097E9F0FC01DA
:100AE000329713821282A091DA01B091DB01ED01FD
:100AF00030E020E01097A1F420813181820F931F14
:100B00002091D8013091D9012817390709F061C027
:100B1000F093D901E093D801DF91CF910895EA01D4
:100B2000CE17DF07E8F54A815B819E01411551052B
:100B3000B1F7E901FB83EA8349915991C40FD51FAD
:100B4000EC17FD0761F4808191810296840F951F57
:100B5000E90199838883828193819B838A83F0E072
:100B6000E0E012968D919C9113970097B9F52D9125
:100B70003C911197CD010296820F931F2091D801CD
:100B80003091D9012817390739F6309751F510926D
:100B9000DB011092DA01B093D901A093D801BCCF48
:100BA000D383C28340815181840F951FC817D90711
:100BB00061F44E5F5F4F88819981480F591F5183BF
:100BC00040838A819B81938382832115310509F0BB
:100BD000B0CFF093DB01E093DA019ECFFD01DC01A1
:100BE000C0CF13821282D7CF5058BB27AA270E94AA
:100BF0000C060C947F070E94710738F00E9478075A
:100C000020F039F49F3F19F426F40C946E070EF48B
:100C1000E095E7FB0C946807E92F0E94900758F3D2
:100C2000BA17620773078407950720F079F4A6F5D1
:100C30000C94B2070EF4E0950B2EBA2FA02D0B01E9
:100C4000B90190010C01CA01A0011124FF27591B11
:100C500099F0593F50F4503E68F11A16F040A22F17
:100C6000232F342F4427585FF3CF46953795279588
:100C7000A795F0405395C9F77EF41F16BA0B620B87
:100C8000730B840BBAF09150A1F0FF0FBB1F661FCE
:100C9000771F881FC2F70EC0BA0F621F731F841F11
:100CA00048F4879577956795B795F7959E3F08F037
:100CB000B0CF9395880F08F09927EE0F97958795F9
:100CC00008950E94440708F481E008950E947A067E
:100CD0000C947F070E94780758F00E94710740F03B
:100CE00029F45F3F29F00C94680751110C94B30765
:100CF0000C946E070E94900768F39923B1F3552373
:100D000091F3951B550BBB27AA276217730784071E
:100D100038F09F5F5F4F220F331F441FAA1FA9F3B4
:100D200035D00E2E3AF0E0E832D091505040E695A2
:100D3000001CCAF72BD0FE2F29D0660F771F881F03
:100D4000BB1F261737074807AB07B0E809F0BB0BF6
:100D5000802DBF01FF2793585F4F3AF09E3F51050A
:100D600078F00C9468070C94B3075F3FE4F3983E67
:100D7000D4F3869577956795B795F7959F5FC9F7F3
:100D8000880F911D9695879597F90895E1E0660F74
:100D9000771F881FBB1F621773078407BA0720F0ED
:100DA000621B730B840BBA0BEE1F88F7E095089556
:100DB0000E94980788F09F5798F0B92F9927B7514C
:100DC000B0F0E1F0660F771F881F991F1AF0BA95EF
:100DD000C9F714C0B13091F00E94B207B1E0089594
:100DE0000C94B207672F782F8827B85F39F0B93F86
:100DF000CCF3869577956795B395D9F73EF49095A2
:100E00008095709561957F4F8F4F9F4F0895E8941F
:100E100009C097FB3EF490958095709561957F4F42
:100E20008F4F9F4F9923A9F0F92F96E9BB279395F0
:100E3000F695879577956795B795F111F8CFFAF400
:100E4000BB0F11F460FF1BC06F5F7F4F8F4F9F4F31
:100E500016C0882311F096E911C0772321F09EE88F
:100E6000872F762F05C0662371F096E8862F70E0F5
:100E700060E02AF09A95660F771F881FDAF7880FCF
:100E80009695879597F90895990F0008550FAA0B25
:100E9000E0E8FEEF16161706E807F907C0F012168D
:100EA0001306E407F50798F0621B730B840B950B90
:100EB00039F40A2661F0232B242B252B21F40895E5
:100EC0000A2609F4A140A6958FEF811D811D089582
:100ED00097F99F6780E870E060E008959FEF80ECED
:100EE000089500240A941616170618060906089590
:100EF00000240A9412161306140605060895092EF6
:100F00000394000C11F4882352F0BB0F40F4BF2B64
:100F100011F460FF04C06F5F7F4F8F4F9F4F0895A4
:100F200057FD9058440F551F59F05F3F71F047959A
:100F3000880F97FB991F61F09F3F79F0879508957F
:100F4000121613061406551FF2CF4695F1DF08C09E
:100F5000161617061806991FF1CF869571056105BB
:100F600008940895E894BB2766277727CB0197F963
:100F700008950E94440708F48FEF08950E94D10756
:100F80000C947F070E94710738F00E94780720F0C8
:100F9000952311F00C9468070C946E0711240C949F
:100FA000B3070E94900770F3959FC1F3950F50E02F
:100FB000551F629FF001729FBB27F00DB11D639F0B
:100FC000AA27F00DB11DAA1F649F6627B00DA11DB1
:100FD000661F829F2227B00DA11D621F739FB00D57
:100FE000A11D621F839FA00D611D221F749F3327C7
:100FF000A00D611D231F849F600D211D822F762F60
:101000006A2F11249F5750409AF0F1F088234AF03C
:10101000EE0FFF1FBB1F661F771F881F91505040A8
:10102000A9F79E3F510580F00C9468070C94B30714
:101030005F3FE4F3983ED4F3869577956795B7952F
:10104000F795E7959F5FC1F7FE2B880F911D969549
:10105000879597F908950E944407880B990B089586
:10106000A1E21A2EAA1BBB1BFD010DC0AA1FBB1FAC
:10107000EE1FFF1FA217B307E407F50720F0A21B1E
:10108000B30BE40BF50B661F771F881F991F1A948B
:1010900069F760957095809590959B01AC01BD01B5
:1010A000CF010895EE0FFF1F0590F491E02D0994F4
:0410B000F894FFCFE2
:1010B4000000DC01800000000000D201DE0100001D
:1010C400000014018800B5006101E600C400D800E6
:1010D4006E616E00696E66006F76660025000D0A0B
:0210E40000000A
:107E0000112484B714BE81FFF0D085E080938100F7
:107E100082E08093C00088E18093C10086E0809377
:107E2000C20080E18093C4008EE0C9D0259A86E02C
:107E300020E33CEF91E0309385002093840096BBD3
:107E4000B09BFECF1D9AA8958150A9F7CC24DD24C4
:107E500088248394B5E0AB2EA1E19A2EF3E0BF2EE7
:107E6000A2D0813461F49FD0082FAFD0023811F036
:107E7000013811F484E001C083E08DD089C08234E0
:107E800011F484E103C0853419F485E0A6D080C0E4
:107E9000853579F488D0E82EFF2485D0082F10E0AE
:107EA000102F00270E291F29000F111F8ED06801E7
:107EB0006FC0863521F484E090D080E0DECF843638
:107EC00009F040C070D06FD0082F6DD080E0C81688
:107ED00080E7D80618F4F601B7BEE895C0E0D1E017
:107EE00062D089930C17E1F7F0E0CF16F0E7DF06D8
:107EF00018F0F601B7BEE89568D007B600FCFDCFD4
:107F0000A601A0E0B1E02C9130E011968C91119780
:107F100090E0982F8827822B932B1296FA010C0160
:107F200087BEE89511244E5F5F4FF1E0A038BF0790
:107F300051F7F601A7BEE89507B600FCFDCF97BE46
:107F4000E89526C08437B1F42ED02DD0F82E2BD052
:107F50003CD0F601EF2C8F010F5F1F4F84911BD097
:107F6000EA94F801C1F70894C11CD11CFA94CF0C13
:107F7000D11C0EC0853739F428D08EE10CD085E9AC
:107F80000AD08FE07ACF813511F488E018D01DD067
:107F900080E101D065CF982F8091C00085FFFCCF94
:107FA0009093C60008958091C00087FFFCCF809118
:107FB000C00084FD01C0A8958091C6000895E0E648
:107FC000F0E098E1908380830895EDDF803219F02E
:107FD00088E0F5DFFFCF84E1DECF1F93182FE3DFCA
:107FE0001150E9F7F2DF1F91089580E0E8DFEE27F6
:047FF000FF270994CA
:027FFE00040479
:0400000300007E007B
:00000001FF
