:100000000C9468000C9490000C9490000C94900058
:100010000C9490000C9490000C9490000C94900020
:100020000C9490000C9490000C9490000C94900010
:100030000C9490000C9490000C9490000C94900000
:100040000C942E090C9490000C94FC080C94D60887
:100050000C9490000C9490000C9490000C949000E0
:100060000C9490000C9490000000000025002800E3
:100070002B0000000000240027002A0004040404D0
:100080000404040402020202020203030303030342
:10009000010204081020408001020408102001021F
:1000A00004081020467261676D656E746174696F33
:1000B0006E206C6576656C3A20005779637A7973A7
:1000C0007A637A6F6E6F206C6973746521007809AA
:1000D00011241FBECFEFD8E0DEBFCDBF11E0A0E0FE
:1000E000B1E0EEE6FEE102C005900D92A43CB1073E
:1000F000D9F722E0A4ECB1E001C01D92AE36B20700
:10010000E1F710E0C8E6D0E004C02197FE010E94AC
:100110002F0FC736D107C9F70E94A5090C94350FD8
:100120000C940000AF92BF92CF92DF92EF92FF92B9
:100130000F931F93CF93DF936C017B018B01040F0F
:10014000151FEB015E01AE18BF08C017D10759F0AB
:100150006991D601ED91FC910190F081E02DC601ED
:100160000995892B79F7C501DF91CF911F910F91E7
:10017000FF90EF90DF90CF90BF90AF900895FC017B
:10018000538D448D252F30E0842F90E0821B930BFC
:10019000541710F0CF96089501970895FC01918DA2
:1001A000828D981761F0A28DAE0FBF2FB11D5D96A5
:1001B0008C91928D9F5F9F73928F90E008958FEF47
:1001C0009FEF0895FC01918D828D981731F0828DFB
:1001D000E80FF11D858D90E008958FEF9FEF089552
:1001E000FC01918D228D892F90E0805C9F4F821BB6
:1001F00091098F7399270895FC01A48DA80FB92F39
:10020000B11DA35ABF4F2C91848D90E001968F733E
:100210009927848FA689B7892C93A089B1898C915D
:10022000837080648C93938D848D981306C00288AC
:10023000F389E02D80818F7D80830895EF92FF9276
:100240000F931F93CF93DF93EC0181E0888F9B8DF9
:100250008C8D98131AC0E889F989808185FF15C0B3
:100260009FB7F894EE89FF896083E889F9898081D6
:100270008370806480839FBF81E090E0DF91CF91A5
:100280001F910F91FF90EF900895F62E0B8D10E0C7
:100290000F5F1F4F0F731127E02E8C8D8E110CC036
:1002A0000FB607FCFACFE889F989808185FFF5CF81
:1002B000CE010E94FC00F1CFEB8DEC0FFD2FF11D64
:1002C000E35AFF4FF0829FB7F8940B8FEA89FB89BE
:1002D00080818062CFCF0F931F93CF93DF938C01E8
:1002E000D0E0C0E0F801EC0FFD1F6491662341F0FF
:1002F0008DEC91E00E941E01892B11F02196F2CF26
:10030000CE01DF91CF911F910F910895CF93DF938D
:10031000EC01888D8823B9F0AA89BB89E889F9891D
:100320008C9185FD03C0808186FD0DC00FB607FC52
:10033000F7CF8C9185FFF2CF808185FFEDCFCE0185
:100340000E94FC00E9CFDF91CF9108953FB7F89468
:100350008091C9019091CA01A091CB01B091CC01CB
:1003600026B5A89B05C02F3F19F00196A11DB11D10
:100370003FBFBA2FA92F982F8827BC01CD01620F4C
:10038000711D811D911D42E0660F771F881F991F07
:100390004A95D1F708950F931F93660F771FFC01BD
:1003A000E60FF71F220F331FDA01A20FB31F90E0F1
:1003B00080E08017910734F4219131912D933D9382
:1003C0000196F7CF1F910F91089590E080E0089576
:1003D000DC0114962D913C911597621773074CF42C
:1003E000ED91FC91028CF38DE02D0995BC0181E02B
:1003F000089560E070E080E0089508970C94E801AB
:10040000DC01ED91FC910190F081E02D09940897B9
:100410000C940002FC0186819781880F991F089532
:10042000FC01848195810895CF92DF92EF92FF9233
:100430000F931F93CF93DF936C01EB01DC01ED91E0
:10044000FC910190F081E02D09957C01F601048179
:1004500015810150110915830483828193810C1B3E
:100460001D0BBE016F5F7F4F9E01AC010E94CB014F
:10047000C701DF91CF911F910F91FF90EF90DF9017
:10048000CF900895DC0114962D913C911597621739
:1004900073074CF4ED91FC910088F189E02D0995EA
:1004A000BC0181E0089560E070E080E00895CF92A3
:1004B000DF92EF92FF920F931F93CF93DF937C0114
:1004C0008B01D0E0C0E0D801ED91FC910488F58962
:1004D000E02DC8010995C817D907A4F4D701ED91FB
:1004E000FC91C680D780D801ED91FC910190F081FC
:1004F000E02DBE01C8010995BC01C701F6010995AF
:100500002196E1CFDF91CF911F910F91FF90EF9056
:10051000DF90CF900895FC012481358112161306D7
:100520007CF42150310935832483220F331F02804C
:10053000F381E02DE20FF31F6081718181E0089566
:1005400060E070E080E00895FC012481358162174D
:1005500073075CF4660F771F82819381680F791FA0
:10056000FB015183408380E0089581E00895660F88
:10057000771FDC011296ED91FC91E60FF71F808149
:1005800091810895CF93DF93EC01DB01ED91FC9114
:100590000190F081E02D0995CE01DF91CF91089572
:1005A000CF93DF93EC01685071090E94C202CE0123
:1005B000DF91CF910895FC0186819781880F991F63
:1005C000880F991F0895440F551F440F551FDB01D5
:1005D0001296ED91FC91E40FF51F20813181DC0131
:1005E00011963C932E930280F381E02D1396FC9399
:1005F000EE931297208131812F5F3F4F318320830B
:100600000895FC0101900020E9F73197AF01481BE4
:10061000590BBC018DEC91E00C9492008F929F924B
:10062000AF92BF920F931F93CF93DF93CDB7DEB7F7
:10063000A1970FB6F894DEBF0FBECDBF19A242300E
:1006400008F44AE08E010F5D1F4F842E912CB12CCF
:10065000A12CA50194010E940D0FE62FB901CA013A
:10066000EA30F4F4E05DD801EE938D01232B242BC6
:10067000252B79F790E080E0109719F0CD010E94CA
:100680000103A1960FB6F894DEBF0FBECDBFDF9178
:10069000CF911F910F91BF90AF909F908F90089531
:1006A000E95CE1CF4F925F926F927F928F929F921F
:1006B000AF92BF92CF92DF92EF92FF920F931F9370
:1006C000CF936B017C01742EAC019B010E94080F3B
:1006D000882399F088EA91E0CF911F910F91FF90C4
:1006E000EF90DF90CF90BF90AF909F908F907F90D2
:1006F0006F905F904F900C94010346015701E8946E
:10070000B7F82FEF3FEF4FE75FE7C501B4010E9455
:10071000080F81110DC02FEF3FEF4FE75FE7C501D5
:10072000B4010E943E0D18161CF48CEA91E0D4CF5F
:100730002FEF3FEF4FE75FE4C701B6010E94960E2F
:1007400018161CF480EB91E0C7CF2FEF3FEF4FE777
:100750005FECC701B6010E943E0D87FDF3CF20E09C
:1007600030E0A901C701B6010E943E0D10E000E093
:1007700087FF0AC06DE28DEC91E00E941E018C01A2
:10078000F7FAF094F7F8F094C0E060E070E080E0F1
:100790009FE37C1641F020E030E040E251E40E940B
:1007A000430DCF5FF6CFA70196010E94D20C2B011B
:1007B0003C010E94B50D4B015C014AE00E940E0312
:1007C0007C01E00EF11ECC23C1F1C501B4010E94F1
:1007D000E40D9B01AC01C301B2010E94D10C4B019D
:1007E0005C016EE28DEC91E00E941E01E80EF91EA4
:1007F000C15018F120E030E040E251E4C501B401FD
:100800000E949B0E2B013C010E94B50D4B01B12CA7
:10081000A12C4AE0C501B4010E940E03E80EF91EA6
:10082000C501B4010E94E40D9B01AC01C301B201FA
:100830000E94D10C4B015C01DBCFC701CF911F910E
:100840000F91FF90EF90DF90CF90BF90AF909F906F
:100850008F907F906F905F904F900895EF92FF92EE
:100860000F931F93CF93DF937B018A01E9018AE005
:1008700090E00E94AC0BFC01F382E28215830483BA
:10088000D783C68380E791E09183808382E991E0FA
:1008900091878087CF01DF91CF911F910F91FF90BA
:1008A000EF9008956F927F928F929F92AF92BF9236
:1008B000CF92DF92EF92FF920F931F93CF93DF932C
:1008C0006C013B014A01E901C41BD50B7E0185E0A7
:1008D000E80EF11CC701880F991FE114A0E4FA0685
:1008E00010F08FEF9FEF0E94AC0B5C018E0130E0A7
:1008F00020E0AC01B401F301828193810E94CB011D
:10090000D301ED91FC91008CF18DE02D9701AE01AA
:10091000B501C3010995F60191838083C601DF917A
:10092000CF911F910F91FF90EF90DF90CF90BF90EC
:10093000AF909F908F907F906F900895EF92FF926D
:100940000F931F93CF93DF937B018A01E9018AE024
:1009500090E00E94AC0BFC01F382E28215830483D9
:10096000D783C68386E491E09183808388E691E013
:1009700091878087CF01DF91CF911F910F91FF90D9
:10098000EF900895CF93DF93DC011296ED91FC91E7
:10099000208131812150310931832083232B59F467
:1009A000EC01888199810E94480C8A819B81DF91AA
:1009B000CF910C94480CDF91CF910895CF92DF92A4
:1009C000EF92FF920F931F93CF93DF93660F771FE2
:1009D000660F771FEC01C60FD71F220F331F220FA0
:1009E000331F7A01E20EF31ED12CC12CC016D106A2
:1009F000FCF4CE15DF05A1F0C7010E94C204888176
:100A00009981D70111969C938E93EA81FB8113966D
:100A1000FC93EE931297808191810196918380835C
:100A2000BFEFCB1ADB0A2496E4E0EE0EF11CDECF1A
:100A3000DF91CF911F910F91FF90EF90DF90CF90BA
:100A400008956F927F928F929F92AF92BF92CF92B2
:100A5000DF92EF92FF920F931F93CF93DF935C018E
:100A60003B014A01E901C41BD50B6E0185E0C80EAC
:100A7000D11C8FEF9FEFC114A0E2DA0630F4C6015B
:100A8000880F991F880F991F02960E94AC0BFC01DA
:100A9000C192D1927F01CE01049697FD07C01182C9
:100AA00010821382128234960197F7CF8E0130E0C4
:100AB00020E0A701B401D30112968D919C910E9470
:100AC000DE04D301ED91FC91008CF18DE02D9601B7
:100AD000AE01B701C3010995F50191838083C5017A
:100AE000DF91CF911F910F91FF90EF90DF90CF900A
:100AF000BF90AF909F908F907F906F900895CF920E
:100B0000DF92EF92FF920F931F93CF93DF937C01BD
:100B10006B01EA01DB01ED91FC910190F081E02D88
:100B20000995F6010481158101501109158304838B
:100B3000828193810C1B1D0BBE016F5F7F4F9E0155
:100B4000AC010E94DE04C701DF91CF911F910F918C
:100B5000FF90EF90DF90CF9008950F931F93CF9366
:100B6000DF9300D000D0CDB7DEB78C01DB01149647
:100B70008D919C9115974817590754F5ED91FC916B
:100B8000028CF38DE02DCE010196099589819A8121
:100B9000F80191838083EB81FC81D8011396FC934B
:100BA000EE9312978081918101969183808381E0F9
:100BB00014968C93CE0101960E94C204C8010F9036
:100BC0000F900F900F90DF91CF911F910F9108958B
:100BD000F80111821082138212821482EFCFCF9318
:100BE000DF93EC01685071090E94AD05CE01DF91E1
:100BF000CF9108950F931F93CF93DF93CDB7DEB7B7
:100C000028970FB6F894DEBF0FBECDBF8C01DB0175
:100C100014968D919C91159748175907A4F5ED915D
:100C2000FC910088F189E02DCE010196099529817A
:100C30003A813E832D83EB81FC81F887EF838081AD
:100C40009181D80111963C932E931396FC93EE93C9
:100C5000129702969183808381E014968C93CE0143
:100C600005960E94C204CE0101960E94C204C801EA
:100C700028960FB6F894DEBF0FBECDBFDF91CF919F
:100C80001F910F910895F801118210821382128230
:100C90001482EDCFAF92BF92CF92DF92EF92FF928C
:100CA0000F931F93CF93DF9300D000D0CDB7DEB763
:100CB0006C017B0110E000E0D701ED91FC9104880C
:100CC000F589E02DC701099508171907ECF4D6013D
:100CD000ED91FC91A680B780D701ED91FC91019038
:100CE000F081E02DA801B701CE0101960995BE0162
:100CF0006F5F7F4FC601F5010995CE0101960E94F5
:100D0000C2040F5F1F4FD8CF0F900F900F900F901E
:100D1000DF91CF911F910F91FF90EF90DF90CF90D7
:100D2000BF90AF9008950F931F93CF93DF9300D0A0
:100D300000D0CDB7DEB78C01FB01848195811816F8
:100D400019069CF5019795838483880F991F880F56
:100D5000991F0280F381E02DE80FF91F2081318176
:100D60003A8329830280F381E02DFC83EB83808129
:100D70009181D80111963C932E931396FC93EE9398
:100D8000129702969183808381E014968C93CE0112
:100D900001960E94C204C8010F900F900F900F900F
:100DA000DF91CF911F910F910895F8011182108268
:100DB000138212821482EFCF0F931F93CF93DF938E
:100DC000DC0114962D913C91159781E06217730711
:100DD00004F5660F771F660F771F1296CD91DC9191
:100DE000C60FD71FC417D50799F08A01CE010E94FC
:100DF000C204F80180819181998388830280F38104
:100E0000E02DFB83EA838081918101969183808329
:100E100080E0DF91CF911F910F910895AF92BF9223
:100E2000CF92DF92EF92FF920F931F93CF93DF93B6
:100E3000EC010C811D81CE80DF800C151D0509F0B1
:100E400050C0580185E0A80EB11CBF82AE828FEF62
:100E50009FEFA114E0E2BE0630F4C501880F991F90
:100E6000880F991F02960E94AC0BFC01A192B192CF
:100E70007F01F4E0CF0ED11CF701D7FC09C011822D
:100E8000108213821282349681E0C81AD108F5CFFD
:100E900030E020E0A70170E060E08A819B810E9441
:100EA000DE040A811B8101151105C9F0F801329792
:100EB00080819181880F991F880F991F080F191F32
:100EC00098018A819B81045011098217930721F0B0
:100ED000C8010E94C204F4CF02970E94480CFB8212
:100EE000EA82DF91CF911F910F91FF90EF90DF90F9
:100EF000CF90BF90AF900895EF92FF920F931F9302
:100F0000CF93DF93EC017B018C819D8101969D83C2
:100F10008C83CE010E940E078A819B810C811D81EA
:100F20000E191F090250110997012F5F3F4FAC01A5
:100F3000B7010E94DE04DF91CF911F910F91FF90C6
:100F4000EF900895EF92FF920F931F93CF93DF934B
:100F50007C018B01DC0114968D919C911597019673
:100F600015969C938E931497C7010E940E07F70164
:100F7000C481D581C150D04CCE01880F991F880FF4
:100F8000991FC281D381C80FD91FC017D10799F00B
:100F9000CE010E94C204D8018D919C911197998332
:100FA00088831296ED91FC91FB83EA838081918185
:100FB000019691838083DF91CF911F910F91FF90D4
:100FC000EF900895EF92FF920F931F93CF93DF93CB
:100FD000EC010C811D818E819F8108171907F1F4A6
:100FE000C80105969F838E83811520E49207E8F45B
:100FF000880F991F0E94AC0B7C0130E020E0AC010F
:1010000070E060E08A819B810E94CB018A819B8194
:10101000009711F00E94480CFB82EA82DF91CF9189
:101020001F910F91FF90EF9008958FEF9FEFE2CF08
:10103000EF92FF920F931F93CF93DF93EC017B010D
:101040008C819D8101969D838C83CE010E94E20755
:101050008A819B810C811D810E191F090250110983
:1010600097012F5F3F4FAC01B7010E94CB01DF9189
:10107000CF911F910F91FF90EF9008950F931F93C1
:10108000CF93DF93EC018B018C819D8101969D8331
:101090008C83CE010E94E2078C819D818150904813
:1010A000880F991F2A813B81820F931FFC011183B6
:1010B0000083DF91CF911F910F9108950F931F939C
:1010C000CF93DF9328E231E0FC0131832083C2819A
:1010D000D3812097F1F08C01FE013297208131817C
:1010E000220F331F220F331FC20FD31F9E01F8019F
:1010F0008281938124978217930721F0CE010E9469
:10110000C204F4CF0297DF91CF911F910F910C94FD
:10111000480CDF91CF911F910F910895CF93DF93EA
:10112000EC010E945E088AE290E00E94AC0BDC01B8
:101130002AE030E02D933D93FD018A9611821082C2
:10114000138212823496E817F907C1F7BB83AA838A
:101150001D821C828AE090E09F838E83DF91CF9175
:101160000895CF93DF93EC018AE091E0998388831F
:101170008A819B81009711F00E94480C84E190E0E5
:101180000E94AC0B9C012C5E3F4FFC01119211920E
:10119000E217F307D9F79B838A831D821C828AE0BA
:1011A00090E09F838E83DF91CF9108951F920F92DD
:1011B0000FB60F9211242F933F934F935F936F932A
:1011C0007F938F939F93AF93BF93EF93FF938DEC98
:1011D00091E00E94FC00FF91EF91BF91AF919F9130
:1011E0008F917F916F915F914F913F912F910F90D0
:1011F0000FBE0F901F9018951F920F920FB60F926F
:1012000011242F938F939F93EF93FF93E091DD0130
:10121000F091DE018081E091E301F091E40182FD33
:101220001BC090818091E6018F5F8F732091E70151
:10123000821741F0E091E601F0E0E353FE4F958F15
:101240008093E601FF91EF919F918F912F910F90E5
:101250000FBE0F901F9018958081F4CF1F920F92B0
:101260000FB60F9211242F933F938F939F93AF93B9
:10127000BF938091C5019091C601A091C701B09123
:10128000C8013091C40123E0230F2D3758F5019692
:10129000A11DB11D2093C4018093C5019093C60187
:1012A000A093C701B093C8018091C9019091CA0170
:1012B000A091CB01B091CC010196A11DB11D8093ED
:1012C000C9019093CA01A093CB01B093CC01BF9107
:1012D000AF919F918F913F912F910F900FBE0F90E3
:1012E0001F90189526E8230F0296A11DB11DD2CF9D
:1012F000EDECF1E01382128288EE93E0A0E0B0E022
:1013000084839583A683B7838AE991E09183808360
:1013100085EC90E09587848784EC90E097878687BA
:1013200080EC90E0918B808B81EC90E0938B828BB2
:1013300082EC90E0958B848B86EC90E0978B868B8B
:10134000118E128E138E148E0895CF93DF93CDB726
:10135000DEB768970FB6F894DEBF0FBECDBF7894A6
:1013600084B5826084BD84B5816084BD85B58260AA
:1013700085BD85B5816085BD80916E00816080935B
:101380006E001092810080918100826080938100C4
:1013900080918100816080938100809180008160D4
:1013A000809380008091B10084608093B10080912F
:1013B000B00081608093B00080917A008460809357
:1013C0007A0080917A00826080937A0080917A001E
:1013D000816080937A0080917A00806880937A009F
:1013E0001092C100E091DD01F091DE0182E0808386
:1013F000E091D901F091DA011082E091DB01F091E6
:10140000DC018FEC80831092E501E091E101F09125
:10141000E20186E08083E091DF01F091E0018081CC
:1014200080618083E091DF01F091E001808188603C
:101430008083E091DF01F091E0018081806880830A
:10144000E091DF01F091E00180818F7D8083EDE903
:10145000F0E02491E9E8F0E08491882399F090E0AD
:10146000880F991FFC01EE58FF4FA591B491FC0124
:10147000E859FF4F859194918FB7F894EC91E22B46
:10148000EC938FBF188A1F8684E190E00E94AC0B1A
:101490009C012C5E3F4FFC0111921192E217F30761
:1014A000D9F79E878D878AE090E09A8B898B80E7B9
:1014B00091E09C878B8782E991E09C8B8B8B44E148
:1014C000842E912CA12CB12C8E010F5F1F4F52E066
:1014D000252E312C0E94A6012B013C0138EEC32E93
:1014E00033E0D32EE12CF12C0E94A601641975097A
:1014F00086099709683E734081059105A8F321E0AC
:10150000C21AD108E108F10838EE430E33E0531E49
:10151000611C711CC114D104E104F10429F7C090CD
:101520006A02D0906B02B8016C197D09C114D10414
:1015300039F48091020190910301B801681B790B85
:10154000E0906C02F0906D02F701309759F08081C5
:10155000918102966817790708F4BC010280F38133
:10156000E02DF3CF90E080E00E94E40D20E030E039
:1015700048EC52E40E949B0E2B013C01C114D104A3
:1015800081F098012C193D096901E114F10489F0F9
:10159000F701808191810296C80ED91EE280F38006
:1015A000F4CF80910201909103016801C81AD90A11
:1015B000ECCF84EA90E00E946B01B60190E080E0FD
:1015C0000E94E40D9B01AC01C301B2010E94430DD6
:1015D0009B01AC0160E070E088EC92E40E94D10CC9
:1015E00042E00E94520384EB91E00E94010386EBEB
:1015F00091E00E9401036AE070E0CE010B960E9428
:101600003E08C40144978536910560F0CE010B96E3
:101610000E94B1088AEB90E00E946B0186EB91E09A
:101620000E94010342E060E070E080E591E40E94E6
:10163000520386EB91E00E94010342E060E070E01B
:1016400080E591E40E94520386EB91E00E94010341
:101650004AE0C501B4010E940E0386EB91E00E94AE
:10166000010389EB91E00E94010386EB91E00E9467
:1016700001038EEB91E00E9401038AE090E00E945A
:10168000AC0B7C01FC013182208286E090E00E945C
:10169000AC0B412C512C20E5622E21E4722EFC0172
:1016A000408251826282738224E630E03583248353
:1016B000F7019383828382E090E00E94AC0BF701F4
:1016C0009583848321E030E0FC013183208386E030
:1016D00090E00E94AC0B6C01FC014082518262825E
:1016E000738224E630E035832483F7019783868371
:1016F00082E090E00E94AC0BF70191878087F2E0D6
:10170000EF0EF11CFC82EB823E822D8238862F8206
:1017100026E431E03A832983E8E6F1E0FA87E987B5
:10172000DE8ACD8A988F8F8BFC0131822082CE0198
:1017300045960E94C20426E431E03A83298388E674
:1017400091E09A878987C8010E945E0894E1890E1A
:10175000911CA11CB11CBECE0F931F93CF93DF939E
:101760008230910510F482E090E0E0916C02F091FB
:101770006D0230E020E0B0E0A0E0309799F4211550
:10178000310509F44AC0281B390B24303105D8F53E
:101790008A819B816115710589F1FB0193838283A5
:1017A000FE0111C040815181028113814817590700
:1017B000E0F04817590799F4109761F012960C93CE
:1017C000129713961C933296CF01DF91CF911F9100
:1017D0000F91089500936C0210936D02F4CF2115C0
:1017E000310551F04217530738F0A901DB019A0186
:1017F000BD01DF01F801C1CFEF01F9CF90936D0278
:1018000080936C02CDCFFE01E20FF31F8193919381
:101810002250310939832883D7CF20916A02309131
:101820006B02232B41F4209102013091030130938C
:101830006B0220936A022091000130910101211571
:10184000310541F42DB73EB7409104015091050197
:10185000241B350BE0916A02F0916B02E217F3074B
:10186000A0F42E1B3F0B2817390778F0AC014E5F10
:101870005F4F2417350748F04E0F5F1F50936B02E0
:1018800040936A02819391939FCFF0E0E0E09CCF78
:10189000CF93DF930097E9F0FC0132971382128215
:1018A000A0916C02B0916D02ED0130E020E0109744
:1018B000A1F420813181820F931F20916A0230911F
:1018C0006B022817390709F061C0F0936B02E093AF
:1018D0006A02DF91CF910895EA01CE17DF07E8F59C
:1018E0004A815B819E0141155105B1F7E901FB83F6
:1018F000EA8349915991C40FD51FEC17FD0761F494
:10190000808191810296840F951FE90199838883D4
:10191000828193819B838A83F0E0E0E012968D912F
:101920009C9113970097B9F52D913C911197CD019A
:101930000296820F931F20916A0230916B02281742
:10194000390739F6309751F510926D0210926C02FA
:10195000B0936B02A0936A02BCCFD383C283408151
:101960005181840F951FC817D90761F44E5F5F4FEF
:1019700088819981480F591F518340838A819B81B7
:10198000938382832115310509F0B0CFF0936D0266
:10199000E0936C029ECFFD01DC01C0CF1382128266
:1019A000D7CF5058BB27AA270E94E90C0C945C0E95
:1019B0000E944E0E38F00E94550E20F039F49F3FE1
:1019C00019F426F40C944B0E0EF4E095E7FB0C94FE
:1019D000450EE92F0E946D0E58F3BA176207730780
:1019E0008407950720F079F4A6F50C948F0E0EF479
:1019F000E0950B2EBA2FA02D0B01B90190010C011F
:101A0000CA01A0011124FF27591B99F0593F50F436
:101A1000503E68F11A16F040A22F232F342F44278E
:101A2000585FF3CF469537952795A795F040539586
:101A3000C9F77EF41F16BA0B620B730B840BBAF056
:101A40009150A1F0FF0FBB1F661F771F881FC2F7C1
:101A50000EC0BA0F621F731F841F48F487957795D5
:101A60006795B795F7959E3F08F0B0CF9395880F8F
:101A700008F09927EE0F9795879508950E94210EFB
:101A800008F481E008950E94570D0C945C0E0E94AA
:101A9000550E58F00E944E0E40F029F45F3F29F099
:101AA0000C94450E51110C94900E0C944B0E0E9408
:101AB0006D0E68F39923B1F3552391F3951B550BE4
:101AC000BB27AA2762177307840738F09F5F5F4F11
:101AD000220F331F441FAA1FA9F335D00E2E3AF050
:101AE000E0E832D091505040E695001CCAF72BD068
:101AF000FE2F29D0660F771F881FBB1F26173707B9
:101B00004807AB07B0E809F0BB0B802DBF01FF27EA
:101B100093585F4F3AF09E3F510578F00C94450E74
:101B20000C94900E5F3FE4F3983ED4F3869577953E
:101B30006795B795F7959F5FC9F7880F911D9695A3
:101B4000879597F90895E1E0660F771F881FBB1FFF
:101B5000621773078407BA0720F0621B730B840BAC
:101B6000BA0BEE1F88F7E09508950E94750E88F075
:101B70009F5798F0B92F9927B751B0F0E1F0660F51
:101B8000771F881F991F1AF0BA95C9F714C0B13092
:101B900091F00E948F0EB1E008950C948F0E672F84
:101BA000782F8827B85F39F0B93FCCF386957795C1
:101BB0006795B395D9F73EF49095809570956195AA
:101BC0007F4F8F4F9F4F0895E89409C097FB3EF4D5
:101BD00090958095709561957F4F8F4F9F4F99237A
:101BE000A9F0F92F96E9BB279395F69587957795F8
:101BF0006795B795F111F8CFFAF4BB0F11F460FFB8
:101C00001BC06F5F7F4F8F4F9F4F16C0882311F00F
:101C100096E911C0772321F09EE8872F762F05C023
:101C2000662371F096E8862F70E060E02AF09A95BE
:101C3000660F771F881FDAF7880F9695879597F9B3
:101C40000895990F0008550FAA0BE0E8FEEF16164D
:101C50001706E807F907C0F012161306E407F507A0
:101C600098F0621B730B840B950B39F40A2661F014
:101C7000232B242B252B21F408950A2609F4A140B7
:101C8000A6958FEF811D811D089597F99F6780E8C4
:101C900070E060E008959FEF80EC089500240A94BE
:101CA0001616170618060906089500240A94121637
:101CB0001306140605060895092E0394000C11F46A
:101CC000882352F0BB0F40F4BF2B11F460FF04C017
:101CD0006F5F7F4F8F4F9F4F089557FD9058440F70
:101CE000551F59F05F3F71F04795880F97FB991F7B
:101CF00061F09F3F79F08795089512161306140638
:101D0000551FF2CF4695F1DF08C0161617061806C4
:101D1000991FF1CF86957105610508940895E8949F
:101D2000BB2766277727CB0197F908950E94210EDC
:101D300008F48FEF08950E94AE0E0C945C0E0E9482
:101D40004E0E38F00E94550E20F0952311F00C94A1
:101D5000450E0C944B0E11240C94900E0E946D0EA7
:101D600070F3959FC1F3950F50E0551F629FF001EE
:101D7000729FBB27F00DB11D639FAA27F00DB11D07
:101D8000AA1F649F6627B00DA11D661F829F222790
:101D9000B00DA11D621F739FB00DA11D621F839F17
:101DA000A00D611D221F749F3327A00D611D231FED
:101DB000849F600D211D822F762F6A2F11249F573B
:101DC00050409AF0F1F088234AF0EE0FFF1FBB1F3E
:101DD000661F771F881F91505040A9F79E3F5105FD
:101DE00080F00C94450E0C94900E5F3FE4F3983E07
:101DF000D4F3869577956795B795F795E7959F5FA7
:101E0000C1F7FE2B880F911D9695879597F9089538
:101E10000E94210E880B990B0895A1E21A2EAA1B8D
:101E2000BB1BFD010DC0AA1FBB1FEE1FFF1FA2178A
:101E3000B307E407F50720F0A21BB30BE40BF50B87
:101E4000661F771F881F991F1A9469F76095709510
:101E5000809590959B01AC01BD01CF010895EE0FD7
:0E1E6000FF1F0590F491E02D0994F894FFCF38
:101E6E0000006E02800000000000B702A4028B0288
:101E7E003E0818085702B10842021402520410021A
:101E8E000A02E50100000000E302DC069306A20749
:101E9E007C074A068E08FA057F0521051002DB0233
:101EAE00E50100000000E302DC069306A2077C07B2
:101EBE004A068E08FA057F0521051002DB029E04F4
:101ECE00C202AD05F8FF0000D002EF0500000000D1
:101EDE00B702A4028B023E0818085702B10842024C
:101EEE001402520410020A022E040002E801F8FF46
:101EFE0000000702FD01000000001E019200BF005D
:101F0E008601F000CE00E2006E616E00696E660022
:101F1E006F76660025000D0A0073656573004845EF
:041F2E0048454800DA
:107E0000112484B714BE81FFF0D085E080938100F7
:107E100082E08093C00088E18093C10086E0809377
:107E2000C20080E18093C4008EE0C9D0259A86E02C
:107E300020E33CEF91E0309385002093840096BBD3
:107E4000B09BFECF1D9AA8958150A9F7CC24DD24C4
:107E500088248394B5E0AB2EA1E19A2EF3E0BF2EE7
:107E6000A2D0813461F49FD0082FAFD0023811F036
:107E7000013811F484E001C083E08DD089C08234E0
:107E800011F484E103C0853419F485E0A6D080C0E4
:107E9000853579F488D0E82EFF2485D0082F10E0AE
:107EA000102F00270E291F29000F111F8ED06801E7
:107EB0006FC0863521F484E090D080E0DECF843638
:107EC00009F040C070D06FD0082F6DD080E0C81688
:107ED00080E7D80618F4F601B7BEE895C0E0D1E017
:107EE00062D089930C17E1F7F0E0CF16F0E7DF06D8
:107EF00018F0F601B7BEE89568D007B600FCFDCFD4
:107F0000A601A0E0B1E02C9130E011968C91119780
:107F100090E0982F8827822B932B1296FA010C0160
:107F200087BEE89511244E5F5F4FF1E0A038BF0790
:107F300051F7F601A7BEE89507B600FCFDCF97BE46
:107F4000E89526C08437B1F42ED02DD0F82E2BD052
:107F50003CD0F601EF2C8F010F5F1F4F84911BD097
:107F6000EA94F801C1F70894C11CD11CFA94CF0C13
:107F7000D11C0EC0853739F428D08EE10CD085E9AC
:107F80000AD08FE07ACF813511F488E018D01DD067
:107F900080E101D065CF982F8091C00085FFFCCF94
:107FA0009093C60008958091C00087FFFCCF809118
:107FB000C00084FD01C0A8958091C6000895E0E648
:107FC000F0E098E1908380830895EDDF803219F02E
:107FD00088E0F5DFFFCF84E1DECF1F93182FE3DFCA
:107FE0001150E9F7F2DF1F91089580E0E8DFEE27F6
:047FF000FF270994CA
:027FFE00040479
:0400000300007E007B
:00000001FF
