:100000000C9469000C9491000C9491000C94910054
:100010000C9491000C9491000C9491000C9491001C
:100020000C9491000C9491000C9491000C9491000C
:100030000C9491000C9491000C9491000C949100FC
:100040000C940B1C0C9491000C94D91B0C94B31BB6
:100050000C9491000C9491000C9491000C949100DC
:100060000C9491000C949100467261676D656E74FA
:100070006174696F6E206C6576656C3A20000000D3
:100080000000240027002A000000000025002800AE
:100090002B00040404040404040402020202020209
:1000A000030303030303010204081020408001023C
:1000B00004081020010204081020000000080002BB
:1000C0000100000304070000000000000000551CB0
:1000D0002A2511241FBECFEFD8E0DEBFCDBF12E02E
:1000E000A0E0B1E0E8EBF3E502C005900D92A03E80
:1000F000B107D9F724E0A0EEB2E001C01D92A3370A
:10010000B207E1F710E0C8E6D0E004C02197FE0195
:100110000E94AE29C736D107C9F70E94081D0C946A
:10012000CF290C9400008CBD9DBD089520E3FC01F7
:1001300020833296862F82958F706F706A3030F4EC
:10014000605D6293682F8111F5CF0895695CF9CFE6
:10015000FC01818D928D08950895AF92BF92CF9248
:10016000DF92EF92FF920F931F93CF93DF936C0177
:100170007B018B01040F151FEB015E01AE18BF0858
:10018000C017D10759F06991D601ED91FC9101900A
:10019000F081E02DC6010995892B79F7C501DF9122
:1001A000CF911F910F91FF90EF90DF90CF90BF9074
:1001B000AF900895FC01538D448D252F30E0842F9E
:1001C00090E0821B930B541710F0CF96089501977F
:1001D0000895FC01918D828D981761F0A28DAE0F6C
:1001E000BF2FB11D5D968C91928D9F5F9F73928FF3
:1001F00090E008958FEF9FEF0895FC01918D828D1F
:10020000981731F0828DE80FF11D858D90E00895EB
:100210008FEF9FEF0895FC01918D228D892F90E043
:10022000805C9F4F821B91098F7399270895FC0171
:10023000A48DA80FB92FB11DA35ABF4F2C91848D47
:1002400090E001968F739927848FA689B7892C93A4
:10025000A089B1898C91837080648C93938D848DF7
:10026000981306C00288F389E02D80818F7D8083FA
:100270000895EF92FF920F931F93CF93DF93EC01BA
:1002800081E0888F9B8D8C8D98131AC0E889F9893D
:10029000808185FF15C09FB7F894EE89FF89608340
:1002A000E889F98980818370806480839FBF81E0C1
:1002B00090E0DF91CF911F910F91FF90EF90089503
:1002C000F62E0B8D10E00F5F1F4F0F731127E02EDE
:1002D0008C8D8E110CC00FB607FCFACFE889F98916
:1002E000808185FFF5CFCE010E941701F1CFEB8D04
:1002F000EC0FFD2FF11DE35AFF4FF0829FB7F894EA
:100300000B8FEA89FB8980818062CFCFCF93DF9307
:10031000EC01888D8823B9F0AA89BB89E889F9891D
:100320008C9185FD03C0808186FD0DC00FB607FC52
:10033000F7CF8C9185FFF2CF808185FFEDCFCE0185
:100340000E941701E9CFDF91CF91089590E0FC0161
:10035000E654FF4F2491FC01EA55FF4F3491FC0114
:10036000EE56FF4FE491EE23C9F0222339F02330FB
:1003700001F1A8F4213019F1223029F1F0E0EE0F5B
:10038000FF1FE857FF4FA591B4918FB7F894EC91F8
:10039000611126C030953E233C938FBF08952730CE
:1003A000A9F02830C9F0243049F7809180008F7D72
:1003B00003C0809180008F7780938000DFCF84B569
:1003C0008F7784BDDBCF84B58F7DFBCF8091B0006C
:1003D0008F778093B000D2CF8091B0008F7DF9CF1E
:1003E0003E2BDACFCF93DF9390E0FC01EA55FF4F2D
:1003F00024918E569F4FFC0184918823D1F090E088
:10040000880F991FFC01E258FF4FA591B491FC01A0
:10041000E857FF4FC591D49161110EC09FB7F89472
:100420008C91E22FE0958E238C932881E223E88340
:100430009FBFDF91CF9108958FB7F894EC91E22B95
:10044000EC938FBFF6CF3FB7F8948091570390910C
:100450005803A0915903B0915A0326B5A89B05C033
:100460002F3F19F00196A11DB11D3FBFBA2FA92F33
:10047000982F8827BC01CD01620F711D811D911D30
:1004800042E0660F771F881F991F4A95D1F708959C
:100490008F929F92AF92BF92CF92DF92EF92FF9294
:1004A0004B015C010E9423026B017C010E9423022C
:1004B0006C197D098E099F09683E7340810591057D
:1004C000A8F321E0821A9108A108B10888EEC80EAD
:1004D00083E0D81EE11CF11C81149104A104B10435
:1004E00029F7FF90EF90DF90CF90BF90AF909F9053
:1004F0008F9008952FB7F89460915303709154032F
:1005000080915503909156032FBF0895FC012081DF
:100510002EBD9B012150310941F051810DB407FEE0
:10052000FDCF4EB55EBD4193F5CF61507109860F89
:10053000971F0DB407FEFDCF2EB5FC012083089553
:10054000E0915003F0915103808190914F03892BEA
:1005500080830895E0915003F09151039081809140
:100560004F0380958923808308958EBD00000DB4CC
:1005700007FEFDCF8EB50895AF92BF92CF92DF9266
:10058000EF92FF920F931F93CF93DF93CDB7DEB718
:1005900028970FB6F894DEBF0FBECDBF8C017B014C
:1005A0006A0180917F038333E1F45801A40EB51EE4
:1005B000A016B10609F46FC00E94AA0280EF0E9443
:1005C000B502812F0E94B502802F0E94B5020F5FF5
:1005D0001F4FF70181917F010E94B5020E94A00286
:1005E000E7CF5B01A40EB51E8433C1F40E94AA02BA
:1005F00019830A838D2D80688B83CC8264E070E040
:10060000CE0101960E948602AE14BF0409F441C0D7
:10061000F70181917F010E94B502F6CF0E94AA02E4
:100620000F3F110509F028F419820A8384E08B83B7
:100630000CC017FD17C019820A8333E01695079581
:100640003A95E1F7007E0C600B8386E0C816D10472
:10065000A0F5F701DE011496EA15FB0599F08191EA
:100660008D93FACFC80126E0969587952A95E1F7F4
:10067000807E19830A830115104C10F48461D7CF52
:100680008C61D5CFB6016D5F7F4FCE0101960E9480
:1006900086020E94A002C60128960FB6F894DEBF1B
:1006A0000FBECDBFDF91CF911F910F91FF90EF90C3
:1006B000DF90CF90BF90AF90089563E070E0CE01DF
:1006C00001960E948602F70181917F010E94B50286
:1006D000AE14BF04C1F7DDCFCF93DF931F92CDB728
:1006E000DEB7898341E050E0BE016F5F7F4F90E04D
:1006F00080E00E94BC020F90DF91CF91089590E0BE
:1007000020917F03233339F40C96982F990F990F7A
:10071000990F80E008954896F8CFDA01E0914E03F2
:10072000F0E0FE2FEE27E60FF71F90E0982F8827C6
:10073000A901BD018E0F9F1F0C94BC02CF93DF93C4
:1007400000D0CDB7DEB779836A8322E030E0AE0116
:100750004F5F5F4F60E170E00E948D030F900F903C
:10076000DF91CF910895CF93DF9300D0CDB7DEB75F
:1007700079836A8322E030E0AE014F5F5F4F64E02F
:1007800070E00E948D030F900F90DF91CF9108953C
:10079000CF93DF931F92CDB7DEB720914E0330E0A9
:1007A000322F2227260F371F90E0982F8827498362
:1007B00041E050E0BE016F5F7F4F820F931F0E94A8
:1007C000BC020F90DF91CF910895CF93DF931F92DA
:1007D000CDB7DEB76983DC01ED91FC910280F38136
:1007E000E02D41E050E0BE016F5F7F4F09950F9013
:1007F000DF91CF910895CF93DF931F92CDB7DEB7EE
:100800006983DC01ED91FC910280F381E02D41E0F0
:1008100050E0BE016F5F7F4F09950F90DF91CF9140
:100820000895FC019485FB018485981303C081E041
:10083000943008F080E00895CF93DF931F92CDB7F6
:10084000DEB76983DC01ED91FC910280F381E02D3C
:1008500041E050E0BE016F5F7F4F09950F90DF913F
:10086000CF910895FC01768765870895DC01ED91AD
:10087000FC91068CF78DE02D099591E0892708956C
:10088000862F089581E08627089521E0FC01848564
:10089000843008F020E0822F08950895FF920F938E
:1008A0001F93CF93DF93EB01FC01178A168A2A81ED
:1008B000211109C02B81211106C02C81211103C0F7
:1008C0002D81222301F141155105E9F08A01FC0136
:1008D000F08C80E591E00E949300AE014E5F5F4F87
:1008E00024E030E06CE070E08F2D0E948D03B801B1
:1008F0008F2D0E949E0381E090E0DF91CF911F91A8
:100900000F91FF90089580E0F7CFFC0184859585D5
:100910000895FC0184899589089520E232E0FC0164
:1009200031832083FB014089518962897389FC01ED
:1009300042835383648375830895DC01ED91FC91B8
:10094000048CF58DE02D09940F931F93660F771F8C
:10095000FC01E60FF71F220F331FDA01A20FB31FAE
:1009600090E080E08017910734F4219131912D932C
:100970003D930196F7CF1F910F910895DF92EF926B
:10098000FF920F931F93CF93DF93E3E0660F771FE0
:10099000EA95E1F7F3E0220F331FFA95E1F7D0E093
:1009A000C0E0F12CE12CE016F106B4F4DE01A20F58
:1009B000B31FA40FB51FFE01E60FF71FE80FF91FC5
:1009C0006894DD24D3F801900D92DA94E1F7EFEF0B
:1009D000EE1AFE0A2896E7CFDF91CF911F910F9173
:1009E000FF90EF90DF90089590E080E00895DC01A3
:1009F00014962D913C911597621773074CF4ED9165
:100A0000FC91028CF38DE02D0995BC0181E00895E5
:100A100060E070E080E0089508970C94F704DC0132
:100A2000ED91FC910190F081E02D099408970C94D0
:100A30000F05FC0186819781880F991F0895FC019D
:100A4000848195810895CF92DF92EF92FF920F9368
:100A50001F93CF93DF936C01EB01DC01ED91FC91CF
:100A60000190F081E02D09957C01F601048115814A
:100A70000150110915830483828193810C1B1D0B86
:100A8000BE016F5F7F4F9E01AC010E94A404C701AD
:100A9000DF91CF911F910F91FF90EF90DF90CF905A
:100AA0000895DC0114962D913C91159762177307F8
:100AB0004CF4ED91FC910088F189E02D0995BC0181
:100AC00081E0089560E070E080E00895CF92DF92C9
:100AD000EF92FF920F931F93CF93DF937C018B01D3
:100AE000D0E0C0E0D801ED91FC910488F589E02DBB
:100AF000C8010995C817D907A4F4D701ED91FC9155
:100B0000C680D780D801ED91FC910190F081E02D55
:100B1000BE01C8010995BC01C701F60109952196DE
:100B2000E1CFDF91CF911F910F91FF90EF90DF9078
:100B3000CF900895FC0124813581121613067CF4B0
:100B40002150310935832483220F331F0280F38122
:100B5000E02DE20FF31F6081718181E0089560E074
:100B600070E080E00895FC012481358162177307ED
:100B70005CF4660F771F82819381680F791FFB01F8
:100B80005183408380E0089581E00895660F771FC8
:100B9000DC011296ED91FC91E60FF71F80819181A7
:100BA00008950F931F93CF93DF93CDB7DEB7609770
:100BB0000FB6F894DEBF0FBECDBF8C01CB01DB01B9
:100BC00014962D913C911597421753077CF5ED91A2
:100BD000FC91028CF38DE02DBA01099529833A83AB
:100BE0004B835C836D837E838F83988788E0FE01CF
:100BF0003196DE01199601900D928A95E1F788E011
:100C0000FE013996D80101900D928A95E1F781E0B5
:100C1000F8018087C80160960FB6F894DEBF0FBE5A
:100C2000CDBFDF91CF911F910F910895D8011896F4
:100C30001C92F0CFCF93DF93EC01685071090E94B2
:100C4000D105CE01DF91CF910895CF93DF93CDB73A
:100C5000DEB728970FB6F894DEBF0FBECDBFDC011C
:100C6000ED91FC910190F081E02D28960FB6F8945B
:100C7000DEBF0FBECDBFDF91CF910994CF93DF933D
:100C8000CDB7DEB728970FB6F894DEBF0FBECDBF45
:100C9000089728960FB6F894DEBF0FBECDBFDF9140
:100CA000CF910C942506FC018681978123E0880F63
:100CB000991F2A95E1F708950F931F93CF93DF9320
:100CC000CDB7DEB760970FB6F894DEBF0FBECDBFCD
:100CD0008C01CB01DB0114962D913C9115974217A5
:100CE00053077CF5ED91FC910088F189E02DBA0164
:100CF000099529873A874B875C876D877E878F8721
:100D0000988B88E0FE013996DE01119601900D92D4
:100D10008A95E1F788E0FE013196D80101900D92A5
:100D20008A95E1F781E0F8018087C80160960FB6E7
:100D3000F894DEBF0FBECDBFDF91CF911F910F9111
:100D40000895D80118961C92F0CF8F929F92AF927F
:100D5000BF92CF92DF92EF92FF920F931F93CF93A8
:100D6000DF93CDB7DEB728970FB6F894DEBF0FBE7E
:100D7000CDBF5C016B01F12CE12CD601ED91FC9112
:100D80000488F589E02DC6010995E816F9060CF5E9
:100D9000D501ED91FC9186809780D601ED91FC9173
:100DA0000190F081E02DB701C601099529833A83AE
:100DB0004B835C836D837E838F83988789019A013F
:100DC000AB01BC01C501F4010995FFEFEF1AFF0A61
:100DD000D4CF28960FB6F894DEBF0FBECDBFDF91FB
:100DE000CF911F910F91FF90EF90DF90CF90BF9028
:100DF000AF909F908F900895CF93DF93CDB7DEB7DC
:100E000028970FB6F894DEBF0FBECDBFDB01149656
:100E1000ED91FC9115971E161F0654F53197159606
:100E2000FC93EE93149723E0EE0FFF1F2A95E1F752
:100E300012962D913C91E20FF31F28E0DE011196EE
:100E400001900D922A95E1F728E0FE013196DC0130
:100E500001900D922A95E1F721E0FC012087289668
:100E60000FB6F894DEBF0FBECDBFDF91CF910895CE
:100E7000FC011086F4CFEF92FF920F931F93CF9354
:100E8000DF93CDB7DEB728970FB6F894DEBF0FBE5D
:100E9000CDBFE982FA820B831C832D833E834F836F
:100EA0005887FC012481358181E0621773078CF437
:100EB00083E0660F771F8A95E1F7A281B381A60FC1
:100EC000B71F88E0FE01319601900D928A95E1F7F7
:100ED00080E028960FB6F894DEBF0FBECDBFDF913D
:100EE000CF911F910F91FF90EF900895CF93DF93D3
:100EF000CDB7DEB728970FB6F894DEBF0FBECDBFD3
:100F000023E0660F771F2A95E1F7DC011296ED9139
:100F1000FC91E60FF71F88E0DE01119601900D921B
:100F20008A95E1F729813A814B815C816D817E81CF
:100F30008F81988528960FB6F894DEBF0FBECDBF7F
:100F4000DF91CF910895CF92DF92EF92FF920F93AE
:100F50001F93CF93DF93CDB7DEB760970FB6F894AA
:100F6000DEBF0FBECDBF7C016B01DC01ED91FC91BA
:100F70000190F081E02D099529873A874B875C879E
:100F80006D877E878F87988BF701048115810150CB
:100F9000110915830483828193810C191D09B601FF
:100FA0006F5F7F4F9601AC010E94BE0488E0FE0196
:100FB0003996DE01119601900D928A95E1F729810B
:100FC0003A814B815C816D817E818F8198856096AD
:100FD0000FB6F894DEBF0FBECDBFDF91CF911F914A
:100FE0000F91FF90EF90DF90CF90089561E00C9407
:100FF000A60160E00C94A601089590E080E00895B9
:10100000EF92FF920F931F93CF93DF937B018A019F
:10101000E9018AE090E00E943F25FC01F382E28230
:1010200015830483D783C68384E391E0918380830F
:1010300086E591E091878087CF01DF91CF911F9165
:101040000F91FF90EF9008956F927F928F929F92F1
:10105000AF92BF92CF92DF92EF92FF920F931F93C6
:10106000CF93DF936C013B014A01E901C41BD50B0F
:101070007E0185E0E80EF11CC701880F991FE1147D
:10108000A0E4FA0610F08FEF9FEF0E943F255C016D
:101090008E0130E020E0AC01B401F3018281938144
:1010A0000E94A404D301ED91FC91008CF18DE02D00
:1010B0009701AE01B501C3010995F60191838083C3
:1010C000C601DF91CF911F910F91FF90EF90DF90BC
:1010D000CF90BF90AF909F908F907F906F9008952A
:1010E000EF92FF920F931F93CF93DF937B018A01BF
:1010F000E9018AE090E00E943F25FC01F382E28250
:1011000015830483D783C68386EE91E09183808321
:1011100088E092E091878087CF01DF91CF911F9186
:101120000F91FF90EF9008956F927F928F929F9210
:10113000AF92BF92CF92DF92EF92FF920F931F93E5
:10114000CF93DF936C013B014A01E901C41BD50B2E
:101150007E0185E0E80EF11C8FEF9FEFE114A0E126
:10116000FA0630F4C70123E0880F991F2A95E1F7AA
:101170000E943F255C018E0130E020E0AC01B4010B
:10118000F301828193810E94BE04D301ED91FC9111
:10119000008CF18DE02D9701AE01B501C3010995D9
:1011A000F60191838083C601DF91CF911F910F914A
:1011B000FF90EF90DF90CF90BF90AF909F908F9077
:1011C0007F906F900895FB0101900020E9F731971F
:1011D000AF01461B570BDC01ED91FC910280F381BE
:1011E000E02D09948F929F92AF92BF92EF92FF925F
:1011F0000F931F93CF93DF93CDB7DEB7A1970FB6B1
:10120000F894DEBF0FBECDBF7C01FA01CB0119A25D
:10121000223008F42AE08E010F5D1F4F822E912CA0
:10122000B12CA12CBF01A50194010E945E28F901F7
:10123000CA016A300CF5605DD8016E938D01232BD5
:10124000242B252B79F790E080E0109721F0BD0149
:10125000C7010E94E308A1960FB6F894DEBF0FBE47
:10126000CDBFDF91CF911F910F91FF90EF90BF9075
:10127000AF909F908F900895695CDECF8F929F9280
:10128000AF92BF92CF92DF92EF92FF920F931F9394
:10129000CF93DF937C01EB016C0182E0C80ED11C7F
:1012A0004701E5E08E0E911C10E000E0F60141914F
:1012B0006F0150E070E060E02AE0CE010E94F20889
:1012C0005C01E881F9810190F081E02D6EE2CE01B0
:1012D00009958A0D9B1D080F191FC814D90431F7F1
:1012E000F701458150E070E060E02AE0CE010E9405
:1012F000F208800F911FDF91CF911F910F91FF9006
:10130000EF90DF90CF90BF90AF909F908F90089517
:101310000F931F93CF93DF93EC010E94E3088C019E
:1013200062E272E0CE010E94E308800F911FDF911C
:10133000CF911F910F910895EF92FF920F931F93FA
:10134000CF93DF93EC017B0165E272E080E893E0EC
:101350000E94880910E000E0D70112968C91129744
:101360008017110669F064F01396ED91FC91E00F7F
:10137000F11F618180810E94A6010E5F1F4FECCF9B
:10138000F7018081888388EC89831A821C821B8202
:101390001D82CE01DF91CF911F910F91FF90EF90B1
:1013A0000895DC0180E292E08D939D9384E0FB013F
:1013B00001900D928A95E1F70895AF92BF92CF9276
:1013C000DF92EF92FF920F931F93CF93DF9300D0A2
:1013D00000D0CDB7DEB78C016B017A0180917F031D
:1013E0008333E9F45B016801C40ED51EC016D10633
:1013F000A9F10E94AA028FE00E94B502812F0E94EB
:10140000B502802F0E94B5020F5F1F4F80E00E943F
:10141000B502F50181935F010E94A002E7CF8433FA
:1014200069F50E94AA0219830A838F2D8F778B8317
:10143000EC8264E070E0CE0101960E948602A70172
:1014400070E060E0C6010E94C129E114F10421F0BE
:10145000B701C6010E9486020E94A002C7010F9038
:101460000F900F900F90DF91CF911F910F91FF90F0
:10147000EF90DF90CF90BF90AF9008950E94AA02A6
:101480000F3F110509F030F419820A831B8263E0D3
:1014900070E0D1CF17FD0BC019820A8333E0169597
:1014A00007953A95E1F7007E08600B83F0CFC801FD
:1014B00026E0969587952A95E1F7807E19830A8321
:1014C0000115104C18F480618B83E1CF8861FCCF4B
:1014D000CF93DF931F92CDB7DEB720914E0330E05C
:1014E000322F2227260F371F90E0982F882741E0C0
:1014F00050E0BE016F5F7F4F820F931F0E94DD0996
:1015000089810F90DF91CF910895CF93C82F462FF7
:1015100061E070E00E94C80361E070E08C2F0E94DF
:10152000680A8111F9CFCF910895CF93C82F80E534
:1015300091E00E94930068E070E08C2FCF910C94B2
:10154000850ACF93C82F80E591E00E94930060E167
:1015500070E08C2FCF910C94850ACF93DF93EC0130
:10156000888D843020F40E94A10A84E0888FDF9166
:10157000CF91089563E070E00C94680ACF93C82F70
:1015800080E591E00E9493008C2FCF910C94BA0AD1
:10159000EF92FF920F931F93CF937C0107E713E025
:1015A000C0E0F801219131918F01F701848195818B
:1015B0002817390729F0CF5FC43099F780E006C0BB
:1015C0008C2F0E94BE0A8431B1F781E0CF911F9128
:1015D0000F91FF90EF900895CF93DF93EC018C85EE
:1015E0008430D0F40E94BE0A843189F0882379F0D7
:1015F000883169F021E08C3159F4E881F981008467
:10160000F185E02DCE01099521E0892B09F420E038
:10161000822FDF91CF91089580E0FBCFCF92DF92B0
:10162000EF92FF92CF93DF93EC018C85843068F4C6
:101630000E94950A0E947A026B017C018C850E94AF
:10164000BE0A811109C084E08C87DF91CF91FF90A1
:10165000EF90DF90CF90089561E070E080E090E03F
:101660000E9448020E947A02AB01BC014C195D093C
:101670006E097F098D859E85B0E0A0E04817590767
:101680006A077B07D8F28C850E94A10ADCCFCF9332
:10169000FC01C08D80E591E00E94930060E270E063
:1016A0008C2F0E94850A62E070E08C2F0E94680AED
:1016B00084FD16C062E070E08C2F0E94680A83FFF0
:1016C0000AC048E162E070E08C2F0E94C80380E00D
:1016D00090E0CF91089580E591E00E949300E3CFE0
:1016E00040E162E070E08C2F0E94C80381E0F0CFFF
:1016F000CF93DF931F92CDB7DEB741E050E0BE013C
:101700006F5F7F4F90E080E00E94DD0989810F903C
:10171000DF91CF910895CF93DF93C4E1D0E00E9491
:10172000780B882361F061E070E080E090E00E9437
:1017300048022197A1F780E0DF91CF91089581E0E1
:10174000FBCF1F93CF93DF931F92CDB7DEB7182F38
:1017500080E591E00E949300812F0E947F0327E0A3
:10176000129FF0011124E55AFC4F2281338137701A
:1017700041E050E0BE016F5F7F4F820F931F0E94D8
:10178000DD0989810F90DF91CF911F910895FC01B0
:10179000808D843040F4218D328D232B21F00E94E6
:1017A000A10B90E008958FEF9FEF0895CF93DF9303
:1017B000FC012485243028F08FEF9FEFDF91CF913B
:1017C0000895EC010190F081E02D0084F185E02D79
:1017D0000995892B89F38C850E94A10B90E0EECFAF
:1017E000DA01E0914E03F0E0FE2FEE27E60FF71F3F
:1017F00090E0982F8827A901BD018E0F9F1F0C94A0
:10180000DD098F929F92AF92BF92CF92DF92EF92BB
:10181000FF921F93CF93DF93CDB7DEB72C970FB610
:10182000F894DEBF0FBECDBF20917F0314E02223CA
:1018300029F16B017C0180E591E00E9493005E013B
:1018400027E0A20EB11C450110E0812F0E94BA0AC8
:10185000F40181934F01882349F11F5F1430A9F7E8
:1018600010E0F50181915F018D31D9F08831C9F027
:101870008A518230B0F01F5F143099F7812F2C9677
:101880000FB6F894DEBF0FBECDBFDF91CF911F9191
:10189000FF90EF90DF90CF90BF90AF909F908F9090
:1018A000089560E170E0812F0E94850AA12EB12C7D
:1018B000F501EE0FFF1FE958FC4F1182108283EEF5
:1018C00093E00197F1F742E870E060E0812F0E9419
:1018D000C8034FEF62E070E0812F0E94C803B60199
:1018E000C114D10491F480910001909101010196FD
:1018F0008115F0EC9F0708F45CC090930101809380
:1019000000016091000170910101812F0E94B303D9
:1019100086E0ECE0F1E0DE01119601900D928A95EF
:10192000E1F7F70183818F778C8384818D838581B3
:101930008E83A7014E5F5F4F24E030E06CE070E0E3
:10194000812F0E948D03B601812F0E949E0326E005
:1019500030E0AE014F5F5F4F66E070E0812F0E9484
:101960008D0361E070E0812F0E94850A27E02A9DA7
:10197000C0012B9D900D11249C01255A3C4F7901EB
:10198000F9011182108222E030E0AE01455F5F4F25
:1019900068E270E0812F0E94F00B8B859C85982770
:1019A00089279827F70193838283168215821482F0
:1019B00065CF80E090ECA1CFCF92DF92EF92FF92C3
:1019C0000F931F93CF93DF9300D000D000D0CDB7FB
:1019D000DEB78C016B017A01FC01808D843010F43C
:1019E0000E94A10A80E292E09A838983F6018281B3
:1019F0009381A481B5818B839C83AD83BE83B70122
:101A0000CE0101960E94010CF801808F8430A0F471
:101A1000F586E486128E118E81E026960FB6F89434
:101A2000DEBF0FBECDBFDF91CF911F910F91FF9011
:101A3000EF90DF90CF90089580E0EFCFAF92BF920C
:101A4000CF92DF92EF92FF920F931F93CF93DF938A
:101A500000D000D000D0CDB7DEB7082F6B0180E5F5
:101A600091E00E9493009E012F5F3F4F7901590141
:101A700010E0812F0E94BA0AF50181935F0188234B
:101A800041F11F5F1430A9F710E0F70181917F0148
:101A90008D31D1F08831C1F08A518230A8F01F5FBA
:101AA000143099F7812F26960FB6F894DEBF0FBE3B
:101AB000CDBFDF91CF911F910F91FF90EF90DF90FD
:101AC000CF90BF90AF90089560E170E0812F0E94A9
:101AD000850AE12EF12CF701EE0FFF1FE958FC4FAC
:101AE0001182108283EE93E00197F1F7402F70E0AE
:101AF00060E0812F0E94C8034FEF62E070E0812F09
:101B00000E94C803B601CD2889F48091000190910C
:101B1000010101968115F0EC9F0798F19093010166
:101B2000809300016091000170910101812F0E945A
:101B3000B30361E070E0812F0E94850A27E02E9DAB
:101B4000C0012F9D900D11249C01255A3C4F790115
:101B5000F9011182108222E030E0AE014B5F5F4F4D
:101B600068E270E0812F0E94F00B8D819E819827A2
:101B700089279827F701938382831682158214821E
:101B800091CF80E090ECCACFCF92DF92EF92FF929C
:101B90001F93CF93DF93EC017B016A018C85843026
:101BA00048F40E94BE0A882319F08C850E94950A89
:101BB00084E08C87F70182819381A481B5810097AD
:101BC000A105B10551F490E080E0DF91CF911F9124
:101BD000FF90EF90DF90CF9008958F3F9F4FAF4FD2
:101BE000BF4F89F380917F03811103C084E08C870C
:101BF000EACF70E060E081E20E941E0D182F8C8712
:101C0000843008F780E591E00E949300A7014E5FC1
:101C10005F4F24E030E06CE070E0812F0E948D0384
:101C2000B601812F0E949E0364E070E0812F0E9424
:101C3000850A0E947A026B017C018C850E94BE0A93
:101C4000873109F18C31F9F0882309F4BCCF0E9467
:101C50007A02AB01BC014C195D096E097F098D85C3
:101C60009E85B0E0A0E084179507A607B70738F077
:101C700061E070E080E090E00E944802DECF8C8559
:101C80000E94A10AB3CF81E090E09FCF0F931F93F2
:101C9000CF93DF93EC018B01888D843010F40E9488
:101CA000A10A80917F03811107C094E0988FDF9192
:101CB000CF911F910F910895B80182E00E941E0DEF
:101CC000888F843030F41D870C871A8E198E81E03E
:101CD000EECF80E0ECCF0F931F93CF9320917F0343
:101CE000222349F18C01FC016481758181E20E940B
:101CF0001E0DC82F8430F8F480E591E00E94930017
:101D00008C2F0E94BA0A833131F08C2FCF911F9112
:101D10000F910C94950A62E070E08C2F0E94850A66
:101D2000F80184819581EC2FF0E0EE0FFF1FE95858
:101D3000FC4F91838083CF911F910F9108957F92E3
:101D40008F929F92AF92BF92CF92DF92EF92FF92CB
:101D50000F931F93CF93DF9300D0CDB7DEB7782ECC
:101D60008B014A01590122E030E0AE014F5F5F4F25
:101D700064E270E00E94F00BE980FA80FE24EF2418
:101D8000FE24E00EF11E9701377040917F03072D6E
:101D900010E0433309F042C0085F1F4F102F0027A7
:101DA000110F110F110FC901800F911F4733C9F196
:101DB000A9014A0D5B1D4130584098F160E078E080
:101DC0006B01C21AD30AA601B4010E94BC02A5018C
:101DD0004C195D09B4016C0D7D1DC8010E94BC0247
:101DE000EA0CFB1CF982EA8222E030E0AE014F5F90
:101DF0005F4F64E270E0872D0E948D030F900F907B
:101E0000DF91CF911F910F91FF90EF90DF90CF90D6
:101E1000BF90AF909F908F907F900895005F1F4F6D
:101E2000BDCFA501B401DACFEF92FF921F93CF93FC
:101E3000DF9300D0CDB7DEB7182F22E030E0AE013F
:101E40004F5F5F4F60E270E00E94F00BE980FA8024
:101E5000FE24EF24FE2422E030E0AE014F5F5F4F0E
:101E600060E270E0812F0E94F00B89819A819827AF
:101E700089279827E816F90689F487E0189FF0016A
:101E80001124E55AFC4FF582E482C7010F900F90B0
:101E9000DF91CF911F91FF90EF9008957C01DBCFF0
:101EA0001F93CF93DF93182F80E591E00E9493005A
:101EB000812F0E94140FEC01812F0E94BA0A8731F2
:101EC00021F08C3111F0D0E0C0E0CE01DF91CF9154
:101ED0001F910895CF93DF93EC018C85843060F4DB
:101EE0000E94BE0A873111F08C3131F48C850E943A
:101EF000500F8115984088F3DF91CF910895FC0130
:101F00008485843010F40C94500F90E080E00895A4
:101F1000CF92DF92EF92FF921F93CF93DF93182F10
:101F20007B01EA014130584010F0C0E0D8E080E584
:101F300091E00E949300812F0E94140F6C01812F69
:101F40000E94BA0A873111F08C3121F5CC16DD06DA
:101F500070F380E591E00E9493009E01A70170E07C
:101F600060E0812F0E949F0E60E270E0812F0E944E
:101F7000850A62E070E0812F0E94680A84FD0DC02E
:101F8000812F0E94BA0A8823B9F080E591E00E946F
:101F90009300EFCFD0E0C0E0DCCF40E162E070E042
:101FA000812F0E94C803CE01DF91CF911F91FF9036
:101FB000EF90DF90CF900895D0E0C0E0F4CF0F9382
:101FC0001F93CF93DF938C01EA01FC018485843059
:101FD00048F40E94880F892B39F481E090E0F801E1
:101FE00093838283D0E0C0E0CE01DF91CF911F9137
:101FF0000F9108959F92AF92BF92CF92DF92EF928E
:10200000FF920F931F93CF93DF938C015B01942E6C
:10201000E52EFC01C688D788F08C80E591E00E940F
:1020200093008F2D0E94140FC92DDE2D8C179D0754
:1020300008F4EC019E01A501B6018F2D0E949F0EB0
:10204000F801868997898C0F9D1F978B868BCE010F
:10205000DF91CF911F910F91FF90EF90DF90CF9084
:10206000BF90AF909F900895FF920F931F93CF93CF
:10207000DF9300D0CDB7DEB7F82E22E030E0AE011E
:102080004F5F5F4F66E270E00E94F00B09811A819A
:1020900010270127102722E030E0AE014F5F5F4F8D
:1020A00066E270E08F2D0E94F00B89819A8198275B
:1020B000892798270817190749F4C8010F900F902E
:1020C000DF91CF911F910F91FF9008958C01E3CF85
:1020D0001F93CF93DF93182F87E0189FE0011124FF
:1020E000C55ADC4F88819981009761F480E591E0C1
:1020F0000E949300812F0E9434102E81821B91092F
:1021000099838883DF91CF911F910895AF92BF92F9
:10211000CF92DF92EF92FF920F931F93CF93DF93B3
:10212000EC017B0180917F03811120C01B821A8208
:1021300088EE93E0A0E0B0E08C839D83AE83BF8304
:102140008EE591E09983888384E08C8788EE93E024
:102150009E878D87CE01DF91CF911F910F91FF90C8
:10216000EF90DF90CF90BF90AF90089587E7C82E93
:1021700083E0D82E10E094E0B92EA12CD6012D9149
:102180003D916D01F701848195812817390791F4FC
:10219000812F0E94BE0A082F873111F08C3139F54A
:1021A000812F0E946810892B59F50C3119F4812F69
:1021B0000E94950A1F5F143009F7A11008C0D701CB
:1021C000ED91FC910084F185E02DC70109951B82FA
:1021D0001A8288EE93E0A0E0B0E08C839D83AE830A
:1021E000BF838EE591E099838883BC86AFCF84312D
:1021F00049F08111DFCFF601329711821082DACFD8
:10220000B12ED8CFAA24A394D5CF8F929F92AF920C
:10221000BF92CF92DF92EF92FF921F93CF93DF9303
:10222000CDB7DEB72F970FB6F894DEBF0FBECDBF88
:102230005C014B017A0180917F038823A1F1B501F4
:10224000CE0101960E94861087E7C82E83E0D82E23
:1022500010E0F601219131916F01F50184819581A2
:102260002817390751F4812F0E94BE0A873129F4BB
:10227000A701B401812F0E94880F1F5F143049F716
:10228000C7012F960FB6F894DEBF0FBECDBFDF910A
:10229000CF911F91FF90EF90DF90CF90BF90AF90C4
:1022A0009F908F900895F12CE12CEACFFC0184855A
:1022B000843010F40C94681090E080E008954F9200
:1022C0005F927F928F929F92AF92BF92CF92DF9256
:1022D000EF92FF920F931F93CF93DF9300D0CDB770
:1022E000DEB7782E6B014A01A82EB12C27E0829F21
:1022F000C0011124FC01E55AFC4F7F0100811181CE
:1023000080E591E00E9493000815190554F4872D8B
:102310000E943410F70126818C01021B11091183E0
:1023200000830115110519F5872D0E94BA0A843121
:1023300059F0882349F001E010E08C3111F410E0ED
:1023400000E0119501951109C8010F900F90DF91E0
:10235000CF911F910F91FF90EF90DF90CF90BF90A2
:10236000AF909F908F907F905F904F9008958016D0
:1023700091060CF4840187E08A9DF0018B9DF00D9D
:102380001124E55AFC4FE280F380C114D10451F1CD
:102390002701F7E05F22872D0E947F03840D951DA2
:1023A00020917F03273309F453C09801240D351D74
:1023B0002130384008F44CC020E038E0490184184E
:1023C0009508A401B6010E94DD092601480C591C9C
:1023D0006801C818D908872D0E947F03A601B201A1
:1023E0000E94DD09E00EF11E87E08A9DF0018B9DC1
:1023F000F00D1124E55AFC4FF382E28220813181F5
:10240000201B310B318320838681800F912F911DFA
:102410008A3F910510F4232BF1F487E08A9DF001A7
:102420008B9DF00D1124E55AFC4F1682F982EA8249
:1024300022E030E0AE014F5F5F4F68E270E0872D31
:102440000E948D0360E470E0872D0E94850A7CCF96
:10245000A801B601C5CF868377CFCF93DF93FC0168
:10246000218D328D2115310529F48FEF9FEFDF91FA
:10247000CF910895EC01808D4217530708F0A90110
:102480000E945F111816190684F7298D3A8D281BB2
:10249000390B3A8F298FEBCF0F931F93CF93DF9395
:1024A0001F92CDB7DEB7FC01218D328D232B41F475
:1024B0008FEF9FEF0F90DF91CF911F910F910895B4
:1024C0008C0141E050E0BE016F5F7F4FFC01808DC9
:1024D0000E945F11181619065CF7F801818D928D24
:1024E0000197928F818F898190E0E4CF0F931F93A2
:1024F000CF93DF93CDB7DEB728970FB6F894DEBF42
:102500000FBECDBF8C01D80159964D915C915A9761
:102510004115510551F0ED91FC91048CF58DE02DA4
:1025200070E060E0C8010995EECFF801808D0E944F
:102530006810892BB1F148E050E0BE016F5F7F4F1A
:10254000D80158968C910E945F1118161906F4F460
:10255000D801509684E0FE01319601900D928A9543
:10256000E1F78D8190E0982F88272E81820F911DB1
:10257000F801958B848B8F81282F30E0322F222712
:102580008885820F932F911D928F818F28960FB689
:10259000F894DEBF0FBECDBFDF91CF911F910F9199
:1025A000089590E080E0F2CF4F925F926F927F9219
:1025B0008F929F92AF92BF92CF92DF92EF92FF9253
:1025C0000F931F93CF93DF93CDB7DEB763970FB60B
:1025D000F894DEBF0FBECDBF7C016B013A01FB0159
:1025E00020E090E080E06AE03191332309F461C09B
:1025F00040ED430F4A3008F04DC0689FA001699F2D
:10260000500D1124CA01C097830F911D37FD9A9573
:102610008F3F910549F340F3F70142815381648173
:1026200075818091490490914A04A0914B04B09126
:102630004C04481759076A077B0709F40DC2870144
:10264000085F1F4F0E947A026F7077277C5FC80176
:102650000E94460E813009F004C280E292E09A8323
:102660008983F70182819381A481B5818B839C83C7
:10267000AD83BE8345E350E0BE016F5F7F4FC8016D
:102680000E944E04892BA9F5D12CC12CC8010E94AF
:10269000AD0A17C03E3209F0BFCF233009F4BCCFDA
:1026A000D301A20FB11D12968C932F5F90E080E0B2
:1026B0009BCF233009F0B0CFF3018583CC24C394A2
:1026C000D12CC60163960FB6F894DEBF0FBECDBF06
:1026D000DF91CF911F910F91FF90EF90DF90CF90FE
:1026E000BF90AF909F908F907F906F905F904F9032
:1026F00008950E947A02F7017783668342E050E0F2
:10270000B7016A5F7F4FC8010E94FA0F81E090E035
:102710009A83898342E050E0BE016F5F7F4FC8011A
:102720000E94FA0F80E091E09A83898342E050E0B2
:10273000BE016F5F7F4FC8010E94FA0F1A82198293
:1027400042E050E0BE016F5F7F4FC8010E94FA0F68
:1027500042E050E0BE016F5F7F4FC8010E94FA0F58
:1027600042E050E0BE016F5F7F4FC8010E94FA0F48
:102770005601F6018081882301F16501F6018191FE
:102780002F01882311F08E32B1F446018A189B087C
:102790001814190474F48D8641E050E0BE01635FA3
:1027A0007F4FC8010E94FA0FA401B501C8010E9421
:1027B000FA0F5201DECF6201E1CF1D8641E050E009
:1027C000BE01635F7F4FC8010E94FA0FC12CDD2458
:1027D000D394DA82C98242E050E0BE016F5F7F4F3E
:1027E000C8010E94FA0FDA82C98242E050E0BE01BD
:1027F0006F5F7F4FC8010E94FA0FC8010E94470B0C
:10280000892B09F441CFF3E0AF2EB12C230122E054
:10281000420E511CD4C0F7014281538164817581FD
:10282000808D918DA28DB38D481759076A077B075C
:1028300009F008C1848D958DC59709F003C181A168
:1028400092A15DEFC52EDD24DA940C970CF4ADC097
:102850004CE050E0BE016F5F7F4FC8010E942D1217
:102860008B819C819827892798279A8B898BF701E0
:102870004681578129813A814217530709F0E7C001
:1028800097FFE5C08F7092703BEFC32EDD24DA9482
:10289000892B09F08AC06F80788476246724762497
:1028A0002AEFC22EDD24DA946114710409F47DC08C
:1028B000D12CC12C8D819E81982789279827C816F5
:1028C000D906F8F441E050E0BE01635F7F4FC801D4
:1028D0000E942D124D85442331F050E070E060E0FD
:1028E000C8010E942D128D858111ECCF44E050E08B
:1028F00070E060E0C8010E942D12FFEFCF1ADF0ADE
:10290000D9CF912C812C41E050E0BE016D5E7F4F0C
:10291000C8010E942D124B89842F807C09F06CC065
:10292000442331F050E070E060E0C8010E942D12B5
:102930008B898111E8CF42E050E0BE01615F7F4F9B
:10294000C8010E942D1242E050E0BE01635F7F4F3C
:10295000C8010E942D1244E050E070E060E0C80120
:102960000E942D1242E050E0BE016F5E7F4FC80111
:102970000E942D128F85988949895A898115914025
:1029800009F043C0CD84DE84DC24CD24DC2481E046
:10299000C816D104D1F54115544009F04AC044E0AD
:1029A00050E0B201C8010E942D1221E0A21AB10824
:1029B00009F46CCEFFEFCF16DF0609F067CE0E9458
:1029C0007A023B014C01C8010E94761218161906C2
:1029D0000CF421CF0E947A026619770988099909B7
:1029E000693873418105910548F562E370E080E044
:1029F00090E00E944802E7CF41E050E070E060E0E4
:102A0000C8010E942D121B8A93CF542745275427B3
:102A100070E060E0C8010E942D12FFEF8F1A9F0A3C
:102A20006814790409F06FCF96EFC92EDD24DA948B
:102A3000BCCFE7EFCE2EDD24DA94B7CFCC24CA94F6
:102A4000DC2CB3CF6EEFC62EDD24DA94AECF4CEF84
:102A5000C42EDD24DA94A9CF8EEFC82EDD24DA94BB
:102A600030CED12CC12C2DCECF92DF92EF92FF929F
:102A70000F931F93CF93DF93CDB7DEB7AF970FB60A
:102A8000F894DEBF0FBECDBF7C016A0100E212E008
:102A90001A8309831C861B8688EE93E0A0E0B0E0D1
:102AA0008D879E87AF87B88B8CE891E09A8789875E
:102AB000188F0F8B198E1A8E1B8E1C8E84E089A3A3
:102AC0001BA70AA71CA61DA61EA61FA680913D0433
:102AD00090913E04A0913F04B09140048EA39FA327
:102AE000A8A7B9A78B839C83AD83BE8318861F825A
:102AF000AE01465D5F4FCE0101960E94D412813037
:102B00009105B1F4D701ED91FC910488F589E02D90
:102B10001DA30CA38CA59DA5AEA5BFA58EA39FA3A9
:102B2000A8A7B9A7A601BE016C5D7F4FC701099593
:102B3000AF960FB6F894DEBF0FBECDBFDF91CF9139
:102B40001F910F91FF90EF90DF90CF900895CF925B
:102B5000DF92EF92FF920F931F93CF93DF93CDB746
:102B6000DEB7AF970FB6F894DEBF0FBECDBF8C01B6
:102B70006B017A0180E292E09A8389831B821C8236
:102B80001D821E821C861B8648EE53E060E070E0CA
:102B90004D875E876F87788B2CE831E03A872987ED
:102BA000988F8F8B198E1A8E1B8E1C8E24E029A372
:102BB0009BA78AA71CA61DA61EA61FA6D8011C9609
:102BC0008C91843060F40E94BE0A882321F0F801C1
:102BD00084850E94950A84E0D8011C968C9380918C
:102BE0003D0490913E04A0913F04B09140048EA317
:102BF0009FA3A8A7B9A78B839C83AD83BE831886A8
:102C00001F82AE01465D5F4FB601CE0101960E9464
:102C1000D4120097C1F0D801ED91FC910684F7859C
:102C2000E02D80E292E09DA38CA38CA59DA5AEA58E
:102C3000BFA58EA39FA3A8A7B9A7A701BE016C5DDE
:102C40007F4FC8010995AF960FB6F894DEBF0FBE4F
:102C5000CDBFDF91CF911F910F91FF90EF90DF904B
:102C6000CF900895CF93DF931F92CDB7DEB741E0A9
:102C700050E0BE016F5F7F4FFC0184850E945F11B1
:102C80001816190634F4898190E00F90DF91CF91E6
:102C900008958FEF9FEFF9CFFC018485843010F405
:102CA0000C945F1190E080E008950F931F93CF93F1
:102CB000DF9300D0CDB7DEB7FC0124852430E0F4EB
:102CC0008C0180E591E00E94930022E030E0AE01AB
:102CD0004F5F5F4F60E170E0F80184850E94F00B68
:102CE00089819A819827892798270F900F90DF91E3
:102CF000CF911F910F91089590E080E0F6CFEF9271
:102D0000FF920F931F93CF93DF9300D000D0CDB7E6
:102D1000DEB78C017B01FB0184858430A8F080E262
:102D200092E0F801918380831282138214821582CB
:102D3000C8010F900F900F900F90DF91CF911F91CE
:102D40000F91FF90EF90089580E591E00E9493002D
:102D500024E030E0AE014F5F5F4F6CE070E0F701C0
:102D600084850E94F00BBE016F5F7F4FC8010E94F7
:102D7000D109DECF0F931F93CF93DF9300D0CDB750
:102D8000DEB7FC0124852430E0F48C0180E591E07D
:102D90000E94930022E030E0AE014F5F5F4F64E09D
:102DA00070E0F80184850E94F00B89819A81982750
:102DB000892798270F900F90DF91CF911F910F9146
:102DC000089590E080E0F6CF3F924F925F926F922D
:102DD0007F928F929F92AF92BF92CF92DF92EF92AB
:102DE000FF920F931F93CF93DF93CDB7DEB7EA9790
:102DF0000FB6F894DEBF0FBECDBF7C012A013B01A8
:102E000069010E947A024B015C0187010D5B1F4F33
:102E1000C8010E947612181619069CF00E947A02C8
:102E2000681979098A099B094616570668067906C2
:102E300008F466C162E370E080E090E00E9448021E
:102E4000E7CF42E250E0BE016F5F7F4FC8010E94B2
:102E50002D1289818230D1F0312C832DEA960FB664
:102E6000F894DEBF0FBECDBFDF91CF911F910F91C0
:102E7000FF90EF90DF90CF90BF90AF909F908F909A
:102E80007F906F905F904F903F900895F8018489F4
:102E900095898334910501F76D817E818F819885B5
:102EA0000E94A7294B015C01F60180829182A282D7
:102EB000B38246E050E0B701685F7F4FCE014D9688
:102EC0000E94B429892B41F6F70180819181A2816A
:102ED000B38188169906AA06BB0608F4BDCF848183
:102EE0009581A681B78188159905AA05BB0508F4C7
:102EF000B3CF89899A89AB89BC8986879787A08B4C
:102F0000B18B4EEC50E070E060E0C8010E942D12E1
:102F1000312CC701829698AB8FA7F701B696FAAB12
:102F2000E9AB08969CAB8BAB67019AE1C90ED11C4B
:102F3000BD96FEABEDABC701429698AF8FABFD9748
:102F4000FAAFE9AF4701FEE18F0E911CF801818DC8
:102F5000928D181619060CF080CFC8010E944C12F1
:102F60008333910509F4B2C014F58130910509F459
:102F700064C044F4892B51F3C8010E944C12AC0187
:102F8000552775C08330910509F462C00697A1F7F3
:102F9000C8010E944C12B82E44E050E0B401C801B0
:102FA0000E942D12EB2DE450FF0BAF0160C08A335D
:102FB000910509F45FC084F585339105B1F1C69799
:102FC000D9F6C8010E944C125C01B601CE01899667
:102FD0000E94D1098BA59CA5ADA5BEA5892B8A2BE6
:102FE0008B2BB1F0EDA9FEA94080518062807380E7
:102FF000B601CE0183960E94D1098DA19EA1AFA1F9
:10300000B8A5A501481659066A067B0609F0B8CF8F
:1030100044E050E0B60118C08B33910509F440C07C
:103020008F3F910509F492CFA7CFC8010E944C129F
:10303000C8010E944C12382E89CFC8010E944C1240
:1030400044E050E06FA978ADC8010E942D127ECFF8
:10305000C8010E944C12B82E44E050E069AD7AAD30
:10306000C8010E942D128B2D8450990BAC0170E089
:1030700060E0EACFC8010E944C1244E050E069A928
:103080007AA9C8010E942D12F70166A177A180A537
:1030900091A50E94A72966A377A380A791A756CFE1
:1030A000C8010E944C1244E050E06BA97CA9C80101
:1030B0000E942D12F70162A573A584A595A50E9413
:1030C000A72962A773A784A795A740CFC8010E942C
:1030D0004C1244E050E06FA578A9C8010E942D125F
:1030E000F70162A173A184A195A10E94A72962A3FF
:1030F00073A384A395A366A777A780AB91AB26CFD4
:1031000033243A94AACE7F928F929F92AF92BF922D
:10311000CF92DF92EF92FF920F931F93CF93DF93A3
:10312000CDB7DEB7A6970FB6F894DEBF0FBECDBF02
:103130008C01762E942E852E20E2A22ECE010196B1
:103140007C01DC01EA2D1D92EA95E9F76801F3E4C0
:10315000CF0ED11C80E292E09AA389A38FEF8BA3BC
:103160008CA38DA38EA343E450E0BE016F5D7F4F1F
:10317000C6010E944E04019609F4BFC081E0898314
:103180008A8386E0B82EBB821C82D80114966D918A
:103190007D918D919C9117970E94A7296D837E83C5
:1031A0008F83988789869A8680E890E09C878B87B2
:1031B0004CE150E0B701C6010E94FA0FFE013796BC
:1031C0008AE1DF011D928A95E9F74801B8E08B0E8C
:1031D000911CF401D70101900D92BA94E1F740E1FE
:1031E00050E0B701C6010E94FA0FF7011192AA94AC
:1031F000E9F796E0A92EB12C40E250E0B701C601F4
:103200000E94FA0FF1E0AF1AB108B1F783E68983A3
:1032100092E89A8393E59B838C8385E38D8381E099
:103220008E837F829DE3988797E099878A8786E0DF
:10323000F401DE011B9601900D928A95E1F78CE076
:10324000898B8A8B6AE372E0CE0143960E94C8297B
:10325000D8011B966C91CE0149960E949600F80108
:103260006485CE014B960E949600D8011D966C9104
:10327000CE014D960E9496004EE150E0B701C60186
:103280000E94FA0FB3E07B121EC082E3898384E0C0
:103290008A83F80196859B8397859C8390899D837B
:1032A00091899E8396E39F838887828D8987838D0A
:1032B0008A87848D8B87858D8C874CE050E0B701A1
:1032C000C6010E94FA0F87E3898386E08A8391E032
:1032D0009B8393E09C838D838FE08E838AE38F832F
:1032E0008BE388878FEF898749E050E0B701C601FB
:1032F0000E94FA0FC6010E94470BA6960FB6F894DB
:10330000DEBF0FBECDBFDF91CF911F910F91FF9018
:10331000EF90DF90CF90BF90AF909F908F907F9075
:103320000895EF92FF920F931F93CF93DF93EC01D9
:103330000C811D818E819F8108171907F1F4C80146
:1033400005969F838E83811520E49207E8F4880F09
:10335000991F0E943F257C0130E020E0AC0170E025
:1033600060E08A819B810E94A4048A819B810097EE
:1033700011F00E94DB25FB82EA82DF91CF911F9141
:103380000F91FF90EF9008958FEF9FEFE2CFEF92B4
:10339000FF920F931F93CF93DF93EC017B018C81FE
:1033A0009D8101969D838C83CE010E9491198A8113
:1033B0009B810C811D810E191F0902501109970173
:1033C0002F5F3F4FAC01B7010E94A404DF91CF9162
:1033D0001F910F91FF90EF9008950F931F93CF933C
:1033E000DF93EC018B018C819D8101969D838C8301
:1033F000CE010E9491198C819D8181509048880F47
:10340000991F2A813B81820F931FFC011183008346
:10341000DF91CF911F910F910895CF93DF93EC012E
:1034200086E191E0998388838A819B81009711F0DE
:103430000E94DB2584E190E00E943F259C012C5EE8
:103440003F4FFC0111921192E217F307D9F79B83CA
:103450008A831D821C828AE090E09F838E83DF91A5
:10346000CF910895CF93DF93EC0188EC91E099839D
:1034700088838A819B81009711F00E94DB2580E57B
:1034800090E00E943F259B838A831D821C828AE0F4
:1034900090E09F838E83DF91CF910895EF92FF920A
:1034A0000F931F93CF93DF93EC010C811D818E81CD
:1034B0009F810817190709F5C80105969F838E8318
:1034C000811520E1920700F523E0880F991F2A95C6
:1034D000E1F70E943F257C0130E020E0AC0170E084
:1034E00060E08A819B810E94BE048A819B81009753
:1034F00011F00E94DB25FB82EA82DF91CF911F91C0
:103500000F91FF90EF9008958FEF9FEFE2CFEF9232
:10351000FF920F931F93CF93DF93CDB7DEB728971A
:103520000FB6F894DEBF0FBECDBF8C017B01FC014E
:1035300084819581019695838483C8010E944E1AE7
:10354000F80182819381048115810E191F090250AF
:10355000110997012F5F3F4FAC01B7010E94BE04D4
:1035600028960FB6F894DEBF0FBECDBFDF91CF9186
:103570001F910F91FF90EF900895EF92FF920F939C
:103580001F93CF93DF93CDB7DEB728970FB6F8948C
:10359000DEBF0FBECDBF7C0109831A832B833C8322
:1035A0004D835E836F837887FC01848195810196CA
:1035B00095838483C7010E944E1AF701A481B581C7
:1035C000A150B04E83E0AA0FBB1F8A95E1F782811C
:1035D0009381A80FB91F88E0FE01319601900D92EA
:1035E0008A95E1F728960FB6F894DEBF0FBECDBFDF
:1035F000DF91CF911F910F91FF90EF900895FC0103
:1036000086E591E09187808786E191E091838083D0
:1036100082819381009711F00C94DB2508958F929D
:103620009F92AF92BF92CF92DF92EF92FF920F9351
:103630001F93CF93DF93CDB7DEB762970FB6F894A1
:10364000DEBF0FBECDBF1E821D8284E190E00E94CE
:103650003F259C012C5E3F4FFC01119211922E17C9
:103660003F07D9F79C838B838AE090E098878F830C
:1036700084E391E09A83898386E591E09A8789873C
:103680000E947A024B015C0100915504109156048E
:10369000E0905704F090580433E0EE0CFF1C3A958C
:1036A000E1F7E00EF11ED12CC12CE016F106E9F095
:1036B000F80182819381A481B58188159905AA05B5
:1036C000BB0568F40190F081E02DD80116968D912C
:1036D0009C910995B601CE0101960E94ED19BFEFAC
:1036E000CB1ADB0A085F1F4FE0CFEB80FC808D8197
:1036F0009E81880F991F8701080F191F0E151F053E
:1037000089F0F701619171917F0183E594E00E9456
:10371000A3072B873C874D875E876F87788B898BC4
:103720009A8BECCFCE0101960E94FF1A62960FB6DB
:10373000F894DEBF0FBECDBFDF91CF911F910F91E7
:10374000FF90EF90DF90CF90BF90AF909F908F90C1
:103750000895FC0183819481009721F0019711F075
:103760000C94DB2508951F920F920FB60F9211242F
:103770002F933F934F935F936F937F938F939F9379
:10378000AF93BF93EF93FF9380E893E00E941701FC
:10379000FF91EF91BF91AF919F918F917F916F9129
:1037A0005F914F913F912F910F900FBE0F901F90FF
:1037B00018951F920F920FB60F9211242F938F938B
:1037C0009F93EF93FF93E0919003F0919103808199
:1037D000E0919603F091970382FD1BC09081809148
:1037E00099038F5F8F7320919A03821741F0E091C4
:1037F0009903F0E0E058FC4F958F80939903FF9177
:10380000EF919F918F912F910F900FBE0F901F906E
:1038100018958081F4CF1F920F920FB60F9211244A
:103820002F933F938F939F93AF93BF9380915303B5
:1038300090915403A0915503B091560330915203D7
:1038400023E0230F2D3758F50196A11DB11D2093BC
:1038500052038093530390935403A0935503B09362
:1038600056038091570390915803A0915903B0914A
:103870005A030196A11DB11D8093570390935803DD
:10388000A0935903B0935A03BF91AF919F918F9129
:103890003F912F910F900FBE0F901F90189526E823
:1038A000230F0296A11DB11DD2CF0F931F93CF936B
:1038B000DF93E0E8F3E01382128288EE93E0A0E069
:1038C000B0E084839583A683B78386EB91E09183F0
:1038D000808385EC90E09587848784EC90E09787DF
:1038E000868780EC90E0918B808B81EC90E0938BCD
:1038F000828B82EC90E0958B848B86EC90E0978BAA
:10390000868B118E128E138E148EEDE1F4E0C0E2E0
:10391000D2E0D183C0831282138214821582E3E243
:10392000F4E0D183C0831282138214821582E9E20B
:10393000F4E0D183C0831282138214821582EFE2F5
:10394000F4E0D183C0831282138214821582E5E3EE
:10395000F4E0D183C0831282138214821582E1E4E1
:10396000F4E0D183C0831282138214821582EBE3C8
:10397000F4E0D183C0831282138214821582E7E4BB
:10398000F4E0D183C0831282138214821582EDE4A5
:10399000F4E0D183C0831282138214821582E3E69D
:1039A000F4E0D183C0831282138214821582EDE584
:1039B000F4E01382128280E192E09183808380EAB6
:1039C0009FE09583848303E514E0F8011582148257
:1039D00080E590E00E943F25F801938382838AE08E
:1039E00090E09783868386EE91E09183808388E0E0
:1039F00092E091878087E9E6F4E0D183C083128268
:103A0000138214821582DF91CF911F910F91089537
:103A1000CF93DF93CDB7DEB76E970FB6F894DEBFC6
:103A20000FBECDBF789484B5826084BD84B58160BB
:103A300084BD85B5826085BD85B5816085BD809179
:103A40006E00816080936E001092810080918100F1
:103A500082608093810080918100816080938100E9
:103A6000809180008160809380008091B1008460AB
:103A70008093B1008091B00081608093B00080910C
:103A80007A00846080937A0080917A0082608093CB
:103A90007A0080917A00816080937A0080917A0028
:103AA000806880937A001092C100E0919003F091B9
:103AB000910382E08083E0918C03F0918D0310826A
:103AC000E0918E03F0918F038FEC80831092980326
:103AD000E0919403F091950386E08083E091920356
:103AE000F0919303808180618083E0919203F09153
:103AF0009303808188608083E0919203F091930327
:103B0000808180688083E0919203F09193038081AB
:103B10008F7D80838EE390E00E943F258C0183E1BE
:103B200090E0D80111969C938E9384E190E01396D7
:103B30009C938E93129785E190E015969C938E93BB
:103B4000149786E190E017969C938E93169787E1E1
:103B500090E019969C938E93189788E190E01B96BD
:103B60009C938E931A9789E190E01D969C938E9377
:103B70001C978AE190E01F969C938E931E978BE191
:103B800090E051969C938E9350978CE190E05396E1
:103B90009C938E9352978DE190E055969C938E93D3
:103BA00054978EE190E057969C938E9356978FE1B1
:103BB00090E059969C938E93589720E230E05B9664
:103BC0003C932E935A9721E230E05D963C932E93DE
:103BD0005C9722E230E05F963C932E935E9723E25F
:103BE00030E091963C932E93909724E230E09396A8
:103BF0003C932E93929725E230E095963C932E933A
:103C0000949726E230E097963C932E93969727E27E
:103C100030E099963C932E93989728E230E09B965B
:103C20003C932E939A9729E230E09D963C932E93F5
:103C30009C972AE230E09F963C932E939E972BE22E
:103C400030E0D1963C932E93D0972CE230E0D3967F
:103C50003C932E93D2972DE230E0D5963C932E9351
:103C6000D4972EE230E0D7963C932E93D6972FE24E
:103C700030E0D9963C932E93D89720E330E0DB9642
:103C80003C932E93DA9721E330E0DD963C932E931C
:103C9000DC971B8B0A8B9D8B8C8B9F8B8E8B84E38D
:103CA00091E0998B888B86E591E0998F888F6801E8
:103CB000BEE3CB0ED11CC016D10669F0F801F0802E
:103CC00061E08F2D0E94F20161E08F2D0E94A6011C
:103CD0000E5F1F4FF0CF82E090E00E943F25F2E0A0
:103CE0008F2E912CDC018D929C929C838B8301E022
:103CF00010E01E830D8318870F83A4E3AA2EA1E092
:103D0000BA2EBA82A982B6E5CB2EB1E0DB2EDA86D6
:103D1000C98660E082E00E94F201CE0101960E9415
:103D2000FF1ACE0140960E94FF1A61E472E080E81B
:103D300093E00E9488098CE090E00E943F257C017E
:103D4000FC0111821082138302839582848283E0B6
:103D500090E09783868384E090E09187808785E078
:103D600090E093878287FC82EB8286E090E09E83DE
:103D70008D8398878F83BA82A982DA86C9868091DB
:103D8000420381112AC010922A031092290388EE5F
:103D900093E0A0E0B0E080932B0390932C03A093DA
:103DA0002D03B0932E038CE891E090932803809329
:103DB000270380E292E090933603809335031092BC
:103DC0003703109238031092390310923A0384E0BB
:103DD00080933F0381E08093420384EE92E09093CE
:103DE000E3028093E2028091E1028111ADC060E3C1
:103DF00072E080E090E00E944802BFB6F8940CE9BF
:103E000010E0E0EBCE2EE0E0DE2E8091E0028111AA
:103E100025C0F8018491F6019491E82FF0E0EE0FAF
:103E2000FF1FE258FF4FA591B4918C91982321F484
:103E300061E08AE00E94A60161E08AE00E94F2014E
:103E40008CB580618CBD8CB580648CBD61E08DE0EB
:103E50000E94F20161E08BE00E94F2018091E00299
:103E60008F5F8093E002BFBEF8010491E02FF0E085
:103E7000EE0FFF1FE857FF4F8591949190935103E8
:103E800080935003F601C490C0924F0361E08AE032
:103E90000E94F2010E94A00280E591E00E9493003E
:103EA00084E380937F0380E80E946C030E948B0B65
:103EB000882309F48AC188E00E946C030E94780B71
:103EC000883009F082C180E10E946C030E94780B67
:103ED000803109F07AC180E00E946C030E94780B67
:103EE000182F811172C141E050E0BE01605F7F4F29
:103EF0008FE190E00E94DD098889833009F065C177
:103F000080E480934E0342E06EE170E0812F0E94D6
:103F1000C80342E06FE170E0812F0E94C8031F5F79
:103F2000143089F740E06EE170E0812F0E94C803F1
:103F300040E06FE170E0812F0E94C8031F5F1830DE
:103F400089F781E08093E10280E591E00E9493008F
:103F500046E050E0B70189E090E00E94BC0280E2B8
:103F600092E0998B888B1A8A1B8A1C8A1D8A44E0EE
:103F700050E0BE016E5E7F4F8FE090E00E94BC0279
:103F80000091E2021091E302D80192961D921D92D7
:103F90001D921C929597F80116A217A210A611A6C1
:103FA0009A961D921D921D921C929D9780E69AEE04
:103FB000A0E0B0E086AB97ABA0AFB1AF80EA9FE0E6
:103FC000A0E0B0E082AF93AFA4AFB5AFD801189630
:103FD00086E0FD01482F11924A95E9F79801225F8A
:103FE0003F4F94E1F90111929A95E9F7F701019099
:103FF0000D928A95E1F7C8018E5B9F4F9E8F8D8F42
:10400000DC011C920E94B0262FEC37E040E050E02B
:104010000E942C28DC01CB010196A11DB11DF801E5
:1040200084839583A683B78380839183A283B3839C
:104030005801F3E4AF0EB11CC5010E94AD0A64E45F
:1040400070E0C5010E94460E882309F427C10E9432
:104050007A022B013C0148EEC42E43E0D42EE12C21
:10406000F12C52E0252E912C812CAD8DBE8D8C91A2
:104070008330B9F18111BFC1F80184819581A68196
:10408000B7810196A11DB11D84839583A683B78353
:104090000E947A026419750986099709A701960199
:1040A0000E945E28A90161E0C8010E94831881E096
:1040B000AD8DBE8D8C93F1E08F169104B1F20E940C
:1040C0007A026419750986099709D801D6962D9147
:1040D0003D914D915C91D9972617370748075907AD
:1040E00010F6C5010E94AD0AF80184819581A68170
:1040F000B7810196A11DB11D84839583A683B783E3
:104100000E947A02F801FE96608371838283938312
:104110008A94892809F0C2C080E591E00E9493004A
:104120000091E2021091E302B801625F7F4FCE017D
:1041300040960E94D10944E050E0BE016E5E7F4F80
:104140008FE090E00E94BC02B8016A5E7F4FCE0112
:1041500040960E94D10944E050E0BE016E5E7F4F60
:1041600081E090E00E94BC02B8016E5E7F4FCE01FC
:1041700040960E94D10944E050E0BE016E5E7F4F40
:1041800085E090E00E94BC02B801625E7F4FCE01E4
:1041900040960E94D1098A899B89AC89BD89809308
:1041A0003D0490933E04A0933F04B09340040E94CA
:1041B00023027F7380910001909101016827792784
:1041C000709301016093000169C087E380937F03CE
:1041D00080E80E946C030E948B0B882329F188E001
:1041E0000E946C030E94780B8830F1F480E10E94F9
:1041F0006C030E94780B182F8031B1F480E00E948C
:104200006C030E94780B81110FC041E050E0BE01A9
:10421000605F7F4F89E390E00E94DD0988898430E8
:1042200019F410934E038DCE83E380937F0380E8CF
:104230000E946C030E948B0B882371F180E10E9425
:104240006C030E94780B803139F582E10E946C0387
:104250000E94780B823101F580E00E946C030E947D
:10426000780B811119C084E080934E0315E51C8FF3
:1042700041E050E0BE01645E7F4F8BE190E00E9420
:10428000BC021B8F41E050E0BE01655E7F4F8AE1BA
:1042900090E00E94BC0255CE10927F0380E292E033
:1042A000998B888B1A8A1B8A1C8A1D8A80E591E06B
:1042B0000E94930044E050E0BE016E5E7F4F8FE0AD
:1042C00090E00E94DD0960E873E0CE0140960E9414
:1042D0003E0962E272E080E893E00E94E3088DE527
:1042E00094E00E946B0ECE0101960E94FF1A4E01CF
:1042F0004AE1840E911C8091570490915804892BB7
:1043000011F00E940F1B6DE574E0CE0101960E9432
:1043100086108D85843078F767E472E080E893E05A
:104320000E9488090E947A0260934A0370934B03AB
:1043300080934C0390934D030E947A02AB01BC0121
:1043400080914A0390914B03A0914C03B0914D038F
:10435000805A9541AF4FBF4F481759076A077B07EF
:1043600008F081C1CE0101960E94EC0A882309F46D
:104370007AC18091570490915804892B11F00E94C2
:104380000F1BCE0101960E945611181619060CF04B
:1043900002C1ADB6BEB66DE572E080E893E00E9462
:1043A00088098DB79EB7845691090FB6F8949EBFC1
:1043B0000FBE8DBF0DB71EB70F5F1F4F712CF12CB5
:1043C000CE0101960E945611181619060CF0DEC097
:1043D000C72CD12C94E6C916D1040CF0D7C0CE015D
:1043E00001960E943216F110D9C08F3F49F7712C07
:1043F000FF24F394E5CF8430F9F4F80184819581AA
:10440000A681B7810196A11DB11D84839583A683E2
:10441000B7830E947A026419750986099709A70172
:1044200096010E945E28A90163E0C8010E948318DA
:10443000AD8DBE8D2C923FCE813059F5F80142AD45
:1044400053AD64AD75AD9E01205F3F4FC8010E9422
:10445000E416382EF2E08F1392C088899989AA89D0
:10446000BB89F80184839583A683B7830E947A026F
:104470006419750986099709A70196010E945E28AB
:10448000A90163E0C8010E948318AD8DBE8D3C92E6
:1044900012CE823009F00FCEF80142AD53AD64ADBB
:1044A00075AD9E01205F3F4FC8010E94E416382E73
:1044B000F5E08F135DC0E3E0AD8DBE8DEC93F801A8
:1044C00082A193A1A4A1B5A1892B8A2B8B2B41F4A6
:1044D00084E893E0A0E0B0E082A393A3A4A3B5A3F3
:1044E000F80186A197A1A0A5B1A5892B8A2B8B2BBA
:1044F00061F482A193A1A4A1B5A1B695A7959795C2
:10450000879586A397A3A0A7B1A7F80182A593A535
:10451000A4A5B5A5892B8A2B8B2BA9F482A193A1E5
:10452000A4A1B5A1AC01BD0123E07695679557958F
:1045300047952A95D1F7841B950BA60BB70B82A73D
:1045400093A7A4A7B5A7F80186A197A1A0A5B1A597
:1045500086A797A7A0ABB1AB82A593A5A4A5B5A547
:1045600082AB93ABA4ABB5AB88248394912CA3CD41
:10457000F6E08F1304C0AD8DBE8D1C929CCDBFEFB5
:104580003B1299CDED8DFE8D108295CD0FB6F8942E
:10459000BEBE0FBEADBEF12CE12C37C08A3F09F084
:1045A0005CC086E090E00E943F257C01DC01119612
:1045B0001C92119715961C9215977A9412967C92DC
:1045C0001297F80181918F018C93C6010E943F25BB
:1045D0000196D70114969C938E93139781E090E0F7
:1045E0008C159D056CF4F80121918F01D70113966C
:1045F000ED91FC91E80FF91F319720830196F0CFE0
:104600000FB6F894BEBE0FBEADBE82E090E00E9431
:104610003F259E8F8D8F81E090E0ED8DFE8D918303
:104620008083E114F10451F5AD8DBE8D8D919C9187
:10463000119701978D939C93892B09F07DCEE114FE
:10464000F10431F0C7010E94A91BC7010E94DB25BC
:104650008D8D9E8D0E94DB256FCEF801EC0DFD1D2A
:1046600080837394ADCE68E772E080E893E00E94A7
:104670008809CE0101960E940E0B3DCED7011C91F8
:10468000153669F5B701CE0140960E949C097988DC
:104690000A89772009F499C00C5F10E0C8010E94D4
:1046A0003F256C018FEFF601808388898183772015
:1046B00009F48DC07282E3E0F0E0EC0DFD1D90E0A6
:1046C00080E02A892817190609F00CF483C0AB8909
:1046D000BC89A80FB91F2C9121930196F2CF1436F3
:1046E00089F2163609F05FC061E972E080E893E074
:1046F0000E948809D12CC12CF70182818C151D04E0
:1047000009F00CF44BC00380F481E02DEC0DFD1D8D
:10471000308021800E947A02D7011396ED91FC919E
:10472000EC0DFD1D4280B4E64B9E90011124290141
:10473000330F66087708460E571E681E791E032D34
:1047400010E02220F1F061E0832D0E94A601632D8C
:104750001F8B0E8BE9EFF7E00E2FF98BE88B242DE2
:104760004A8A5B8A6C8A7D8A19893B894C895D8972
:104770007F8983E594E00E94BD1A93E0C90ED11CA5
:10478000BBCF60E0832D0E94A601632D1F8B0E8B93
:1047900086EF97E0082F998B888BE1CF8081888BFB
:1047A00088EC898B0AC0183C69F467EA72E080E8FB
:1047B00093E00E948809188B198B1A8A1C8A1B8A1D
:1047C0001D8A65CF188B82E3ECCF0D5F66CFE2E0E8
:1047D000F0E073CF8AEF808365EB72E080E893E0CE
:1047E0000E948809A801B601CE0101960E94DF0F40
:1047F000C114D10419F0C6010E94DB250E947A027F
:1048000060934A0370934B0380934C0390934D0342
:1048100069EC72E080E893E00E948809C0906F0420
:10482000D0907004B4016C197D09C114D10439F41D
:104830008091040190910501B401681B790B0091EE
:10484000710410917204F801309759F080819181C0
:1048500002966817790708F4BC010280F381E02D05
:10486000F3CF90E080E00E940D2720E030E048EC9C
:1048700052E40E946E272B013C01B4016C197D09A2
:10488000CD2839F48091040190910501B401681B91
:10489000790B0115110559F0D8018D919C91119753
:1048A0000296680F791F12960D911C91F2CF90E03D
:1048B00080E00E940D279B01AC01C301B2010E9460
:1048C000FC289B01AC0160E070E088EC92E40E945F
:1048D0008F282B013C0108E610E0F8016491662363
:1048E00041F080E893E00E9439010F5F1F4F892B50
:1048F000A1F7A3019201C301B2010E94A22962EDB6
:1049000072E081111AC063015201E894D7F82FEFC9
:104910003FEF4FE75FE7C601B5010E94A229811171
:104920001BC02FEF3FEF4FE75FE7C601B5010E94C5
:10493000082718168CF466ED72E080E893E00E9478
:10494000E3086EED72E080E893E00E948809CE01F2
:1049500040960E94A91B68CE2FEF3FEF4FE75FE420
:10496000C301B2010E949D2918161CF46AED72E081
:10497000E4CF2FEF3FEF4FE75FECC301B2010E949E
:10498000082787FDF3CF20E030E0A901C301B20181
:104990000E94082787FF09C06DE280E893E00E942B
:1049A000390177FA709477F870942AE037ED43EA8A
:1049B0005BE3C301B2010E9490285B016C010E947D
:1049C0006E292B013C010E940D279B01AC01C60101
:1049D000B5010E948F285B016C012AE0B301A2019E
:1049E00080E893E00E94F2086EE280E893E00E9483
:1049F000390120E030E040E251E4C601B5010E94F7
:104A00006E275B016C010E946E292B01712C612CB9
:104A10002AE0B301A20180E893E00E94F208C301FA
:104A2000B2010E940D279B01AC01C601B5010E9495
:104A30008F2820E030E040E251E40E946E270E947F
:104A40006E29AB0170E060E02AE080E893E00E940C
:104A5000F20877CF88E092E090935C0480935B0447
:104A600088EC91E090935404809353048091550412
:104A700090915604009711F00C94DB2508950F9344
:104A80001F93CF93DF938230910510F482E090E082
:104A9000E0917104F091720430E020E0B0E0A0E019
:104AA000309799F42115310509F44AC0281B390BB8
:104AB00024303105D8F58A819B816115710589F112
:104AC000FB0193838283FE0111C0408151810281E9
:104AD000138148175907E0F04817590799F41097C0
:104AE00061F012960C93129713961C933296CF0195
:104AF000DF91CF911F910F9108950093710410934E
:104B00007204F4CF2115310551F04217530738F0E4
:104B1000A901DB019A01BD01DF01F801C1CFEF015D
:104B2000F9CF9093720480937104CDCFFE01E20F10
:104B3000F31F819391932250310939832883D7CF72
:104B400020916F0430917004232B41F420910401D3
:104B5000309105013093700420936F04209102017D
:104B6000309103012115310541F42DB73EB7409135
:104B7000060150910701241B350BE0916F04F09161
:104B80007004E217F307A0F42E1B3F0B2817390718
:104B900078F0AC014E5F5F4F2417350748F04E0F99
:104BA0005F1F5093700440936F04819391939FCF44
:104BB000F0E0E0E09CCFCF93DF930097E9F0FC01B9
:104BC000329713821282A0917104B0917204ED01A8
:104BD00030E020E01097A1F420813181820F931FF3
:104BE00020916F04309170042817390709F061C0D3
:104BF000F0937004E0936F04DF91CF910895EA0180
:104C0000CE17DF07E8F54A815B819E01411551050A
:104C1000B1F7E901FB83EA8349915991C40FD51F8C
:104C2000EC17FD0761F4808191810296840F951F36
:104C3000E90199838883828193819B838A83F0E051
:104C4000E0E012968D919C9113970097B9F52D9104
:104C50003C911197CD010296820F931F20916F0412
:104C6000309170042817390739F6309751F51092B2
:104C7000720410927104B0937004A0936F04BCCFBF
:104C8000D383C28340815181840F951FC817D907F0
:104C900061F44E5F5F4F88819981480F591F51839E
:104CA00040838A819B81938382832115310509F09A
:104CB000B0CFF0937204E09371049ECFFD01DC014C
:104CC000C0CF13821282D7CF8F929F92AF92BF92A2
:104CD000CF92DF92EF92FF92CF93DF93EC01688146
:104CE00079818A819B81611571058105910521F486
:104CF00064E279ED8BE597E02DE133EF41E050E0A0
:104D00000E942C2849015A019B01AC01A7EAB1E499
:104D10000E944B286B017C01ACEEB4EFA50194011D
:104D20000E945928C60ED71EE81EF91EF7FE06C0BF
:104D300081E0C81AD108E10880E8F80AC882D9825F
:104D4000EA82FB82C701B6019F77DF91CF91FF9086
:104D5000EF90DF90CF90BF90AF909F908F9008958D
:104D60008F929F92AF92BF92CF92DF92EF92FF927B
:104D7000609108017091090180910A0190910B01E5
:104D8000611571058105910521F464E279ED8BE5EA
:104D900097E02DE133EF41E050E00E942C284901DB
:104DA0005A019B01AC01A7EAB1E40E944B286B01B8
:104DB0007C01ACEEB4EFA50194010E945928C60E07
:104DC000D71EE81EF91EF7FE06C081E0C81AD108FA
:104DD000E10880E8F80AC0920801D0920901E09247
:104DE0000A01F0920B01C701B6019F77FF90EF9087
:104DF000DF90CF90BF90AF909F908F900895609379
:104E000008017093090180930A0190930B010895A2
:104E10000E944A2708F481E00895E89409C097FBAE
:104E20003EF490958095709561957F4F8F4F9F4F81
:104E30009923A9F0F92F96E9BB279395F6958795C5
:104E400077956795B795F111F8CFFAF4BB0F11F488
:104E500060FF1BC06F5F7F4F8F4F9F4F16C088232F
:104E600011F096E911C0772321F09EE8872F762F65
:104E700005C0662371F096E8862F70E060E02AF0A6
:104E80009A95660F771F881FDAF7880F9695879592
:104E900097F90895990F0008550FAA0BE0E8FEEF67
:104EA00016161706E807F907C0F012161306E407EE
:104EB000F50798F0621B730B840B950B39F40A26E7
:104EC00061F0232B242B252B21F408950A2609F4C5
:104ED000A140A6958FEF811D811D08950E94812715
:104EE0000C94F2270E94E42738F00E94EB2720F070
:104EF000952311F00C94DB270C94E12711240C94DA
:104F000026280E94032870F3959FC1F3950F50E067
:104F1000551F629FF001729FBB27F00DB11D639F6B
:104F2000AA27F00DB11DAA1F649F6627B00DA11D11
:104F3000661F829F2227B00DA11D621F739FB00DB7
:104F4000A11D621F839FA00D611D221F749F332727
:104F5000A00D611D231F849F600D211D822F762FC0
:104F60006A2F11249F5750409AF0F1F088234AF09D
:104F7000EE0FFF1FBB1F661F771F881F9150504009
:104F8000A9F79E3F510580F00C94DB270C9426284E
:104F90005F3FE4F3983ED4F3869577956795B79590
:104FA000F795E7959F5FC1F7FE2B880F911D9695AA
:104FB000879597F9089597F99F6780E870E060E01A
:104FC00008959FEF80EC089500240A9416161706A2
:104FD00018060906089500240A94121613061406EA
:104FE00005060895092E0394000C11F4882352F04D
:104FF000BB0F40F4BF2B11F460FF04C06F5F7F4F05
:105000008F4F9F4F089557FD9058440F551F59F0EB
:105010005F3F71F04795880F97FB991F61F09F3FA5
:1050200079F087950895121613061406551FF2CFCE
:105030004695F1DF08C0161617061806991FF1CF1E
:1050400086957105610508940895E894BB27662745
:105050007727CB0197F90895052E97FB1EF400944E
:105060000E94432857FD07D00E945E2807FC03D00A
:105070004EF40C94432850954095309521953F4F20
:105080004F4F5F4F089590958095709561957F4F34
:105090008F4F9F4F08950E948028A59F900DB49F29
:1050A000900DA49F800D911D11240895B7FF0C94BD
:1050B0004B280E944B28821B930B0895A1E21A2EC5
:1050C000AA1BBB1BFD010DC0AA1FBB1FEE1FFF1FAC
:1050D000A217B307E407F50720F0A21BB30BE40BFC
:1050E000F50B661F771F881F991F1A9469F7609543
:1050F0007095809590959B01AC01BD01CF010895FD
:10510000A29FB001B39FC001A39F700D811D112408
:10511000911DB29F700D811D1124911D089550584D
:10512000BB27AA270E94A7280C94F2270E94E427F5
:1051300038F00E94EB2720F039F49F3F19F426F451
:105140000C94E1270EF4E095E7FB0C94DB27E92FA4
:105150000E94032858F3BA1762077307840795075C
:1051600020F079F4A6F50C9425280EF4E0950B2E8A
:10517000BA2FA02D0B01B90190010C01CA01A001A9
:105180001124FF27591B99F0593F50F4503E68F104
:105190001A16F040A22F232F342F4427585FF3CF45
:1051A000469537952795A795F0405395C9F77EF416
:1051B0001F16BA0B620B730B840BBAF09150A1F05F
:1051C000FF0FBB1F661F771F881FC2F70EC0BA0FE5
:1051D000621F731F841F48F4879577956795B7956D
:1051E000F7959E3F08F0B0CF9395880F08F0992768
:1051F000EE0F9795879508950E9410290C94F22739
:105200000E94EB2758F00E94E42740F029F45F3F0A
:1052100029F00C94DB2751110C9426280C94E127DB
:105220000E94032868F39923B1F3552391F3951B4A
:10523000550BBB27AA2762177307840738F09F5FB7
:105240005F4F220F331F441FAA1FA9F335D00E2E24
:105250003AF0E0E832D091505040E695001CCAF791
:105260002BD0FE2F29D0660F771F881FBB1F261754
:1052700037074807AB07B0E809F0BB0B802DBF012B
:10528000FF2793585F4F3AF09E3F510578F00C94FA
:10529000DB270C9426285F3FE4F3983ED4F38695F1
:1052A00077956795B795F7959F5FC9F7880F911D1B
:1052B0009695879597F90895E1E0660F771F881F07
:1052C000BB1F621773078407BA0720F0621B730BBA
:1052D000840BBA0BEE1F88F7E09508950E940B2807
:1052E00088F09F5798F0B92F9927B751B0F0E1F0A7
:1052F000660F771F881F991F1AF0BA95C9F714C057
:10530000B13091F00E942528B1E008950C94252831
:10531000672F782F8827B85F39F0B93FCCF386958F
:1053200077956795B395D9F73EF4909580957095EC
:1053300061957F4F8F4F9F4F08950E944A2708F431
:105340008FEF08950E944A27880B990B08956927CB
:10535000962769277827872778270895EE0FFF1F5C
:105360000590F491E02D0994FB01DC0104C08D91BE
:105370000190801921F441505040C8F7881B990BC7
:105380000895DC0101C06D9341505040E0F708954D
:10539000FB01DC0101900D920020E1F7089510E07F
:1053A000C8E6D0E004C0FE010E94AE292196C936AD
:0853B000D107C9F7F894FFCF03
:1053B80000C00000730480000100000001005E00CE
:1053C800000000000000C605B3059A05ED19C719CD
:1053D80066050D1A5105230524081F051905F4044F
:1053E80000000000C605B3059A05ED19C719660542
:1053F8000D1A5105230524081F05190500080F0576
:10540800F704F8FF000016050C05000000001C0456
:10541800DF0F7F0F6A0F56113216D60BC40DA71572
:105428004C160E0BEC0A45044204400411043604E1
:10543800BA167F165516320400000000E503FA0F6D
:10544800FD07AC00A8004C12C70B460EDC0CAD0AD9
:105458004E043415470B76122D129D048D048904D1
:105468008504000000003901AD00DA0086010B0157
:10547800E900FD000000000076073B07FC06BD1AA6
:10548800871AA506321A5C06A30794081F05530657
:10549800F4040000000076073B07FC06BD1A871AD3
:1054A800A506321A5C06A30794081F055306700860
:1054B8002506D105F8FF00003E061A060000000088
:1054C800FB030511FD07FC076B0EC80A000000006E
:1054D8003E090D0A004469676974616C5772697402
:1054E80065206D6573736167650057495A6E657409
:1054F8000048656C6C6F00436C69656E7420686168
:105508007320636F6E6E6563746564210053746104
:10551800727420726563616976696E67206D657360
:10552800736167652E2E2E00436C69656E74206862
:10553800617320646973636F6E6E65637465642E4E
:105548000053657454696D6544696D6D6572206DAD
:105558006573736167650054657374206D65737353
:10556800616765210053656E64696E6720726573B3
:10557800706F6E73652E2E2E002D2D2D2D2D2D2D39
:105588002D006E616E00696E66006F7666002500FC
:107E0000112484B714BE81FFF0D085E080938100F7
:107E100082E08093C00088E18093C10086E0809377
:107E2000C20080E18093C4008EE0C9D0259A86E02C
:107E300020E33CEF91E0309385002093840096BBD3
:107E4000B09BFECF1D9AA8958150A9F7CC24DD24C4
:107E500088248394B5E0AB2EA1E19A2EF3E0BF2EE7
:107E6000A2D0813461F49FD0082FAFD0023811F036
:107E7000013811F484E001C083E08DD089C08234E0
:107E800011F484E103C0853419F485E0A6D080C0E4
:107E9000853579F488D0E82EFF2485D0082F10E0AE
:107EA000102F00270E291F29000F111F8ED06801E7
:107EB0006FC0863521F484E090D080E0DECF843638
:107EC00009F040C070D06FD0082F6DD080E0C81688
:107ED00080E7D80618F4F601B7BEE895C0E0D1E017
:107EE00062D089930C17E1F7F0E0CF16F0E7DF06D8
:107EF00018F0F601B7BEE89568D007B600FCFDCFD4
:107F0000A601A0E0B1E02C9130E011968C91119780
:107F100090E0982F8827822B932B1296FA010C0160
:107F200087BEE89511244E5F5F4FF1E0A038BF0790
:107F300051F7F601A7BEE89507B600FCFDCF97BE46
:107F4000E89526C08437B1F42ED02DD0F82E2BD052
:107F50003CD0F601EF2C8F010F5F1F4F84911BD097
:107F6000EA94F801C1F70894C11CD11CFA94CF0C13
:107F7000D11C0EC0853739F428D08EE10CD085E9AC
:107F80000AD08FE07ACF813511F488E018D01DD067
:107F900080E101D065CF982F8091C00085FFFCCF94
:107FA0009093C60008958091C00087FFFCCF809118
:107FB000C00084FD01C0A8958091C6000895E0E648
:107FC000F0E098E1908380830895EDDF803219F02E
:107FD00088E0F5DFFFCF84E1DECF1F93182FE3DFCA
:107FE0001150E9F7F2DF1F91089580E0E8DFEE27F6
:047FF000FF270994CA
:027FFE00040479
:0400000300007E007B
:00000001FF
