:100000000C9468000C9490000C9490000C94900058
:100010000C9490000C9490000C9490000C94900020
:100020000C9490000C9490000C9490000C94900010
:100030000C9490000C9490000C9490000C94900000
:100040000C94AF020C9490000C947D020C94570217
:100050000C9490000C9490000C9490000C949000E0
:100060000C9490000C9490000000000024002700E5
:100070002A0048494748004C4F570054616B2063A1
:100080007A79207369616B00000000002500280068
:100090002B00040404040404040402020202020209
:1000A000030303030303010204081020408001023C
:1000B00004081020010204081020000000080002BB
:1000C0000100000304070000000000000000F90226
:1000D00011241FBECFEFD8E0DEBFCDBF11E0A0E0FE
:1000E000B1E0E2E5F8E002C005900D92AE31B10753
:1000F000D9F721E0AEE1B1E001C01D92A43CB20706
:10010000E1F710E0C8E6D0E004C02197FE010E94AC
:100110002104C736D107C9F70E9426030C9427048F
:100120000C940000E7ECF0E02491E3EBF0E0949114
:10013000EFE9F0E0E491EE23C9F0222339F0233017
:1001400001F1A8F4213019F1223029F1F0E0EE0F8D
:10015000FF1FE857FF4FA591B4912FB7F894EC918A
:10016000811126C090959E239C932FBF0895273020
:10017000A9F02830C9F0243049F7209180002F7D64
:1001800003C0209180002F7720938000DFCF24B51B
:100190002F7724BDDBCF24B52F7DFBCF2091B0007E
:1001A0002F772093B000D2CF2091B0002F7DF9CFD0
:1001B0009E2BDACFAF92BF92CF92DF92EF92FF9257
:1001C0000F931F93CF93DF936C017B018B01040F7F
:1001D000151FEB015E01AE18BF08C017D10759F01B
:1001E0006991D601ED91FC910190F081E02DC6015D
:1001F0000995892B79F7C501DF91CF911F910F9157
:10020000FF90EF90DF90CF90BF90AF900895FC01EA
:10021000538D448D252F30E0842F90E0821B930B6B
:10022000541710F0CF96089501970895FC01918D11
:10023000828D981761F0A28DAE0FBF2FB11D5D9614
:100240008C91928D9F5F9F73928F90E008958FEFB6
:100250009FEF0895FC01918D828D981731F0828D6A
:10026000E80FF11D858D90E008958FEF9FEF0895C1
:10027000FC01918D228D892F90E0805C9F4F821B25
:1002800091098F7399270895FC01A48DA80FB92FA8
:10029000B11DA35ABF4F2C91848D90E001968F73AE
:1002A0009927848FA689B7892C93A089B1898C91CD
:1002B000837080648C93938D848D981306C002881C
:1002C000F389E02D80818F7D80830895EF92FF92E6
:1002D0000F931F93CF93DF93EC0181E0888F9B8D69
:1002E0008C8D98131AC0E889F989808185FF15C023
:1002F0009FB7F894EE89FF896083E889F989808146
:100300008370806480839FBF81E090E0DF91CF9114
:100310001F910F91FF90EF900895F62E0B8D10E036
:100320000F5F1F4F0F731127E02E8C8D8E110CC0A5
:100330000FB607FCFACFE889F989808185FFF5CFF0
:10034000CE010E944401F1CFEB8DEC0FFD2FF11D8A
:10035000E35AFF4FF0829FB7F8940B8FEA89FB892D
:1003600080818062CFCFCF93DF93EC01888D88238B
:10037000B9F0AA89BB89E889F9898C9185FD03C008
:10038000808186FD0DC00FB607FCF7CF8C9185FFED
:10039000F2CF808185FFEDCFCE010E944401E9CFED
:1003A000DF91CF9108953FB7F89480912301909108
:1003B0002401A0912501B091260126B5A89B05C076
:1003C0002F3F19F00196A11DB11D3FBFBA2FA92FD4
:1003D000982F8827BC01CD01620F711D811D911DD1
:1003E00042E0660F771F881F991F4A95D1F708953D
:1003F0008F929F92AF92BF92CF92DF92EF92FF9235
:100400004B015C010E94D3016B017C010E94D3016E
:100410006C197D098E099F09683E7340810591051D
:10042000A8F321E0821A9108A108B10888EEC80E4D
:1004300083E0D81EE11CF11C81149104A104B104D5
:1004400029F7FF90EF90DF90CF90BF90AF909F90F3
:100450008F900895FC0101900020E9F73197AF01DA
:10046000481B590BBC0187E291E00C94DA000F9312
:100470001F93CF93DF938C01D0E0C0E0F801EC0F25
:10048000FD1F6491662341F087E291E00E946601BE
:10049000892B11F02196F2CF82E191E00E942A028D
:1004A0008C0F9D1FDF91CF911F910F9108951F9287
:1004B0000F920FB60F9211242F933F934F935F9398
:1004C0006F937F938F939F93AF93BF93EF93FF931C
:1004D00087E291E00E944401FF91EF91BF91AF91BB
:1004E0009F918F917F916F915F914F913F912F914C
:1004F0000F900FBE0F901F9018951F920F920FB67E
:100500000F9211242F938F939F93EF93FF93E0917A
:100510003701F09138018081E0913D01F0913E0179
:1005200082FD1BC09081809140018F5F8F7320916D
:100530004101821741F0E0914001F0E0E95DFE4F9A
:10054000958F80934001FF91EF919F918F912F9113
:100550000F900FBE0F901F9018958081F4CF1F92BF
:100560000F920FB60F9211242F933F938F939F9367
:10057000AF93BF9380911F0190912001A091210121
:10058000B091220130911E0123E0230F2D3758F541
:100590000196A11DB11D20931E0180931F01909310
:1005A0002001A0932101B093220180912301909119
:1005B0002401A0912501B09126010196A11DB11D34
:1005C0008093230190932401A0932501B0932601E9
:1005D000BF91AF919F918F913F912F910F900FBE3F
:1005E0000F901F90189526E8230F0296A11DB11DAC
:1005F000D2CFE7E2F1E01382128288EE93E0A0E02E
:10060000B0E084839583A683B78384E091E09183EF
:10061000808385EC90E09587848784EC90E09787D1
:10062000868780EC90E0918B808B81EC90E0938BBF
:10063000828B82EC90E0958B848B86EC90E0978B9C
:10064000868B118E128E138E148E0895CF93DF93A6
:10065000CDB7DEB7A1970FB6F894DEBF0FBECDBF02
:10066000789484B5826084BD84B5816084BD85B58D
:10067000826085BD85B5816085BD80916E00816099
:1006800080936E001092810080918100826080933F
:100690008100809181008160809381008091800041
:1006A0008160809380008091B10084608093B1006C
:1006B0008091B00081608093B00080917A00846066
:1006C00080937A0080917A00826080937A00809192
:1006D0007A00816080937A0080917A0080688093AC
:1006E0007A001092C100E0913701F091380182E068
:1006F0008083E0913301F09134011082E091350163
:10070000F09136018FEC808310923F01E0913B0124
:10071000F0913C0186E08083E0913901F0913A014B
:10072000808180618083E0913901F0913A0180817C
:1007300088608083E0913901F0913A01808180687E
:100740008083E0913901F0913A0180818F7D80832F
:10075000E3EBF0E02491EFE9F0E08491882399F055
:1007600090E0880F991FFC01E859FF4FA591B491C3
:10077000FC01E857FF4F859194918FB7F894EC9165
:10078000E22BEC938FBF8BE790E00E9437028BE760
:1007900090E00E9437028BE790E00E9437028BE7DF
:1007A00090E00E9437028BE790E00E94370205E359
:1007B00011E380E00E94920087E790E00E943702F8
:1007C00068EE73E080E090E00E94F80181E00E9412
:1007D000920082E790E00E94370264EF71E080E0CF
:1007E00090E00E94F80180E00E94920085E191E093
:1007F0000E942A0282E191E00E942A0264EF71E0E5
:1008000080E090E00E94F80181E00E94920089E17E
:1008100091E00E942A0282E191E00E942A0260EDAA
:1008200077E080E090E00E94F80119A208A31F8FF2
:10083000CE014F960E942A0282E191E00E942A0294
:10084000B8CFEE0FFF1F0590F491E02D0994F894B6
:02085000FFCFD8
:10085200000000006601DA000701B3013801160149
:0E0862002A010D0A004C4F5700484947480034
:00000001FF
