:100000000C945D000C9485000C9485000C94850084
:100010000C9485000C9485000C9485000C9485004C
:100020000C9485000C9485000C9485000C9485003C
:100030000C9485000C9485000C9485000C9485002C
:100040000C94D3110C9485000C94A1110C947B1189
:100050000C9485000C9485000C9485000C9485000C
:100060000C9485000C94850000000008000201003B
:100070000003040700000000000000000000000072
:10008000250028002B0000000000240027002A0083
:10009000040404040404040402020202020203032E
:1000A0000303030301020408102040800102040836
:1000B00010200102040810201D1211241FBECFEFD2
:1000C000D8E0DEBFCDBF12E0A0E0B1E0EEE6FEE298
:1000D00002C005900D92A035B107D9F724E0A0E544
:1000E000B2E001C01D92A836B207E1F710E0CDE5FD
:1000F000D0E004C02197FE010E942817CC35D1071B
:10010000C9F70E94BA120C9435170C9400008CBDEC
:100110009DBD0895FC01818D928D08950895AF9243
:10012000BF92CF92DF92EF92FF920F931F93CF93E4
:10013000DF936C017B018B01040F151FEB015E0146
:10014000AE18BF08C017D10759F06991D601ED91DB
:10015000FC910190F081E02DC6010995892B79F77A
:10016000C501DF91CF911F910F91FF90EF90DF902C
:10017000CF90BF90AF900895FC01538D448D252FF3
:1001800030E0842F90E0821B930B541710F0CF9631
:10019000089501970895FC01918D828D981761F063
:1001A000A28DAE0FBF2FB11D5D968C91928D9F5F7A
:1001B0009F73928F90E008958FEF9FEF0895FC0159
:1001C000918D828D981731F0828DE80FF11D858D0C
:1001D00090E008958FEF9FEF0895FC01918D228D9F
:1001E000892F90E0805C9F4F821B91098F73992724
:1001F0000895FC01A48DA80FB92FB11DA35ABF4FBC
:100200002C91848D90E001968F739927848FA68915
:10021000B7892C93A089B1898C91837080648C9369
:10022000938D848D981306C00288F389E02D808118
:100230008F7D80830895EF92FF920F931F93CF934A
:10024000DF93EC0181E0888F9B8D8C8D98131AC011
:10025000E889F989808185FF15C09FB7F894EE89F8
:10026000FF896083E889F989808183708064808355
:100270009FBF81E090E0DF91CF911F910F91FF90A0
:10028000EF900895F62E0B8D10E00F5F1F4F0F7348
:100290001127E02E8C8D8E110CC00FB607FCFACF03
:1002A000E889F989808185FFF5CFCE010E94F900A8
:1002B000F1CFEB8DEC0FFD2FF11DE35AFF4FF082D4
:1002C0009FB7F8940B8FEA89FB8980818062CFCF3A
:1002D000CF93DF93EC01888D8823B9F0AA89BB897D
:1002E000E889F9898C9185FD03C0808186FD0DC068
:1002F0000FB607FCF7CF8C9185FFF2CF808185FF89
:10030000EDCFCE010E94F900E9CFDF91CF910895A2
:1003100090E0FC01E859FF4F2491FC01EC55FF4FA0
:100320003491FC01E057FF4FE491EE23C9F0222302
:1003300039F0233001F1A8F4213019F1223029F1EC
:10034000F0E0EE0FFF1FE458FF4FA591B4918FB777
:10035000F894EC91611126C030953E233C938FBFF9
:1003600008952730A9F02830C9F0243049F780914A
:1003700080008F7D03C0809180008F778093800004
:10038000DFCF84B58F7784BDDBCF84B58F7DFBCF86
:100390008091B0008F778093B000D2CF8091B00071
:1003A0008F7DF9CF3E2BDACFFF920F931F93CF9320
:1003B000DF93F62EFC01C281D3818E010A5F1F4FAD
:1003C000C017D10729F1899199919C013327F9012F
:1003D000EC55FF4F449120573F4FF90124912223C0
:1003E00099F030E0220F331FF901EA57FF4FA59132
:1003F000B491F901E458FF4F259134912FB7F89447
:10040000EC914E2B4C932FBF6F2D0E948801D8CFBB
:10041000DF91CF911F910F91FF9008953FB7F8940E
:100420008091550290915602A0915702B0915802C6
:1004300026B5A89B05C02F3F19F00196A11DB11D3F
:100440003FBFBA2FA92F982F8827BC01CD01620F7B
:10045000711D811D911D42E0660F771F881F991F36
:100460004A95D1F708958F929F92AF92BF92CF9203
:10047000DF92EF92FF924B015C010E940E026B0132
:100480007C010E940E026C197D098E099F09683E4D
:10049000734081059105A8F321E0821A9108A10813
:1004A000B10888EEC80E83E0D81EE11CF11C81144F
:1004B0009104A104B10429F7FF90EF90DF90CF9051
:1004C000BF90AF909F908F9008952FB7F894609150
:1004D00051027091520280915302909154022FBFA9
:1004E0000895FC0120812EBD9B012150310941F06E
:1004F00051810DB407FEFDCF4EB55EBD4193F5CFE2
:1005000061507109860F971F0DB407FEFDCF2EB500
:10051000FC0120830895F0E0E0E08081808308956D
:10052000F0E0E0E08081808308958EBD00000DB48E
:1005300007FEFDCF8EB50895CF92DF92EF92FF9226
:100540000F931F93CF93DF93CDB7DEB728970FB6E6
:10055000F894DEBF0FBECDBF8C017B016A010E9403
:1005600090020F3F110509F028F419820A8384E0F4
:100570008B830CC017FD1AC019820A8333E01695CD
:1005800007953A95E1F7007E0C600B8387010C0D0F
:100590001D1DE6E0CE16D10490F5F701DE0114969C
:1005A0000E171F0799F081918D93FACFC80126E0AD
:1005B000969587952A95E1F7807E19830A83011520
:1005C000104C10F48461D4CF8C61D2CFB6016D5F32
:1005D0007F4FCE0101960E9471020E948B02C601DC
:1005E00028960FB6F894DEBF0FBECDBFDF91CF9136
:1005F0001F910F91FF90EF90DF90CF90089563E0EF
:1006000070E0CE0101960E947102F70181917F0195
:100610000E949502E016F106C1F7DFCF982F990FDF
:10062000990F990F80E090540895FB01BA0190E072
:10063000982F8827A9018E0F9F1F0C949C02CF939F
:10064000DF9300D0CDB7DEB779836A8322E030E054
:10065000AE014F5F5F4F60E170E00E9415030F90A5
:100660000F90DF91CF910895CF93DF9300D0CDB756
:10067000DEB779836A8322E030E0AE014F5F5F4FDF
:1006800064E070E00E9415030F900F90DF91CF910E
:100690000895CF93DF931F92CDB7DEB79B014983B7
:1006A00090E0982F882741E050E0BE016F5F7F4FB8
:1006B000820F931F0E949C020F90DF91CF910895AB
:1006C000CF93DF931F92CDB7DEB76983DC01ED9145
:1006D000FC910280F381E02D41E050E0BE016F5FAC
:1006E0007F4F09950F90DF91CF910895CF93DF93BE
:1006F0001F92CDB7DEB76983DC01ED91FC910280DA
:10070000F381E02D41E050E0BE016F5F7F4F09951E
:100710000F90DF91CF910895FC019485FB018485B2
:10072000981303C081E0943008F080E00895CF93DF
:10073000DF931F92CDB7DEB76983DC01ED91FC91A9
:100740000280F381E02D41E050E0BE016F5F7F4FFA
:1007500009950F90DF91CF910895FC017687658709
:100760000895DC01ED91FC91068CF78DE02D099543
:1007700091E089270895862F089581E086270895BE
:1007800021E0FC018485843008F020E0822F089568
:100790000895FF920F931F93CF93DF93EB01FC011A
:1007A000178A168A2A81211109C02B81211106C0BE
:1007B0002C81211103C02D81222301F14115510506
:1007C000E9F08A01FC01F08C80E591E00E9487004D
:1007D000AE014E5F5F4F24E030E06CE070E08F2DA3
:1007E0000E941503B8018F2D0E941F0381E090E045
:1007F000DF91CF911F910F91FF90089580E0F7CF87
:10080000FC01848595850895FC0184899589089566
:100810002EEC31E0FC0131832083FB0140895189BA
:1008200062897389FC0142835383648375830895CD
:10083000DC01ED91FC91048CF58DE02D09940F9372
:100840001F93660F771FFC01E60FF71F220F331F60
:10085000DA01A20FB31F90E080E08017910734F413
:10086000219131912D933D930196F7CF1F910F91D7
:10087000089590E080E00895DC0114962D913C915C
:100880001597621773074CF4ED91FC91028CF38D70
:10089000E02D0995BC0181E0089560E070E080E002
:1008A000089508970C943C04DC01ED91FC910190B3
:1008B000F081E02D099408970C945404FC01868182
:1008C0009781880F991F0895FC018481958108956F
:1008D000CF92DF92EF92FF920F931F93CF93DF930C
:1008E0006C01EB01DC01ED91FC910190F081E02DB8
:1008F00009957C01F60104811581015011091583C8
:100900000483828193810C1B1D0BBE016F5F7F4F9F
:100910009E01AC010E941F04C701DF91CF911F917E
:100920000F91FF90EF90DF90CF900895DC01149627
:100930002D913C911597621773074CF4ED91FC9142
:100940000088F189E02D0995BC0181E0089560E0FF
:1009500070E080E00895CF92DF92EF92FF920F93C4
:100960001F93CF93DF937C018B01D0E0C0E0D801CF
:10097000ED91FC910488F589E02DC8010995C8170F
:10098000D907A4F4D701ED91FC91C680D780D80196
:10099000ED91FC910190F081E02DBE01C801099517
:1009A000BC01C701F60109952196E1CFDF91CF91F6
:1009B0001F910F91FF90EF90DF90CF900895FC0171
:1009C00024813581121613067CF4215031093583B8
:1009D0002483220F331F0280F381E02DE20FF31FE7
:1009E0006081718181E0089560E070E080E00895A9
:1009F000FC0124813581621773075CF4660F771F51
:100A000082819381680F791FFB015183408380E0CD
:100A1000089581E00895660F771FDC011296ED912D
:100A2000FC91E60FF71F80819181089581E0089580
:100A3000089590E080E00895FB0101900020E9F71F
:100A40003197AF01461B570BDC01ED91FC91028001
:100A5000F381E02D09948F929F92AF92BF92EF9213
:100A6000FF920F931F93CF93DF93CDB7DEB7A1977C
:100A70000FB6F894DEBF0FBECDBF7C01FA01CB01EB
:100A800019A2223008F42AE08E010F5D1F4F822E3A
:100A9000912CB12CA12CBF01A50194010E94061735
:100AA000F901CA016A300CF5605DD8016E938D01C1
:100AB000232B242B252B79F790E080E0109721F051
:100AC000BD01C7010E941C05A1960FB6F894DEBFB8
:100AD0000FBECDBFDF91CF911F910F91FF90EF908F
:100AE000BF90AF909F908F900895695CDECF0F9379
:100AF0001F93CF93DF93EC010E941C058C0160EDE6
:100B000071E0CE010E941C05800F911FDF91CF91F3
:100B10001F910F9108958F929F92AF92BF92CF92A3
:100B2000DF92EF92FF920F931F93CF93DF937C019D
:100B3000EB016C0182E0C80ED11C4701E5E08E0E8E
:100B4000911C10E000E0F60141916F0150E070E06F
:100B500060E02AE0CE010E942B055C01E881F9816A
:100B60000190F081E02D6EE2CE0109958A0D9B1D6A
:100B7000080F191FC814D90431F7F701458150E057
:100B800070E060E02AE0CE010E942B05800F911FEB
:100B9000DF91CF911F910F91FF90EF90DF90CF9059
:100BA000BF90AF909F908F900895EF92FF920F9318
:100BB0001F93CF93DF93EC017B0163ED71E08DE731
:100BC00092E00E94770510E000E0D70112968C9128
:100BD00012978017110669F064F01396ED91FC915D
:100BE000E00FF11F618180810E9488010E5F1F4F1D
:100BF000ECCFF7018081888388EC89831A821C827C
:100C00001B821D82CE01DF91CF911F910F91FF902A
:100C1000EF900895CF92DF92EF92FF920F931F9380
:100C2000CF93DF9300D000D0CDB7DEB78C016B013E
:100C30007A010E9490020F3F110509F030F51982E8
:100C40000A831B8263E070E0CE0101960E9471026C
:100C5000A70170E060E0C6010E942E17E114F104C4
:100C600021F0B701C6010E9471020E948B02C701E8
:100C70000F900F900F900F90DF91CF911F910F91D8
:100C8000FF90EF90DF90CF90089517FD0BC0198271
:100C90000A8333E0169507953A95E1F7007E0860E0
:100CA0000B83D0CFC80126E0969587952A95E1F76A
:100CB000807E19830A830115104C18F480618B83A0
:100CC000C1CF8861FCCF1F93CF93DF931F92CDB725
:100CD000DEB7182F80E591E00E948700812F0E94E7
:100CE0000E0327E0129FF0011124E75AFD4F2281E5
:100CF0003381377041E050E0BE016F5F7F4F820F5C
:100D0000931F0E940A0689810F90DF91CF911F9156
:100D10000895FC01808D843040F4218D328D232B89
:100D200021F00E94630690E008958FEF9FEF0895F1
:100D3000CF93DF93FC012485243028F08FEF9FEFC1
:100D4000DF91CF910895EC010190F081E02D0084B6
:100D5000F185E02D0995892B89F38C850E94630626
:100D600090E0EECFCF93DF931F92CDB7DEB79B011C
:100D700090E0982F882741E050E0BE016F5F7F4FE1
:100D8000820F931F0E940A0689810F90DF91CF91F5
:100D90000895CF93C82F462F61E070E00E94490369
:100DA00061E070E08C2F0E94B2068111F9CFCF91E3
:100DB0000895CF93C82F80E591E00E94870068E0F6
:100DC00070E08C2FCF910C94C906CF93C82F80E58B
:100DD00091E00E94870060E170E08C2FCF910C942D
:100DE000C906CF93DF93EC01888D843020F40E94F4
:100DF000E50684E0888FDF91CF91089563E070E08D
:100E00000C94B206CF93C82F80E591E00E94870032
:100E10008C2FCF910C94FE06EF92FF920F931F93AD
:100E2000CF937C0105E712E0C0E0F80121913191F8
:100E30008F01F701848195812817390729F0CF5F49
:100E4000C43099F780E006C08C2F0E9402078431DD
:100E5000B1F781E0CF911F910F91FF90EF9008952E
:100E6000CF93DF93EC018C858430D0F40E9402078D
:100E7000843189F0882379F0883169F021E08C3160
:100E800059F4E881F9810084F185E02DCE010995BE
:100E900021E0892B09F420E0822FDF91CF91089582
:100EA00080E0FBCFCF92DF92EF92FF92CF93DF9360
:100EB000EC018C85843068F40E94D9060E9465029A
:100EC0006B017C018C850E940207811109C084E0BE
:100ED0008C87DF91CF91FF90EF90DF90CF900895B6
:100EE00061E070E080E090E00E9433020E946502C1
:100EF000AB01BC014C195D096E097F098D859E858A
:100F0000B0E0A0E0481759076A077B07D8F28C8544
:100F10000E94E506DCCFCF93FC01C08D80E591E017
:100F20000E94870060E270E08C2F0E94C90662E098
:100F300070E08C2F0E94B20684FD16C062E070E063
:100F40008C2F0E94B20683FF0AC048E162E070E085
:100F50008C2F0E94490380E090E0CF91089580E5B6
:100F600091E00E948700E3CF40E162E070E08C2FC7
:100F70000E94490381E0F0CFFB01BA0190E0982F75
:100F80008827A9018E0F9F1F0C940A0684E00895FC
:100F9000EF92FF920F931F93CF93DF9300D000D077
:100FA00000D0CDB7DEB78C017A01FC01808D843092
:100FB00010F40E94E506B701CE0101960E94C60713
:100FC000F801808F843090F4F586E486128E118EBD
:100FD00081E026960FB6F894DEBF0FBECDBFDF913D
:100FE000CF911F910F91FF90EF90089580E0F1CF86
:100FF000AF92BF92CF92DF92EF92FF920F931F9327
:10100000CF93DF9300D000D000D0CDB7DEB7082F4C
:101010006B0180E591E00E9487009E012F5F3F4FAA
:101020007901590110E0812F0E94FE06F50181939C
:101030005F01882341F11F5F1430A9F710E0F70129
:1010400081917F018D31D1F08831C1F08A51823098
:10105000A8F01F5F143099F7812F26960FB6F894E9
:10106000DEBF0FBECDBFDF91CF911F910F91FF90DB
:10107000EF90DF90CF90BF90AF90089560E170E067
:10108000812F0E94C906E12EF12CF701EE0FFF1F00
:10109000EB58FD4F1182108283EE93E00197F1F738
:1010A000402F70E060E0812F0E9449034FEF62E023
:1010B00070E0812F0E944903B601CD2889F4809108
:1010C00000019091010101968115F0EC9F0798F1C4
:1010D00090930101809300016091000170910101E2
:1010E000812F0E94340361E070E0812F0E94C906C5
:1010F00027E02E9DC0012F9D900D11249C01275AA1
:101100003D4F7901F9011182108222E030E0AE01F9
:101110004B5F5F4F68E270E0812F0E94BC078D81BA
:101120009E81982789279827F701938382831682C7
:101130001582148291CF80E090ECCACF0F931F9359
:10114000CF93DF93EC018B018C85843048F40E94AF
:101150000207882319F08C850E94D90684E08C87C9
:10116000F80182819381A481B5810097A105B10521
:1011700039F08F3F9F4FAF4FBF4F11F084E08C8706
:1011800090E080E0DF91CF911F910F910895CF9370
:10119000DF93EC01888D843010F40E94E50684E032
:1011A000888F80E0DF91CF91089508956F927F92AC
:1011B0009F92AF92BF92CF92DF92EF92FF920F93E6
:1011C0001F93CF93DF9300D0CDB7DEB7982E7B016E
:1011D0003A01590122E030E0AE014F5F5F4F64E217
:1011E00070E00E94BC0709811A811027012710278F
:1011F0000E0D1F1D98013770C92CD12C60E1C60E51
:10120000D11CDC2CCC24DD0CDD0CDD0CC9018C0DDB
:101210009D1DA9014A0D5B1D4130584080F160E0E1
:1012200078E07B01E21AF30AA701B3010E949C0255
:10123000A5014E195F09B3016E0D7F1DC6010E9405
:101240009C020A0D1B1D19830A8322E030E0AE01C7
:101250004F5F5F4F64E270E0892D0E9415030F908D
:101260000F90DF91CF911F910F91FF90EF90DF9042
:10127000CF90BF90AF909F907F906F900895A50101
:10128000B301DDCFEF92FF921F93CF93DF9300D096
:10129000CDB7DEB7182F22E030E0AE014F5F5F4FD1
:1012A00060E270E00E94BC07E980FA80FE24EF242F
:1012B000FE2422E030E0AE014F5F5F4F60E270E05D
:1012C000812F0E94BC0789819A81982789279827B6
:1012D000E816F90689F487E0189FF0011124E75A0F
:1012E000FD4FF582E482C7010F900F90DF91CF91FF
:1012F0001F91FF90EF9008957C01DBCF1F93CF9358
:10130000DF93182F80E591E00E948700812F0E94D3
:101310004209EC01812F0E94FE06873121F08C31B9
:1013200011F0D0E0C0E0CE01DF91CF911F91089580
:10133000CF93DF93EC018C85843060F40E94020728
:10134000873111F08C3131F48C850E947E09811532
:10135000984088F3DF91CF910895FC018485843013
:1013600010F40C947E0990E080E00895CF92DF9213
:10137000EF92FF921F93CF93DF93182F7B01EA0127
:101380004130584010F0C0E0D8E080E591E00E9484
:101390008700812F0E9442096C01812F0E94FE0666
:1013A000873111F08C3121F5CC16DD0670F380E524
:1013B00091E00E9487009E01A70170E060E0812F0C
:1013C0000E94D60860E270E0812F0E94C90662E0A8
:1013D00070E0812F0E94B20684FD0DC0812F0E9413
:1013E000FE068823B9F080E591E00E948700EFCFE8
:1013F000D0E0C0E0DCCF40E162E070E0812F0E94ED
:101400004903CE01DF91CF911F91FF90EF90DF90C4
:10141000CF900895D0E0C0E0F4CF0F931F93CF9307
:10142000DF938C01EA01FC018485843048F40E943A
:10143000B609892B39F481E090E0F8019383828327
:10144000D0E0C0E0CE01DF91CF911F910F910895C0
:101450009F92AF92BF92CF92DF92EF92FF920F9343
:101460001F93CF93DF938C015B01942EE52EFC013B
:10147000C688D788F08C80E591E00E9487008F2D88
:101480000E944209C92DDE2D8C179D0708F4EC013E
:101490009E01A501B6018F2D0E94D608F80186890C
:1014A00097898C0F9D1F978B868BCE01DF91CF91F3
:1014B0001F910F91FF90EF90DF90CF90BF90AF9072
:1014C0009F900895FF920F931F93CF93DF9300D0C7
:1014D000CDB7DEB7F82E22E030E0AE014F5F5F4FB0
:1014E00066E270E00E94BC0709811A81102701277B
:1014F000102722E030E0AE014F5F5F4F66E270E000
:101500008F2D0E94BC0789819A8198278927982767
:101510000817190749F4C8010F900F90DF91CF9178
:101520001F910F91FF9008958C01E3CF1F93CF93EC
:10153000DF93182F87E0189FE0011124C75ADD4F71
:1015400088819981009761F480E591E00E9487008D
:10155000812F0E94620A2E81821B910999838883C0
:10156000DF91CF911F910895FC011382128288EEC2
:1015700093E0A0E0B0E084839583A683B7838AE2FA
:1015800091E09183808384E0848788EE93E096875E
:101590008587CF01089590E080E00895FC0184855F
:1015A000843010F40C94960A90E080E008953F9205
:1015B0004F925F926F927F928F929F92AF92BF9263
:1015C000CF92DF92EF92FF920F931F93CF93DF930F
:1015D00000D0CDB7DEB7382E6B017A01A82EB12C22
:1015E00027E0829FC0011124FC01E75AFD4F4F0103
:1015F0000081118180E591E00E9487000E151F0592
:1016000054F4832D0E94620AF40126818C01021B8E
:101610001109118300830115110529F5832D0E94FD
:10162000FE06843159F0882349F001E010E08C3146
:1016300011F410E000E0119501951109C8010F9017
:101640000F90DF91CF911F910F91FF90EF90DF905E
:10165000CF90BF90AF909F908F907F906F905F9052
:101660004F903F900895E016F1060CF4870187E053
:101670008A9DF0018B9DF00D1124E75AFD4F4280A9
:101680005380C114D10419F13201F7E07F22832D78
:101690000E940E034C01C301880D991D9801260D6F
:1016A000371D2130384008F448C060E078E07B0105
:1016B000E618F708A701B6010E940A06A8014E190C
:1016C0005F09B6016E0D7F1DC4010E940A06400E1F
:1016D000511E87E08A9DF0018B9DF00D1124E75A81
:1016E000FD4F5382428220813181201B310B318397
:1016F00020838681800F912F911D8A3F910510F4E0
:10170000232BF1F487E08A9DF0018B9DF00D1124CD
:10171000E75AFD4F168259824A8222E030E0AE013C
:101720004F5F5F4F68E270E0832D0E94150360E415
:1017300070E0832D0E94C90681CFA801B601C5CFF4
:1017400086837CCFCF93DF93FC01218D328D2115D1
:10175000310529F48FEF9FEFDF91CF910895EC01D0
:10176000808D4217530708F0A9010E94D70A181666
:10177000190684F7298D3A8D281B390B3A8F298F4A
:10178000EBCF0F931F93CF93DF931F92CDB7DEB7AD
:10179000FC01218D328D232B41F48FEF9FEF0F90B1
:1017A000DF91CF911F910F9108958C0141E050E09E
:1017B000BE016F5F7F4FFC01808D0E94D70A181613
:1017C00019065CF7F801818D928D0197928F818FB8
:1017D000898190E0E4CFCF93DF931F92CDB7DEB73E
:1017E00041E050E0BE016F5F7F4FFC0184850E94A5
:1017F000D70A1816190634F4898190E00F90DF910A
:10180000CF9108958FEF9FEFF9CFFC01848584304D
:1018100010F40C94D70A90E080E008950F931F9382
:10182000CF93DF9300D0CDB7DEB7FC012485243001
:10183000E0F48C0180E591E00E94870022E030E036
:10184000AE014F5F5F4F60E170E0F80184850E9458
:10185000BC0789819A819827892798270F900F9034
:10186000DF91CF911F910F91089590E080E0F6CF26
:101870000F931F93CF93DF9300D0CDB7DEB7FC015A
:1018800024852430E0F48C0180E591E00E948700FB
:1018900022E030E0AE014F5F5F4F64E070E0F8019E
:1018A00084850E94BC0789819A8198278927982777
:1018B0000F900F90DF91CF911F910F91089590E0BD
:1018C00080E0F6CF0F931F93CF93DF93CDB7DEB7B2
:1018D00028970FB6F894DEBF0FBECDBF8C01D8019C
:1018E00059964D915C915A974115510551F0ED91E2
:1018F000FC91048CF58DE02D70E060E0C801099545
:10190000EECFF801808D0E94960A892BB1F148E054
:1019100050E0BE016F5F7F4FD80158968C910E94B6
:10192000D70A18161906F4F4D801509684E0FE017F
:10193000319601900D928A95E1F78D8190E0982F74
:1019400088272E81820F911DF801958B848B8F81C2
:10195000282F30E0322F22278885820F932F911D68
:10196000928F818F28960FB6F894DEBF0FBECDBF41
:10197000DF91CF911F910F91089590E080E0F2CF19
:101980004F925F926F927F928F929F92AF92BF928F
:10199000CF92DF92EF92FF920F931F93CF93DF933B
:1019A000CDB7DEB763970FB6F894DEBF0FBECDBFDD
:1019B0007C016B013A01FB0120E090E080E06AE0ED
:1019C0003191332309F461C040ED430F4A3008F0F0
:1019D0004DC0689FA001699F500D1124CA01C09796
:1019E000830F911D37FD9A958F3F910549F340F381
:1019F000F701428153816481758180914603909102
:101A00004703A0914803B0914903481759076A0753
:101A10007B0709F40DC28701085F1F4F0E94650212
:101A20006F7077277C5FC8010E94C708813009F07A
:101A300004C28EEC91E09A838983F70182819381BD
:101A4000A481B5818B839C83AD83BE8345E350E045
:101A5000BE016F5F7F4FC8010E94C903892BA9F5A2
:101A6000D12CC12CC8010E94F10617C03E3209F0EA
:101A7000BFCF233009F4BCCFD301A20FB11D129602
:101A80008C932F5F90E080E09BCF233009F0B0CFA4
:101A9000F3018583CC24C394D12CC60163960FB681
:101AA000F894DEBF0FBECDBFDF91CF911F910F9194
:101AB000FF90EF90DF90CF90BF90AF909F908F906E
:101AC0007F906F905F904F9008950E946502F7019C
:101AD0007783668342E050E0B7016A5F7F4FC801B9
:101AE0000E94280A81E090E09A83898342E050E0D6
:101AF000BE016F5F7F4FC8010E94280A80E091E01D
:101B00009A83898342E050E0BE016F5F7F4FC80136
:101B10000E94280A1A82198242E050E0BE016F5FDB
:101B20007F4FC8010E94280A42E050E0BE016F5F6B
:101B30007F4FC8010E94280A42E050E0BE016F5F5B
:101B40007F4FC8010E94280A5601F6018081882330
:101B500001F16501F60181912F01882311F08E3288
:101B6000B1F446018A189B081814190474F48D8680
:101B700041E050E0BE01635F7F4FC8010E94280A28
:101B8000A401B501C8010E94280A5201DECF6201FA
:101B9000E1CF1D8641E050E0BE01635F7F4FC80189
:101BA0000E94280AC12CDD24D394DA82C98242E043
:101BB00050E0BE016F5F7F4FC8010E94280ADA82A1
:101BC000C98242E050E0BE016F5F7F4FC8010E94B2
:101BD000280AC8010E948B07892B09F441CFF3E042
:101BE000AF2EB12C230122E0420E511CD4C0F701CC
:101BF0004281538164817581808D918DA28DB38DD9
:101C0000481759076A077B0709F008C1848D958D2D
:101C1000C59709F003C181A192A15DEFC52EDD2416
:101C2000DA940C970CF4ADC04CE050E0BE016F5F4D
:101C30007F4FC8010E94A20B8B819C819827892726
:101C400098279A8B898BF7014681578129813A81A0
:101C50004217530709F0E7C097FFE5C08F709270F5
:101C60003BEFC32EDD24DA94892B09F08AC06F8004
:101C700078847624672476242AEFC22EDD24DA9431
:101C80006114710409F47DC0D12CC12C8D819E8119
:101C9000982789279827C816D906F8F441E050E01C
:101CA000BE01635F7F4FC8010E94A20B4D85442394
:101CB00031F050E070E060E0C8010E94A20B8D8519
:101CC0008111ECCF44E050E070E060E0C8010E9478
:101CD000A20BFFEFCF1ADF0AD9CF912C812C41E064
:101CE00050E0BE016D5E7F4FC8010E94A20B4B8980
:101CF000842F807C09F06CC0442331F050E070E008
:101D000060E0C8010E94A20B8B898111E8CF42E0FC
:101D100050E0BE01615F7F4FC8010E94A20B42E00C
:101D200050E0BE01635F7F4FC8010E94A20B44E0F8
:101D300050E070E060E0C8010E94A20B42E050E079
:101D4000BE016F5E7F4FC8010E94A20B8F859889EC
:101D500049895A898115914009F043C0CD84DE84B8
:101D6000DC24CD24DC2481E0C816D104D1F5411552
:101D7000544009F04AC044E050E0B201C8010E945A
:101D8000A20B21E0A21AB10809F46CCEFFEFCF1626
:101D9000DF0609F067CE0E9465023B014C01C801D5
:101DA0000E94620C181619060CF421CF0E946502DD
:101DB0006619770988099909693873418105910580
:101DC00048F562E370E080E090E00E943302E7CFE4
:101DD00041E050E070E060E0C8010E94A20B1B8A65
:101DE00093CF54274527542770E060E0C8010E9434
:101DF000A20BFFEF8F1A9F0A6814790409F06FCFC6
:101E000096EFC92EDD24DA94BCCFE7EFCE2EDD2489
:101E1000DA94B7CFCC24CA94DC2CB3CF6EEFC62EA5
:101E2000DD24DA94AECF4CEFC42EDD24DA94A9CFB2
:101E30008EEFC82EDD24DA9430CED12CC12C2DCEDD
:101E4000CF92DF92EF92FF920F931F93CF93DF9386
:101E5000CDB7DEB7AF970FB6F894DEBF0FBECDBFDC
:101E60007C016A010EEC11E01A8309831C861B8633
:101E700088EE93E0A0E0B0E08D879E87AF87B88BB7
:101E800088E591E09A878987188F0F8B198E1A8EB3
:101E90001B8E1C8E84E089A31BA70AA71CA61DA667
:101EA0001EA61FA680913A0390913B03A0913C038C
:101EB000B0913D038EA39FA3A8A7B9A78B839C8352
:101EC000AD83BE8318861F82AE01465D5F4FCE0193
:101ED00001960E94C00C81309105B1F4D701ED91BB
:101EE000FC910488F589E02D1DA30CA38CA59DA56C
:101EF000AEA5BFA58EA39FA3A8A7B9A7A601BE01A3
:101F00006C5D7F4FC7010995AF960FB6F894DEBFA1
:101F10000FBECDBFDF91CF911F910F91FF90EF903A
:101F2000DF90CF900895CF92DF92EF92FF920F93C0
:101F30001F93CF93DF93CDB7DEB7AF970FB6F8946B
:101F4000DEBF0FBECDBF8C016B017A018EEC91E03C
:101F50009A8389831B821C821D821E821C861B869B
:101F600048EE53E060E070E04D875E876F87788BC6
:101F700028E531E03A872987988F8F8B198E1A8E42
:101F80001B8E1C8E24E029A39BA78AA71CA61DA636
:101F90001EA61FA6D8011C968C91843060F40E9466
:101FA0000207882321F0F80184850E94D90684E085
:101FB000D8011C968C9380913A0390913B03A09199
:101FC0003C03B0913D038EA39FA3A8A7B9A78B8321
:101FD0009C83AD83BE8318861F82AE01465D5F4F32
:101FE000B601CE0101960E94C00C0097C1F0D80145
:101FF000ED91FC910684F785E02D8EEC91E09DA398
:102000008CA38CA59DA5AEA5BFA58EA39FA3A8A7B5
:10201000B9A7A701BE016C5D7F4FC8010995AF96B6
:102020000FB6F894DEBF0FBECDBFDF91CF911F91E9
:102030000F91FF90EF90DF90CF900895EF92FF9275
:102040000F931F93CF93DF9300D000D0CDB7DEB7AF
:102050008C017B01FB0184858430A8F08EEC91E03B
:10206000F801918380831282138214821582C80141
:102070000F900F900F900F90DF91CF911F910F91C4
:10208000FF90EF90089580E591E00E94870024E0A2
:1020900030E0AE014F5F5F4F6CE070E0F701848588
:1020A0000E94BC078EEC91E0F801918380838981C6
:1020B0009A81AB81BC8182839383A483B583D7CF7C
:1020C000FC0183819481009721F0019711F00C9419
:1020D0007D160895EF92FF920F931F93CF93DF9396
:1020E000EC010C811D818E819F8108171907F1F485
:1020F000C80105969F838E83811520E49207E8F43A
:10210000880F991F0E94E1157C0130E020E0AC01AE
:1021100070E060E08A819B810E941F048A819B811C
:10212000009711F00E947D16FB82EA82DF91CF9129
:102130001F910F91FF90EF9008958FEF9FEFE2CFE7
:10214000EF92FF920F931F93CF93DF93EC017B01EC
:102150008C819D8101969D838C83CE010E946A10A3
:102160008A819B810C811D810E191F090250110962
:1021700097012F5F3F4FAC01B7010E941F04DF9111
:10218000CF911F910F91FF90EF9008950F931F93A0
:10219000CF93DF93EC018B018C819D8101969D8310
:1021A0008C83CE010E946A108C819D818150904861
:1021B000880F991F2A813B81820F931FFC01118395
:1021C0000083DF91CF911F910F910895EF92FF92BD
:1021D0000F931F93CF93DF937B018A01E9018AE07C
:1021E00090E00E94E115FC01F382E28215830483F2
:1021F000D783C68382E891E09183808384EA91E06B
:1022000091878087CF01DF91CF911F910F91FF9030
:10221000EF9008956F927F928F929F92AF92BF92AC
:10222000CF92DF92EF92FF920F931F93CF93DF93A2
:102230006C013B014A01E901C41BD50B7E0185E01D
:10224000E80EF11CC701880F991FE114A0E4FA06FB
:1022500010F08FEF9FEF0E94E1155C018E0130E0DE
:1022600020E0AC01B401F301828193810E941F043C
:10227000D301ED91FC91008CF18DE02D9701AE0121
:10228000B501C3010995F60191838083C601DF91F1
:10229000CF911F910F91FF90EF90DF90CF90BF9063
:1022A000AF909F908F907F906F900895CF93DF9322
:1022B000EC018CE091E0998388838A819B8100976F
:1022C00011F00E947D1684E190E00E94E1159C01CE
:1022D0002C5E3F4FFC0111921192E217F307D9F7E0
:1022E0009B838A831D821C828AE090E09F838E8379
:1022F000DF91CF9108951F920F920FB60F92112484
:102300002F933F934F935F936F937F938F939F93FD
:10231000AF93BF93EF93FF938DE792E00E94F90094
:10232000FF91EF91BF91AF919F918F917F916F91AD
:102330005F914F913F912F910F900FBE0F901F9083
:1023400018951F920F920FB60F9211242F938F930F
:102350009F93EF93FF93E0918D02F0918E02808125
:10236000E0919302F091940282FD1BC090818091D4
:1023700096028F5F8F7320919702821741F0E09150
:102380009602F0E0E358FD4F958F80939602FF91FF
:10239000EF919F918F912F910F900FBE0F901F90F3
:1023A00018958081F4CF1F920F920FB60F921124CF
:1023B0002F933F938F939F93AF93BF93809151023D
:1023C00090915202A0915302B09154023091500268
:1023D00023E0230F2D3758F50196A11DB11D209341
:1023E00050028093510290935202A0935302B093F3
:1023F00054028091550290915602A0915702B091DB
:1024000058020196A11DB11D80935502909356026A
:10241000A0935702B0935802BF91AF919F918F91B3
:102420003F912F910F900FBE0F901F90189526E8A7
:10243000230F0296A11DB11DD2CFEDE7F2E013826A
:10244000128288EE93E0A0E0B0E084839583A683B7
:10245000B7838CEA91E09183808385EC90E0958747
:10246000848784EC90E09787868780EC90E0918B5E
:10247000808B81EC90E0938B828B82EC90E0958B4B
:10248000848B86EC90E0978B868B118E128E138E48
:10249000148EEAE1F3E08EEC91E091838083128266
:1024A000138214821582E0E2F3E09183808312822A
:1024B000138214821582E6E2F3E091838083128214
:1024C000138214821582ECE2F3E0918380831282FE
:1024D000138214821582E2E3F3E0918380831282F7
:1024E000138214821582EEE3F3E0918380831282DB
:1024F000138214821582E8E3F3E0918380831282D1
:10250000138214821582E4E4F3E0918380831282C3
:10251000138214821582EAE4F3E0918380831282AD
:10252000138214821582E8E5F4E09183808312829D
:10253000138214821582E2E5F4E0138212822EEBFC
:1025400031E03183208328EE33E03583248322E099
:1025500031E0E0E5F3E0DF01A9011D924150504078
:10256000E1F7EEE5F4E09183808312821382148216
:1025700015820895CF93DF93CDB7DEB7A9970FB635
:10258000F894DEBF0FBECDBF789484B5826084BD61
:1025900084B5816084BD85B5826085BD85B5816067
:1025A00085BD80916E00816080936E0010928100E5
:1025B00080918100826080938100809181008160A0
:1025C0008093810080918000816080938000809161
:1025D000B10084608093B1008091B00081608093ED
:1025E000B00080917A00846080937A0080917A00B4
:1025F000826080937A0080917A00816080937A0073
:1026000080917A00806880937A001092C100E091F6
:102610008D02F0918E0282E08083E0918902F09138
:102620008A021082E0918B02F0918C028FEC808301
:1026300010929502E0919102F091920286E08083DF
:10264000E0918F02F0919002808180618083E0911F
:102650008F02F0919002808188608083E0918F02E8
:10266000F0919002808180688083E0918F02F091E8
:10267000900280818F7D808386E090E00E94E1154A
:10268000FC018DE090E09183808384E190E093836E
:10269000828385E190E095838483FD8FEC8F03E056
:1026A00010E01F8F0E8F19A308A382E8C82E81E0C7
:1026B000D82EDB8ECA8E94EAE92E91E0F92EFBA289
:1026C000EAA260E0CE014A960E94D40186E090E042
:1026D0000E94E115FC0186E190E09183808387E10F
:1026E00090E09383828388E190E095838483FB8BE1
:1026F000EA8B1D8B0C8B1F8B0E8BD98AC88AF98EA7
:10270000E88E61E0CE0140960E94D4010E946502ED
:10271000E0E5F3E050E040E022813381232B09F42F
:1027200010C24F5F5F4F709640315105A9F7662484
:102730006394712C33243A9462E574E0CE010196DF
:102740000E94B40A8D85843008F01CC19AEF492E8E
:1027500022E3522E0E946502603E73498F4F9F4FC5
:1027600008F006C1CE0101960E943007882309F4C3
:10277000FFC0CE0101960E94CE0A18161906A4F5D4
:10278000ADB6BEB668EE71E08DE792E00E947705C7
:102790008DB79EB7845691090FB6F8949EBF0FBEB1
:1027A0008DBFADB7BEB711967D01912C10E0CE0163
:1027B00001960E94CE0A181619068CF4C92CD12C49
:1027C000B4E6CB16D1045CF4CE0101960E94EB0B6B
:1027D00011110DC08F3F59F7912C11E0E8CF0FB6C2
:1027E000F894BEBE0FBEADBE10E000E02FC08A3F21
:1027F00009F088C086E090E00E94E1158C01FC01A0
:10280000118215829A949282D7018D917D018083E5
:10281000C6010E94E1150196F8019483838381E04B
:1028200090E08C159D056CF4D7012D917D01D801A8
:102830001396ED91FC91E80FF91F319720830196D3
:10284000F0CF0FB6F894BEBE0FBEADBE82E090E0F2
:102850000E94E1155C01FC017182608263E072E01C
:102860008DE792E00E941C05D8014C9150E070E089
:1028700060E02AE08DE792E00E942B0560ED71E0B8
:102880008DE792E00E941C056AE072E08DE792E01D
:102890000E941C05F801418150E070E060E02AE0F0
:1028A0008DE792E00E942B0560ED71E08DE792E0EC
:1028B0000E941C0563E172E08DE792E00E941C0516
:1028C000F12CE12CD80112968C9112978E151F04D1
:1028D000F9F0F4F01396ED91FC91EE0DFF1D40819F
:1028E00050E070E060E02AE08DE792E00E942B0566
:1028F0006AE172E08DE792E00E941C05BFEFEB1ADF
:10290000FB0AE0CFF701EC0DFD1D808393944FCFC0
:1029100062ED71E08DE792E00E9477056CE172E074
:102920008DE792E00E941C05F801458150E070E0BF
:1029300060E02AE08DE792E00E942B0560ED71E0F7
:102940008DE792E00E941C050115110509F072C087
:10295000F501118210820115110531F0C8010E94A4
:102960006010C8010E947D16C5010E947D16F2CE3E
:1029700064E272E08DE792E00E947705CE01019655
:102980000E94520780E5E82E84E0F82E00E513E06F
:10299000D80112968D919C91892B09F444C00E9414
:1029A00065024B015C01F80186819781A085B185A4
:1029B000B501A401481B590B6A0B7B0B82859385DB
:1029C000A485B585481759076A077B0760F102801F
:1029D000F381E02DD80114968D919C91099588235F
:1029E00031F0F80186859785892B09F0A3C0D801BD
:1029F00013961C921E92129715961C921E92149773
:102A0000F80116821782108611861A961D921D9261
:102A10001D921C921D971F961C921E921E975196F6
:102A20001C921E925097005F1F4FE016F10609F0AE
:102A3000AFCF82CED801FC90B5E6FB1231C0B80111
:102A4000CE0184960E94D5058DA09EA084E08110C1
:102A500001C083E0890DC82ED12CC6010E94E1156A
:102A60007C01DC013C928CA111968C931197E2E0E1
:102A7000F0E0882021F012968C92E3E0F0E0692DDE
:102A800070E02FA138A5EE0DFF1DD901CF01AD01DA
:102A9000421B530B46175707CCF44D914193F7CF88
:102AA000E4E6FE1661F2F8ECFF120DC06DE372E091
:102AB0008DE792E00E947705FCA2FDA21EA218A657
:102AC0001FA219A6C1CFFCA25DA2F8CF860F971F47
:102AD000FC0140824701C4018E199F098C159D0598
:102AE00094F4D4014D914D0150E070E060E02AE093
:102AF0008DE792E00E942B056AE172E08DE792E09B
:102B00000E941C05E8CF6BE472E08DE792E00E9422
:102B10007705A601B701CE0101960E940D0AE114C6
:102B2000F10419F0C7010E947D16CE0184960E941F
:102B300060100ECF7786668686829782A086B186E1
:102B400072CF20915003309151032F5F3F4F30934C
:102B5000510320935003232B31F421E030E03093D4
:102B6000510320935003FA01A4E0EE0FFF1FAA9532
:102B7000E1F7E05AFC4F209150033091510331832B
:102B800020839A01B4E0220F331FBA95E1F7F901CF
:102B9000E05BFC4F26E135E033832283158214820B
:102BA000668377838087918788EE93E0A0E0B0E02A
:102BB00082879387A487B58781E090E0978786878F
:102BC000B6CD0F931F93CF93DF938230910510F40E
:102BD00082E090E0E0916604F091670430E020E04C
:102BE000B0E0A0E0309799F42115310509F44AC00E
:102BF000281B390B24303105D8F58A819B8161155A
:102C0000710589F1FB0193838283FE0111C040812C
:102C100051810281138148175907E0F0481759077D
:102C200099F4109761F012960C93129713961C93D7
:102C30003296CF01DF91CF911F910F9108950093AC
:102C4000660410936704F4CF2115310551F0421743
:102C5000530738F0A901DB019A01BD01DF01F8013A
:102C6000C1CFEF01F9CF9093670480936604CDCF75
:102C7000FE01E20FF31F81939193225031093983B2
:102C80002883D7CF2091640430916504232B41F42D
:102C90002091040130910501309365042093640470
:102CA00020910201309103012115310541F42DB726
:102CB0003EB74091060150910701241B350BE0916E
:102CC0006404F0916504E217F307A0F42E1B3F0B98
:102CD0002817390778F0AC014E5F5F4F241735078E
:102CE00048F04E0F5F1F5093650440936404819336
:102CF00091939FCFF0E0E0E09CCFCF93DF930097DC
:102D0000E9F0FC01329713821282A0916604B0911F
:102D10006704ED0130E020E01097A1F420813181BB
:102D2000820F931F2091640430916504281739079E
:102D300009F061C0F0936504E0936404DF91CF91E2
:102D40000895EA01CE17DF07E8F54A815B819E010D
:102D500041155105B1F7E901FB83EA834991599186
:102D6000C40FD51FEC17FD0761F480819181029695
:102D7000840F951FE90199838883828193819B83C6
:102D80008A83F0E0E0E012968D919C911397009772
:102D9000B9F52D913C911197CD010296820F931FA9
:102DA00020916404309165042817390739F630976B
:102DB00051F51092670410926604B0936504A093D5
:102DC0006404BCCFD383C28340815181840F951F9B
:102DD000C817D90761F44E5F5F4F88819981480F0A
:102DE000591F518340838A819B819383828321155C
:102DF000310509F0B0CFF0936704E09366049ECFED
:102E0000FD01DC01C0CF13821282D7CFA1E21A2EBE
:102E1000AA1BBB1BFD010DC0AA1FBB1FEE1FFF1F7E
:102E2000A217B307E407F50720F0A21BB30BE40BCE
:102E3000F50B661F771F881F991F1A9469F7609515
:102E40007095809590959B01AC01BD01CF010895CF
:102E5000EE0FFF1F0590F491E02D0994DC0101C0F5
:0E2E60006D9341505040E0F70895F894FFCF75
:102E6E0000C0000068048000000000000B05F8049C
:102E7E00DF04C610A010AB045611960468040A11A4
:102E8E0064045E0439040000000097030D0AAD09C6
:102E9E009809CE0AEB0B98069E08930F050C520765
:102EAE003007C003BD03BB038C03B103380C1E10E7
:102EBE000E0CAD03000000006003280A19058E00F9
:102ECE008A00C10B8906C708C807F106C903200F7F
:102EDE008B07620CA20B1804080404040004000003
:102EEE0000000B05F804DF04C610A010AB04561149
:102EFE00960468040A1164045E04E61054043C044B
:102F0E00F8FF00005B045104000000001B018F005D
:102F1E00BC006801ED00CB00DF000000000076036E
:102F2E00CB0A19051805D5080C07000000008B0503
:102F3E000D0A004469676974616C57726974652083
:102F4E006D65737361676500537461727420726589
:102F5E0063616976696E67206D6573736167652E4F
:102F6E002E2E00434F44453A20005354415455539E
:102F7E003A2000415247533A20003B0056414C49FB
:102F8E00443A2000436C69656E7420686173206456
:102F9E006973636F6E6E65637465642E005465733A
:102FAE0074206D6573736167652100454E440000A2
:107E0000112484B714BE81FFF0D085E080938100F7
:107E100082E08093C00088E18093C10086E0809377
:107E2000C20080E18093C4008EE0C9D0259A86E02C
:107E300020E33CEF91E0309385002093840096BBD3
:107E4000B09BFECF1D9AA8958150A9F7CC24DD24C4
:107E500088248394B5E0AB2EA1E19A2EF3E0BF2EE7
:107E6000A2D0813461F49FD0082FAFD0023811F036
:107E7000013811F484E001C083E08DD089C08234E0
:107E800011F484E103C0853419F485E0A6D080C0E4
:107E9000853579F488D0E82EFF2485D0082F10E0AE
:107EA000102F00270E291F29000F111F8ED06801E7
:107EB0006FC0863521F484E090D080E0DECF843638
:107EC00009F040C070D06FD0082F6DD080E0C81688
:107ED00080E7D80618F4F601B7BEE895C0E0D1E017
:107EE00062D089930C17E1F7F0E0CF16F0E7DF06D8
:107EF00018F0F601B7BEE89568D007B600FCFDCFD4
:107F0000A601A0E0B1E02C9130E011968C91119780
:107F100090E0982F8827822B932B1296FA010C0160
:107F200087BEE89511244E5F5F4FF1E0A038BF0790
:107F300051F7F601A7BEE89507B600FCFDCF97BE46
:107F4000E89526C08437B1F42ED02DD0F82E2BD052
:107F50003CD0F601EF2C8F010F5F1F4F84911BD097
:107F6000EA94F801C1F70894C11CD11CFA94CF0C13
:107F7000D11C0EC0853739F428D08EE10CD085E9AC
:107F80000AD08FE07ACF813511F488E018D01DD067
:107F900080E101D065CF982F8091C00085FFFCCF94
:107FA0009093C60008958091C00087FFFCCF809118
:107FB000C00084FD01C0A8958091C6000895E0E648
:107FC000F0E098E1908380830895EDDF803219F02E
:107FD00088E0F5DFFFCF84E1DECF1F93182FE3DFCA
:107FE0001150E9F7F2DF1F91089580E0E8DFEE27F6
:047FF000FF270994CA
:027FFE00040479
:0400000300007E007B
:00000001FF
