:10000000F6C0000025C1000023C1000021C100008E
:100010001FC100001DC100001BC1000019C100006C
:1000200017C1000015C1000013C1000011C100007C
:100030000FC100000DC100000BC1000009C100008C
:1000400007C1000005C1000003C1000001C100009C
:10005000FFC00000FDC00000FBC000000C945F1B4F
:10006000F7C000000C94291B0C94FF1AF1C000008B
:10007000EFC00000EDC00000EBC00000E9C00000D0
:10008000E7C00000E5C00000E3C00000E1C00000E0
:10009000DFC00000DDC00000DBC00000D9C00000F0
:1000A000D7C00000D5C00000D3C00000D1C0000000
:1000B000CFC00000CDC00000CBC00000C9C0000010
:1000C000C7C00000C5C00000C3C00000C1C0000020
:1000D000BFC00000BDC00000BBC00000B9C0000030
:1000E000B7C0000000002100240027002A002D00D6
:1000F0003000330001010000040107010A01000083
:100100002200250028002B002E00310034000201BF
:100110000000050108010B01050505050705080894
:100120000808020202020A0A080804040404010181
:100130000101010101010303030303030303040796
:1001400007070C0C0C0C0C0C0C0C0202020206062D
:100150000606060606060B0B0B0B0B0B0B0B010220
:1001600010202008081020401020408002010201C9
:100170000804020101020408102040808040201081
:1001800008040201800402018040201008040201DA
:100190000804020101020408102040800102040842
:1001A0001020408000000A0B02090C0D0E08070306
:1001B000040100000000000000000000000000003A
:1001C000000000000000000000000000000000002F
:1001D00012111000000000000000000000000000EC
:1001E00000000000000000000000A91B43221124B1
:1001F0001FBECFEFD1E2DEBFCDBF00E00CBF13E0EA
:10020000A0E0B2E0E4E6F9E400E00BBF02C0079032
:100210000D92A236B107D9F725E0A2E6B3E001C0FE
:100220001D92A931B207E1F710E0C6EFD0E000E07F
:1002300006C021970109802FFE010E947724C53F47
:10024000D10780E00807A9F70E945B1C0C94A12449
:10025000D7CE282F30E0F901EC55FE4F9491F901EB
:10026000E25AFE4F4491285E3E4FF9012491222329
:1002700009F432C0992311F191509231F8F4E92F29
:10028000F0E08827E95BFE4F8F4F0C9477247501CF
:10029000790159016D0171015E017C0182018601C4
:1002A0008C01900194019A019E015E01A201A801B6
:1002B000AC01809180008F7780938000E22FF0E086
:1002C000EE0FFF1FE250FF4FA591B4918FB7F89446
:1002D000EC914E2B4C938FBF0895809180008F7DC1
:1002E000EBCF80918000877FE7CF84B58F7784BD87
:1002F000E5CF84B58F7DFBCF8091B0008F77809361
:10030000B000DCCF8091B0008F7DF9CF809190005C
:100310008F7780939000D2CF809190008F7DF9CF1E
:1003200080919000877FF5CF8091A0008F77809398
:10033000A000C4CF8091A0008F7DF9CF8091A00054
:10034000877FF5CF809120018F7780932001B6CFF2
:10035000809120018F7DF9CF80912001877FF5CF9B
:100360008CBD9DBD089520E3FC0120833296862F2D
:1003700082958F706F706A3030F4605D6293682F81
:100380008111F5CF0895695CF9CFFC01818D928DC3
:1003900008950895AF92BF92CF92DF92EF92FF92AD
:1003A0000F931F93CF93DF936C017B018B01040F9D
:1003B000151FEB015E01AE18BF08C017D10759F039
:1003C0006991D601ED91FC910190F081E02DC6017B
:1003D0001995892B79F7C501DF91CF911F910F9165
:1003E000FF90EF90DF90CF90BF90AF900895FC0109
:1003F000538D448D252F30E0842F90E0821B930B8A
:10040000541710F0CF96089501970895FC01918D2F
:10041000828D981761F0A28DAE0FBF2FB11D5D9632
:100420008C91928D9F5F9F73928F90E008958FEFD4
:100430009FEF0895FC01918D828D981731F0828D88
:10044000E80FF11D858D90E008958FEF9FEF0895DF
:10045000FC01918D228D892F90E0805C9F4F821B43
:1004600091098F7399270895FC01A48DA80FB92FC6
:10047000B11DA35ABF4F2C91848D90E001968F73CC
:100480009927848FA689B7892C93A089B1898C91EB
:10049000837080648C93938D848D981306C002883A
:1004A000F389E02D80818F7D80830895EF92FF9204
:1004B0000F931F93CF93DF93EC0181E0888F9B8D87
:1004C0008C8D98131AC0E889F989808185FF15C041
:1004D0009FB7F894EE89FF896083E889F989808164
:1004E0008370806480839FBF81E090E0DF91CF9133
:1004F0001F910F91FF90EF900895F62E0B8D10E055
:100500000F5F1F4F0F731127E02E8C8D8E110BC0C4
:100510000FB607FCFACFE889F989808185FFF5CF0E
:10052000CE01A2DFF2CFEB8DEC0FFD2FF11DE35AD0
:10053000FF4FF0829FB7F8940B8FEA89FB89808187
:100540008062D0CFCF93DF93EC01888D8823B1F008
:10055000AA89BB89E889F9898C9185FD03C08081CE
:1005600086FD0CC00FB607FCF7CF8C9185FFF2CF4C
:10057000808185FFEDCFCE0177DFEACFDF91CF918C
:100580000895CF93DF9390E0FC01E25AFE4F24914F
:10059000885E9E4FFC0184918823D1F090E0880F03
:1005A000991FFC01EC51FF4FA591B491FC01E25061
:1005B000FF4FC591D49161110EC09FB7F8948C91F3
:1005C000E22FE0958E238C932881E223E8839FBF5E
:1005D000DF91CF9108958FB7F894EC91E22BEC93D3
:1005E0008FBFF6CF3FB7F8948091D9039091DA038B
:1005F000A091DB03B091DC0326B5A89B05C02F3F7B
:1006000019F00196A11DB11D3FBFBA2FA92F982F38
:100610008827BC01CD01620F711D811D911D42E033
:10062000660F771F881F991F4A95D1F708958F92FB
:100630009F92AF92BF92CF92DF92EF92FF924B01C7
:100640005C01D0DF6B017C01CDDF6C197D098E0967
:100650009F09683E734081059105B0F321E0821A3D
:100660009108A108B10888EEC80E83E0D81EE11CED
:10067000F11C81149104A104B10431F7FF90EF90B3
:10068000DF90CF90BF90AF909F908F9008952FB73D
:10069000F8946091D5037091D6038091D70390911F
:1006A000D8032FBF0895FC0120812EBD9B0121504E
:1006B000310941F051810DB407FEFDCF4EB55EBD4D
:1006C0004193F5CF61507109860F971F0DB407FE56
:1006D000FDCF2EB5FC0120830895E091D203F09167
:1006E000D30380819091D103892B80830895E09179
:1006F000D203F091D30390818091D1038095892317
:10070000808308958EBD00000DB407FEFDCF8EB529
:100710000895AF92BF92CF92DF92EF92FF920F9324
:100720001F93CF93DF9300D000D01F921F92CDB7BD
:10073000DEB78C017B016A01809125048333B1F41B
:100740005801A40EB51EA016B10609F463C0CFDF90
:1007500080EFD8DF812FD6DF802FD4DF0F5F1F4FD0
:10076000F70181917F01CEDFB8DFEDCF5B01A40EF1
:10077000B51E8433A9F4BBDF19830A838D2D8068ED
:100780008B83CC8264E070E0CE0101968CDFAE14E6
:10079000BF0409F43EC0F70181917F01B3DFF7CFB9
:1007A000A6DF0F3F110509F028F419820A8384E0BF
:1007B0008B830CC017FD17C019820A8333E016958E
:1007C00007953A95E1F7007E0C600B8386E0C8162A
:1007D000D10490F5F701DE011496EA15FB0599F0B6
:1007E00081918D93FACFC80126E0969587952A9539
:1007F000E1F7807E19830A830115104C10F484619F
:10080000D7CF8C61D5CFB6016D5F7F4FCE010196FA
:100810004ADF63DFC60128960FB6F894DEBF0FBE2D
:10082000CDBFDF91CF911F910F91FF90EF90DF909F
:10083000CF90BF90AF90089563E070E0CE01019635
:1008400032DFF70181917F015DDFAE14BF04C9F78C
:10085000E0CFCF93DF931F92CDB7DEB7898341E01E
:1008600050E0BE016F5F7F4F90E080E052DF0F905D
:10087000DF91CF91089590E020912504233339F43E
:100880000C96982F990F990F990F80E0089548962C
:10089000F8CFDA01E091D003F0E0FE2FEE27E60F6B
:1008A000F71F90E0982F8827A901BD018E0F9F1F89
:1008B00030CFCF93DF931F921F92CDB7DEB77983EE
:1008C0006A8322E030E0AE014F5F5F4F60E170E08D
:1008D000E0DF0F900F90DF91CF910895CF93DF93DA
:1008E0001F921F92CDB7DEB779836A8322E030E092
:1008F000AE014F5F5F4F64E070E0CBDF0F900F9071
:10090000DF91CF910895CF93DF931F92CDB7DEB7DC
:100910002091D00330E0322F2227260F371F90E09E
:10092000982F8827498341E050E0BE016F5F7F4FD9
:10093000820F931FEEDE0F90DF91CF910895CF933A
:10094000DF931F92CDB7DEB76983DC01ED91FC9197
:100950000280F381E02D41E050E0BE016F5F7F4FE8
:1009600019950F90DF91CF910895CF93DF931F9248
:10097000CDB7DEB76983DC01ED91FC910280F38194
:10098000E02D41E050E0BE016F5F7F4F19950F9061
:10099000DF91CF910895FC019485FB018485981324
:1009A00003C081E0983008F080E00895CF93DF9392
:1009B0001F92CDB7DEB76983DC01ED91FC91028017
:1009C000F381E02D41E050E0BE016F5F7F4F19954C
:1009D0000F90DF91CF910895FC0176876587089588
:1009E000DC01ED91FC91068CF78DE02D199591E0DD
:1009F00089270895862F089581E08627089521E0AC
:100A0000FC018485883008F020E0822F0895089545
:100A1000FF920F931F93CF93DF93EB01FC01178A93
:100A2000168A2A81211109C02B81211106C02C812F
:100A3000211103C02D812223E9F041155105D1F088
:100A40008A01FC01F08C80E591E08ADCAE014E5F0A
:100A50005F4F24E030E06CE070E08F2D1ADFB801CA
:100A60008F2D27DF81E090E0DF91CF911F910F91D3
:100A7000FF90089580E0F7CFFC0184859585089567
:100A8000FC0184899589089520E233E0FC013183DB
:100A90002083FB014089518962897389FC0142836B
:100AA0005383648375830895DC01ED91FC91048C7C
:100AB000F58DE02D19940F931F93660F771FFC019E
:100AC000E60FF71F220F331FDA01A20FB31F90E0CA
:100AD00080E08017910734F4219131912D933D935B
:100AE0000196F7CF1F910F910895DF92EF92FF9239
:100AF0000F931F93CF93DF93E3E0660F771FEA9581
:100B0000E1F7F3E0220F331FFA95E1F7D0E0C0E000
:100B1000F12CE12CE016F106B4F4DE01A20FB31FB4
:100B2000A40FB51FFE01E60FF71FE80FF91F689429
:100B3000DD24D3F801900D92DA94E1F7EFEFEE1A8D
:100B4000FE0A2896E7CFDF91CF911F910F91FF907A
:100B5000EF90DF90089590E080E00895DC01149616
:100B60002D913C911597621773074CF4ED91FC9110
:100B7000028CF38DE02D1995BC0181E0089560E0B1
:100B800070E080E008950897E9CFDC01ED91FC91D9
:100B90000190F081E02D19940897F7CFFC01868130
:100BA0009781880F991F0895FC018481958108958C
:100BB000CF92DF92EF92FF920F931F93CF93DF9329
:100BC0006C01EB01DC01ED91FC910190F081E02DD5
:100BD00019957C01F60104811581015011091583D5
:100BE0000483828193810C1B1D0BBE016F5F7F4FBD
:100BF0009E01AC0160DFC701DF91CF911F910F9182
:100C0000FF90EF90DF90CF900895DC0114962D9126
:100C10003C911597621773074CF4ED91FC91008895
:100C2000F189E02D1995BC0181E0089560E070E044
:100C300080E00895CF92DF92EF92FF920F931F937F
:100C4000CF93DF937C018B01D0E0C0E0D801ED9120
:100C5000FC910488F589E02DC8011995C817D907BA
:100C6000A4F4D701ED91FC91C680D780D801ED9115
:100C7000FC910190F081E02DBE01C8011995BC01E5
:100C8000C701F60119952196E1CFDF91CF911F9110
:100C90000F91FF90EF90DF90CF900895FC01248199
:100CA0003581121613067CF42150310935832483D3
:100CB000220F331F0280F381E02DE20FF31F6081CA
:100CC000718181E0089560E070E080E00895FC01AA
:100CD00024813581621773075CF4660F771F828168
:100CE0009381680F791FFB015183408380E0089551
:100CF00081E00895660F771FDC011296ED91FC915B
:100D0000E60FF71F8081918108950F931F93CF9372
:100D1000DF93CDB7DEB760970FB6F894DEBF0FBE96
:100D2000CDBF8C01CB01DB0114962D913C91159721
:100D3000421753077CF5ED91FC91028CF38DE02D69
:100D4000BA01199529833A834B835C836D837E8333
:100D50008F83988788E0FE013196DE011996019015
:100D60000D928A95E1F788E0FE013996D80101904D
:100D70000D928A95E1F781E0F8018087C8016096BD
:100D80000FB6F894DEBF0FBECDBFDF91CF911F919C
:100D90000F910895D80118961C92F0CFCF93DF934E
:100DA000EC0168507109B1DFCE01DF91CF91089558
:100DB000CF93DF9300D000D01F921F92CDB7DEB744
:100DC000DC01ED91FC910190F081E02D28960FB6A9
:100DD000F894DEBF0FBECDBFDF91CF911994CF93B2
:100DE000DF9300D000D01F921F92CDB7DEB70897D7
:100DF00028960FB6F894DEBF0FBECDBFDF91CF911E
:100E0000D7CFFC018681978123E0880F991F2A950F
:100E1000E1F708950F931F93CF93DF93CDB7DEB71C
:100E200060970FB6F894DEBF0FBECDBF8C01CB012B
:100E3000DB0114962D913C911597421753077CF5D1
:100E4000ED91FC910088F189E02DBA01199529876F
:100E50003A874B875C876D877E878F87988B88E082
:100E6000FE013996DE01119601900D928A95E1F707
:100E700088E0FE013196D80101900D928A95E1F744
:100E800081E0F8018087C80160960FB6F894DEBF54
:100E90000FBECDBFDF91CF911F910F910895D80163
:100EA00018961C92F0CF8F929F92AF92BF92CF92E2
:100EB000DF92EF92FF920F931F93CF93DF9300D0B7
:100EC00000D01F921F92CDB7DEB75C016B01F12CF1
:100ED000E12CD601ED91FC910488F589E02DC60145
:100EE0001995E816F9060CF5D501ED91FC9186806F
:100EF0009780D601ED91FC910190F081E02DB70132
:100F0000C601199529833A834B835C836D837E8365
:100F10008F83988789019A01AB01BC01C501F40157
:100F20001995FFEFEF1AFF0AD4CF28960FB6F89461
:100F3000DEBF0FBECDBFDF91CF911F910F91FF900C
:100F4000EF90DF90CF90BF90AF909F908F900895DB
:100F5000CF93DF9300D000D01F921F92CDB7DEB7A2
:100F6000DB011496ED91FC9115971E161F0654F5A2
:100F700031971596FC93EE93149723E0EE0FFF1F25
:100F80002A95E1F712962D913C91E20FF31F28E08C
:100F9000DE01119601900D922A95E1F728E0FE01FD
:100FA0003196DC0101900D922A95E1F721E0FC01D8
:100FB000208728960FB6F894DEBF0FBECDBFDF9115
:100FC000CF910895FC011086F4CFEF92FF920F931A
:100FD0001F93CF93DF9300D000D01F921F92CDB705
:100FE000DEB7E982FA820B831C832D833E834F8315
:100FF0005887FC012481358181E0621773078CF4E6
:1010000083E0660F771F8A95E1F7A281B381A60F6F
:10101000B71F88E0FE01319601900D928A95E1F7A5
:1010200080E028960FB6F894DEBF0FBECDBFDF91EB
:10103000CF911F910F91FF90EF900895CF93DF9381
:1010400000D000D01F921F92CDB7DEB723E0660F0D
:10105000771F2A95E1F7DC011296ED91FC91E60FDE
:10106000F71F88E0DE01119601900D928A95E1F755
:1010700029813A814B815C816D817E818F81988548
:1010800028960FB6F894DEBF0FBECDBFDF91CF918B
:101090000895CF92DF92EF92FF920F931F93CF9319
:1010A000DF93CDB7DEB760970FB6F894DEBF0FBE03
:1010B000CDBF7C016B01DC01ED91FC910190F081D1
:1010C000E02D199529873A874B875C876D877E8746
:1010D0008F87988BF70104811581015011091583C1
:1010E0000483828193810C191D09B6016F5F7F4FC4
:1010F0009601AC01FADC88E0FE013996DE0111961A
:1011000001900D928A95E1F729813A814B815C81AA
:101110006D817E818F81988560960FB6F894DEBFD1
:101120000FBECDBFDF91CF911F910F91FF90EF9038
:10113000DF90CF900895089590E080E00895EF92B9
:10114000FF920F931F93CF93DF937B018A01E901F5
:101150008AE090E00E945722FC01F382E28215832C
:101160000483D783C68384E392E09183808386E5FA
:1011700092E091878087CF01DF91CF911F910F91EE
:10118000FF90EF9008956F927F928F929F92AF920F
:10119000BF92CF92DF92EF92FF920F931F93CF9364
:1011A000DF936C013B014A01E901C41BD50B7E01B1
:1011B00085E0E80EF11CC701880F991FE114A0E437
:1011C000FA0610F08FEF9FEF0E9457225C018E010C
:1011D00030E020E0AC01B401F301828193816BDC4B
:1011E000D301ED91FC91008CF18DE02D9701AE01C2
:1011F000B501C3011995F60191838083C601DF9182
:10120000CF911F910F91FF90EF90DF90CF90BF9003
:10121000AF909F908F907F906F900895EF92FF9284
:101220000F931F93CF93DF937B018A01E9018AE03B
:1012300090E00E945722FC01F382E282158304832E
:10124000D783C68386EE92E09183808388E093E023
:1012500091878087CF01DF91CF911F910F91FF90F0
:10126000EF9008956F927F928F929F92AF92BF926C
:10127000CF92DF92EF92FF920F931F93CF93DF9362
:101280006C013B014A01E901C41BD50B7E0185E0DD
:10129000E80EF11C8FEF9FEFE114A0E1FA0630F4A5
:1012A000C70123E0880F991F2A95E1F70E94572272
:1012B0005C018E0130E020E0AC01B401F3018281D9
:1012C000938113DCD301ED91FC91008CF18DE02D25
:1012D0009701AE01B501C3011995F6019183808391
:1012E000C601DF91CF911F910F91FF90EF90DF909A
:1012F000CF90BF90AF909F908F907F906F90089508
:10130000FB0101900020E9F73197AF01461B570B15
:10131000DC01ED91FC910280F381E02D19948F9214
:101320009F92AF92BF92EF92FF920F931F93CF9332
:10133000DF93CDB7DEB7A1970FB6F894DEBF0FBE2F
:10134000CDBF7C01FA01CB0119A2223008F42AE0BA
:101350008E010F5D1F4F822E912CB12CA12CBF014D
:10136000A50194010E944624F901CA016A3004F5DE
:10137000605DD8016E938D01232B242B252B79F7EB
:1013800090E080E0109719F0BD01C701B9DFA19688
:101390000FB6F894DEBF0FBECDBFDF91CF911F9186
:1013A0000F91FF90EF90BF90AF909F908F90089516
:1013B000695CDFCF8F929F92AF92BF92CF92DF9204
:1013C000EF92FF920F931F93CF93DF937C01EB017A
:1013D0006C0182E0C80ED11C4701E5E08E0E911C25
:1013E00010E000E0F60141916F0150E070E060E034
:1013F0002AE0CE0194DF5C01E881F9810190F0815F
:10140000E02D6EE2CE0119958A0D9B1D080F191F64
:10141000C814D90439F7F701458150E070E060E065
:101420002AE0CE017CDF800F911FDF91CF911F91C9
:101430000F91FF90EF90DF90CF90BF90AF909F9073
:101440008F900895CF93DF93BC0186E294E058DF3C
:10145000EC0162E273E086E294E052DF8C0F9D1FA4
:10146000DF91CF910895DC0180E293E08D939D930D
:1014700084E0FB0101900D928A95E1F70895AF9207
:10148000BF92CF92DF92EF92FF920F931F93CF9371
:10149000DF9300D01F92CDB7DEB78C016B017A01CC
:1014A000809125048333B9F45B016801C40ED51E15
:1014B000C016D10659F11BD98FE024D9812F22D92A
:1014C000802F20D90F5F1F4F80E01CD9F501819339
:1014D0005F0103D9EDCF843349F509D919830A8314
:1014E0008F2D8F778B83EC8264E070E0CE010196C4
:1014F000DAD8A70170E060E0C6010E949324E114ED
:10150000F10419F0B701C601CED8E7D8C7010F9092
:101510000F900F900F90DF91CF911F910F91FF903F
:10152000EF90DF90CF90BF90AF900895E0D80F3F3D
:10153000110509F030F419820A831B8263E070E020
:10154000D5CF17FD0BC019820A8333E01695079596
:101550003A95E1F7007E08600B83F0CFC80126E0E2
:10156000969587952A95E1F7807E19830A83011560
:10157000104C18F480618B83E1CF8861FCCFCF934E
:10158000DF931F92CDB7DEB72091D00330E0322F2A
:101590002227260F371F90E0982F882741E050E040
:1015A000BE016F5F7F4F820F931F69DF89810F90AC
:1015B000DF91CF910895CF93C82F462F61E070E05F
:1015C000A2D961E070E08C2FDADF8111FACFCF91E0
:1015D0000895CF93C82F80E591E00E94B00168E0A4
:1015E00070E08C2FCF91E7CFCF93C82F80E591E0AB
:1015F0000E94B00160E170E08C2FCF91DCCFCF93DF
:10160000DF93EC01888D883018F4EEDF88E0888F56
:10161000DF91CF91089563E070E0B1CFCF93C82FF1
:1016200080E591E00E94B0018C2FCF91F4CFEF9232
:10163000FF920F931F93CF93DF937C01809125043A
:10164000D4E0833309F0D8E005E114E0C0E0F8010C
:10165000219131918F01F7018481958128173907F4
:1016600029F0CF5FDC13F3CF80E005C08C2FD6DFED
:101670008431B9F781E0DF91CF911F910F91FF90F5
:10168000EF900895CF93DF93EC018C858830C8F4F8
:10169000C5DF843189F0882379F0883169F021E051
:1016A0008C3159F4E881F9810084F185E02DCE0177
:1016B000199521E0892B09F420E0822FDF91CF9149
:1016C000089580E0FBCFCF92DF92EF92FF92CF930D
:1016D000DF93EC018C85883058F47BDF0E94470350
:1016E0006B017C018C859ADF811109C088E08C87B1
:1016F000DF91CF91FF90EF90DF90CF90089561E060
:1017000070E080E090E00E9417030E944703AB0165
:10171000BC014C195D096E097F098D859E85B0E07D
:10172000A0E0481759076A077B07E0F28C855CDF69
:10173000DDCFCF93FC01C08D80E591E00E94B00128
:1017400060E270E08C2F37DF62E070E08C2F17DFF3
:1017500084FD14C062E070E08C2F11DF83FF09C0AC
:1017600048E162E070E08C2FCED880E090E0CF912D
:10177000089580E591E00E94B001E6CF40E162E08B
:1017800070E08C2FC0D881E0F1CFCF93DF931F9210
:10179000CDB7DEB741E050E0BE016F5F7F4F90E014
:1017A00080E06DDE89810F90DF91CF910895CF9316
:1017B000DF93C4E1D0E0E9DF882361F061E070E00D
:1017C00080E090E00E9417032197A9F780E0DF9165
:1017D000CF91089581E0FBCF1F93CF93DF931F92AA
:1017E000CDB7DEB7182F80E591E00E94B001812FC0
:1017F00042D827E0129FF0011124E352FC4F2281CE
:101800003381377041E050E0BE016F5F7F4F820F40
:10181000931F35DE89810F90DF91CF911F9108953D
:10182000FC01808D883038F4218D328D232B19F006
:10183000D3DF90E008958FEF9FEF0895CF93DF936C
:10184000FC012485283028F08FEF9FEFDF91CF91A6
:101850000895EC010190F081E02D0084F185E02DE8
:101860001995892B89F38C85B7DF90E0EFCFDA01EA
:10187000E091D003F0E0FE2FEE27E60FF71F90E097
:10188000982F8827A901BD018E0F9F1FF8CD8F9239
:101890009F92AF92BF92CF92DF92EF92FF920F93FF
:1018A0001F93CF93DF93CDB7DEB760970FB6F89451
:1018B000DEBF0FBECDBF7C0190912504911115C0F4
:1018C00018E0812F60960FB6F894DEBF0FBECDBF33
:1018D000DF91CF911F910F91FF90EF90DF90CF900C
:1018E000BF90AF909F908F90089508E0933309F4D4
:1018F00004E06B0180E591E00E94B0019E012F5F42
:101900003F4F5901490110E0812F85DEF401819399
:101910004F018823B9F01F5F0113F6CF00E0F501F6
:1019200081915F018D3149F0883139F08A518230DF
:1019300020F00F5F1013F3CFC3CF60E170E0802F72
:101940003ADE102FA12EB12CF501EE0FFF1FEB5E3A
:10195000FB4F1182108283EE93E00197F1F742E88A
:1019600070E060E0812F0E9483044FEF62E070E03E
:10197000812F0E948304B601C114D10491F4809197
:1019800000029091010201968115F0EC9F0708F486
:101990005AC09093010280930002609100027091FE
:1019A0000102812F0E946E0486E0ECE0F2E0DE018D
:1019B000199601900D928A95E1F7F70183818F774F
:1019C0008C8784818D8785818E87A7014E5F5F4FCD
:1019D00024E030E06CE070E0812F0E944904B60101
:1019E000812F0E94590426E030E0AE01475F5F4F2F
:1019F00066E070E0812F0E94490461E070E0812F71
:101A0000DADD27E02A9DC0012B9D900D11249C0159
:101A100023523C4F7901F9011182108222E030E01B
:101A2000AE01415F5F4F68E270E0812F20DF8F855C
:101A30009889982789279827F701938382831682AC
:101A4000158214823ECF80E090ECA3CFCF92DF923C
:101A5000EF92FF920F931F93CF93DF9300D000D0AC
:101A6000CDB7DEB78C016B017A01FC01808D883027
:101A700008F4BADD80E293E09A838983F6018281DB
:101A80009381A481B5818B839C83AD83BE83B70191
:101A9000CE010196FCDEF801808F8830A0F4F58637
:101AA000E486128E118E81E026960FB6F894DEBF82
:101AB0000FBECDBFDF91CF911F910F91FF90EF909F
:101AC000DF90CF90089580E0EFCF7F928F929F922A
:101AD000AF92BF92CF92DF92EF92FF920F931F933C
:101AE000CF93DF931F921F92CDB7DEB7782E8B0175
:101AF0004A01590122E030E0AE014F5F5F4F64E2DE
:101B000070E0B5DEE980FA80FE24EF24FE24E00ECA
:101B1000F11E9701377040912504072D10E04333E3
:101B200009F042C0085F1F4F102F0027110F110F3F
:101B3000110FC901800F911F4733C9F1A9014A0D47
:101B40005B1D4130584098F160E078E06B01C21AAB
:101B5000D30AA601B4010E948903A5014C195D09AD
:101B6000B4016C0D7D1DC8010E948903EA0CFB1CA9
:101B7000F982EA8222E030E0AE014F5F5F4F64E21B
:101B800070E0872D0E9449040F900F90DF91CF9154
:101B90001F910F91FF90EF90DF90CF90BF90AF908B
:101BA0009F908F907F900895005F1F4FBDCFA5013C
:101BB000B401DACFEF92FF921F93CF93DF931F927E
:101BC0001F92CDB7DEB7182F22E030E0AE014F5F95
:101BD0005F4F60E270E04BDEE980FA80FE24EF2484
:101BE000FE2422E030E0AE014F5F5F4F60E270E024
:101BF000812F3DDE89819A81982789279827E816C9
:101C0000F90689F487E0189FF0011124E352FC4F94
:101C1000F582E482C7010F900F90DF91CF911F9161
:101C2000FF90EF9008957C01DCCF1F93CF93DF935B
:101C3000182F80E591E00E94B001812FBBDFEC01FD
:101C4000812FE9DC873121F08C3111F0D0E0C0E048
:101C5000CE01DF91CF911F910895CF93DF93EC01D7
:101C60008C85883050F4DADC873111F08C3129F41E
:101C70008C85DBDF8115984098F3DF91CF91089533
:101C8000FC018485883008F4D0CF90E080E008958E
:101C9000CF92DF92EF92FF921F93CF93DF93182F93
:101CA0007B01EA014130584010F0C0E0D8E080E507
:101CB00091E00E94B001812F7DDF6C01812FABDCB0
:101CC000873111F08C3101F5CC16DD0680F380E50B
:101CD00091E00E94B0019E01A70170E060E0812FB9
:101CE000F4DE60E270E0812F66DC62E070E0812F5C
:101CF00046DC84FD0CC0812F8EDC8823B9F080E5A2
:101D000091E00E94B001F1CFD0E0C0E0E0CF40E12F
:101D100062E070E0812F0E948304CE01DF91CF91B9
:101D20001F91FF90EF90DF90CF900895D0E0C0E03A
:101D3000F4CF0F931F93CF93DF938C01EA01FC0143
:101D40008485883040F4A4DF892B39F481E090E069
:101D5000F80193838283D0E0C0E0CE01DF91CF9180
:101D60001F910F9108959F92AF92BF92CF92DF92F1
:101D7000EF92FF920F931F93CF93DF938C015B0140
:101D8000942EE52EFC01C688D788F08C80E591E082
:101D90000E94B0018F2D0EDFC92DDE2D8C179D07FF
:101DA00008F4EC019E01A501B6018F2D8EDEF8012D
:101DB000868997898C0F9D1F978B868BCE01DF912B
:101DC000CF911F910F91FF90EF90DF90CF90BF9038
:101DD000AF909F900895FF920F931F93CF93DF933F
:101DE0001F921F92CDB7DEB7F82E22E030E0AE0191
:101DF0004F5F5F4F66E270E03ADD09811A8110277C
:101E00000127102722E030E0AE014F5F5F4F66E20E
:101E100070E08F2D2CDD89819A819827892798275A
:101E20000817190749F4C8010F900F90DF91CF915F
:101E30001F910F91FF9008958C01E4CF1F93CF93D2
:101E4000DF93182F87E0189FE0011124C352DC4F65
:101E500088819981009759F480E591E00E94B00152
:101E6000812FB9DF2E81821B910999838883DF91AD
:101E7000CF911F9108959F92AF92BF92CF92DF9220
:101E8000EF92FF920F931F93CF93DF93EC017B01AF
:101E900080912504811121C01B821A8288EE93E073
:101EA000A0E0B0E08C839D83AE83BF838EE592E09B
:101EB0009983888388E08C8788EE93E09E878D875E
:101EC000CE01DF91CF911F910F91FF90EF90DF90A6
:101ED000CF90BF90AF909F90089534E0932E8333BE
:101EE00011F028E0922E85E1C82E84E0D82E10E073
:101EF00098E0B92EA12CD6012D913D916D01F701ED
:101F0000848195812817390779F4812F87DB082F81
:101F1000873111F08C3129F5812F90DF892B51F514
:101F20000C3111F4812F55DB1F5F9112E4CFA1100A
:101F300008C0D701ED91FC910084F185E02DC70127
:101F400019951B821A8288EE93E0A0E0B0E08C83A2
:101F50009D83AE83BF838EE592E099838883BC86A0
:101F6000ABCF843149F08111DFCFF6013297118276
:101F70001082DACFB12ED8CFAA24A394D5CF8F92D6
:101F80009F92AF92BF92CF92DF92EF92FF920F9308
:101F90001F93CF93DF93CDB7DEB72F970FB6F8948B
:101FA000DEBF0FBECDBF5C014B017A0180912504DD
:101FB0008823B1F104E0833309F008E0B501CE01D4
:101FC000019659DF85E1C82E84E0D82E10E0F60195
:101FD000219131916F01F50184819581281739078D
:101FE00041F4812F1BDB873121F4A701B401812F3C
:101FF0004FDE1F5F0113EBCFC7012F960FB6F8948A
:10200000DEBF0FBECDBFDF91CF911F910F91FF902B
:10201000EF90DF90CF90BF90AF909F908F900895FA
:10202000F12CE12CE9CFFC018485883008F406CF3F
:1020300090E080E008954F925F927F928F929F92FE
:10204000AF92BF92CF92DF92EF92FF920F931F93C6
:10205000CF93DF931F921F92CDB7DEB7782E6B011F
:102060004A01A82EB12C27E0829FC0011124FC0157
:10207000E352FC4F7F010081118180E591E00E94D5
:10208000B001081519054CF4872DA5DEF70126814E
:102090008C01021B1109118300830115110511F533
:1020A000872DB9DA843159F0882349F001E010E036
:1020B0008C3111F410E000E0119501951109C8016F
:1020C0000F900F90DF91CF911F910F91FF90EF90A4
:1020D000DF90CF90BF90AF909F908F907F905F9058
:1020E0004F900895801691060CF4840187E08A9D34
:1020F000F0018B9DF00D1124E352FC4FE280F38040
:10210000C114D10441F12701F7E05F22872D0E941D
:102110003B04840D951D20912504273309F450C0FC
:102120009801240D351D2130384008F449C020E0C5
:1021300038E0490184189508A401B601A0D9260108
:10214000480C591C6801C818D908872D0E943B0407
:10215000A601B20194D9E00EF11E87E08A9DF0013C
:102160008B9DF00D1124E352FC4FF382E28220811B
:102170003181201B310B318320838681800F912F89
:10218000911D8A3F910510F4232BE9F487E08A9D85
:10219000F0018B9DF00D1124E352FC4F1682F98261
:1021A000EA8222E030E0AE014F5F5F4F68E270E00C
:1021B000872D0E94490460E470E0872DFCD97FCF11
:1021C000A801B601C7CF86837ACFCF93DF93FC01F6
:1021D000218D328D2115310529F48FEF9FEFDF918D
:1021E000CF910895EC01808D4217530708F0A901A3
:1021F00022DF181619068CF7298D3A8D281B390B0A
:102200003A8F298FECCF0F931F93CF93DF931F92B9
:10221000CDB7DEB7FC01218D328D232B41F48FEF3A
:102220009FEF0F90DF91CF911F910F9108958C0137
:1022300041E050E0BE016F5F7F4FFC01808DFBDE0F
:102240001816190664F7F801818D928D0197928F07
:10225000818F898190E0E5CF0F931F93CF93DF9318
:1022600000D000D01F921F92CDB7DEB78C01D801ED
:1022700059964D915C915A974115510551F0ED9148
:10228000FC91048CF58DE02D70E060E0C80119959B
:10229000EECFF801808DD2DD892BA9F148E050E026
:1022A000BE016F5F7F4FD80158968C91C4DE18161F
:1022B0001906F4F4D801509684E0FE01319601909D
:1022C0000D928A95E1F78D8190E0982F88272E81D5
:1022D000820F911DF801958B848B8F81282F30E020
:1022E000322F22278885820F932F911D928F818F05
:1022F00028960FB6F894DEBF0FBECDBFDF91CF9109
:102300001F910F91089590E080E0F2CFCF93DF937B
:102310001F92CDB7DEB741E050E0BE016F5F7F4F47
:10232000FC01848588DE1816190634F4898190E052
:102330000F90DF91CF9108958FEF9FEFF9CFFC01C0
:102340008485883008F477CE90E080E008958F92FD
:102350009F92AF92BF92CF92DF92EF92FF920F9334
:102360001F93CF93DF9300D000D000D01F92CDB742
:10237000DEB790912504911115C018E0812F2A969F
:102380000FB6F894DEBF0FBECDBFDF91CF911F9186
:102390000F91FF90EF90DF90CF90BF90AF909F9004
:1023A0008F90089528E0F22E933311F494E0F92EE3
:1023B0006B01082F80E591E00E94B0019E012F5F24
:1023C0003F4F5901490110E0812F25D9F401819334
:1023D0004F018823B9F01F5FF112F6CFF12CF50100
:1023E00091915F019D3149F0983139F09A519230C5
:1023F00020F0F3941F11F3CFC0CF60E170E08F2D78
:10240000DAD81F2DE12EF12CF701EE0FFF1FEB5E46
:10241000FB4F1182108283EE93E00197F1F7402F7A
:1024200070E060E0812F0E9483044FEF62E070E073
:10243000812F0E948304B601CD2889F48091000287
:102440009091010201968115F0EC9F0788F190931D
:102450000102809300026091000270910102812FBD
:102460000E946E0461E070E0812FA5D827E02E9DC8
:10247000C0012F9D900D11249C0123523C4F7901E6
:10248000F9011182108222E030E0AE01475F5F4F18
:1024900068E270E0812FEBD989859A859827892792
:1024A0009827F7019383828316821582148266CF60
:1024B00080E090ECCCCF0F931F93CF93DF93EC0190
:1024C0008B01888D883008F48FD8B80182E03FDF17
:1024D000888F883050F41D870C871A8E198E81E002
:1024E000DF91CF911F910F91089580E0F9CF4F9226
:1024F0005F926F927F928F929F92AF92BF92CF9294
:10250000DF92EF92FF920F931F93CF93DF93CDB79C
:10251000DEB763970FB6F894DEBF0FBECDBF7C0168
:102520006B013A01FB0120E090E080E06AE031912C
:10253000332309F45FC040ED430F4A3008F04BC02D
:10254000689FA001699F500D1124CA01C097830F95
:10255000911D37FD9A958F3F910549F340F3F7019F
:1025600042815381648175818091EF049091F004E0
:10257000A091F104B091F204481759076A077B074C
:1025800009F4F1C18701085F1F4F0E9447036F7074
:1025900077277C5FC8018FDF813009F0E9C180E2D5
:1025A00093E09A838983F70182819381A481B58125
:1025B0008B839C83AD83BE8345E350E0BE016F5F98
:1025C0007F4FC8010E940805892BA1F5D12CC12C91
:1025D000C80115D817C03E3209F0C1CF233009F425
:1025E000BECFD301A20FB11D12968C932F5F90E046
:1025F00080E09DCF233009F0B2CFF3018583CC2456
:10260000C394D12CC60163960FB6F894DEBF0FBEFB
:10261000CDBFDF91CF911F910F91FF90EF90DF9091
:10262000CF90BF90AF909F908F907F906F905F9072
:102630004F9008950E944703F7017783668342E035
:1026400050E0B7016A5F7F4FC8018DDB81E090E009
:102650009A83898342E050E0BE016F5F7F4FC801DB
:1026600082DB80E091E09A83898342E050E0BE0102
:102670006F5F7F4FC80177DB1A82198242E050E01A
:10268000BE016F5F7F4FC8016EDB42E050E0BE01CC
:102690006F5F7F4FC80167DB42E050E0BE016F5FB4
:1026A0007F4FC80160DB5601F60180818823F1F07D
:1026B0006501F60181912F01882311F08E32A1F47A
:1026C00046018A189B081814190464F48D8641E0A9
:1026D00050E0BE01635F7F4FC80145DBA401B50137
:1026E000C80141DB5201E0CF6201E3CF1D8641E02A
:1026F00050E0BE01635F7F4FC80135DBC12CDD2494
:10270000D394DA82C98242E050E0BE016F5F7F4F0E
:10271000C80129DBDA82C98242E050E0BE016F5F66
:102720007F4FC80120DBC80104D8892B09F44ECFA4
:10273000F3E0AF2EB12C230122E0420E511CC9C0A0
:10274000F7014281538164817581808D918DA28DC5
:10275000B38D481759076A077B0709F0FAC0848DC3
:10276000958DC59709F0F5C081A192A15DEFC52EA9
:10277000DD24DA940C970CF4A2C04CE050E0BE01CA
:102780006F5F7F4FC80121DD8B819C81982789274E
:1027900098279A8B898BF7014681578129813A8145
:1027A0004217530709F0DAC097FFD8C08F709270B4
:1027B0003BEFC32EDD24DA94892B09F080C06F80B3
:1027C00078847624672476242AEFC22EDD24DA94D6
:1027D0006114710409F473C0D12CC12C8D819E81C8
:1027E000982789279827C816D906E0F441E050E0D9
:1027F000BE01635F7F4FC801E8DC4D85442329F0AB
:1028000050E070E060E0C801E0DC8D858111EECF22
:1028100044E050E070E060E0C801D7DCFFEFCF1A81
:10282000DF0ADCCF912C812C41E050E0BE016D5ECF
:102830007F4FC801CADC4B89842F807C09F065C0BA
:10284000442329F050E070E060E0C801BEDC8B89D1
:102850008111EACF42E050E0BE01615F7F4FC801C5
:10286000B4DC42E050E0BE01635F7F4FC801ADDCE5
:1028700044E050E070E060E0C801A7DC42E050E0D6
:10288000BE016F5E7F4FC801A0DC8F8598894989A2
:102890005A898115914009F040C0CD84DE84DC2442
:1028A000CD24DC2481E0C816D104B9F5411554408B
:1028B00009F046C044E050E0B201C80186DC21E0E6
:1028C000A21AB10809F484CEFFEFCF16DF0609F093
:1028D0007FCE0E9447033B014C01C801BDDC1816A6
:1028E00019060CF42DCF0E94470366197709880951
:1028F0009909693873418105910538F562E370E003
:1029000080E090E00E941703E8CF41E050E070E0E3
:1029100060E0C8015ADC1B8A9ACF54274527542708
:1029200070E060E0C80151DCFFEF8F1A9F0A681465
:10293000790409F079CF96EFC92EDD24DA94BFCF60
:10294000E7EFCE2EDD24DA94BACFCC24CA94DC2C67
:10295000B6CF6EEFC62EDD24DA94B1CF4CEFC42E85
:10296000DD24DA94ACCF8EEFC82EDD24DA944ACE83
:10297000D12CC12C47CECF92DF92EF92FF920F93D2
:102980001F93CF93DF93CDB7DEB7AF970FB6F89411
:10299000DEBF0FBECDBF7C016A0100E213E01A83E7
:1029A00009831C861B8688EE93E0A0E0B0E08D874B
:1029B0009E87AF87B88B8CE892E09A878987188FBB
:1029C0000F8B198E1A8E1B8E1C8E88E089A31BA775
:1029D0000AA71CA61DA61EA61FA68091E30490911F
:1029E000E404A091E504B091E6048EA39FA3A8A7F8
:1029F000B9A78B839C83AD83BE8318861F82AE01EB
:102A0000465D5F4FCE01019672DD81309105B1F4D4
:102A1000D701ED91FC910488F589E02D1DA30CA34D
:102A20008CA59DA5AEA5BFA58EA39FA3A8A7B9A75A
:102A3000A601BE016C5D7F4FC7011995AF960FB619
:102A4000F894DEBF0FBECDBFDF91CF911F910F91E4
:102A5000FF90EF90DF90CF900895CF92DF92EF92AA
:102A6000FF920F931F93CF93DF93CDB7DEB7AF974E
:102A70000FB6F894DEBF0FBECDBF8C016B017A019B
:102A800080E293E09A8389831B821C821D821E82CE
:102A90001C861B8648EE53E060E070E04D875E8741
:102AA0006F87788B2CE832E03A872987988F8F8B55
:102AB000198E1A8E1B8E1C8E28E029A39BA78AA72D
:102AC0001CA61DA61EA61FA6D8011C968C91883098
:102AD00060F40E940E0B882321F0F80184850E9487
:102AE000E90A88E0D8011C968C938091E3049091C8
:102AF000E404A091E504B091E6048EA39FA3A8A7E7
:102B0000B9A78B839C83AD83BE8318861F82AE01D9
:102B1000465D5F4FB601CE010196E9DC0097C1F03A
:102B2000D801ED91FC910684F785E02D80E293E0D9
:102B30009DA38CA38CA59DA5AEA5BFA58EA39FA389
:102B4000A8A7B9A7A701BE016C5D7F4FC801199561
:102B5000AF960FB6F894DEBF0FBECDBFDF91CF9119
:102B60001F910F91FF90EF90DF90CF9008950F93FA
:102B70001F93CF938C01FC016481758181E2E7DBB7
:102B8000C82F8830F8F480E591E00E94B0018C2FC6
:102B90000E940B0B833131F08C2FCF911F910F913D
:102BA0000C94E90A62E070E08C2F0E94DB0AF801C5
:102BB00084819581EC2FF0E0EE0FFF1FEB5EFB4F61
:102BC00091838083CF911F910F910895CF92DF92CF
:102BD000EF92FF921F93CF93DF93EC017B016A0189
:102BE0008C85883048F40E940E0B882319F08C8560
:102BF0000E94E90A88E08C87F70182819381A48191
:102C0000B5810097A105B10551F490E080E0DF9116
:102C1000CF911F91FF90EF90DF90CF9008958F3F5D
:102C20009F4FAF4FBF4F89F370E060E081E28FDBD1
:102C3000182F8C87883048F780E591E00E94B0011A
:102C4000A7014E5F5F4F24E030E06CE070E0812F21
:102C50000E944904B601812F0E94590464E070E08B
:102C6000812F0E94DB0A0E9447036B017C018C8547
:102C70000E940E0B873111F18C3101F1882329F26A
:102C80000E944703AB01BC014C195D096E097F0925
:102C90008D859E85B0E0A0E084179507A607B7074D
:102CA00038F061E070E080E090E00E941703DFCF31
:102CB0008C850E94F40A88E08C87A7CF81E090E0A1
:102CC000A6CF0F931F93CF93DF931F921F92CDB781
:102CD000DEB7FC0124852830E0F48C0180E591E02A
:102CE0000E94B00122E030E0AE014F5F5F4F60E133
:102CF00070E0F80184850E94370C89819A819827B9
:102D0000892798270F900F90DF91CF911F910F91F6
:102D1000089590E080E0F6CFEF92FF920F931F931B
:102D2000CF93DF9300D01F92CDB7DEB78C017B012C
:102D3000FB0184858830A8F080E293E0F80191835C
:102D400080831282138214821582C8010F900F9023
:102D50000F900F90DF91CF911F910F91FF90EF9007
:102D6000089580E591E00E94B00124E030E0AE01DA
:102D70004F5F5F4F6CE070E0F70184850E94370C75
:102D8000BE016F5F7F4FC8010E94330ADECF0F93F1
:102D90001F93CF93DF931F921F92CDB7DEB7FC0135
:102DA00024852830E0F48C0180E591E00E94B00198
:102DB00022E030E0AE014F5F5F4F64E070E0F80169
:102DC00084850E94370C89819A81982789279827C2
:102DD0000F900F90DF91CF911F910F91089590E088
:102DE00080E0F6CF3F924F925F926F927F928F92E8
:102DF0009F92AF92BF92CF92DF92EF92FF920F938A
:102E00001F93CF93DF93CDB7DEB7EA970FB6F89451
:102E1000DEBF0FBECDBF7C012A013B0169010E94CC
:102E200047034B015C0187010D5B1F4FC80114DA9A
:102E3000181619069CF00E944703681979098A0937
:102E40009B09461657066806790608F453C162E3E3
:102E500070E080E090E00E941703E8CF42E250E08B
:102E6000BE016F5F7F4FC801B0D989818230D1F038
:102E7000312C832DEA960FB6F894DEBF0FBECDBF7E
:102E8000DF91CF911F910F91FF90EF90DF90CF9046
:102E9000BF90AF909F908F907F906F905F904F907A
:102EA0003F900895F801848995898334910501F74D
:102EB0006D817E818F8198850E947F244B015C010A
:102EC000F60180829182A282B38246E050E0B7018F
:102ED000685F7F4FCE014D960E948624892B41F674
:102EE000F70180819181A281B38188169906AA0693
:102EF000BB0608F4BDCF84819581A681B781881572
:102F00009905AA05BB0508F4B3CF89899A89AB89CD
:102F1000BC8986879787A08BB18B4EEC50E070E020
:102F200060E0C80152D9312CC701829698AB8FA7B7
:102F3000F701B696FAABE9AB08969CAB8BAB670191
:102F40009AE1C90ED11CBD96FEABEDABC70142960E
:102F500098AF8FABFD97FAAFE9AF4701FEE18F0E57
:102F6000911CF801818D928D181619060CF081CFF5
:102F7000C80149D98333910509F4A4C0FCF4813018
:102F8000910509F45EC03CF4892B59F3C8013BD983
:102F9000AC0155276CC08330910509F45BC00697DE
:102FA000A9F7C80130D9B82E44E050E0B401C801F7
:102FB0000CD9EB2DE450FF0BAF0159C08A339105BA
:102FC00009F458C07CF585339105A9F1C697F1F64F
:102FD000C80119D95C01B601CE0189960E94330A55
:102FE0008BA59CA5ADA5BEA5892B8A2B8B2BB1F0FB
:102FF000EDA9FEA94080518062807380B601CE01A8
:1030000083960E94330A8DA19EA1AFA1B8A5A50108
:10301000481659066A067B0609F0BBCF44E050E02B
:10302000B60115C08B33910509F438C08F3F910567
:1030300009F497CFABCFC801E6D8C801E4D8382E41
:1030400090CFC801E0D844E050E06FA978ADC80146
:10305000BCD887CFC801D7D8B82E44E050E069ADBE
:103060007AADC801B2D88B2D8450990BAC0170E0B9
:1030700060E0EDCFC801C7D844E050E069A97AA963
:10308000C801A3D8F70166A177A180A591A50E94E8
:103090007F2466A377A380A791A763CFC801B3D885
:1030A00044E050E06BA97CA9C8018FD8F70162A564
:1030B00073A584A595A50E947F2462A773A784A702
:1030C00095A74FCFC8019FD844E050E06FA578A9DD
:1030D000C8017BD8F70162A173A184A195A10E94C8
:1030E0007F2462A373A384A395A366A777A780AB6D
:1030F00091AB37CF33243A94BCCE7F928F929F927C
:10310000AF92BF92CF92DF92EF92FF920F931F93F5
:10311000CF93DF93CDB7DEB7A6970FB6F894DEBF97
:103120000FBECDBF8C01762E942E852E20E2A22ECE
:10313000CE0101967C01DC01EA2D1D92EA95E9F7AA
:103140006801F3E4CF0ED11C80E293E09AA389A337
:103150008FEF8BA38CA38DA38EA343E450E0BE011D
:103160006F5D7F4FC6010E940805019609F4BFC03C
:1031700081E089838A8386E0B82EBB821C82D801D5
:1031800014966D917D918D919C9117970E947F244B
:103190006D837E838F83988789869A8680E890E006
:1031A0009C878B874CE150E0B701C6010E94B30EAB
:1031B000FE0137968AE1DF011D928A95E9F7480101
:1031C000B8E08B0E911CF401D70101900D92BA94D6
:1031D000E1F740E150E0B701C6010E94B30EF701EC
:1031E0001192AA94E9F796E0A92EB12C40E250E0A2
:1031F000B701C6010E94B30EF1E0AF1AB108B1F7F2
:1032000083E6898392E89A8393E59B838C8385E3A5
:103210008D8381E08E837F829DE3988797E09987F5
:103220008A8786E0F401DE011B9601900D928A9553
:10323000E1F78CE0898B8A8B65E273E0CE014396DF
:103240000E949A24D8011B966C91CE0149960E9447
:10325000B301F8016485CE014B960E94B301D801F9
:103260001D966C91CE014D960E94B3014EE150E047
:10327000B701C6010E94B30EB3E07B121EC082E309
:10328000898384E08A83F80196859B8397859C8354
:1032900090899D8391899E8396E39F838887828D01
:1032A0008987838D8A87848D8B87858D8C874CE079
:1032B00050E0B701C6010E94B30E87E3898386E020
:1032C0008A8391E09B8393E09C838D838FE08E8340
:1032D0008AE38F838BE388878FEF898749E050E00B
:1032E000B701C6010E94B30EC6010E94990BA696B3
:1032F0000FB6F894DEBF0FBECDBFDF91CF911F9107
:103300000F91FF90EF90DF90CF90BF90AF909F9084
:103310008F907F900895CF93DF93EC0186E192E048
:10332000998388838A819B81009711F00E94F32200
:1033300084E190E00E9457229C012C5E3F4FFC01EB
:1033400011921192E217F307D9F79B838A831D82AA
:103350001C828AE090E09F838E83DF91CF91089555
:10336000CF93DF93EC0188EC92E0998388838A8184
:103370009B81009711F00E94F32280E590E00E946B
:1033800057229B838A831D821C828AE090E09F8360
:103390008E83DF91CF910895EF92FF920F931F9349
:1033A000CF93DF93EC010C811D818E819F810817E3
:1033B0001907F1F4C80105969F838E83811520E4D7
:1033C0009207E8F4880F991F0E9457227C0130E091
:1033D00020E0AC0170E060E08A819B810E945B0587
:1033E0008A819B81009711F00E94F322FB82EA827E
:1033F000DF91CF911F910F91FF90EF9008958FEF84
:103400009FEFE2CFEF92FF920F931F93CF93DF9343
:10341000EC017B018C819D8101969D838C83CE0183
:10342000BBDF8A819B810C811D810E191F0902500F
:10343000110997012F5F3F4FAC01B7010E945B0557
:10344000DF91CF911F910F91FF90EF9008950F930F
:103450001F93CF93DF93EC018B018C819D810196AB
:103460009D838C83CE0198DF8C819D818150904813
:10347000880F991F2A813B81820F931FFC011183C2
:103480000083DF91CF911F910F910895EF92FF92EA
:103490000F931F93CF93DF93EC010C811D818E81DD
:1034A0009F810817190701F5C80105969F838E8330
:1034B000811520E19207F8F423E0880F991F2A95DF
:1034C000E1F7F5D77C0130E020E0AC0170E060E08E
:1034D0008A819B810E9475058A819B81009711F0EA
:1034E0000E94F322FB82EA82DF91CF911F910F911C
:1034F000FF90EF9008958FEF9FEFE3CFEF92FF9251
:103500000F931F93CF93DF9300D000D01F921F9291
:10351000CDB7DEB78C017B01FC01848195810196DA
:1035200095838483C801B2DFF8018281938104818D
:1035300015810E191F090250110997012F5F3F4F86
:10354000AC01B7010E94750528960FB6F894DEBF4E
:103550000FBECDBFDF91CF911F910F91FF90EF90E4
:103560000895EF92FF920F931F93CF93DF9300D0B4
:1035700000D01F921F92CDB7DEB77C0109831A835A
:103580002B833C834D835E836F837887FC0184812A
:103590009581019695838483C70178DFF701A48123
:1035A000B581A150B04E83E0AA0FBB1F8A95E1F709
:1035B00082819381A80FB91F88E0FE0131960190A6
:1035C0000D928A95E1F728960FB6F894DEBF0FBEEC
:1035D000CDBFDF91CF911F910F91FF90EF90089594
:1035E000FC0186E592E09187808786E192E09183F5
:1035F000808382819381009709F0F5C708951F9217
:103600000F920FB60F9211240BB60F922F933F9388
:103610004F935F936F937F938F939F93AF93BF93DA
:10362000EF93FF9386E294E00E943402FF91EF91C2
:10363000BF91AF919F918F917F916F915F914F91CA
:103640003F912F910F900BBE0F900FBE0F901F90C8
:1036500018951F920F920FB60F9211240BB60F926E
:103660002F938F939F93EF93FF93E0913604F09104
:1036700037048081E0913C04F0913D0482FD1DC03F
:10368000908180913F048F5F8F7320914004821757
:1036900041F0E0913F04F0E0EA5DFB4F958F8093AD
:1036A0003F04FF91EF919F918F912F910F900BBE4F
:1036B0000F900FBE0F901F9018958081F2CF1F9230
:1036C0000F920FB60F9211242F933F938F939F93D6
:1036D000AF93BF938091D5039091D603A091D70368
:1036E000B091D8033091D40323E0230F2D3758F540
:1036F0000196A11DB11D2093D4038093D50390930F
:10370000D603A093D703B093D8038091D9039091A7
:10371000DA03A091DB03B091DC030196A11DB11D7A
:103720008093D9039093DA03A093DB03B093DC0377
:10373000BF91AF919F918F913F912F910F900FBEAD
:103740000F901F90189526E8230F0296A11DB11D1A
:10375000D2CF0F931F93CF93DF93E6E2F4E013826F
:10376000128288EE93E0A0E0B0E084839583A68384
:10377000B78386EB92E09183808385EC90E0958718
:10378000848784EC90E09787868780EC90E0918B2B
:10379000808B81EC90E0938B828B82EC90E0958B18
:1037A000848B86EC90E0978B868B118E128E138E15
:1037B000148EE3ECF4E0C0E2D3E0D183C083128244
:1037C000138214821582E9ECF4E0D183C083128263
:1037D000138214821582EFECF4E0D183C08312824D
:1037E000138214821582E5EDF4E0D183C083128246
:1037F000138214821582EBEDF4E0D183C083128230
:10380000138214821582E7EEF4E0D183C083128222
:10381000138214821582E1EEF4E0D183C083128218
:10382000138214821582EDEEF4E0D183C0831282FC
:10383000138214821582E3EFF4E0D183C0831282F5
:10384000138214821582E9E0F5E0D183C0831282ED
:103850001382148215820FEF14E0F801158214828E
:1038600080E590E024D6F801938382838AE090E09B
:103870009783868386EE92E09183808388E093E04D
:1038800091878087E9EFF4E01382128280E193E070
:103890009183808388EE93E095838483EFE0F5E065
:1038A000D183C0831282138214821582DF91CF915B
:1038B0001F910F910895CF93DF93CDB7DEB76D972A
:1038C0000FB6F894DEBF0FBECDBF789484B582608A
:1038D00084BD84B5816084BD85B5826085BD85B5B4
:1038E000816085BD80916E00816080936E00109232
:1038F00081008091810082608093810080918100AD
:10390000816080938100809180008160809380003D
:103910008091B10084608093B1008091B00081609B
:103920008093B0008091910082608093910080919B
:1039300091008160809391008091900081608093DC
:1039400090008091A10082608093A1008091A100ED
:1039500081608093A1008091A00081608093A0008D
:1039600080912101826080932101809121018160F9
:1039700080932101809120018160809320018091BA
:103980007A00846080937A0080917A0082608093CC
:103990007A0080917A00816080937A0080917A0029
:1039A000806880937A001092C100E0913604F09113
:1039B000370482E08083E0913204F0913304108276
:1039C000E0913404F09135048FEC808310923E0432
:1039D000E0913A04F0913B0486E08083E091380462
:1039E000F0913904808180618083E0913804F09106
:1039F0003904808188608083E0913804F091390433
:103A0000808180688083E0913804F091390480815E
:103A10008F7D808380E490E04AD58C0182E190E044
:103A2000D80111969C938E9383E190E013969C931A
:103A30008E93129784E190E015969C938E93149741
:103A400085E190E017969C938E93169786E190E01F
:103A500019969C938E93189787E190E01B969C9300
:103A60008E931A9788E190E01D969C938E931C97F5
:103A700089E190E01F969C938E931E978AE190E0D7
:103A800051969C938E9350978BE190E053969C9324
:103A90008E9352978CE190E055969C938E93549719
:103AA0008DE190E057969C938E9356978EE190E02F
:103AB00059969C938E9358978FE190E05B969C93D8
:103AC0008E935A9780E290E05D969C938E935C97DC
:103AD00021E230E05F963C932E935E9722E230E045
:103AE00091963C932E93909723E230E093963C93EB
:103AF0002E93929724E230E095963C932E939497E0
:103B000025E230E097963C932E93969726E230E09C
:103B100099963C932E93989727E230E09B963C939E
:103B20002E939A9728E230E09D963C932E939C9793
:103B300029E230E09F963C932E939E972AE230E054
:103B4000D1963C932E93D0972BE230E0D3963C93C2
:103B50002E93D2972CE230E0D5963C932E93D497B7
:103B60002DE230E0D7963C932E93D6972EE230E0AC
:103B7000D9963C932E93D8972FE230E0DB963C9376
:103B80002E93DA9720E330E0DD963C932E93DC977A
:103B900021E330E0DF963C932E93DE971B8B0A8B5C
:103BA0009D8B8C8B9F8B8E8B84E392E0998B888B83
:103BB00086E592E0998F888F6801B0E4CB0ED11C26
:103BC000C016D10661F0F801F08061E08F2D0E94EF
:103BD000C1028F2D0E9429010E5F1F4FF1CF82E09D
:103BE00090E065D4E2E0CE2ED12CDC01CD92DC92C7
:103BF0009C838B8301E010E01E830D8318870F8365
:103C000084E392E09A83898386E592E09A878987A4
:103C100060E082E00E94C102CE010196E1DCCE01AB
:103C20004096DEDC8CE293E00E94220A8CE090E079
:103C30003ED47C01FC011182108213830283D58261
:103C4000C48283E090E09783868384E090E091874C
:103C5000808785E090E0938782878091C4038111FB
:103C60002AC01092AC031092AB0388EE93E0A0E060
:103C7000B0E08093AD039093AE03A093AF03B093F5
:103C8000B0038CE892E09093AA038093A90380E2AA
:103C900093E09093B8038093B7031092B903109206
:103CA000BA031092BB031092BC0388E08093C10357
:103CB00081E08093C40386E693E09093650380934C
:103CC00064038091630381119AC060E372E080E035
:103CD00090E00E9417031FB7F8948091620381114E
:103CE00026C0EDE4F1E08491E3E9F1E09491E82F5E
:103CF000F0E0EE0FFF1FEC51FF4FA591B491EC9156
:103D0000E92319F485E30E94290161E085E30E941B
:103D1000C1028CB580618CBD8CB580648CBD61E0C6
:103D200084E30E94C10261E083E30E94C1028091AA
:103D300062038F5F809362031FBFE2E2F1E0E491D0
:103D4000F0E0EE0FFF1FE250FF4F859194919093AA
:103D5000D3038093D203E8E6F1E0E491E093D1034A
:103D600061E08AE00E94C1020E946D0380E591E05B
:103D70000E94B00184E38093250480E80E94290416
:103D80000E94D70B882309F477C188E00E94290498
:103D90000E94C50B883009F06FC180E10E942904A0
:103DA0000E94C50B803109F067C180E00E942904A0
:103DB0000E94C50B182F81115FC141E050E0BE0188
:103DC0006F5F7F4F8FE190E00E943F0A89818330CF
:103DD00009F052C180E48093D00342E06EE170E0CC
:103DE000812F0E94830442E06FE170E0812F0E94E6
:103DF00083041F5F183089F781E08093630380E5B7
:103E000091E00E94B00146E050E0B70189E090E007
:103E10000E94890380E293E09A8389831B821C823B
:103E20001D821E8244E050E0BE016D5F7F4F8FE037
:103E300090E00E9489030091640310916503D8010A
:103E400092961D921D921D921C929597F80116A2B2
:103E500017A210A611A69A961D921D921D921C9251
:103E60009D9780E69AEEA0E0B0E086AB97ABA0AF5E
:103E7000B1AF80EA9FE0A0E0B0E082AF93AFA4AF23
:103E8000B5AFD801189686E0FD01282F11922A952A
:103E9000E9F79801225F3F4F94E1F90111929A9559
:103EA000E9F7F70101900D928A95E1F7C8018E5B61
:103EB0009F4F9D8F8C8FDC011C9267D42FEC37E0D5
:103EC00040E050E0B7D4DC01CB010196A11DB11D4B
:103ED000F80184839583A683B78380839183A2832B
:103EE000B3835801F3E4AF0EB11CC5010E94FF0A71
:103EF00064E470E0C5010E945B12882309F425C1C7
:103F00000E9447032B013C0148EEC42E43E0D42E0F
:103F1000E12CF12C52E0252E912C812CAC8DBD8D05
:103F20008C918330A9F1811192C1F801848195812E
:103F3000A681B7810196A11DB11D84839583A683B7
:103F4000B7830E9447036419750986099709A70179
:103F500096019CD4A90161E0C801CFD881E0AC8D65
:103F6000BD8D8C93F1E08F169104C1F20E9447033E
:103F70006419750986099709D801D6962D913D9146
:103F80004D915C91D997261737074807590720F6B6
:103F9000C5010E94FF0AF80184819581A681B7813D
:103FA0000196A11DB11D84839583A683B7830E94CA
:103FB0004703F801FE9660837183828393838A941A
:103FC000892809F0C2C080E591E00E94B00100910B
:103FD000640310916503B801625F7F4FCE010196C3
:103FE0000E94330A44E050E0BE016D5F7F4F8FE0D6
:103FF00090E00E948903B8016A5E7F4FCE0101966E
:104000000E94330A44E050E0BE016D5F7F4F81E0C3
:1040100090E00E948903B8016E5E7F4FCE01019649
:104020000E94330A44E050E0BE016D5F7F4F85E09F
:1040300090E00E948903B801625E7F4FCE01019635
:104040000E94330A8B819C81AD81BE818093E30401
:104050009093E404A093E504B093E6040E94F20276
:104060007F738091000290910102682779277093F5
:1040700001026093000269C087E38093250480E811
:104080000E9429040E94D70B882329F188E00E940E
:1040900029040E94C50B8830F1F480E10E942904B4
:1040A0000E94C50B182F8031B1F480E00E942904D2
:1040B0000E94C50B81110FC041E050E0BE016F5F4F
:1040C0007F4F89E390E00E943F0A8981843019F490
:1040D0001093D00391CE83E38093250480E80E945F
:1040E00029040E94D70B882371F180E10E942904E2
:1040F0000E94C50B803139F582E10E9429040E949B
:10410000C50B823101F580E00E9429040E94C50B95
:10411000811119C084E08093D00315E51B8F41E025
:1041200050E0BE01655E7F4F8BE190E00E94890305
:104130001A8F41E050E0BE01665E7F4F8AE190E059
:104140000E94890359CE1092250480E293E09A835D
:1041500089831B821C821D821E8280E591E00E9461
:10416000B00144E050E0BE016D5F7F4F8FE090E012
:104170000E943F0A66E274E0CE0101960E94DA09CD
:1041800062E273E086E294E00E94800989EF94E0A5
:104190000E94B7152AE0222E312C34E3832E32E020
:1041A000932E46E5A42E42E0B42E80910305909113
:1041B0000405892B09F433C184E190E078D19C0196
:1041C0002C5E3F4FFC01119211922E173F07D9F739
:1041D0009C838B831E821D8238862F829A828982DD
:1041E000BA86A9860E9447032B013C010091010574
:1041F00010910205E0900305F090040593E0EE0CA9
:10420000FF1C9A95E1F7E00EF11ED12CC12CE016AF
:10421000F10609F4E5C0F80182819381A481B5819A
:1042200084159505A605B70560F40190F081E02D91
:10423000D80116968D919C911995B601CE010196E3
:1042400006D9BFEFCB1ADB0A085F1F4FE0CF8430DF
:10425000F1F4F80184819581A681B7810196A11DB1
:10426000B11D84839583A683B7830E944703641995
:10427000750986099709A701960108D3A90163E08A
:10428000C8010E947D18AC8DBD8D2C926BCE813003
:1042900051F5F80142AD53AD64AD75AD9E012F5F90
:1042A0003F4FC8010E94F216382EF2E08F1391C0E2
:1042B00089819A81AB81BC81F80184839583A6832F
:1042C000B7830E9447036419750986099709A701F6
:1042D0009601DCD2A90163E0C8010E947D18AC8D73
:1042E000BD8D3C923FCE823009F03CCEF80142AD0C
:1042F00053AD64AD75AD9E012F5F3F4FC8010E9465
:10430000F216382EF5E08F135DC0E3E0AC8DBD8D65
:10431000EC93F80182A193A1A4A1B5A1892B8A2BCA
:104320008B2B41F484E893E0A0E0B0E082A393A358
:10433000A4A3B5A3F80186A197A1A0A5B1A5892B37
:104340008A2B8B2B61F482A193A1A4A1B5A1B69570
:10435000A7959795879586A397A3A0A7B1A7F801DE
:1043600082A593A5A4A5B5A5892B8A2B8B2BA9F48F
:1043700082A193A1A4A1B5A1AC01BD0123E07695D2
:104380006795579547952A95D1F7841B950BA60BF2
:10439000B70B82A793A7A4A7B5A7F80186A197A1F9
:1043A000A0A5B1A586A797A7A0ABB1AB82A593A501
:1043B000A4A5B5A582AB93ABA4ABB5AB882483947D
:1043C000912CD0CDF6E08F1304C0AC8DBD8D1C9226
:1043D000C9CDBFEF3B12C6CDEC8DFD8D1082C2CD95
:1043E000EB80FC800D811E81000F111F0E0D1F1D23
:1043F0000E151F0589F0F701619171917F018FEF13
:1044000094E00E944908288B398B4A8B5B8B6C8B1C
:104410007D8B8E8B9F8BECCFCE010196E1D869EF1F
:1044200074E0CE0101960E943B0F8D85883008F024
:10443000BCCE82E393E00E94220A0E9447036B01F4
:104440007C01C092CC03D092CD03E092CE03F092D7
:10445000CF030E944703F0E6CF0EFAEEDF1EE11C09
:10446000F11C6C157D058E059F0520F4CE0101968B
:104470000E94420B88E493E00E94220ACE0101963A
:104480000E94630B92CE88E093E09093080580939E
:10449000070588EC92E0909300058093FF048091DB
:1044A000010590910205009709F09DC008950F93B2
:1044B0001F93CF93DF938230910510F482E090E058
:1044C000E0911705F091180530E020E0B0E0A0E0A1
:1044D000309799F42115310509F44AC0281B390B8E
:1044E00024303105D8F58A819B816115710589F1E8
:1044F000FB0193838283FE0111C0408151810281BF
:10450000138148175907E0F04817590799F4109795
:1045100061F012960C93129713961C933296CF016A
:10452000DF91CF911F910F9108950093170510937C
:104530001805F4CF2115310551F04217530738F013
:10454000A901DB019A01BD01DF01F801C1CFEF0133
:10455000F9CF9093180580931705CDCFFE01E20F98
:10456000F31F819391932250310939832883D7CF48
:104570002091150530911605232B41F4209104025A
:104580003091050230931605209315052091020203
:10459000309103022115310541F42DB73EB740910A
:1045A000060250910702241B350BE0911505F0918E
:1045B0001605E217F307A0F42E1B3F0B2817390747
:1045C00078F0AC014E5F5F4F2417350748F04E0F6F
:1045D0005F1F5093160540931505819391939FCFCC
:1045E000F0E0E0E09CCFCF93DF930097E9F0FC018F
:1045F000329713821282A0911705B0911805ED0130
:1046000030E020E01097A1F420813181820F931FC8
:1046100020911505309116052817390709F061C05A
:10462000F0931605E0931505DF91CF910895EA0107
:10463000CE17DF07E8F54A815B819E0141155105E0
:10464000B1F7E901FB83EA8349915991C40FD51F62
:10465000EC17FD0761F4808191810296840F951F0C
:10466000E90199838883828193819B838A83F0E027
:10467000E0E012968D919C9113970097B9F52D91DA
:104680003C911197CD010296820F931F2091150541
:10469000309116052817390739F6309751F51092E1
:1046A000180510921705B0931605A0931505BCCFF9
:1046B000D383C28340815181840F951FC817D907C6
:1046C00061F44E5F5F4F88819981480F591F518374
:1046D00040838A819B81938382832115310509F070
:1046E000B0CFF0931805E09317059ECFFD01DC01D4
:1046F000C0CF13821282D7CF8F929F92AF92BF9278
:10470000CF92DF92EF92FF92CF93DF93EC0168811B
:1047100079818A819B81611571058105910521F45B
:1047200064E279ED8BE597E02DE133EF41E050E075
:1047300081D049015A019B01AC01A7EAB1E496D0AE
:104740006B017C01ACEEB4EFA50194019BD0C60EC9
:10475000D71EE81EF91EF7FE06C081E0C81AD10870
:10476000E10880E8F80AC882D982EA82FB82C701A0
:10477000B6019F77DF91CF91FF90EF90DF90CF90C0
:10478000BF90AF909F908F9008958F929F92AF921D
:10479000BF92CF92DF92EF92FF92609108027091E8
:1047A000090280910A0290910B0261157105810541
:1047B000910521F464E279ED8BE597E02DE133EF8B
:1047C00041E050E037D049015A019B01AC01A7EA12
:1047D000B1E44CD06B017C01ACEEB4EFA5019401C7
:1047E00051D0C60ED71EE81EF91EF7FE06C081E0A6
:1047F000C81AD108E10880E8F80AC0920802D092ED
:104800000902E0920A02F0920B02C701B6019F77FB
:10481000FF90EF90DF90CF90BF90AF909F908F90E0
:104820000895609308027093090280930A0290939E
:104830000B020895052E97FB16F400940FD057FD38
:1048400005D024D007FC02D046F408C0509540950E
:10485000309521953F4F4F4F5F4F0895909580952C
:10486000709561957F4F8F4F9F4F089531D0A59FD1
:10487000900DB49F900DA49F800D911D112408955B
:10488000B7FFF4CFF3DF821B930B0895A1E21A2E3A
:10489000AA1BBB1BFD010DC0AA1FBB1FEE1FFF1FE4
:1048A000A217B307E407F50720F0A21BB30BE40B34
:1048B000F50B661F771F881F991F1A9469F760957B
:1048C0007095809590959B01AC01BD01CF01089535
:1048D000A29FB001B39FC001A39F700D811D112441
:1048E000911DB29F700D811D1124911D0895EE0F31
:1048F000FF1F881F8BBF0790F691E02D1994692741
:10490000962769277827872778270895FB01DC01F8
:1049100004C08D910190801921F441505040C8F796
:10492000881B990B0895DC0101C06D9341505040E4
:10493000E0F70895FB01DC0101900D920020E1F702
:10494000089510E0C6EFD0E000E005C0802FFE0122
:10495000CEDF2196011DC73FD10780E00807B1F7E0
:04496000F894FFCFF9
:1049640000C00000190580000100000001005E0085
:104974000000000000007A0667064E06271A021A95
:104984001A068B190506D805C308D405CE05AB0550
:10499400000000007A0667064E06271A021A1A0655
:1049A4008B190506D805C308D405CE059F08C5058F
:1049B400AE05F8FF0000CC05C30500000000D604D6
:1049C400990E400E2D0E131086111E0CE6152D1592
:1049D4009F11630B420BFF04FC04FA04CB04F004A4
:1049E400C7168C166116EC04000000009F04B30E79
:1049F4009C08C901C5010311100C5B12260DFF0AA6
:104A04000805BB14990B2C11E51054054405400509
:104A14003C05000000005602CA01F701A202280268
:104A240006021A02000000001E08E507A807B11AD2
:104A34007E1A5307B0190A0749083209D405010739
:104A4400AB05000000001E08E507A807B11A7E1A8E
:104A54005307B0190A0749083209D40501070E099A
:104A6400D8068506F8FF0000EF06CE060000000019
:104A7400B504BF0F9C089B08B715170B0000000076
:104A8400DA090D0A0057495A6E65740048656C6C62
:104A94006F00436C69656E742068617320636F6E88
:104AA4006E65637465642100436C69656E74206887
:104AB400617320646973636F6E6E65637465642EDD
:024AC4000000F0
:00000001FF
