:100000000C9468000C9490000C9490000C94900058
:100010000C9490000C9490000C9490000C94900020
:100020000C9490000C9490000C9490000C94900010
:100030000C9490000C9490000C9490000C94900000
:100040000C942A030C9490000C94F8020C94D202A5
:100050000C9490000C9490000C9490000C949000E0
:100060000C9490000C9490000000000024002700E5
:100070002A0048494748004C4F570054616B2063A1
:100080007A79207369616B00000000002500280068
:100090002B00040404040404040402020202020209
:1000A000030303030303010204081020408001023C
:1000B00004081020010204081020000000080002BB
:1000C00001000003040700000000000000007403AA
:1000D00011241FBECFEFD8E0DEBFCDBF11E0A0E0FE
:1000E000B1E0E6E2FCE002C005900D92AC32B1074F
:1000F000D9F721E0ACE2B1E001C01D92A63DB20704
:10010000E1F710E0C8E6D0E004C02197FE010E94AC
:10011000E604C736D107C9F70E94A1030C94110663
:100120000C940000E7ECF0E02491E3EBF0E0949114
:10013000EFE9F0E0E491EE23C9F0222339F0233017
:1001400001F1A8F4213019F1223029F1F0E0EE0F8D
:10015000FF1FE857FF4FA591B4912FB7F894EC918A
:10016000811126C090959E239C932FBF0895273020
:10017000A9F02830C9F0243049F7209180002F7D64
:1001800003C0209180002F7720938000DFCF24B51B
:100190002F7724BDDBCF24B52F7DFBCF2091B0007E
:1001A0002F772093B000D2CF2091B0002F7DF9CFD0
:1001B0009E2BDACFAF92BF92CF92DF92EF92FF9257
:1001C0000F931F93CF93DF936C017B018B01040F7F
:1001D000151FEB015E01AE18BF08C017D10759F01B
:1001E0006991D601ED91FC910190F081E02DC6015D
:1001F0000995892B79F7C501DF91CF911F910F9157
:10020000FF90EF90DF90CF90BF90AF900895FC01EA
:10021000538D448D252F30E0842F90E0821B930B6B
:10022000541710F0CF96089501970895FC01918D11
:10023000828D981761F0A28DAE0FBF2FB11D5D9614
:100240008C91928D9F5F9F73928F90E008958FEFB6
:100250009FEF0895FC01918D828D981731F0828D6A
:10026000E80FF11D858D90E008958FEF9FEF0895C1
:10027000FC01918D228D892F90E0805C9F4F821B25
:1002800091098F7399270895FC01A48DA80FB92FA8
:10029000B11DA35ABF4F2C91848D90E001968F73AE
:1002A0009927848FA689B7892C93A089B1898C91CD
:1002B000837080648C93938D848D981306C002881C
:1002C000F389E02D80818F7D80830895EF92FF92E6
:1002D0000F931F93CF93DF93EC0181E0888F9B8D69
:1002E0008C8D98131AC0E889F989808185FF15C023
:1002F0009FB7F894EE89FF896083E889F989808146
:100300008370806480839FBF81E090E0DF91CF9114
:100310001F910F91FF90EF900895F62E0B8D10E036
:100320000F5F1F4F0F731127E02E8C8D8E110CC0A5
:100330000FB607FCFACFE889F989808185FFF5CFF0
:10034000CE010E944401F1CFEB8DEC0FFD2FF11D8A
:10035000E35AFF4FF0829FB7F8940B8FEA89FB892D
:1003600080818062CFCFCF93DF93EC01888D88238B
:10037000B9F0AA89BB89E889F9898C9185FD03C008
:10038000808186FD0DC00FB607FCF7CF8C9185FFED
:10039000F2CF808185FFEDCFCE010E944401E9CFED
:1003A000DF91CF9108953FB7F894809131019091FA
:1003B0003201A0913301B091340126B5A89B05C04C
:1003C0002F3F19F00196A11DB11D3FBFBA2FA92FD4
:1003D000982F8827BC01CD01620F711D811D911DD1
:1003E00042E0660F771F881F991F4A95D1F708953D
:1003F0008F929F92AF92BF92CF92DF92EF92FF9235
:100400004B015C010E94D3016B017C010E94D3016E
:100410006C197D098E099F09683E7340810591051D
:10042000A8F321E0821A9108A108B10888EEC80E4D
:1004300083E0D81EE11CF11C81149104A104B104D5
:1004400029F7FF90EF90DF90CF90BF90AF909F90F3
:100450008F900895FC0101900020E9F73197AF01DA
:10046000481B590BBC0185E391E00C94DA008F9294
:100470009F92AF92BF920F931F93CF93DF93CDB70D
:10048000DEB7A1970FB6F894DEBF0FBECDBF19A29D
:10049000423008F44AE08E010F5D1F4F842E912CEC
:1004A000B12CA12CA50194010E94C404E62FB9012E
:1004B000CA01EA30F4F4E05DD801EE938D01232BFC
:1004C000242B252B79F790E080E0109719F0CD01CF
:1004D0000E942A02A1960FB6F894DEBF0FBECDBFD0
:1004E000DF91CF911F910F91BF90AF909F908F9010
:1004F0000895E95CE1CFCF92DF92EF92FF92CF9324
:10050000DF936B017C016DE285E391E00E9466015F
:10051000EC0166277727CB016C197D098E099F09AD
:100520004AE00E9437028C0F9D1FDF91CF91FF9010
:10053000EF90DF90CF9008950F931F93CF93DF93A9
:100540008C01D0E0C0E0F801EC0FFD1F6491662340
:1005500041F085E391E00E946601892B11F021961C
:10056000F2CF80E291E00E942A028C0F9D1FDF9162
:10057000CF911F910F9108952AE031E0FC01318362
:10058000208382819381009711F00C94880508954F
:10059000CF93DF93EC010E94BC02CE01DF91CF919B
:1005A0000C9488051F920F920FB60F9211242F936F
:1005B0003F934F935F936F937F938F939F93AF93EB
:1005C000BF93EF93FF9385E391E00E944401FF9175
:1005D000EF91BF91AF919F918F917F916F915F91BB
:1005E0004F913F912F910F900FBE0F901F90189534
:1005F0001F920F920FB60F9211242F938F939F93F8
:10060000EF93FF93E0914501F09146018081E091E5
:100610004B01F0914C0182FD1BC0908180914E01F5
:100620008F5F8F7320914F01821741F0E0914E014F
:10063000F0E0EB5CFE4F958F80934E01FF91EF91C0
:100640009F918F912F910F900FBE0F901F90189533
:100650008081F4CF1F920F920FB60F9211242F9327
:100660003F938F939F93AF93BF9380912D01909170
:100670002E01A0912F01B091300130912C0123E087
:10068000230F2D3758F50196A11DB11D20932C0184
:1006900080932D0190932E01A0932F01B0933001F0
:1006A0008091310190913201A0913301B0913401D8
:1006B0000196A11DB11D8093310190933201A09349
:1006C0003301B0933401BF91AF919F918F913F91CE
:1006D0002F910F900FBE0F901F90189526E8230FB3
:1006E0000296A11DB11DD2CFE5E3F1E01382128283
:1006F00088EE93E0A0E0B0E084839583A683B7837F
:1007000082E191E09183808385EC90E095878487F6
:1007100084EC90E09787868780EC90E0918B808BCB
:1007200081EC90E0938B828B82EC90E0958B848BB4
:1007300086EC90E0978B868B118E128E138E148E22
:100740000895789484B5826084BD84B5816084BD49
:1007500085B5826085BD85B5816085BD80916E005F
:10076000816080936E001092810080918100826090
:1007700080938100809181008160809381008091CD
:1007800080008160809380008091B10084608093BC
:10079000B1008091B00081608093B00080917A00B8
:1007A000846080937A0080917A00826080937A00DE
:1007B00080917A00816080937A0080917A008068CD
:1007C00080937A001092C100E0914501F0914601BA
:1007D00082E08083E0914101F09142011082E0913A
:1007E0004301F09144018FEC808310924D01E09120
:1007F0004901F0914A0186E08083E0914701F09140
:100800004801808180618083E0914701F091480137
:10081000808188608083E0914701F0914801808168
:1008200080688083E0914701F091480180818F7D4D
:100830008083E3EBF0E02491EFE9F0E084918823FA
:1008400099F090E0880F991FFC01E859FF4FA5919E
:10085000B491FC01E857FF4F859194918FB7F894BC
:10086000EC91E22BEC938FBF8BE790E00E949C020F
:100870008BE790E00E949C028BE790E00E949C0234
:100880008BE790E00E949C028BE790E00E949C0224
:100890000AE011E084E1E82EF12CCC24C394D12CA1
:1008A0002AE0A22EB12C80E00E94920087E790E01F
:1008B0000E949C0268EE73E080E090E00E94F801E4
:1008C00081E00E94920082E790E00E949C0264EF27
:1008D00071E080E090E00E94F80180E00E949200C8
:1008E00083E291E00E942A0280E291E00E942A02C3
:1008F00064EF71E080E090E00E94F80181E00E94E6
:10090000920087E291E00E942A0280E291E00E9438
:100910002A0260ED77E080E090E00E94F8014AE072
:100920006FE070E080E090E00E94370280E291E0AA
:100930000E942A0288E090E00E94EC04EC011983F6
:10094000088388E290E00E94EC049B838A83FF8204
:10095000EE82DD82CC82FC01B182A0824AE06AE0B4
:1009600070E080E090E00E94370280E291E00E9417
:100970002A02209709F497CFE881F9810280F38158
:10098000E02DCE0109958FCFA1E21A2EAA1BBB1B29
:10099000FD010DC0AA1FBB1FEE1FFF1FA217B3074B
:1009A000E407F50720F0A21BB30BE40BF50B661F61
:1009B000771F881F991F1A9469F760957095809525
:1009C00090959B01AC01BD01CF010895EE0FFF1F73
:1009D0000590F491E02D09940F931F93CF93DF932B
:1009E0008230910510F482E090E0E091D401F09122
:1009F000D50130E020E0B0E0A0E0309799F4211577
:100A0000310509F44AC0281B390B24303105D8F5CB
:100A10008A819B816115710589F1FB019383828332
:100A2000FE0111C04081518102811381481759078D
:100A3000E0F04817590799F4109761F012960C935B
:100A4000129713961C933296CF01DF91CF911F918D
:100A50000F9108950093D4011093D501F4CF21157F
:100A6000310551F04217530738F0A901DB019A0113
:100A7000BD01DF01F801C1CFEF01F9CF9093D5019E
:100A80008093D401CDCFFE01E20FF31F81939193A8
:100A90002250310939832883D7CF2091D201309158
:100AA000D301232B41F420910201309103013093B3
:100AB000D3012093D2012091000130910101211531
:100AC000310541F42DB73EB7409104015091050125
:100AD000241B350BE091D201F091D301E217F3070B
:100AE000A0F42E1B3F0B2817390778F0AC014E5F9E
:100AF0005F4F2417350748F04E0F5F1F5093D30107
:100B00004093D201819391939FCFF0E0E0E09CCF9E
:100B1000CF93DF930097E9F0FC01329713821282A2
:100B2000A091D401B091D501ED0130E020E0109703
:100B3000A1F420813181820F931F2091D201309145
:100B4000D3012817390709F061C0F093D301E0936E
:100B5000D201DF91CF910895EA01CE17DF07E8F5C2
:100B60004A815B819E0141155105B1F7E901FB8383
:100B7000EA8349915991C40FD51FEC17FD0761F421
:100B8000808191810296840F951FE9019983888362
:100B9000828193819B838A83F0E0E0E012968D91BD
:100BA0009C9113970097B9F52D913C911197CD0128
:100BB0000296820F931F2091D2013091D301281702
:100BC000390739F6309751F51092D5011092D401BA
:100BD000B093D301A093D201BCCFD383C283408111
:100BE0005181840F951FC817D90761F44E5F5F4F7D
:100BF00088819981480F591F518340838A819B8145
:100C0000938382832115310509F0B0CFF093D5018C
:100C1000E093D4019ECFFD01DC01C0CF138212828C
:060C2000D7CFF894FFCFCE
:100C26000000D601800000000000BC02C8020000DF
:100C360000006601DA000701B301380116012A0136
:0C0C46000D0A004C4F5700484947480079
:00000001FF
