:100000000C9435000C945D000C945D000C945D0024
:100010000C945D000C945D000C945D000C945D00EC
:100020000C945D000C945D000C945D000C945D00DC
:100030000C945D000C945D000C945D000C945D00CC
:100040000C9489040C945D000C9457040C943104B6
:100050000C945D000C945D000C945D000C945D00AC
:100060000C945D000C945D00D30411241FBECFEFEF
:10007000D8E0DEBFCDBF22E0AAE9B1E001C01D9209
:10008000A434B207E1F711E0A0E0B1E0E8E3FEE05C
:1000900002C005900D92AA39B107D9F710E0C5E367
:1000A000D0E004C02197FE010E94EF05C433D107C0
:1000B000C9F70E9400050C941A070C940000FC017B
:1000C000538D448D252F30E0842F90E0821B930BBD
:1000D000541710F0CF96089501970895FC01918D63
:1000E000828D981761F0A28DAE0FBF2FB11D5D9666
:1000F0008C91928D9F5F9F73928F90E008958FEF08
:100100009FEF0895FC01918D828D981731F0828DBB
:10011000E80FF11D858D90E008958FEF9FEF089512
:10012000FC01918D228D892F90E0805C9F4F821B76
:1001300091098F7399270895FC01A48DA80FB92FF9
:10014000B11DA35ABF4F2C91848D90E001968F73FF
:100150009927848FA689B7892C93A089B1898C911E
:10016000837080648C93938D848D981306C002886D
:10017000F389E02D80818F7D80830895EF92FF9237
:100180000F931F93CF93DF93EC0181E0888F9B8DBA
:100190008C8D98131AC0E889F989808185FF15C074
:1001A0009FB7F894EE89FF896083E889F989808197
:1001B0008370806480839FBF81E090E0DF91CF9166
:1001C0001F910F91FF90EF900895F62E0B8D10E088
:1001D0000F5F1F4F0F731127E02E8C8D8E110CC0F7
:1001E0000FB607FCFACFE889F989808185FFF5CF42
:1001F000CE010E949C00F1CFEB8DEC0FFD2FF11D85
:10020000E35AFF4FF0829FB7F8940B8FEA89FB897E
:1002100080818062CFCFCF93DF93EC01888D8823DC
:10022000B9F0AA89BB89E889F9898C9185FD03C059
:10023000808186FD0DC00FB607FCF7CF8C9185FF3E
:10024000F2CF808185FFEDCFCE010E949C00E9CFE7
:10025000DF91CF910895AF92BF92CF92DF92EF924C
:10026000FF920F931F93CF93DF936C017B018B0160
:10027000040F151FEB015E01AE18BF08C017D107B0
:1002800059F06991D601ED91FC910190F081E02D3A
:10029000C6010995892B79F7C501DF91CF911F918F
:1002A0000F91FF90EF90DF90CF90BF90AF900895A7
:1002B0000F931F93660F771FFC01E60FF71F220FA6
:1002C000331FDA01A20FB31F90E080E0801791077F
:1002D00034F4219131912D933D930196F7CF1F91E5
:1002E0000F91089590E080E00895DC0114962D911F
:1002F0003C911597621773074CF4ED91FC91028CB9
:10030000F38DE02D0995BC0181E0089560E070E077
:1003100080E0089508970C947501DC01ED91FC9143
:100320000190F081E02D099408970C948D01FC0157
:1003300086819781880F991F0895FC01848195819A
:100340000895CF92DF92EF92FF920F931F93CF9376
:10035000DF936C01EB01DC01ED91FC910190F081E8
:10036000E02D09957C01F6010481158101501109E8
:1003700015830483828193810C1B1D0BBE016F5F6B
:100380007F4F9E01AC010E945801C701DF91CF91C0
:100390001F910F91FF90EF90DF90CF900895DC01B7
:1003A00014962D913C911597621773074CF4ED91BB
:1003B000FC910088F189E02D0995BC0181E0089548
:1003C00060E070E080E00895CF92DF92EF92FF92BC
:1003D0000F931F93CF93DF937C018B01D0E0C0E09C
:1003E000D801ED91FC910488F589E02DC8010995AB
:1003F000C817D907A4F4D701ED91FC91C680D78026
:10040000D801ED91FC910190F081E02DBE01C80171
:100410000995BC01C701F60109952196E1CFDF914D
:10042000CF911F910F91FF90EF90DF90CF900895A3
:10043000FC0124813581121613067CF42150310908
:1004400035832483220F331F0280F381E02DE20FD6
:10045000F31F6081718181E0089560E070E080E0C9
:100460000895FC0124813581621773075CF4660FDF
:10047000771F82819381680F791FFB01518340832D
:1004800080E0089581E00895660F771FDC011296E1
:10049000ED91FC91E60FF71F808191810895FC0199
:1004A00001900020E9F73197AF01481B590BBC01BF
:1004B00083EA91E00C942B010F931F93CF93DF936A
:1004C000CDB7DEB7A1970FB6F894DEBF0FBECDBF94
:1004D000AC0170E060E019A2CE0181968A019B0117
:1004E0000F7011272227332724E0769567955795BB
:1004F00047952A95D1F70A300CF5005DFC0102936F
:10050000CF01411551056105710541F710E000E08B
:10051000EF2B19F00E944F028C0180E691E00E94BF
:100520004F02800F911FA1960FB6F894DEBF0FBE49
:10053000CDBFDF91CF911F910F910895095CDECF60
:10054000CF93DF93EC018AE091E09983888383E67F
:1005500091E00E944F02CE010E945C028A819B8141
:10056000009721F0DF91CF910C949106DF91CF910C
:1005700008950F931F93CF93DF93DC011296ED91B3
:10058000FC91309729F1208131812150310931834B
:100590002083232BE9F4EC01088119810115110551
:1005A00079F088E291E0F801918380838AE491E018
:1005B00091878087C8010E94A002C8010E9491060D
:1005C0008A819B81DF91CF911F910F910C949106AD
:1005D000DF91CF911F910F910895CF92DF92EF920B
:1005E000FF920F931F93CF93DF936B017A018901E1
:1005F0008AE090E00E94F505EC018AE091E09983A1
:100600008883DB82CA82FD82EC821F830E8387E7A8
:1006100091E00E944F02CE010E945C0288E291E0CC
:10062000998388838AE491E099878887CE01DF9156
:10063000CF911F910F91FF90EF90DF90CF90089591
:10064000EF92FF920F931F93CF93DF93EC010C81F6
:100650001D818E819F8108171907F1F4C801059645
:100660009F838E83811520E49207E8F4880F991FF9
:100670000E94F5057C0130E020E0AC0170E060E014
:100680008A819B810E9458018A819B81009711F089
:100690000E949106FB82EA82DF91CF911F910F9118
:1006A000FF90EF9008958FEF9FEFE2CFEF92FF92D0
:1006B0000F931F93CF93DF93EC017B018C819D817E
:1006C00001969D838C83CE010E9420038A819B81A9
:1006D0000C811D810E191F090250110997012F5F0E
:1006E0003F4FAC01B7010E945801DF91CF911F919C
:1006F0000F91FF90EF9008950F931F93CF93DF9387
:10070000EC018B018C819D8101969D838C83CE01B0
:100710000E9420038C819D8181509048880F991FF1
:100720002A813B81820F931FFC0111830083DF919B
:10073000CF911F910F9108956F927F928F929F9208
:10074000AF92BF92CF92DF92EF92FF920F931F93DF
:10075000CF93DF936C013B014A01E901C41BD50B28
:100760007E0185E0E80EF11CC701880F991FE11496
:10077000A0E4FA0610F08FEF9FEF0E94F5055C01F0
:100780008E0130E020E0AC01B401F301828193815D
:100790000E945801D301ED91FC91008CF18DE02D68
:1007A0009701AE01B501C3010995F60191838083DC
:1007B000C601DF91CF911F910F91FF90EF90DF90D5
:1007C000CF90BF90AF909F908F907F906F90089543
:1007D000CF93DF93EC010E94A00284E190E00E949D
:1007E000F5059C012C5E3F4FFC0111921192E2171E
:1007F000F307D9F79B838A831D821C828AE090E0ED
:100800009F838E83DF91CF910895CF93DF93EC0187
:100810008AE091E0998388831B821A821D821C8260
:100820001F821E8285E891E00E944F02CE010E9445
:100830005C0284E190E00E94F5059C012C5E3F4F34
:10084000FC0111921192E217F307D9F79B838A8377
:100850001D821C828AE090E09F838E83DF91CF917E
:1008600008951F920F920FB60F9211242F933F936A
:100870004F935F936F937F938F939F93AF93BF93A8
:10088000EF93FF9383EA91E00E949C00FF91EF9128
:10089000BF91AF919F918F917F916F915F914F9198
:1008A0003F912F910F900FBE0F901F9018951F92A0
:1008B0000F920FB60F9211242F938F939F93EF9364
:1008C000FF93E091B301F091B4018081E091B9010F
:1008D000F091BA0182FD1BC090818091BC018F5FB5
:1008E0008F732091BD01821741F0E091BC01F0E0CF
:1008F000ED55FE4F958F8093BC01FF91EF919F9135
:100900008F912F910F900FBE0F901F90189580819F
:10091000F4CF1F920F920FB60F9211242F933F9393
:100920008F939F93AF93BF9380919F019091A0016C
:10093000A091A101B091A20130919E0123E0230F6B
:100940002D3758F50196A11DB11D20939E0180936E
:100950009F019093A001A093A101B093A201809167
:100960009A0190919B01A0919C01B0919D010196EB
:10097000A11DB11D80939A0190939B01A0939C01AE
:10098000B0939D01BF91AF919F918F913F912F9116
:100990000F900FBE0F901F90189526E8230F029618
:1009A000A11DB11DD2CFE3EAF1E01382128288EEDD
:1009B00093E0A0E0B0E084839583A683B78382E5CB
:1009C00091E09183808385EC90E09587848784EC27
:1009D00090E09787868780EC90E0918B808B81EC0C
:1009E00090E0938B828B82EC90E0958B848B86ECED
:1009F00090E0978B868B118E128E138E148E089535
:100A0000AF92BF92CF92DF92EF92FF920F931F931C
:100A1000CF93DF93CDB7DEB760970FB6F894DEBF04
:100A20000FBECDBF789484B5826084BD84B58160EB
:100A300084BD85B5826085BD85B5816085BD8091A9
:100A40006E00816080936E00109281008091810021
:100A50008260809381008091810081608093810019
:100A6000809180008160809380008091B1008460DB
:100A70008093B1008091B00081608093B00080913C
:100A80007A00846080937A0080917A0082608093FB
:100A90007A0080917A00816080937A0080917A0058
:100AA000806880937A001092C1008AE090E00E94F2
:100AB000F5058C010E94050488E2A82E81E0B82E7D
:100AC000F801B182A0829AE4C92E91E0D92ED18694
:100AD000C0861E870D8782E090E00E94F505988B06
:100AE0008F87EE24E394F12CFC01F182E0828AE00E
:100AF00090E00E94F5058C010E940504F801B18286
:100B0000A082D186C0861A87098782E090E00E9481
:100B1000F5059C878B87FC01F182E0828D859E859F
:100B20009A838983EF85F889FC83EB83309729F0DA
:100B3000808191810196918380831E821D8282E053
:100B400090E00E94F50598878F8321E030E0FC015A
:100B500031832083CE0105960E94B90289819A8152
:100B60009E838D83EB81FC81F887EF838081918167
:100B7000019691838083CE0101960E94B902CE0135
:100B800005960E94B90289859A859E838D83EB859F
:100B9000FC85F887EF838081918101969183808322
:100BA000CE0105960E94B902CE0109960E94B902B3
:100BB000CE010D960E94B90290E080E060960FB6DB
:100BC000F894DEBF0FBECDBFDF91CF911F910F9183
:100BD000FF90EF90DF90CF90BF90AF900895EE0F11
:100BE000FF1F0590F491E02D09940F931F93CF936D
:100BF000DF938230910510F482E090E0E0914202B0
:100C0000F091430230E020E0B0E0A0E0309799F4AA
:100C10002115310509F44AC0281B390B2430310550
:100C2000D8F58A819B816115710589F1FB01938358
:100C30008283FE0111C040815181028113814817D6
:100C40005907E0F04817590799F4109761F0129688
:100C50000C93129713961C933296CF01DF91CF918C
:100C60001F910F9108950093420210934302F4CF15
:100C70002115310551F04217530738F0A901DB0166
:100C80009A01BD01DF01F801C1CFEF01F9CF9093C7
:100C9000430280934202CDCFFE01E20FF31F819306
:100CA00091932250310939832883D7CF2091400274
:100CB00030914102232B41F4209102013091030134
:100CC00030934102209340022091000130910101B4
:100CD0002115310541F42DB73EB7409104015091E3
:100CE0000501241B350BE0914002F0914102E2170F
:100CF000F307A0F42E1B3F0B2817390778F0AC013F
:100D00004E5F5F4F2417350748F04E0F5F1F50931B
:100D1000410240934002819391939FCFF0E0E0E045
:100D20009CCFCF93DF930097E9F0FC0132971382B9
:100D30001282A0914202B0914302ED0130E020E026
:100D40001097A1F420813181820F931F20914002DE
:100D5000309141022817390709F061C0F093410230
:100D6000E0934002DF91CF910895EA01CE17DF07AB
:100D7000E8F54A815B819E0141155105B1F7E90112
:100D8000FB83EA8349915991C40FD51FEC17FD07E6
:100D900061F4808191810296840F951FE901998306
:100DA0008883828193819B838A83F0E0E0E01296BE
:100DB0008D919C9113970097B9F52D913C911197C6
:100DC000CD010296820F931F209140023091410283
:100DD0002817390739F6309751F5109243021092CF
:100DE0004202B0934102A0934002BCCFD383C2839E
:100DF00040815181840F951FC817D90761F44E5F58
:100E00005F4F88819981480F591F518340838A81A0
:100E10009B81938382832115310509F0B0CFF09334
:100E20004302E09342029ECFFD01DC01C0CF13825A
:080E30001282D7CFF894FFCF26
:100E38000000440280000000000044023102180251
:100E48007C035603E401E803CF01A1019C039D0143
:100E580097017201000000004402310218027C036D
:100E68005603E401E803CF01A1019C039D0197010A
:100E7800ED028D017501F8FF000094018A01000060
:100E88000000BE002B015F000B0190006E00820085
:100E98000D0A004465616C6C6F63617465206D6553
:100EA8006D6F72793A2000436F6E73747275637454
:100EB8006F723A2000456D70747920636F6E737499
:0A0EC800727563746F723A20000027
:107E0000112484B714BE81FFF0D085E080938100F7
:107E100082E08093C00088E18093C10086E0809377
:107E2000C20080E18093C4008EE0C9D0259A86E02C
:107E300020E33CEF91E0309385002093840096BBD3
:107E4000B09BFECF1D9AA8958150A9F7CC24DD24C4
:107E500088248394B5E0AB2EA1E19A2EF3E0BF2EE7
:107E6000A2D0813461F49FD0082FAFD0023811F036
:107E7000013811F484E001C083E08DD089C08234E0
:107E800011F484E103C0853419F485E0A6D080C0E4
:107E9000853579F488D0E82EFF2485D0082F10E0AE
:107EA000102F00270E291F29000F111F8ED06801E7
:107EB0006FC0863521F484E090D080E0DECF843638
:107EC00009F040C070D06FD0082F6DD080E0C81688
:107ED00080E7D80618F4F601B7BEE895C0E0D1E017
:107EE00062D089930C17E1F7F0E0CF16F0E7DF06D8
:107EF00018F0F601B7BEE89568D007B600FCFDCFD4
:107F0000A601A0E0B1E02C9130E011968C91119780
:107F100090E0982F8827822B932B1296FA010C0160
:107F200087BEE89511244E5F5F4FF1E0A038BF0790
:107F300051F7F601A7BEE89507B600FCFDCF97BE46
:107F4000E89526C08437B1F42ED02DD0F82E2BD052
:107F50003CD0F601EF2C8F010F5F1F4F84911BD097
:107F6000EA94F801C1F70894C11CD11CFA94CF0C13
:107F7000D11C0EC0853739F428D08EE10CD085E9AC
:107F80000AD08FE07ACF813511F488E018D01DD067
:107F900080E101D065CF982F8091C00085FFFCCF94
:107FA0009093C60008958091C00087FFFCCF809118
:107FB000C00084FD01C0A8958091C6000895E0E648
:107FC000F0E098E1908380830895EDDF803219F02E
:107FD00088E0F5DFFFCF84E1DECF1F93182FE3DFCA
:107FE0001150E9F7F2DF1F91089580E0E8DFEE27F6
:047FF000FF270994CA
:027FFE00040479
:0400000300007E007B
:00000001FF
