:1000000072C000009EC000009CC000009AC00000AA
:1000100098C0000096C0000094C0000092C000008C
:1000200090C000008EC000008CC000008AC000009C
:1000300088C0000086C0000084C0000082C00000AC
:1000400080C000007EC000007CC000007AC00000BC
:1000500078C0000076C0000074C0000063C40000D7
:1000600070C0000029C40000FEC300006AC0000088
:1000700068C0000066C0000064C0000062C00000EC
:1000800060C000005EC000005CC000005AC00000FC
:1000900058C0000056C0000054C0000052C000000C
:1000A00050C000004EC000004CC000004AC000001C
:1000B00048C0000046C0000044C0000042C000002C
:1000C00040C000003EC000003CC000003AC000003C
:1000D00038C0000036C0000034C0000032C000004C
:1000E00030C00000DC0411241FBECFEFD1E2DEBF20
:1000F000CDBF00E00CBF12E0A0E0B2E0E4E6FEE01D
:1001000000E00BBF02C007900D92A436B107D9F7EB
:1001100023E0A4E6B2E001C01D92AE30B207E1F7E1
:1001200010E0C3E7D0E000E005C021970109802F6F
:10013000FE018ED6C237D10780E00807B1F769D437
:100140008FC65ECFFC01538D448D252F30E0842F68
:1001500090E0821B930B541710F0CF9608950197EF
:100160000895FC01918D828D981761F0A28DAE0FDC
:10017000BF2FB11D5D968C91928D9F5F9F73928F63
:1001800090E008958FEF9FEF0895FC01918D828D8F
:10019000981731F0828DE80FF11D858D90E008955C
:1001A0008FEF9FEF0895FC01918D228D892F90E0B4
:1001B000805C9F4F821B91098F7399270895FC01E2
:1001C000A48DA80FB92FB11DA35ABF4F2C91848DB8
:1001D00090E001968F739927848FA689B7892C9315
:1001E000A089B1898C91837080648C93938D848D68
:1001F000981306C00288F389E02D80818F7D80836B
:100200000895EF92FF920F931F93CF93DF93EC012A
:1002100081E0888F9B8D8C8D98131AC0E889F989AD
:10022000808185FF15C09FB7F894EE89FF896083B0
:10023000E889F98980818370806480839FBF81E031
:1002400090E0DF91CF911F910F91FF90EF90089573
:10025000F62E0B8D10E00F5F1F4F0F731127E02E4E
:100260008C8D8E110BC00FB607FCFACFE889F98987
:10027000808185FFF5CFCE01A2DFF2CFEB8DEC0FB1
:10028000FD2FF11DE35AFF4FF0829FB7F8940B8FBB
:10029000EA89FB8980818062D0CFCF93DF93EC0124
:1002A000888D8823B1F0AA89BB89E889F9898C9166
:1002B00085FD03C0808186FD0CC00FB607FCF7CF1B
:1002C0008C9185FFF2CF808185FFEDCFCE0177DF66
:1002D000EACFDF91CF910895AF92BF92CF92DF9294
:1002E000EF92FF920F931F93CF93DF936C017B01EB
:1002F0008B01040F151FEB015E01AE18BF08C0177C
:10030000D10759F06991D601ED91FC910190F081EE
:10031000E02DC6011995892B79F7C501DF91CF91A1
:100320001F910F91FF90EF90DF90CF90BF90AF9013
:1003300008950F931F93660F771FFC01E60FF71FB9
:10034000220F331FDA01A20FB31F90E080E0801765
:10035000910734F4219131912D933D930196F7CF7C
:100360001F910F91089590E080E00895DC011696AA
:100370002D913C911797621773074CF4ED91FC9106
:10038000028CF38DE02D1995BC0181E0089560E0A9
:1003900070E080E008950A97E9CFDC01ED91FC91CF
:1003A0000190F081E02D19940A97F7CFFC01808528
:1003B0009185880F991F0895FC0186819781089582
:1003C000CF92DF92EF92FF920F931F93CF93DF9321
:1003D0006C01EB01DC01ED91FC910190F081E02DCD
:1003E00019957C01F60106811781015011091783C7
:1003F0000683828193810C1B1D0BBE016F5F7F4FB3
:100400009E01AC0196DFC701DF91CF911F910F9143
:10041000FF90EF90DF90CF900895DC0116962D911C
:100420003C911797621773074CF4ED91FC9100888B
:10043000F189E02D1995BC0181E0089560E070E03C
:1004400080E00895CF92DF92EF92FF920F931F9377
:10045000CF93DF937C018B01D0E0C0E0D801ED9118
:10046000FC910488F589E02DC8011995C817D907B2
:10047000A4F4D701ED91FC91C680D780D801ED910D
:10048000FC910190F081E02DBE01C8011995BC01DD
:10049000C701F60119952196E1CFDF91CF911F9108
:1004A0000F91FF90EF90DF90CF900895FC0126818F
:1004B0003781121613067CF42150310937832683C5
:1004C000220F331F0280F381E02DE20FF31F6081C2
:1004D000718181E0089560E070E080E00895FC01A2
:1004E00026813781621773075CF4660F771F82815C
:1004F0009381680F791FFB015183408380E0089549
:1005000081E00895660F771FDC011296ED91FC9152
:10051000E60FF71F8081918108958F929F92AF928D
:10052000BF920F931F93CF93DF93CDB7DEB7A19701
:100530000FB6F894DEBF0FBECDBF19A2423008F44B
:100540004AE08E010F5D1F4F842E912CB12CA12CFF
:10055000A50194015BD4E62FB901CA01EA303CF54C
:10056000E05DD801EE938D01232B242B252B81F701
:1005700090E080E0109761F0FD0101900020E9F724
:100580003197AF014A1B5B0BBD018DE692E0A4DE03
:10059000A1960FB6F894DEBF0FBECDBFDF91CF910D
:1005A0001F910F91BF90AF909F908F900895E95C3D
:1005B000D8CFCF93DF93DC011496ED91FC9120818D
:1005C00031812150310931832083232B49F4EC01FF
:1005D0008A819B8192D38C819D81DF91CF918DC344
:1005E000DF91CF9108950F931F93CF93DF93DC0199
:1005F0001296ED91FC912081318121503109318396
:100600002083232BD1F4EC010881198101151105F8
:1006100069F08AE492E0F801938782878AE092E0A9
:1006200091838083C801C5DFC80167D38A819B811C
:10063000DF91CF911F910F9160C3DF91CF911F91F7
:100640000F910895EF92FF920F931F93CF93DF9333
:10065000EC010E811F818885998508171907D9F447
:10066000C801059699878887811520E49207D0F400
:10067000880F991FA6D27C0130E020E0AC0170E029
:1006800060E08A819B8155DE8A819B81009709F019
:1006900034D3FB82EA82DF91CF911F910F91FF90BB
:1006A000EF9008958FEF9FEFE5CFEF92FF920F93BA
:1006B0001F93CF93DF93EC017B018E819F81019685
:1006C0009F838E83CE01BEDF8A819B810E811F8135
:1006D0000E191F090250110997012F5F3F4FAC01FE
:1006E000B70127DEDF91CF911F910F91FF90EF901F
:1006F00008950F931F93CF93DF93EC018B018E81AD
:100700009F8101969F838E83CE019CDF8E819F8186
:1007100081509048880F991F2A813B81820F931F37
:10072000FC0111830083DF91CF911F910F910895F8
:10073000CF92DF92EF92FF920F931F93CF93DF93AD
:100740006B017A0189018CE090E03BD2EC01DB8205
:10075000CA82FF82EE821987088782E090E031D258
:100760009D838C8321E030E0FC013183208388E28B
:1007700092E0998388838AE492E09B878A87CE01FE
:10078000DF91CF911F910F91FF90EF90DF90CF906D
:1007900008956F927F928F929F92AF92BF92CF9265
:1007A000DF92EF92FF920F931F93CF93DF936C0131
:1007B0003B014A01E901C41BD50B7E0185E0E80E2F
:1007C000F11CC701880F991FE114A0E4FA0610F08C
:1007D0008FEF9FEFF6D15C018E0130E020E0AC019D
:1007E000B401F30182819381A4DDD301ED91FC91E9
:1007F000008CF18DE02D9701AE01B501C301199573
:10080000F60191838083C601DF91CF911F910F91F3
:10081000FF90EF90DF90CF90BF90AF909F908F9020
:100820007F906F900895CF93DF93EC018AE092E080
:1008300099838883CE01BDDE84E190E0C2D19C0122
:100840002C5E3F4FFC0111921192E217F307D9F78A
:100850009B838A831F821E828AE090E09987888723
:10086000DF91CF9108951F920F920FB60F9211242E
:100870000BB60F922F933F934F935F936F937F939A
:100880008F939F93AF93BF93EF93FF938DE692E087
:1008900096DCFF91EF91BF91AF919F918F917F91E6
:1008A0006F915F914F913F912F910F900BBE0F90E1
:1008B0000FBE0F901F9018951F920F920FB60F92B8
:1008C00011240BB60F922F938F939F93EF93FF9367
:1008D000E0917D02F0917E028081E0918302F091AF
:1008E000840282FD1DC09081809186028F5F8F738C
:1008F00020918702821741F0E0918602F0E0E359EF
:10090000FD4F958F80938602FF91EF919F918F917C
:100910002F910F900BBE0F900FBE0F901F90189548
:100920008081F2CF1F920F920FB60F9211242F9356
:100930003F938F939F93AF93BF9380916902909160
:100940006A02A0916B02B0916C023091680223E0C0
:10095000230F2D3758F50196A11DB11D2093680274
:100960008093690290936A02A0936B02B0936C0229
:100970008091640290916502A0916602B091670235
:100980000196A11DB11D8093640290936502A0930E
:100990006602B0936702BF91AF919F918F913F9193
:1009A0002F910F900FBE0F901F90189526E8230FE0
:1009B0000296A11DB11DD2CFEDE6F2E013821282A4
:1009C00088EE93E0A0E0B0E084839583A683B783AC
:1009D00082E592E09183808385EC90E0958784871F
:1009E00084EC90E09787868780EC90E0918B808BF9
:1009F00081EC90E0938B828B82EC90E0958B848BE2
:100A000086EC90E0978B868B118E128E138E148E4F
:100A10000895AF92BF92CF92DF92EF92FF920F9321
:100A20001F93CF93DF9300D000D01F921F92CDB7BA
:100A3000DEB7789484B5826084BD84B5816084BD5E
:100A400085B5826085BD85B5816085BD80916E006C
:100A5000816080936E00109281008091810082609D
:100A600080938100809181008160809381008091DA
:100A700080008160809380008091B10084608093C9
:100A8000B1008091B00081608093B00080919100AE
:100A900082608093910080919100816080939100A9
:100AA000809190008160809390008091A10082608D
:100AB0008093A1008091A10081608093A10080912A
:100AC000A00081608093A0008091210182608093CA
:100AD0002101809121018160809321018091200179
:100AE00081608093200180917A00846080937A00F5
:100AF00080917A00826080937A0080917A00816090
:100B000080937A0080917A00806880937A001092B6
:100B1000C1001A82198282E090E053D09C838B83BB
:100B20001E821D8298878F8322E030E0FC01318392
:100B30002083CE01019657DDED81FE810281138174
:100B4000A680B780AA0CBB1CA00EB11EA016B106D1
:100B500011F1F801C190D1908F010D2C000CEE081D
:100B6000FF084AE0C701B601F7FE0CC06DE28DE652
:100B700092E047DB66277727CB016C197D098E0948
:100B80009F094AE0CADC42E050E060E672E08DE690
:100B900092E0A2DBDBCFCE01059625DD90E080E080
:100BA00028960FB6F894DEBF0FBECDBFDF91CF9170
:100BB0001F910F91FF90EF90DF90CF90BF90AF907B
:100BC00008950F931F93CF93DF938230910510F414
:100BD00082E090E0E0910C03F0910D0330E020E022
:100BE000B0E0A0E0309799F42115310509F44AC02E
:100BF000281B390B24303105D8F58A819B8161157A
:100C0000710589F1FB0193838283FE0111C040814C
:100C100051810281138148175907E0F0481759079D
:100C200099F4109761F012960C93129713961C93F7
:100C30003296CF01DF91CF911F910F9108950093CC
:100C40000C0310930D03F4CF2115310551F0421719
:100C5000530738F0A901DB019A01BD01DF01F8015A
:100C6000C1CFEF01F9CF90930D0380930C03CDCF4B
:100C7000FE01E20FF31F81939193225031093983D2
:100C80002883D7CF20910A0330910B03232B41F403
:100C9000209102023091030230930B0320930A0348
:100CA00020910002309101022115310541F42DB748
:100CB0003EB74091040250910502241B350BE09190
:100CC0000A03F0910B03E217F307A0F42E1B3F0B6E
:100CD0002817390778F0AC014E5F5F4F24173507AE
:100CE00048F04E0F5F1F50930B0340930A0381930C
:100CF00091939FCFF0E0E0E09CCFCF93DF930097FC
:100D0000E9F0FC01329713821282A0910C03B0919A
:100D10000D03ED0130E020E01097A1F42081318136
:100D2000820F931F20910A0330910B032817390774
:100D300009F061C0F0930B03E0930A03DF91CF91B8
:100D40000895EA01CE17DF07E8F54A815B819E012D
:100D500041155105B1F7E901FB83EA8349915991A6
:100D6000C40FD51FEC17FD0761F4808191810296B5
:100D7000840F951FE90199838883828193819B83E6
:100D80008A83F0E0E0E012968D919C911397009792
:100D9000B9F52D913C911197CD010296820F931FC9
:100DA00020910A0330910B032817390739F6309741
:100DB00051F510920D0310920C03B0930B03A09306
:100DC0000A03BCCFD383C28340815181840F951F16
:100DD000C817D90761F44E5F5F4F88819981480F2A
:100DE000591F518340838A819B819383828321157C
:100DF000310509F0B0CFF0930D03E0930C039ECFC3
:100E0000FD01DC01C0CF13821282D7CFA1E21A2EDE
:100E1000AA1BBB1BFD010DC0AA1FBB1FEE1FFF1F9E
:100E2000A217B307E407F50720F0A21BB30BE40BEE
:100E3000F50B661F771F881F991F1A9469F7609535
:100E40007095809590959B01AC01BD01CF010895EF
:100E5000EE0FFF1F881F8BBF0790F691E02D1994AE
:040E6000F894FFCF34
:100E640000000E0380000000000082026F025602A0
:100E740079035503220213040D02E001C903DC01C6
:100E8400D601B3010000000082026F02560279030A
:100E94005503220213040D02E001C903DC01D6014B
:100EA4009803CD01B601F6FF0000D401CB01000088
:100EB400000001016C01A2004D01D300B100C50086
:040EC4000D0A000013
:00000001FF
