:100000000C9435000C945D000C945D000C945D0024
:100010000C945D000C945D000C945D000C945D00EC
:100020000C945D000C945D000C945D000C945D00DC
:100030000C945D000C945D000C945D000C945D00CC
:100040000C94B0010C945D000C947E010C9458014A
:100050000C945D000C945D000C945D000C945D00AC
:100060000C945D000C945D00FA0111241FBECFEFCB
:10007000D8E0DEBFCDBF11E0A0E0B1E0E8EEF4E0F3
:1000800002C005900D92A232B107D9F721E0A2E299
:10009000B1E001C01D92A83CB207E1F710E0C5E352
:1000A000D0E004C02197FE010E946C02C433D10746
:1000B000C9F70E9427020C9472020C940000FC0104
:1000C000538D448D252F30E0842F90E0821B930BBD
:1000D000541710F0CF96089501970895FC01918D63
:1000E000828D981761F0A28DAE0FBF2FB11D5D9666
:1000F0008C91928D9F5F9F73928F90E008958FEF08
:100100009FEF0895FC01918D828D981731F0828DBB
:10011000E80FF11D858D90E008958FEF9FEF089512
:10012000FC01918D228D892F90E0805C9F4F821B76
:1001300091098F7399270895FC01A48DA80FB92FF9
:10014000B11DA35ABF4F2C91848D90E001968F73FF
:100150009927848FA689B7892C93A089B1898C911E
:10016000837080648C93938D848D981306C002886D
:10017000F389E02D80818F7D80830895EF92FF9237
:100180000F931F93CF93DF93EC0181E0888F9B8DBA
:100190008C8D98131AC0E889F989808185FF15C074
:1001A0009FB7F894EE89FF896083E889F989808197
:1001B0008370806480839FBF81E090E0DF91CF9166
:1001C0001F910F91FF90EF900895F62E0B8D10E088
:1001D0000F5F1F4F0F731127E02E8C8D8E110CC0F7
:1001E0000FB607FCFACFE889F989808185FFF5CF42
:1001F000CE010E949C00F1CFEB8DEC0FFD2FF11D85
:10020000E35AFF4FF0829FB7F8940B8FEA89FB897E
:1002100080818062CFCFCF93DF93EC01888D8823DC
:10022000B9F0AA89BB89E889F9898C9185FD03C059
:10023000808186FD0DC00FB607FCF7CF8C9185FF3E
:10024000F2CF808185FFEDCFCE010E949C00E9CFE7
:10025000DF91CF910895AF92BF92CF92DF92EF924C
:10026000FF920F931F93CF93DF936C017B018B0160
:10027000040F151FEB015E01AE18BF08C017D107B0
:1002800059F06991D601ED91FC910190F081E02D3A
:10029000C6010995892B79F7C501DF91CF911F918F
:1002A0000F91FF90EF90DF90CF90BF90AF900895A7
:1002B0001F920F920FB60F9211242F933F934F93DB
:1002C0005F936F937F938F939F93AF93BF93EF93BE
:1002D000FF938BE291E00E949C00FF91EF91BF9110
:1002E000AF919F918F917F916F915F914F913F91CE
:1002F0002F910F900FBE0F901F9018951F920F9285
:100300000FB60F9211242F938F939F93EF93FF9328
:10031000E0913B01F0913C018081E0914101F0913D
:10032000420182FD1BC09081809144018F5F8F73D9
:1003300020914501821741F0E0914401F0E0E55D34
:10034000FE4F958F80934401FF91EF919F918F9184
:100350002F910F900FBE0F901F9018958081F4CFB2
:100360001F920F920FB60F9211242F933F938F93EA
:100370009F93AF93BF938091270190912801A09103
:100380002901B0912A013091260123E0230F2D3756
:1003900058F50196A11DB11D2093260180932701D8
:1003A00090932801A0932901B0932A018091220102
:1003B00090912301A0912401B09125010196A11DE6
:1003C000B11D8093220190932301A0932401B09347
:1003D0002501BF91AF919F918F913F912F910F90E8
:1003E0000FBE0F901F90189526E8230F0296A11DAF
:1003F000B11DD2CFEBE2F1E01382128288EE93E0DE
:10040000A0E0B0E084839583A683B78384E091E085
:100410009183808385EC90E09587848784EC90E0DD
:100420009787868780EC90E0918B808B81EC90E0C1
:10043000938B828B82EC90E0958B848B86EC90E0A2
:10044000978B868B118E128E138E148E089578944E
:1004500084B5826084BD84B5816084BD85B58260C9
:1004600085BD85B5816085BDEEE6F0E08081816067
:100470008083E1E8F0E01082808182608083808167
:1004800081608083E0E8F0E0808181608083E1EB3F
:10049000F0E0808184608083E0EBF0E08081816027
:1004A0008083EAE7F0E080818460808380818260DD
:1004B00080838081816080838081806880831092C6
:1004C000C1004FE050E062E171E08BE291E00E94F8
:1004D0002B0190E080E00895EE0FFF1F0590F4914E
:0804E000E02D0994F894FFCF10
:1004E80000000000BE002B015F000B0190006E00B1
:1004F8008200537472696E67206C69746572616CEE
:020508000A00E7
:00000001FF
